:020000040800F2
:10000000C045002061020008692900081F27000878
:1000100065290008B9090008C13700080000000080
:10002000000000000000000000000000A101000826
:10003000B50A000800000000FD01000801310008B9
:100040007B0200087B0200087B0200087B0200089C
:100050007B0200087B0200087B0200087B0200088C
:100060007B0200087B0200087B0200087B0200087C
:100070007B0200087B0200087B0200087B0200086C
:100080007B0200087B0200087B0200087B0200085C
:100090007B0200087B0200087B0200087B0200084C
:1000A0007B020008FD3100087B0200087B0200088B
:1000B0007B0200087B0200087B0200087B0200082C
:1000C0007B0200087B0200087B0200087B0200081C
:1000D0007B0200087B0200087B020008B1370008A1
:1000E0007B0200087B0200087B0200087B020008FC
:1000F0007B0200087B0200087B0200087B020008EC
:100100007B0200087B0200087B0200087B020008DB
:10011000ED3200087B0200087B0200087B02000829
:100120007B0200087B0200087B0200087B020008BB
:100130007B02000800000000000000007B020008B5
:100140007B0200087B0200087B0200087B0200089B
:100150007B0200087B0200087B0200087B0200088B
:100160007B0200087B0200087B0200087B0200087B
:100170007B0200087B020008000000000000000075
:100180007B0200087B020008DFF810D000F0E2FAE2
:1001900000480047DD480008AFF30080C04500205C
:1001A0002C4B19680868B0E8F04F80F30988BFF35A
:1001B0006F8F4FF0000080F311887047000000003F
:1001C00008480068006880F308884FF0000080F35A
:1001D000148862B661B6BFF34F8FBFF36F8F00DF35
:1001E00000BF00BF08ED00E0DFF80C00016841F43B
:1001F00070010160704700BF88ED00E0EFF30980F7
:10020000BFF36F8F134B1A681EF0100F08BF20ED5D
:10021000108A20E9F04F106009B44FF0500080F3CD
:100220001188BFF34F8FBFF36F8F06F0C7FA4FF0FF
:10023000000080F3118809BC19680868B0E8F04F25
:100240001EF0100F08BFB0EC108A80F30988BFF3CE
:100250006F8F704718000020EFF305807047000093
:100260000648804706480047FEE7FEE7FEE7FEE750
:10027000FEE7FEE7FEE7FEE7FEE7FEE7E9310008FE
:10028000890100082DE9F05F0546002092469B4653
:1002900088460646814640241BE02846414647469C
:1002A000224600F08FF853465A46C01A914110D3A7
:1002B00011461846224600F076F82D1A67EB010821
:1002C0004F4622460120002100F06DF817EB00098F
:1002D0004E41201EA4F10104DFDC484631462A4687
:1002E0004346BDE8F09F40EA01039B0703D009E0C5
:1002F00008C9121F08C0042AFAD203E011F8013B12
:1003000000F8013B521EF9D27047D2B201E000F86A
:10031000012B491EFBD270470022F6E710B51346A9
:100320000A4604461946FFF7F0FF204610BD10B5F7
:10033000044604E00B7800F8013B03B1491C521E4F
:10034000F8D2204610BDCAB2401E10F8011F8A42E2
:1003500002D00029F9D100207047421C10F8011B7F
:100360000029FBD1801A7047034611F8012B00F8D1
:10037000012B002AF9D11846704730B50B460146CB
:1003800000202022012409E021FA02F59D4205D334
:1003900003FA02F5491B04FA02F52844151EA2F1DE
:1003A0000102F1DC30BD202A04DB203A00FA02F120
:1003B000002070479140C2F1200320FA03F3194353
:1003C00090407047202A04DB203A21FA02F00021F5
:1003D000704721FA02F3D040C2F120029140084355
:1003E000194670472DE9FE4F804681EA0300C00F91
:1003F0000C46009021F0004123F00045B8EB0200CC
:10040000A94105D24046214690461C460B4602466D
:1004100023F00040104347D0270DC7F30A00C3F371
:100420000A510290401A019040286BDAC3F313007E
:1004300040F4801B0098924620B10023D2EB030ABF
:1004400063EB0B0B01985946C0F140025046FFF791
:10045000AAFF06460D4650465946019A00F08CF90F
:1004600010EB08006141002487EA115284EAE77327
:100470001A4340D0009A62B3019A012A4FEA075208
:1004800015DC001B61EB02014FF0004202EA07524B
:10049000CDE90042001C41F5801132462B4600F0A8
:1004A0008CF903B0BDE8F08F40462146F9E7001B08
:1004B00061EB0201001C41F5801300185B4120181C
:1004C000A2F5001747EB030140EAD570B6196D415C
:1004D00011E06D084FEA360645EAC0754FEA07524B
:1004E000001B61EB0201001C41F5801149084FEA35
:1004F00030000019514132462B4603B0BDE8F04FA1
:1005000000F04CB90098012240000023D0EB020219
:1005100063EBE073009821464FEAE074B8EB00000B
:1005200061EB0401E9E783F000435BE781F0004100
:1005300058E72DE9FE4F81EA030404F0004421F05E
:10054000004100944FF0000B23F0004350EA0104F7
:100550005ED052EA03045BD0C3F30A54C1F30A55D8
:100560002C44A4F2F3340194A0FB0254C1F3130110
:1005700041F48011C3F3130343F4801301FB0244DD
:1005800000FB034E840A970A44EA815447EA8357E2
:10059000A4FB076802958D0A05FB07854FEA932C9B
:1005A00004FB0C542705029D4FEA065847EA16370C
:1005B000B5EB08056EEB070C870E920E47EA811724
:1005C00042EA8312A7FB0201B6EB0B0164EB0004C5
:1005D0002B0D43EA0C335E1844EB1C50DA465146AF
:1005E000E7FB0201C5F313044FEA0B3343EA14534C
:1005F0004FEA0432019C43EA0603A4F10C0402947E
:10060000009CCDE900B400F0D8F803B0BDE8F08F4D
:1006100000200146F9E72DE9F04D81EA030404F0DA
:10062000004B21F0004514464FF0000A23F0004132
:1006300050EA050220D054EA01021DD0C5F30A5742
:100640000246C5F31303C1F31300C1F30A5640F485
:10065000801543F48013A7EB0608101BD64608F25A
:10066000FD3873EB050002D308F1010801E0921890
:100670005B41B8F1000F03DA00200146BDE8F08DC0
:1006800000204FF48011064684460EE0171B73EBE2
:10069000050705D3121B63EB050306434CEA010C67
:1006A00049084FEA300092185B4150EA0107EDD14A
:1006B00052EA030012D082EA040083EA05010843EB
:1006C00005D0101BAB4106D20122002306E0002218
:1006D0004FF0004302E06FF0010253101AEB0600E6
:1006E0004CEB085110EB0A0041EB0B01BDE8F04D5B
:1006F00000F054B8C1F30A52C1F3130140F2FF33C2
:1007000041F480119A4202DA00200146704740F21B
:1007100033439A42A2F2334202DC5242FFF752BE06
:10072000FFF741BE30B5041E71F1000404DB4FF049
:100730000044404264EB0101141E73F1000405DB28
:100740001C464FF00043524263EB0403994208BF3A
:10075000904230BD064C074D06E0E06840F00103D2
:1007600094E8070098471034AC42F6D3FFF710FD29
:1007700094720008B4720008202A06DBCB17203AD6
:1007800041FA02F043EAE07306E041FA02F3D04096
:10079000C2F12002914008431946704710B5141E5B
:1007A00073F1000408DA401C41F1000192185B412A
:1007B0001A4301D120F0010010BD2DE9F04D924601
:1007C0009B4611B1B1FA81F202E0B0FA80F2203218
:1007D0009046FFF7E8FD04460F4640EA0A0041EA6A
:1007E0000B0153465A46084313D0114653EA010001
:1007F00019D0C8F140025046FFF7E4FD05460E4609
:10080000504659464246FFF7CEFD084305D0012029
:1008100004E020463946BDE8F08D0020054346EA55
:10082000E0762C4337430A986305E40AA0EB0800FE
:100830000022FD0A44EA47540A3002D5002001464E
:10084000E9E7010510196941DDE908450019694129
:10085000BDE8F04DA2E7000055494A6822F4403255
:100860004A604A6843681A434A600268526822F440
:10087000807203685A6002685368026943EA022280
:1008800003685A600268526822F0407203685A6036
:100890000268526883681A4303685A600268926863
:1008A00022F4006203689A6002689268C3681A437F
:1008B00003689A603F4B826A9A4218D00268926835
:1008C00022F0706203689A6002689268836A1A4331
:1008D00003689A600268926822F0405203689A6046
:1008E00002689268C36A1A4303689A600BE0026860
:1008F000926822F0706203689A600268926822F03F
:10090000405203689A600268926822F0020203680B
:100910009A6002689368027E43EA420203689A6022
:100920002022125CA2B10268526842F4006203689D
:100930005A600268526822F4604203685A60026892
:100940005368426A521E43EA423203685A6005E025
:100950000268526822F4006203685A600268D26A30
:1009600022F470020368DA620268D36A828B521E34
:1009700043EA02520368DA620268926822F4007263
:1009800003689A600268936890F8302043EA422234
:1009900003689A600268926822F4806203689A6031
:1009A00002689368426943EA822203689A6070474A
:1009B000002301400100000F00BFFEE7044A107051
:1009C000044A116041F22212034B1A807047000062
:1009D000E4000020E0000020E60000202DE9F043C4
:1009E00089B005460F46904600202E4908702E49D2
:1009F000086000231A4602212C48007805F072F99D
:100A00004FF480732A4839460268002003F06CFED8
:100A100086B235202B46324600902548016823488F
:100A2000007805F04BF935E02048007803F0E9FE46
:100A3000061E17DDB6F5807F01DD4FF4807602A833
:100A400003AB324600901A4801681848007804F059
:100A500069FE86B242461648016804A804F071F89F
:100A6000814618E003F05CFC0446002C07DA0F48CE
:100A7000007803F073FC002009B0BDE8F0834CB9A6
:100A800035202B4632460090094801680748007817
:100A900005F014F9C8E700BF0448007803F05EFCD5
:100AA0004846E9E7EC000020E8000020E4000020D0
:100AB000E0000020704772B600BFFEE738B502467E
:100AC0000020009000BF92F83C00012801D10220D4
:100AD00038BD012082F83C0000BF0868092816D9FB
:100AE0001068C0680C780A3C04EB44050724AC404D
:100AF000A0431468E0600C780A3C04EB4404886866
:100B0000A0401468E46820431468E06013E01068B3
:100B100000690C7804EB44050724AC40A04314683A
:100B200020610C7804EB44048868A04014682469B0
:100B30002043146820614868072817D21068406B6A
:100B40000C79641E04EB84051F24AC40A043146898
:100B50006063088880B20C79641E04EB8404A040B2
:100B60001468646B20431468606331E048680D28A2
:100B700017D21068006B0C79E41F04EB84051F2466
:100B8000AC40A04314682063088880B20C79E41F4D
:100B900004EB8404A0401468246B20431468206391
:100BA00016E01068C06A0C790D3C04EB84051F2424
:100BB000AC40A0431468E062088880B20C790D3C18
:100BC00004EB8404A0401468E46A20431468E062E3
:100BD000194B1A4C1068A04206D10868122803D19C
:100BE000586840F480005860144C1068A0421CD132
:100BF0000868102802D00868112816D1586840F4F7
:100C000000005860086810280FD10D4800680D4C8E
:100C1000B0FBF4F000EB80004000009002E0009890
:100C2000401E009000980028F9D100BF002082F8F3
:100C30003C0000BF00BF4BE7002301400020014003
:100C40001400002040420F0070B5044600250CB986
:100C5000012070BD1549A06A884200D000BF206CF9
:100C600030B9204600F024F80020606484F83C008D
:100C7000206C00F0100088B9206C20F4885040F0FF
:100C8000020020642046FFF7E7FD00206064206C2E
:100C900020F0020040F00100206400E0012500BFC8
:100CA000002084F83C0000BF2846D2E70100000F76
:100CB00010B586B00446142101A8FFF72DFB194991
:100CC000206888422BD100BF0020009016480068A1
:100CD00040F48070144908600846006800F4807091
:100CE000009000BF00BF00BF002000900E481438E5
:100CF000006840F004000C49143908600846006898
:100D000000F00400009000BF00BF08200190032005
:100D100002900020039001A9044800F087F806B073
:100D200010BD00000020014044380240000802408D
:100D300070B50446A56D00F083F9064694F83500B9
:100D4000022808D08020606500BF002084F83400AD
:100D500000BF012070BD2068006820F016002168E7
:100D600008602068406920F0800021684861206C9C
:100D700008B9A06C28B12068006820F0080021683C
:100D800008602068006820F001002168086010E019
:100D900000F056F9801B05280BD920206065032040
:100DA00084F8350000BF002084F8340000BF032021
:100DB000D0E72068006800F001000028E8D194F82E
:100DC0005C103F208840A860012084F8350000BFF7
:100DD000002084F8340000BF00BFBBE7014691F853
:100DE0003500022803D08020486501207047052087
:100DF00081F835000868006820F001000A6810607A
:100E00000020F3E770B5044600F01AF906462546BF
:100E1000681C10B104480078054400BF00F010F9C8
:100E2000801BA842FAD370BD10000020F8B502461E
:100E30000B460025002400200021D6E0012606FAFA
:100E400001F51E6806EA0504AC4274D11E7906F06D
:100E50000306012E04D01E7906F00306022E13D1DC
:100E600090684F000326BE40B0434F00DE68BE408E
:100E700030439060506801268E40B0431E79C6F31F
:100E800000168E40304350601E7906F00306032E94
:100E900009D0D0684F000326BE40B0434F009E6883
:100EA000BE403043D0601E7906F00306022E13D1F7
:100EB000CF0802F1200656F827004E07F70E0F263E
:100EC000BE40B0434F07FF0E1E69BE403043CF08FF
:100ED00002F1200646F8270010684F000326BE40A6
:100EE000B0431E7906F003064F00BE403043106049
:100EF0005E6806F44036002E76D000BF00260096CD
:100F00003C4E366846F480463A4F3E603E46366870
:100F100006F48046009600BF00BF374E8F0856F893
:100F200027008E07370F0F26BE40B043334EB24224
:100F300002D1002624E057E0314EB24201D1012611
:100F40001EE0304EB24201D1022619E02E4EB242CE
:100F500001D1032614E02D4EB24201D104260FE048
:100F60002B4EB24201D105260AE02A4EB24201D1EF
:100F7000062605E0284EB24201D1072600E00826E9
:100F80008F073F0FBE4030431B4E8F0846F82700A7
:100F9000224E3068A0435E6806F4801606B12043F6
:100FA0001E4E3060361D3068A0435E6806F40016A1
:100FB00006B12043194E361D3060184E361F30687A
:100FC000A0435E6806F4003606B12043134E361F78
:100FD0003060361F3068A0435E6806F4803606B184
:100FE00020430E4E083E3060491C1029FFF426AF06
:100FF000F8BD0000443802400838014000000240BB
:101000000004024000080240000C024000100240B0
:101010000014024000180240001C0240083C01403D
:1010200010B5426921EA020302EA010443EA0443DB
:10103000836110BD0AB1816101E00B0483617047D7
:10104000014800687047000008000020034800685D
:1010500003490978084401490860704708000020E6
:101060001000002010B50D48006840F400700B49D6
:1010700008600846006840F4806008600846006820
:1010800040F480700860032000F0D6F80F2000F0D4
:1010900007F800F055F8002010BD0000003C0240A9
:1010A000F0B587B004460026002700BF002000905E
:1010B0001E48006840F001001C49086008460068AE
:1010C00000F00100009000BF00BF01A902A800F0DD
:1010D00089F900F0BFF946001548B6FBF0F0471E4D
:1010E00014481549086040F2E7311348C160476071
:1010F000002101618160816100F00FFF054695B913
:101100000D4800F03FFF05466DB9192000F042F888
:10111000102C07D200222146192000F04FF8074872
:10112000046000E00125284607B0F0BD44380240C5
:1011300040420F0000000140740400200C00002019
:1011400008B500BF002000901148006840F48040BE
:101150000F4908600846006800F48040009000BF16
:1011600000BF00BF00200090081F006840F08050C2
:10117000091F08600846006800F08050009000BF1A
:1011800000BF00220F21901E00F018F808BD0000DB
:10119000443802400146084600280DDB00BF00BF6E
:1011A00000F01F0301229A4043099B0003F1E02352
:1011B000C3F8002100BF00BF00BF70472DE9F05FFA
:1011C00080460D461646002702F02EFC074639469B
:1011D0002A46334601F00700C0F1070ABAF1040FAE
:1011E00002D94FF0040A01E0C0F1070AD14600F12C
:1011F000040ABAF1070F02D24FF0000A01E0A0F191
:10120000030AD4464FF0010A0AFA09FAAAF1010AC0
:101210000AEA020A0AFA0CFA4FF0010B0BFA0CFB6D
:10122000ABF1010B0BEA030B4AEA0B0421464046E3
:1012300002F002FCBDE8F09F00BF00F00702064B81
:1012400019684FF6FF031940044B0B4343EA022190
:10125000014B196000BF70470CED00E00000FA057B
:1012600070B504460D460CB9012070BD58480068A1
:1012700000F00700A84209D255490D7008460068E1
:1012800000F00700A84201D00120EEE7207800F02E
:10129000020002281DD1207800F00400042805D1A6
:1012A0004C48006840F4E0504A490860207800F05B
:1012B0000800082805D14748006840F460404549C7
:1012C00008604448006820F0F000A16808434149E4
:1012D0000860207800F00100A8B36068012807D1F9
:1012E0003C4808380068C0F34040B8B90120BCE76A
:1012F0006068022802D06068032807D135480838A2
:101300000068C0F3406048B90120AEE731480838B2
:101310000068C0F3400008B90120A6E72D48006826
:1013200020F00300616808432A490860FFF788FE3F
:10133000064609E0FFF784FE801B41F288318842AF
:1013400002D9032091E707E02248006800F00C0072
:101350006168B0EB810FEDD11D48006800F0070017
:10136000A84209D91A490D700846006800F0070024
:10137000A84201D0012078E7207800F0040004287A
:1013800007D11448006820F4E050E168084311498F
:101390000860207800F00800082808D10D4800688F
:1013A00020F46040216940EAC1000A49086000F069
:1013B00061F808490968C1F30311074A515CC84044
:1013C0000649086006480068FFF76AFE00204CE7FF
:1013D000003C0240083802406472000814000020FB
:1013E0000C0000200F2202600D4A126802F0030276
:1013F00042600B4A126802F0F0028260084A1268EA
:1014000002F4E052C260064A126802F46042D20856
:101410000261044A126802F007020A607047000085
:1014200008380240003C0240014800687047000054
:101430001400002000B5FFF7F7FF04490968C1F365
:101440008221034A515CC84000BD000008380240B8
:101450007472000800B5FFF7E7FF04490968C1F39B
:101460004231034A515CC84000BD000008380240C8
:10147000747200082DE9F047002400250026A146DB
:101480002548006800F00C0020B1042805D0082889
:101490003AD105E0DFF8849039E0DFF8849036E057
:1014A0001D48001F006800F03F041B48001F006833
:1014B00000F4800078B11A481749091F0968C1F380
:1014C0008811A0FB01700146224600233846FEF732
:1014D000D9FE05460EE011480F49091F0968C1F3FE
:1014E0008811A0FB01700146224600233846FEF712
:1014F000C9FE05460848001F0068C0F30140401CB3
:101500004600B5FBF6F902E0DFF8109000BF00BF1F
:101510004846BDE8F0870000083802400024F40087
:1015200000127A00F8B504460CB90120F8BD207805
:1015300000F00100002874D0F948006800F00C00A9
:1015400004280DD0F648006800F00C00082813D1DC
:10155000F348001F006800F48000B0F5800F0BD145
:10156000EF4808380068C0F34040002859D0606850
:10157000002856D10120D9E700BF6068B0F5803F50
:1015800008D1E7480838006840F48030E449083959
:1015900008601EE06068B0F5A02F0DD1E048083863
:1015A000006840F48020DE49083908600846006879
:1015B00040F4803008600CE0D9480838006820F416
:1015C0008030D749083908600846006820F4802038
:1015D000086000BF606890B1FFF732FD054606E085
:1015E000FFF72EFD401B642801D903209EE7CC485D
:1015F00008380068C0F340400028F1D011E0FFF740
:101600001FFD054606E0FFF71BFD401B642801D9BE
:1016100003208BE7C24808380068C0F34040002828
:10162000F1D1207800F0020002285FD1BC480068A8
:1016300000F00C0058B1BA48006800F00C0008280F
:101640001CD1B748001F006800F48000B0B9B4484E
:1016500008380068C0F3400020B1E068012801D0DC
:10166000012063E7AE480838006820F0F8002169DF
:1016700040EAC100AA490839086037E0E06800B3D1
:101680000120A8490860FFF7DBFC054606E0FFF7EC
:10169000D7FC401B022801D9032047E7A04808389F
:1016A0000068C0F340000028F1D09D480838006869
:1016B00020F0F800216940EAC10099490839086022
:1016C00014E0002097490860FFF7BAFC054606E0E1
:1016D000FFF7B6FC401B022801D9032026E79048FB
:1016E00008380068C0F340000028F1D1207800F0ED
:1016F000080008282CD16069A8B101208A49086037
:10170000FFF79EFC054606E0FFF79AFC401B022807
:1017100001D903200AE782486C300068C0F340001A
:101720000028F1D014E000207F490860FFF788FC12
:10173000054606E0FFF784FC401B022801D9032080
:10174000F4E677486C300068C0F340000028F1D11F
:10175000207800F00400042870D100277048383049
:10176000006800F0805090B900BF002000906C48E5
:101770003830006840F080506949383108600846C8
:10178000006800F08050009000BF00BF012767484C
:10179000006800F48070B0B96448006840F480705C
:1017A00062490860FFF74CFC054606E0FFF748FC7D
:1017B000401B022801D90320B8E65C48006800F409
:1017C00080700028F2D000BFA068012808D15448DA
:1017D0006830006840F001005149683108601DE040
:1017E000A06805280DD14E486830006840F004001C
:1017F0004B49683108600846006840F00100086005
:101800000CE047486830006820F001004449683126
:1018100008600846006820F00400086000BFA06867
:10182000A8B1FFF70DFC054609E0FFF709FC401BD6
:1018300041F28831884202D9032077E626E0384811
:1018400068300068C0F340000028EED013E0FFF7D6
:10185000F7FB054608E0FFF7F3FB401B41F2883138
:10186000884201D9032061E62D4868300068C0F342
:1018700040000028EFD1012F07D1294838300068F7
:1018800020F0805026493831086000BFA069002848
:1018900045D02348006800F00C0008285DD0A069FE
:1018A000022845D100201F490866FFF7C9FB0546FD
:1018B00006E0FFF7C5FB401B022801D9032035E6EF
:1018C000174808380068C0F340600028F1D1D4E917
:1018D00007010843616A40EA81110122A06AC2EB54
:1018E000500041EA00412C20005D41EA00600C49B3
:1018F000091F086001200B490866FFF7A1FB054698
:1019000006E0FFF79DFB401B022801D903200DE6EE
:10191000034808380068C0F340600028F1D049E06F
:101920000838024000004742800E474200700040E5
:10193000002021490866FFF783FB054606E0FFF714
:101940007FFB401B022801D90320EFE51B480068FC
:10195000C0F340600028F2D12CE0A069012800D13A
:10196000E4E51648001D0668A069012820D006F4A9
:101970008001E06981421BD106F03F01206A81426B
:1019800016D147F6C0703040616AB0EB811F0FD1AD
:1019900006F440310122A06AC2EB5000B1EB004FC7
:1019A00006D106F070612C20005DB1EB006F01D014
:1019B0000120BBE50020B9E50000474200380240A5
:1019C00010B504460CB9012010BD606A38B96068D2
:1019D000B0F5827F00D105E00021E16102E0002145
:1019E000216161610021A16294F8510028B90020B1
:1019F00084F85000204600F047F8022084F8510097
:101A00002068006820F0400021680860A08800F489
:101A10008270218901F404410843A18901F4006125
:101A20000843217C01F002010843217D01F00101FE
:101A30000843218B01F400710843217F01F0380134
:101A400008432021095D01F080010843218D01F444
:101A500000510843216808600421A06901EA104090
:101A600094F8241001F010010843216848602068B0
:101A7000C06920F400602168C86100206065012011
:101A800084F8510000209FE710B586B00446142169
:101A900001A8FEF741FC1B49206888422FD100BFF6
:101AA000002000901848006840F4805016490860F3
:101AB0000846006800F48050009000BF00BF00BFDF
:101AC0000020009010481438006840F001000E49D2
:101AD000143908600846006800F00100009000BF5B
:101AE00000BFE0200190022002900020039003201C
:101AF00004900520059001A90448FFF797F906B066
:101B000010BD000000300140443802400000024097
:101B10002DE9F84304460F4616461D46FFF790FA96
:101B20008046B14694F85100012802D00220BDE859
:101B3000F88307B10EB90120F9E700BF94F850000F
:101B4000012801D10220F2E7012084F8500000BFF3
:101B5000032084F85100002060652763A686E6868E
:101B6000A063A087E08760642064A068B0F5004FA0
:101B70000BD12068006820F04000216808602068D0
:101B8000006840F48040216808602068006800F028
:101B90004000402805D02068006840F040002168DF
:101BA0000860E068B0F5006F37D1606810B1B9F136
:101BB000010F09D1206B00882168C860206B801C50
:101BC0002063E08E401EE08623E02068806800F0FD
:101BD000020002280AD1206B00882168C860206BAF
:101BE000801C2063E08E401EE08612E0FFF728FA9A
:101BF000A0EB0800A84201D3681C00B94DB9012030
:101C000084F8510000BF002084F8500000BF03207A
:101C10008DE7E08E0028D8D136E0606810B1B9F1C8
:101C2000010F09D1206B007821680873206B401CDC
:101C30002063E08E401EE08623E02068806800F08C
:101C4000020002280AD1206B007821680873206BFB
:101C5000401C2063E08E401EE08612E0FFF7F0F9A2
:101C6000A0EB0800A84201D3681C00B94DB90120BF
:101C700084F8510000BF002084F8500000BF03200A
:101C800055E7E08E0028D8D142462946204600F08C
:101C900085FF08B120206065A06850B900BF002012
:101CA00000902068C068009020688068009000BFA5
:101CB00000BF012084F8510000BF002084F85000CC
:101CC00000BF606D08B1012031E700202FE72DE94A
:101CD000FE4F04460F4690461D460C9E0120019083
:101CE000FFF7AEF9814694F851B060680290AA46B9
:101CF000BBF1010F0BD00298B0F5827F04D1A06830
:101D000010B9BBF1040F02D00220BDE8FE8F1FB155
:101D1000B8F1000F00D00DB90120F6E700BF94F82C
:101D20005000012801D10220EFE7012084F8500083
:101D300000BF94F85100042802D0052084F8510017
:101D400000206065C4F83880E587A5872763E586AD
:101D5000A586206460642068006800F04000402888
:101D600005D02068006840F0400021680860E06805
:101D7000B0F5006F52D1606810B1BAF1010F09D10E
:101D8000206B00882168C860206B801C2063E08E77
:101D9000401EE0863BE02068806800F002000228D8
:101DA00010D1E08E70B1019801280BD1206B008812
:101DB0002168C860206B801C2063E08E401EE08696
:101DC000002001902068806800F0010068B1E08F79
:101DD00058B12068C068A16B0880A06B801CA0630C
:101DE000E08F401EE08701200190FFF729F9A0EB6A
:101DF0000900B0420BD3701C48B1012084F8510097
:101E000000BF002084F8500000BF03207DE7E08E73
:101E10000028C0D1E08F0028BDD152E0606810B129
:101E2000BAF1010F09D1206B007821680873206B8B
:101E3000401C2063E08E401EE0863CE02068806805
:101E400000F00200022810D1E08E70B10198012844
:101E50000BD1206B007821680873206B401C206335
:101E6000E08E401EE086002001902068806800F02F
:101E7000010068B1E08F58B12068C068A16B08709C
:101E8000A06B401CA063E08F401EE0870120019002
:101E9000FFF7D6F8A0EB0900B04201D3701C00B9DF
:101EA0004EB9012084F8510000BF002084F8500092
:101EB00000BF032029E7E08E0028BFD1E08F002873
:101EC000BCD14A463146204600F068FE40B1202091
:101ED000606500BF002084F8500000BF012014E7B7
:101EE000A06850B900BF002000902068C068009032
:101EF00020688068009000BF00BF012084F8510076
:101F000000BF002084F8500000BF606D08B10120C0
:101F1000FBE60020F9E67047704710B504460CB99F
:101F2000012010BD94F83D0028B9002084F83C0041
:101F3000204600F025F8022084F83D00211D20688D
:101F400001F064F9012084F8460000BF84F83E00E7
:101F500001213F200155402001554120015500BF7E
:101F600000BF012084F84200432001554420015560
:101F70004520015500BF012084F83D000020D0E736
:101F800070470000014691F83D00012801D0012072
:101F90007047022081F83D000868C06840F00100E9
:101FA0000B68D8601A4B086898421BD00868B0F1DB
:101FB000804F17D0174B0868984213D0164B08680B
:101FC00098420FD0154B086898420BD0144B086804
:101FD000984207D0134B0868984203D0124B086808
:101FE00098420CD10868806800F00702062A0CD0DD
:101FF0000868006840F001000B68186005E0086898
:10200000006840F001000B6818600020C0E7000085
:10201000000001400004004000080040000C0040A7
:10202000000401400040014000180040704770B5B6
:1020300004462068C5682068066906F00200022888
:1020400019D105F00200022815D1401F216808614E
:10205000012020772068806900F0030018B1204635
:10206000FFF7E4FF05E0204600F097F8204600F077
:1020700095F80020207706F00400042819D105F017
:102080000400042815D1C04321680861022020778C
:102090002068806900F4407018B12046FFF7C6FF41
:1020A00005E0204600F079F8204600F077F800209F
:1020B000207706F00800082819D105F00800082844
:1020C00015D1C04321680861042020772068C069C9
:1020D00000F0030018B12046FFF7A8FF05E02046F6
:1020E00000F05BF8204600F059F80020207706F059
:1020F0001000102819D105F01000102815D1C04388
:1021000021680861082020772068C06900F44070C9
:1021100018B12046FFF78AFF05E0204600F03DF8A1
:10212000204600F03BF80020207706F0010048B17F
:1021300005F0010030B16FF0010021680861204610
:1021400000F02EF806F08000802809D105F080000C
:10215000802805D1C043216808612046FFF7DBFED7
:1021600006F04000402809D105F04000402805D184
:10217000C04321680861204600F01EF806F02000E8
:10218000202809D105F02000202805D1C04321686E
:1021900008612046FFF7C0FE70BD70477047000021
:1021A00010B5044603492068884201D1FEF74EFF6E
:1021B00010BD0000000001407047704770470000EC
:1021C0002DE9F84F0446206805682068C668206835
:1021D00047694FF00009CA4605F00F09B9F1000F31
:1021E0000AD105F0200038B106F0200020B12046C9
:1021F00001F0D3F8BDE8F88FB9F1000F7CD007F0FB
:10220000010018B906F49070002875D005F001009F
:1022100030B106F4807018B1606C40F00100606469
:1022200005F0040030B107F0010018B1606C40F017
:102230000200606405F0020030B107F0010018B13F
:10224000606C40F00400606405F0080048B106F0DE
:10225000200010B907F0010018B1606C40F00800D0
:102260006064606C002846D005F0200028B106F0BC
:10227000200010B1204601F090F820684069C0F3BA
:10228000801A606C00F0080010B9BAF1000F2DD070
:10229000204601F03CF82068406900F040004028EA
:1022A00020D100BF00BF2168143151E8001F21F088
:1022B00040002168143141E80002002AF3D100BF38
:1022C000E06B50B17F48E16B0865E06BFEF786FD7F
:1022D00088B1E06B016D88470DE02046FFF76EFF87
:1022E00009E009E02046FFF769FF04E02046FFF718
:1022F00065FF002060647DE7206B012878D105F040
:102300001000002874D006F010000028FAD000BF9A
:1023100000200090206800680090206840680090CD
:1023200000BF00BF2068406900F04000402870D125
:10233000E06B006840681FFA80F8B8F1000F58D0D1
:10234000A08D404555DDA4F82E80E06BC069B0F546
:10235000807F43D000BF00BF21680C3151E8001FCF
:1023600021F4807021680C3141E80002002AF3D189
:1023700000BF00BF00BF2168143151E8001F21F0E9
:1023800001002168143141E80002002AF3D100BFA6
:1023900000BF00BF2168143151E8001F21F0400048
:1023A0002168143141E80002002AF3D100BF202047
:1023B00084F842000020206300BF00BF21680C3178
:1023C00051E8001F21F0100021680C3141E80002A3
:1023D000002AF3D100BFE06BFEF7AAFC0220606385
:1023E000A08DE28D801A81B22046FFF7E6FE0EE056
:1023F00052E0A08D40450AD1E06BC069B0F5807F06
:1024000005D102206063A18D2046FFF7D6FEF1E6DC
:10241000FFE7A08DE18D401A1FFA80F8E08DD0B360
:10242000B8F1000F37D000BF00BF21680C3151E870
:10243000001F21F4907021680C3141E80002002A4D
:10244000F3D100BF00BF00BF2168143151E8001F65
:1024500021F001002168143141E80002002AF3D183
:1024600000BF202084F842000020206300BF00BF8E
:1024700021680C3151E8001F21F0100021680C3157
:1024800041E80002002AF3D100BF02206063414608
:102490002046FFF792FEADE605F0800030B106F071
:1024A000800018B1204601F00DF9A3E605F04000C8
:1024B00030B106F0400018B1204600F05EFF99E60A
:1024C00000BF97E6FD32000810B504460CB90120A4
:1024D00010BDA06900B100E000BF94F8410028B928
:1024E000002084F84000204600F02AF8242084F8D8
:1024F00041002068C06820F400502168C860204670
:1025000000F0CAFF2068006920F49040216808614B
:102510002068406920F02A00216848612068C0686E
:1025200040F400502168C86000206064202084F8D6
:10253000410084F842000020606300BFC8E700004B
:1025400010B586B00446142101A8FDF7E5FE3E490A
:102550002068884239D100BF002000903B480068C5
:1025600040F40020394908600846006800F4002063
:10257000009000BF00BF00BF00200090334810381B
:10258000006840F0040031491039086008460068CE
:1025900000F00400009000BF00BF4FF440600190C5
:1025A0000220029000200390032004900820059050
:1025B00001A92748FEF73AFC002205213420FEF746
:1025C000FDFD3420FEF7E6FD3CE02249206888420C
:1025D00038D100BF002000901C48006840F48020E3
:1025E0001A4908600846006800F48020009000BF87
:1025F00000BF00BF0020009014481038006840F071
:1026000002001249103908600846006800F0020014
:10261000009000BF00BF4FF4406001900220029084
:1026200000200390032004900720059001A90A4888
:10263000FEF7FCFB002205212720FEF7BFFD272027
:10264000FEF7A8FD06B010BD004C00404038024027
:1026500000080240004800400004024070472DE995
:10266000F84F04460E46174699464FF0000A94F874
:102670004100202850D106B117B90120BDE8F88FDC
:1026800000206064212084F84100FEF7D9FC8246D6
:10269000A784E784A068B0F5805F04D1206910B9F1
:1026A0000025B04602E035464FF000081EE05346D4
:1026B000002280212046CDF8009001F033F820B1AF
:1026C000202084F841000320D8E745B9B8F800007D
:1026D000C0F308002168486008F1020803E0287888
:1026E000216848606D1CE08C401EE084E08C00286E
:1026F000DDD15346002240212046CDF8009001F064
:1027000011F820B1202084F841000320B6E72020F2
:1027100084F841000020B1E70220AFE7704700BF16
:10272000FEE700001FB5002000900190029003908A
:102730001548164908604FF480304860002113485E
:1027400081600161017680F82010C16210498162C8
:102750000021C1600121C161002180F830100121F8
:102760004161FEF771FA08B1FEF7A5F90D2000905E
:10277000012001900020029069460448FEF79EF96E
:1027800008B1FEF798F91FBD002001404403002066
:102790000100000F00B58FB01C220C4908A8FDF7FE
:1027A000A2FD002108A802F09DF9094908601C2239
:1027B00006491C3101A8FDF796FD002101A802F091
:1027C00091F9044908600FB000BD00002C720008A8
:1027D000000000200400002000B587B0142102A8EA
:1027E000FDF79AFD00BF002001902E48006840F0E0
:1027F00004002C4908600846006800F004000190BD
:1028000000BF00BF00BF002001900846006840F0F4
:10281000800008600846006800F08000019000BF5A
:1028200000BF00BF002001900846006840F0010092
:1028300008600846006800F00100019000BF00BF7A
:1028400000BF002001900846006840F002000860C8
:102850000846006800F00200019000BF00BF00229F
:1028600010211148FEF7E6FB012211020F48FEF786
:10287000E1FB1020029001200390002004900590BD
:1028800002A90948FEF7D2FA4FF4807002900120A5
:10289000039000200490059002A90448FEF7C6FAB0
:1028A00007B000BD3038024000000240000802407E
:1028B00010B50E480E4908604FF482704860002140
:1028C0000B488160C160016141614FF40071816119
:1028D0000821C16100210162416281620A21C16255
:1028E000FFF76EF808B1FEF7E6F810BD00300140C2
:1028F0008C03002010B50B480B4908604FF4E13001
:102900004860002108488160C16001610C2141617B
:1029100000218161C161FFF7D7FD08B1FEF7CBF857
:1029200010BD0000004C0040E403002010B50B482F
:102930000B4908604FF4E13048600021084881608D
:10294000C16001610C21416100218161C161FFF71A
:10295000BBFD08B1FEF7AFF810BD00000048004015
:102960002C04002000BFFEE700BFFEE710B5CEB08C
:102970005E49002001F00FFE48A9012001F00BFE86
:1029800000BF5BA05BA35CA24FF48071009008A81D
:1029900001F016F80446002C0ADDFF2C08DC00BF0D
:1029A000002C04DD08AA214659A003F055FD00BF04
:1029B00000BF00BF9DF825019DF824119DF823213B
:1029C0009DF82231CDE90332CDE905109DF82101B2
:1029D0009DF8201146A247A3CDE9002102904EA206
:1029E0004FF4807108A800F0EBFF0446002C0ADDCC
:1029F000FF2C08DC00BF002C04DD08AA214644A0FF
:102A000003F02AFD00BF00BF00BF48A8407A48A9D4
:102A1000097A48AAD2799DF82631CDE90132CDE96B
:102A2000031033A033A347A24FF48071009008A88D
:102A300000F0C6FF0446002C0ADDFF2C08DC00BFB6
:102A4000002C04DD08AA214631A003F005FD00BFDB
:102A500000BF00BF48A8417B007B48AAD27A9DF8FE
:102A60002A31CDE90132CDE9030121A021A33CA205
:102A70004FF48071009008A800F0A2FF0446002CDB
:102A80000ADDFF2C08DC00BF002C04DD08AA21466B
:102A90001FA003F0E1FC00BF00BF00BF48A8417CBD
:102AA000007C48AAD27B9DF82E31CDE90132CDE9D8
:102AB00003010FA00FA331A24FF48071009008A86A
:102AC00000F07EFF0446002C0ADDFF2C08DC00BF6E
:102AD000002C04DD08AA21460DA003F0BDFC00BFB8
:102AE00000BF01202C4908704EB010BD80000020AE
:102AF000493A00000000000025732573204E6574DC
:102B0000776F726B20436F6E6669673A0D0A00003B
:102B1000252E2A7300000000257325732020204DE8
:102B200041433A20253032583A253032583A253040
:102B300032583A253032583A253032583A25303218
:102B4000580D0A002573257320202049503A202073
:102B500025642E25642E25642E25640D0A000000B0
:102B600025732573202020534E3A202025642E25DE
:102B7000642E25642E25640D0A000000257325733C
:102B800020202047573A202025642E25642E2564D6
:102B90002E25640D0A000000960000207CB5044636
:102BA0000E4615463346012202212046009500F0CC
:102BB00039F828B1606D40F02000606503207CBDCD
:102BC000164800681821B0FBF1F01549B0FBF1F090
:102BD0004FF47A71484301906068B0F5827F0DD15F
:102BE0003346002280212046009500F01BF898B162
:102BF000606D40F0200060650320E0E700BF0198B1
:102C000000B908E00198401E019020688068C0F378
:102C1000C0100028F3D100BF0020D0E7140000202E
:102C200040420F002DE9F84F04460D4690461E46DF
:102C3000DDF82890FEF704FAA0EB0900371AFEF73A
:102C4000FFF982462C480068C0F3CB3078430090EF
:102C500046E0701C002843D0FEF7F2F9A0EB0A0012
:102C6000B84200D2A7BB2068406820F0E00021688D
:102C700048606068B0F5827F0DD1A068B0F5004F64
:102C800003D0A068B0F5806F05D12068006820F0FF
:102C9000400021680860A06AB0F5005F0DD100BF58
:102CA0002068006820F400502168086020680068EF
:102CB00040F400502168086000BF012084F85100F2
:102CC00000BF002084F8500000BF0320BDE8F88F4B
:102CD000FFE7009808B9002702E00098401E009026
:102CE000206880682840A84201D1012000E000202F
:102CF0004045AED10020E9E71400002000BF4FF4AA
:102D000080710448FEF78CF94FF4FA7001F0D9FE97
:102D1000F5E7000000080240ADF5067D00BF8DA07C
:102D20008DA38EA24FF48071009044A800F048FE5D
:102D30000546002D0ADDFF2D08DC00BF002D04DD57
:102D400044AA29468EA003F087FB00BF00BF03F012
:102D500081FF8DA103C98591849084A984A803F083
:102D6000DEFE6420FEF74EF84FF4645000F02AFDBA
:102D7000044600BF77A078A385A24FF48071CDE907
:102D8000000444A800F01CFE0546002D0ADDFF2DBE
:102D900008DC00BF002D04DD44AA294678A003F01A
:102DA0005BFB00BF00BF042C17D100BF69A06AA362
:102DB00082A2A101009044A800F002FE0546002D69
:102DC0000ADDFF2D08DC00BF002D04DD44AA2946E2
:102DD0006BA003F041FB00BF19E000BF7FA05EA322
:102DE0007FA24FF48071CDE9000444A800F0E8FD13
:102DF0000546002D0ADDFF2D08DC00BF002D04DD97
:102E000044AA29465EA003F027FB00BF00BFFFF7DE
:102E1000ADFD00BF4FA050A380A24FF48071009081
:102E200044A800F0CDFD0546002D0ADDFF2D08DC8D
:102E300000BF002D04DD44AA294651A003F00CFB7D
:102E400000BF00BF03F02AF8C0B100BF63A042A3D7
:102E50007FA24FF48071009044A800F0B1FD0546B8
:102E6000002D0ADDFF2D08DC00BF002D04DD44AA83
:102E7000294643A003F0F0FA00BF18E000BF35A0D8
:102E800035A37DA24FF48071009044A800F098FD16
:102E90000546002D0ADDFF2D08DC00BF002D04DDF6
:102EA00044AA294636A003F0D7FA00BF00BF00BFEE
:102EB00003F078F9002848D0122178A003F0C8F96F
:102EC0000546002D19DD00BF22A023A378A24FF4F0
:102ED0008071CDE9000504A800F072FD0646002EC1
:102EE0000ADDFF2E08DC00BF002E04DD04AA3146F7
:102EF00023A003F0B1FA00BF00BF4FF4807144A8D3
:102F000003F056F90546002D1EDD002044A9485562
:102F100000BF44A80FA110A36EA2CDE90015029036
:102F20004FF4807104A800F04BFD0646002E0ADD28
:102F3000FF2E08DC00BF002E04DD04AA314610A0DD
:102F400003F08AFA00BF00BF00BF4FF47A7001F0AF
:102F5000B8FDADE7493A0000000000002573257375
:102F6000204E6574776F726B5461736B3A205735DE
:102F70003530305F496E69742E2E2E0D0A00000028
:102F8000252E2A73000000001010101010101010D1
:102F900025732573204E6574776F726B5461736B64
:102FA0003A2057353530302056455253494F4E520E
:102FB000203D203078253032580D0A0025732573C6
:102FC000204E6574776F726B5461736B3A2057357E
:102FD000353030204F4B210D0A000000453A0000EB
:102FE00025732573204E6574776F726B5461736B14
:102FF0003A205735353030204552524F5221204526
:103000007870656374656420307830342C20676F85
:1030100074203078253032580D0A0000257325734E
:10302000204E6574776F726B5461736B3A20436FF7
:103030006E6E656374696E6720746F204D515454D1
:103040002062726F6B65722E2E2E0D0A000000003A
:1030500025732573204E6574776F726B5461736BA3
:103060003A2054435020636F6E6E6563742066612E
:10307000696C6564210D0A0025732573204E657403
:10308000776F726B5461736B3A2054435020636FB7
:103090006E6E6563746564210D0A000048656C6C92
:1030A0006F2066726F6D2053544D33322100000043
:1030B00025732573204E6574776F726B5461736B43
:1030C0003A2073656E742025642062797465730DEF
:1030D0000A00000025732573204E6574776F726BAC
:1030E0005461736B3A207265636569766564202567
:1030F000642062797465733A2025730D0A0000001C
:1031000010B500BF502080F31188BFF34F8FBFF37D
:103110006F8F00BF03F064FF18B14FF08050044977
:10312000086000BF002080F3118800BF10BD0000C0
:1031300004ED00E000B593B0302107A8FDF7ECF8EE
:10314000142102A8FDF7E8F800BF002001902448F0
:10315000006840F08050224908600846006800F08E
:103160008050019000BF00BF00BF002001901D48AB
:10317000006840F480401B4908600846006800F47D
:103180008040019000BF00BF01200790000408901C
:1031900002200D9041050E9104210F91A82110915C
:1031A000022111910421129107A8FEF7BBF908B181
:1031B000FDF781FC0F200290022003900020049074
:1031C0004FF4A05005904FF480500690052102A8BE
:1031D000FEF746F808B1FDF76EFC13B000BD000025
:1031E00040380240007000400348006840F470001E
:1031F000014908607047000088ED00E010B5024802
:10320000FEF715FF10BD00007404002010B5026821
:103210002B4B98420ED0B0F1804F0BD0294B9842E7
:1032200008D0294B984205D0284B984202D0284B11
:10323000984203D122F070024B681A43204B984207
:1032400020D0B0F1804F1DD01E4B98421AD01E4B9B
:10325000984217D01D4B984214D01D4B984211D064
:103260001C4B98420ED01C4B98420BD01B4B9842E3
:1032700008D01B4B984205D01A4B984202D01A4BEB
:10328000984203D122F44072CB681A4322F08003A3
:103290004C6943EA04028B68C3620B688362084B83
:1032A000984202D00A4B984201D10B69036303682C
:1032B00043F00403036001234361026010BD00007A
:1032C000000001400004004000080040000C0040E5
:1032D000000401400040014000440140004801401A
:1032E00000180040001C00400020004010B50248BB
:1032F000FEF766FF10BD0000E403002070B5044631
:10330000A56B0020E8852846FEF758FF70BD00BF7A
:1033100000BF02680C3252E8002F22F4907102685C
:103320000C3242E80013002BF3D100BF00BF00BFF6
:103330000268143252E8002F22F0010102681432B0
:1033400042E80013002BF3D100BF016B01290ED11D
:1033500000BF00BF02680C3252E8002F22F01001BB
:1033600002680C3242E80013002BF3D100BF202189
:1033700080F8421000210163704710B504462068B0
:10338000C06820F040002168C860202084F8410017
:103390002046FFF7C3F9002010BDF8B5044600250C
:1033A000002694F84200222873D1A068B0F5805F0F
:1033B0000BD1206948B9A66A20684068C0F30800AC
:1033C0003080A06A801CA06214E0A56AA068B0F5F5
:1033D000805F03D0A06828B9206918B920684068C8
:1033E000287004E02068406800F07F002870A06A20
:1033F000401CA062E08D401E80B2E085002846D1CE
:103400002068C06820F020002168C8602068C0687B
:1034100020F480702168C8602068406920F00100B5
:1034200021684861202084F8420000206063206BFE
:10343000012826D10020206300BF00BF21680C3185
:1034400051E8001F21F0100021680C3141E8000212
:10345000002AF3D100BF2068006800F01000102897
:103460000AD100BF0020009020680068009020680A
:103470004068009000BF00BFA18D2046FEF79DFE72
:1034800002E02046FFF7EAF80020F8BD01E0002046
:10349000FBE70220F9E700002DE9F84F0446206819
:1034A000006920F44050E1680843216808612169FF
:1034B000A068084361690843E169084300902068F7
:1034C000C06849F20C618843009908432168C860CC
:1034D0002068406920F44070A16908432168486170
:1034E00076492068884203D075492068884203D114
:1034F000FDF7B0FF814602E0FDF79CFF8146E069E1
:10350000B0F5004F6CD102206168A0FB015003466A
:103510001920A9FB007001462A463846FCF7B2FE86
:103520006421B0FBF1F04FEA001A02206168A0FBB1
:1035300001510B461920A9FB00712A463846FCF7B9
:10354000A1FE834602206168A0FB015003461920BA
:10355000A9FB00712A463846FCF794FE6421B0FBB3
:10356000F1F000EBC00101EB0010ABEB8000322169
:1035700001EBC0006421B0FBF1F000F0F8000AEBB1
:10358000400A02206168A0FB015003461920A9FBF4
:10359000007001462A463846FCF774FE8346022036
:1035A0006168A0FB015003461920A9FB00712A465F
:1035B0003846FCF767FE6421B0FBF1F000EBC00178
:1035C00001EB0010ABEB8000322101EBC000642165
:1035D000B0FBF1F000F007005044216888606AE019
:1035E00004206168A0FB015003461920A9FB00706C
:1035F00001462A463846FCF745FE824604206168AB
:10360000A0FB015003461920A9FB007001462A4681
:103610003846FCF737FE6421B0FBF1F000EBC00147
:1036200001EB0010AAEB8000322101EB00106421B5
:10363000B0FBF1F000F0F00A04206168A0FB01701B
:1036400003461920A9FB00513A462846FCF71AFE0A
:103650006421B0FBF1F00AEB001A04206168A0FBC2
:1036600001510B461920A9FB00712A463846FCF788
:1036700009FE834604206168A0FB0150034619201F
:10368000A9FB007001462A463846FCF7FBFD642181
:10369000B0FBF1F000EBC00101EB0010ABEB8000E0
:1036A000322101EB00106421B0FBF1F000F00F00BB
:1036B000504421688860BDE8F88F00000010014088
:1036C00000140140014691F84100212828D1886862
:1036D000B0F5805F0BD1086948B90A6A1088C0F359
:1036E00008000B685860086A801C086205E00B6AD5
:1036F000581C086218780B685860C88C401E80B24D
:10370000C88458B90868C06820F080000B68D86089
:103710000868C06840F040000B68D860002070471F
:103720000220FCE72DE9F84304460D46174698466B
:10373000089E31E0701C70B3FDF782FCA0EB08001E
:10374000B04200D816B90320BDE8F8832068C068ED
:1037500000F00400F8B1802D1ED0402D1CD0206850
:103760000068C0F3C000B0B100BF00200090206826
:103770000068009020684068009000BF00BF2046AD
:10378000FFF7C5FD0820606400BF002084F84000FA
:1037900000BF0120D8E7FFE7206800682840A84262
:1037A00001D1012000E00020B842C3D00020CBE7C7
:1037B00010B50248FEF704FD10BD00002C040020E7
:1037C00000BFFEE738B504461A49C8688047194962
:1037D0004869804700BF1748406A10B11548806AA1
:1037E00070B91448016AC4F3074088471148016A58
:1037F000C4F307208847E0B20E4A116A88470DE0FB
:10380000200C8DF80000200A8DF80100E0B28DF840
:10381000020008480321826A684690470549C86942
:1038200080470546034988698047024908698047FF
:10383000284638BDA8000020F8B504460E461746B5
:103840001F49C86880471E494869804700BF1C4817
:10385000406A10B11A48806AC0B91948016AC4F3B5
:10386000074088471648016AC4F307208847E0B23A
:10387000134A116A8847002505E01149C869804745
:103880007055681C85B2BD42F7DB12E0200C8DF844
:103890000000200A8DF80100E0B28DF8020008480F
:1038A0000321826A6846904705483946426A304695
:1038B0009047034988698047014908698047F8BDF6
:1038C000A800002038B504460D461A49C86880474C
:1038D00018494869804744F004041648806A90B942
:1038E0001448016AC4F3074088471248016AC4F3C8
:1038F00007208847E0B20F4A116A88470D48016ADD
:10390000284688470FE0200C8DF80000200A8DF82B
:103910000100E0B28DF802008DF803500548042143
:10392000826A684690470349886980470149086967
:10393000804738BDA8000020F8B504460E4617465B
:103940001E49C86880471D494869804744F00404FF
:103950001A48806AC0B91948016AC4F30740884709
:103960001648016AC4F307208847E0B2134A116A77
:103970008847002505E0705D104A116A8847681C79
:1039800085B2BD42F7DB12E0200C8DF80000200A62
:103990008DF80100E0B28DF8020008480321826A28
:1039A0006846904705483946826A30469047034941
:1039B00088698047014908698047F8BDA800002050
:1039C0000FB47CB50C0009AD01D0611E00E00021F0
:1039D000CDE90001064B6A462946089800F012F925
:1039E000002C02D0009A002111707CBC5DF814FB01
:1039F0000B4300087CB50C001D461646014601D05D
:103A0000601E00E00020CDE90010064B6A46294602
:103A1000304600F0F7F8002C02D0009A0021117017
:103A20007CBD00000B43000802480068C0F3022080
:103A3000704700000CED00E010B5002804DB0A0719
:103A4000130E054A135406E00A07140E034A00F049
:103A50000F031B1FD45410BD00E400E018ED00E07C
:103A600002E008C8121F08C1002AFAD17047704747
:103A7000002001E001C1121F002AFBD170470000A5
:103A80002DE9FF5F82B00021DDE90430020DDDF891
:103A900040B0034318D044F61050A2F2FF32424324
:103AA0001514119801281FD0A5EB0B00401C5FEAEC
:103AB000000A4FF000064E4FDFF83891B0465046EE
:103AC00015D5CAF1000413E0119801244AA3012876
:103AD00001D16FEA0B010298119AC0E90031C0E9E7
:103AE000024206B0BDE8F09FCBF10000DFE70446DC
:103AF0000021404A491842EB0450CDE9001012E081
:103B0000E00707D032463B4640464946FCF711FDE8
:103B10008046894632463B4610461946FCF709FD69
:103B200006460F466410002CEAD1DDE90401DDE908
:103B30000023BAF1000F06DAFCF7FBFC42464B46C5
:103B4000FCF7F7FC05E0FCF766FD42464B46FCF748
:103B500062FD04460E460022284BFCF7E3FD03D825
:103B60004FF0FF30014607E00022254B204631464A
:103B7000FCF738FCFCF7BEFD102409E0002C0ADB42
:103B80000A220023FCF77EFB039B30321A55641E89
:103B900050EA0102F2D1641C039AC4F111031444E7
:103BA000119A012A03D0012208430DD10AE00843EB
:103BB00004D000204FF0110B119072E7A3EB0B051E
:103BC0006D1E0DE05B4504DD4FF0000205F10105BF
:103BD00004E003DA4FF00002A5F10105002AECD061
:103BE00002981199C0E90231C0E9004579E7000067
:103BF000000014400000F03F300000000000F043DF
:103C00000000E03F2DE9FF4F95B09A4688460646F2
:103C10000025EEE1252877D100242746F94A012125
:103C2000039400E0044316F8013F203B01FA03F03F
:103C30001042F7D130782A2811D06FF02F03307856
:103C4000A0F13002092A16D8039A44F0020402EBCC
:103C5000820203EB42021044761C0390EFE758F80F
:103C6000042B0392002A03DA504244F400540390D8
:103C700044F00204761C30782E2816D116F8010F75
:103C800044F004042A280DD06FF02F023078A0F100
:103C90003003092B09D807EB870302EB4303C7184E
:103CA000761CF3E758F8047B761C30786C280FD02C
:103CB00006DC4C2817D068280DD06A2814D104E0FF
:103CC000742810D07A280FD10DE044F400140AE0D3
:103CD00044F4801401E044F440147278824202D12A
:103CE00004F58014761C761C307866280BD013DC23
:103CF000582877D009DC002875D04528F6D046280A
:103D0000F4D047281AD193E118E0632835D064280D
:103D100079D0652812D18BE1702873D008DC672830
:103D2000F1D069286FD06E280DD06F2806D1ACE095
:103D300073282CD0752874D0782853D05246179900
:103D400090476D1C54E1C4F30250022809D00328A7
:103D50000DD0D8F8001004280DD00D6008F104082B
:103D600046E1D8F80010EA17C1E90052F6E7D8F8A2
:103D700000100D80F2E70D70F0E718F8041B8DF8C5
:103D8000001000208DF80100EB46012003E058F8F8
:103D900004BB4FF0FF3061074FF0000102D40DE08B
:103DA00009F101018946B9420FDA8145F8DB1BF8B8
:103DB00009100029F4D108E009F101018946814286
:103DC000FADB1BF809100029F6D103985346A0EB43
:103DD000090721463846179A00F080FA284400EB7C
:103DE000090507E044E008E10DE01BF8010B52462D
:103DF00017999047B9F10109F7D253462146384641
:103E0000179AF2E039E00A21C4F302524FF0000B96
:103E10000091022A06D058F8040BC117032A09D0D2
:103E20000AE023E008F1070020F00702F2E80201AF
:103E3000904605E000B2C117042A01D140B2C11773
:103E4000002906DA0A460021404261EB02012D22D8
:103E500002E0220504D52B228DF80420012203E084
:103E6000E20701D02022F7E7914657E00A2100E05F
:103E700010214FF0000B00910BE010214FF0000BD0
:103E800044F004040827009103E008204FF0000BE1
:103E90000090C4F30252022A05D058F8040B002106
:103EA000032A08D008E008F1070020F00702F2E832
:103EB0000201904603E080B2042A00D1C0B24FF064
:103EC000000922072AD53278702A07D0DDF800C011
:103ED0008CF0100C5CEA0B0C05D00EE040228DF843
:103EE0000420012208E050EA010306D030238DF8B7
:103EF00004308DF8052002229146009B83F00803D0
:103F000053EA0B030AD150EA010201D1620705D539
:103F100030228DF804204FF001097F1E3278582A94
:103F200004D039A20C920CAA02920BE03BA2F9E752
:103F30005B46009AFCF7A6F90C9B9B5C029A521E0A
:103F40000292137050EA0102F2D1029804A9081AF1
:103F500000F1200B600702D524F4803400E0012733
:103F60005F4502DDA7EB0B0000E0002000EB0B013A
:103F7000009003984944401A0390E00306D4534646
:103F80002146179A039800F0A9F90544002706E096
:103F900001A85246C05D179990476D1C7F1C4F4584
:103FA000F6DBE0030CD553462146179A039800F040
:103FB00095F9054404E030205246179990476D1C4E
:103FC0000099481E00900029F5DC08E0029802994B
:103FD00052460078491C0291179990476D1CBBF11D
:103FE0000001ABF1010BF1DC5BE100F065F9054488
:103FF000761C307800287FF40DAE19B02846BDE855
:10400000F08F000009280100303132333435363763
:104010003839616263646566000000003031323314
:1040200034353637383941424344454600000000B4
:10403000600700D4062708F1070020F00700F0E829
:104040000223804603F0004C5FEA0C0001D097A0E9
:1040500009E0200501D596A005E0E00701D095A074
:1040600001E0AFF24C001390307823F00043652854
:104070000CD006DC452809D046281DD047287FD122
:104080003BE0662818D067287AD136E00021112F4E
:1040900001DB112000E0781CCDE9000104A90CA887
:1040A000FFF7EEFCDDE90D010C9A4FF0000B07F174
:1040B0000109109200914EE04FF000400097CDE9C9
:1040C000011004A90CA8FFF7DBFCDDE90D020C9B35
:1040D0000F994FF0000B91461093009211B9791C83
:1040E00000EB0109B7EB090003D4C0F1FF3B07F176
:1040F0000109A9EB0700019042E0012F00DA012736
:104100000021112F01DD112000E03846CDE900012A
:1041100004A90CA8FFF7B4FCDDE90D010C9A00918D
:104120004FF0000BB946109221070FD4009A4A4570
:1041300003DA914601E0A9F10109B9F1010F05DDAA
:10414000109AA9F10101515C3029F4D0B84202DA89
:1041500010F1040F03DA0121CDE9011010E000286D
:1041600003DC8344A9EB000102E0411C494500DD6A
:104170008946A0EB0B00401C01904FF000400290DC
:10418000200705D40198484502DB4FF0FF3001902D
:1041900000208DF84B0002980DF14B07B0F1004F55
:1041A00025D002200C902B200D90029800280CDACC
:1041B000404202902D200D9007E00A210298FCF762
:1041C000DCF83031029007F8011D0C99481E0C9064
:1041D0000029F2DC02980028EFD1791E0D980870B2
:1041E000307800F0200040F0450007F8020D11A8DB
:1041F000C01BC01D02901398007800B1012000EB95
:104200000901019801EBE071029801440398401AFA
:10421000401E0390E00306D453462146179A0398A4
:1042200000F05CF805441398007818B152461799CD
:1042300090476D1CE00323D553462146179A0398F7
:1042400000F04CF805441BE0BBF1000F07DB0098C1
:10425000584504DD1098179910F80B0001E01799E4
:1042600030205246904701980BF1010B401E05F19A
:104270000105019004D12E205246179990476D1CDC
:10428000B9F10001A9F10109DEDC05E017F8010B25
:104290005246179990476D1C0299481E02900029BA
:1042A000F4DC53462146179A03989EE62D00000041
:1042B0002B000000200000002DE9F04104460025FD
:1042C0001E461746880404D405E039462020B0472E
:1042D0006D1C641EF9D52846BDE8F0812DE9F0413A
:1042E000044600251E469046C80301D5302700E04D
:1042F0002027880404D505E041463846B0476D1CA8
:10430000641EF9D52846BDE8F0814A68002A06D027
:104310000A68531C0B6010704868401E4860704764
:104320000C480068032812D300200A4908600A4894
:104330000078022804DB002007490870401E7047FF
:1043400005480078401C044908700020F7E7012068
:10435000F5E70000E8000020EC00002010B504465E
:1043600000BF082C02DB4FF0FF3010BD00BFA100E2
:10437000491C4FF4807202EBC1001021FFF7A2FA32
:1043800000BFA100491C4FF4807202EBC100FFF78F
:1043900019FA0028F5D1A100491C4FF4007202EB74
:1043A000C1001F21FFF78EFA0120A0400F490988A4
:1043B00081430E4801800120A0400D4909888143B6
:1043C0000B48018000200B4921F814000A490855C8
:1043D00000BFA100491C4FF4407202EBC100FFF77F
:1043E000F1F90028F5D10120BFE700009A00002074
:1043F0009C000020AC4100209E0000202DE9F041EF
:1044000004460D4616461F4600BF082C03DB4FF03E
:10441000FF30BDE8F08100BF00BFA100491C0022B1
:1044200002EBC100FFF7CEF900F00300012802D033
:104430006FF00400EDE700BF00BFA100491C4FF47E
:10444000407202EBC100FFF7BDF9132802D06FF0F4
:104450000200DEE700BF2978687861F31F2001467B
:10446000A87861F31F200146E87861F31F20014618
:10447000481C00B111B96FF00B00CAE716B96FF014
:104480000A00C6E73112A200521C4FF4805303EB1E
:10449000C200FFF717FAF1B2A200521C4FF480538A
:1044A00003EBC20202F58070FFF70CFA102F02D165
:1044B0006FF00400ADE7A100491C002202EBC1002F
:1044C000FFF780F9092802D16FF00400A1E7A100ED
:1044D000491C4FF4406202EBC10004222946FFF759
:1044E0002BFAA100491C4FF4807202EBC100042199
:1044F000FFF7E8F900BFA100491C4FF4807202EBFE
:10450000C100FFF75FF90028F5D10120A0401B4949
:104510000988084008B100207BE722E0A100491C7F
:104520004FF4007202EBC100FFF74CF900F00800F5
:1045300058B1A100491C4FF4007202EBC1000821E0
:10454000FFF7C0F96FF00C0063E7A100491C4FF4BE
:10455000407202EBC100FFF735F910B96FF00300AC
:1045600057E7A100491C4FF4407202EBC100FFF76E
:1045700029F91728D2D101204BE700009A0000202A
:1045800070B504460D461646042332462946204699
:10459000FFF734FF70BD70B505460C46062D1CD2E2
:1045A000DFE805F003070B0F1317204602F000FBAE
:1045B00016E0204602F06CFA12E0207802F024FBAC
:1045C00070BD02F093FA20700AE0204602F02FFB43
:1045D00006E0204602F08FFA02E04FF0FF30EFE7EE
:1045E00000BF0020ECE72DE9F041B0B080460C465A
:1045F0001646C0236A462146404600F021FB054688
:10460000681C18B9002030B0BDE8F0812C44204669
:1046100000F0EFF80746A41CA41C241DA41C112FB5
:104620005DD2DFE807F05C091A5C5C163D171819CB
:104630005C5C1B285C2F5B0014F8010B307014F8D5
:10464000010B707014F8010BB07014F8010BF070CE
:1046500046E000BF00BF00BF00BF00BFC0236A46E6
:104660002146404600F0ECFA0546681C08B90020D7
:10467000C9E72C4434E014F8015B2C4414F8015BC6
:104680002C442DE0A41CC0236A462146404600F07D
:10469000D7FA0546681C08B90020B4E72C441FE08F
:1046A000C0236A462146404600F0CAFA0546681C07
:1046B00008B90020A7E72C44C0236A46214640469B
:1046C00000F0BEFA0546681C08B900209BE72C44A0
:1046D000241D241D241D241D241D01E000E000BF15
:1046E00000BF20468FE700002DE9F04FB1B08146B2
:1046F0008B4690461C46454632480088401C31494E
:10470000088008460188284600F026FD05464FF43B
:10471000807040EAC92080B200902846009900F0DD
:104720001BFD05460121284600F016FD0546002127
:10473000284600F011FD05460021284600F00CFD3A
:1047400005460021284600F007FD0546594601A808
:10475000FBF70AFE01AF3846FBF7FFFD1FFA80FAB0
:1047600000BF2E213846FBF7EEFD064616B1F01BC2
:1047700084B200E0544605F8014B04B911E022462A
:1047800039462846FBF7D3FD25441EB9002005F81D
:10479000010B06E0601C0744AAEB00001FFA80FA38
:1047A000DFE700BF0121284600F0D6FC05460121C5
:1047B000284600F0D1FC0546A5EB080000B231B058
:1047C000BDE8F08FE600002070B5B0B006460C469C
:1047D000C0236A462146304600F032FA0546681C7E
:1047E00010B9002030B070BD2C44A41CA41C20467D
:1047F000F8E7014611F8013B18020A78024490B22A
:10480000704770B504460025002600BFA100491C72
:104810004FF4185202EBC100FEF7D4FF0646A10088
:10482000491C4FF4185202EBC10101F58070FEF7EC
:10483000C9FF00EB062086B2AEB1A100491C4FF4BF
:10484000185202EBC100FEF7BDFF0546A100491C4E
:104850004FF4185202EBC10101F58070FEF7B2FF70
:1048600000EB052085B2B542D0D1284670BD70B5A9
:1048700004460025002600BFA100491C4FF4005249
:1048800002EBC100FEF79EFF0646A100491C4FF453
:10489000005202EBC10101F58070FEF793FF00EBBF
:1048A000062086B2AEB1A100491C4FF4005202EBC3
:1048B000C100FEF787FF0546A100491C4FF40052D6
:1048C00002EBC10101F58070FEF77CFF00EB0520D3
:1048D00085B2B542D0D1284670BD0000C2B0FCF709
:1048E000C1FBFEF727FCFDF777FFFDF71BFFFDF788
:1048F000DFFFFDF7FFFFFEF719F800BF00BF00BFA5
:1049000040A041A341A24FF48071009002A8FFF79C
:1049100057F80446002C0ADDFF2C08DC00BF002CF1
:1049200004DD02AA214645A001F096FD00BF00BFAC
:1049300000BF34A034A343A24FF48071009002A8BA
:10494000FFF73EF80446002C0ADDFF2C08DC00BF10
:10495000002C04DD02AA214638A001F07DFD00BF35
:1049600000BF00BF27A028A341A24FF48071009090
:1049700002A8FFF725F80446002C0ADDFF2C08DC0E
:1049800000BF002C04DD02AA21462CA001F064FD2A
:1049900000BF00BF00BF1BA01BA33DA24FF480714E
:1049A000009002A8FFF70CF80446002C0ADDFF2C4B
:1049B00008DC00BF002C04DD02AA21461FA001F084
:1049C0004BFD00BF00BF00BF0EA00FA30FA24FF40E
:1049D0008071009002A8FEF7F3FF0446002C0ADD68
:1049E000FF2C08DC00BF002C04DD02AA214613A026
:1049F00001F032FD00BF00BFFDF7CCFE00F06DF806
:104A000000BFFEE7493A000000000000257325734F
:104A1000203D3D3D3D3D3D3D3D3D3D3D3D3D3D3DE3
:104A20003D3D3D3D3D3D3D3D3D3D3D3D3D3D3D3DB6
:104A30003D3D3D3D3D3D3D0D0A000000252E2A73C4
:104A400000000000257325732053544D3332463443
:104A5000204672656552544F532052545420507270
:104A60006F6A65637420537461727465640D0A0023
:104A7000257325732053797374656D20436C6F63C0
:104A80006B3A20313638204D487A0D0A000000007C
:104A90002573257320525454204C6F67205379732B
:104AA00074656D20496E697469616C697A65640D1D
:104AB0000A00000001460020842901D0CA1C1044CD
:104AC000704770B5044625460DB1294600E0012126
:104AD000084601F0E5FD002070BD10B501F00EFEA6
:104AE000002010BD7FB504460D46606998B1A069ED
:104AF00088B1B4F90800FFF7DDFF0646D4E90510D8
:104B0000CDE9006102902B462269D4E9001002F041
:104B100009FA039013E0B4F90800FFF7CBFF06464B
:104B200003A8CDE90060238A9AB22B46D4E900108D
:104B300002F0C6F9012802D0002004B070BD03982D
:104B4000FBE72DE9F0470446894692464F4612217D
:104B50002046FBF7E1FB3846FFF74BFE2080B81CF0
:104B6000FFF747FE064606F4004008B10120A0709A
:104B7000C6F3C320E07006F4806008B10120207104
:104B800006F4007008B10120607106F4807008B16D
:104B90000120A07106F0800008B10120E07106F04C
:104BA0000F002072381DFFF724FE6081B81DFFF74B
:104BB00020FEA08107F10800FFF71BFEE08107F14E
:104BC0000A00FFF716FE208207F10C0800250DE011
:104BD00041463846FFF7F8FD8046B8F1000F03D193
:104BE0004FF0FF30BDE8F087681C85B26089A842AD
:104BF000EEDC00250DE0524641463846FFF7F3FC57
:104C00008046B8F1000F02D14FF0FF30EAE7681C90
:104C100085B2A089A842EEDC002501E0681C85B2BF
:104C2000E089A842FADC002501E0681C85B2208AF0
:104C3000A842FADC207A08B90120D3E70020D1E7A6
:104C40002DE9F04307468C461C4600250026A84661
:104C5000614600BF11F8013B06B96D1C03F0C000AE
:104C6000C0280AD106B96D1C0126087803F03F0957
:104C700000EB0920C11911F8013B03B91BE0581CD6
:104C8000201A04B2002C03DA4FF0FF30BDE8F083A5
:104C900006B91D4403E011F8010B02F8010B181EC0
:104CA000A3F101091FFA89F3F5D12E2002F8010BB7
:104CB00008F10108CEE700BFB8F1000F04D12E20A3
:104CC00002F8010B601E04B2002002F8010B601E06
:104CD00004B22846DAE700002DE9F04105460E4609
:104CE0001C4807681C480068001D01F0D5FB50B93E
:104CF0001948006890F82C1001208840174909686D
:104D0000814316480160681C38B936B11248016801
:104D1000091D134801F00AFC1AE07C190E480068CE
:104D20004460BC4207D20C480168091D0D48006868
:104D300001F0E2FB0CE008480168091D0A48006820
:104D400001F0DAFB09480068844201D20748046098
:104D5000BDE8F0812C000020180000203000002069
:104D600098050020200000201C00002048000020A2
:104D700010B5044601F0E6FB23480068401C2249B8
:104D800008602248006840B920480460084600686E
:104D900001280DD100F03EF90AE01D48006838B93D
:104DA0001A480068C06AE16A884201D8174804605E
:104DB00018480068401C1749086094F82C1001201E
:104DC000884015490968084313490860E16A01EB06
:104DD0008101124A02EB8100211D01F0A7FB01F0C5
:104DE000DBFB0B48006868B108480068C06AE16AEC
:104DF000884207D24FF0805009490860BFF34F8FB7
:104E0000BFF36F8F10BD00002800002018000020A5
:104E1000340000204400002030000020BC040020AA
:104E200004ED00E010B516E001F08CFB0C48C06802
:104E3000C468201D01F030FB0A480068401E094983
:104E4000086009480068401E0749086001F0A4FB9B
:104E5000204600F00BF8044800680028E4D110BD9B
:104E600084050020280000202400002010B50446FE
:104E700094F8510030B9206B01F0ACFB204601F0F2
:104E8000A9FB1AE094F85100012803D1204601F053
:104E9000A1FB12E094F85100022801D1012000E0AA
:104EA000002050B900BF502080F31188BFF34F8F0E
:104EB000BFF36F8F00BF00BFFEE710BD30B54FF4EA
:104EC0007053174800F007042CB1C01D20F00700F4
:104ED000134C041B1B1B0246124C22600024114D74
:104EE0006C60D018083820F007000F4C20600024B8
:104EF0000D4D2D686C600C4D2D682C601146441AC8
:104F00004C60094C24680C60084D4C682C60084DBE
:104F10004C682C604FF00044064D2C6030BD000002
:104F2000AC050020540000205C000020640000203C
:104F3000600000207000002000BFFFF773FF0648EC
:104F400000680128F9D94FF0805004490860BFF388
:104F50004F8FBFF36F8FF0E7BC04002004ED00E03B
:104F60002DE9FF5F81460E469246DDE90E7B109CDF
:104F7000AAF10100216B01EB800828F0070808F076
:104F8000070008B9012000E0002050B900BF502000
:104F900080F31188BFF34F8FBFF36F8F00BF00BF47
:104FA000FEE786B1002507E0715D04F1340041554C
:104FB000705D00B902E06D1C102DF5D300BF00211B
:104FC0004320015502E0002084F83400072F00D36D
:104FD0000627E76267640020A064201D01F089FABB
:104FE00004F1180001F085FA2461C7F10700A061FF
:104FF00064620020E06484F8500049464046039A09
:1050000000F056F92060BBF1000F01D0CBF8004052
:10501000BDE8FF9F10B5002407E004EB84010F4AB0
:1050200002EB810001F058FA641C072CF5D30C4800
:1050300001F052FA0B4801F04FFA0B4801F04CFA1C
:105040000A4801F049FA0A4801F046FA04480949B9
:10505000086004480849086010BD0000BC04002036
:10506000480500205C050020700500208405002014
:10507000980500201C0000202000002010B50146EB
:10508000164800E0006803688B42FBD30246436881
:1050900013448B4204D143684C6823444360014667
:1050A0000A464B6813440468A34211D10C4C0368B0
:1050B0002468A34208D04B680468646823444B60AA
:1050C00003681B680B6005E0054B1B680B6001E083
:1050D00003680B60884200D0016010BD54000020BE
:1050E0005C0000200A490968096809B9012100E04B
:1050F000002121B14FF0FF31064A116006E004495A
:105100000968C968C868034A4168116070470000AF
:105110001C000020480000200E480068401C08B910
:10512000012000E0002050B900BF502080F311881A
:10513000BFF34F8FBFF36F8F00BF00BFFEE700BF0D
:10514000502080F31188BFF34F8FBFF36F8F00BFE4
:1051500000BFFEE7740000200A1200F8012B00F8DF
:10516000011B70472DE9F04104464FF0000801F0A3
:105170001DFB4948006808B9FFF7A0FE47480068D2
:105180002040002870D1D4B1083404F00700B0B139
:1051900004F00700C0F10800044404F0070008B957
:1051A000012000E0002050B900BF502080F311889A
:1051B000BFF34F8FBFF36F8F00BF00BFFEE7002C20
:1051C00052D03748006884424ED8364E3046056883
:1051D00001E02E462D686868A04202D228680028A7
:1051E000F7D12D48006885423ED0306800F10808AC
:1051F000286830606868001B102819D92F1907F03B
:10520000070008B9012000E0002050B900BF50207D
:1052100080F31188BFF34F8FBFF36F8F00BF00BFC4
:10522000FEE76868001B78606C603846FFF726FF71
:105230001B4968680968081A194908600846006827
:1052400019490968884203D2154800681649086060
:10525000124968680968084368600020286013489C
:105260000068401C1149086001F05EFF08F007006B
:1052700008B9012000E0002050B900BF502080F3A1
:105280001188BFF34F8FBFF36F8F00BF00BFFEE7E2
:105290004046BDE8F08100005C0000207000002066
:1052A00060000020540000206400002068000020FE
:1052B000001F4FF080730360001F21F001030360A3
:1052C000001F054B036014380260001F6FF00203DB
:1052D0000360203870470000195100082DE9F0479D
:1052E0000446884616460027002500BF082C02DB2E
:1052F000681EBDE8F08700BF00BFA100491C002266
:1053000002EBC100FEF75EFA00F00F00012802D0A8
:105310006FF00400EDE700BF00BF16B96FF00D009D
:10532000E7E700BFA100491C4FF4F05202EBC100B7
:10533000FEF748FA4FF6FF7101EA8025B54200DA20
:105340002E4637E02046FFF75CFA0546A100491CCF
:105350004FF4407202EBC100FEF734FA0746172FF4
:105360001ED01C2F16D105B125E02046FFF77FFA8D
:105370008146A100491C4FF4F85202EBC100FEF730
:1053800021FAB9EB802F0BD12046FEF7E7FF6FF033
:105390000600AEE72046FEF7E1FF6FF00600A8E743
:1053A0000120A04013490988084008B10020A0E767
:1053B00005B100E0C6E700BFB54200DA2E4632462E
:1053C0004146204601F0A4FAA100491C4FF4807226
:1053D00002EBC1004021FEF775FA00BFA100491C95
:1053E0004FF4807202EBC100FEF7ECF90028F5D112
:1053F00030467EE79A0000202DE9FC5F04468A468D
:1054000016461D46DDE90C8B002700BF082C02DB89
:10541000781EBDE8FC9F00BFA100491C002202EBE2
:10542000C100FEF7CFF9814600F00F00022806D038
:10543000032805D0042805D00B2804D101E000BFC3
:1054400000BF00BF02E06FF00400E2E700BF00BF52
:1054500016B96FF00D00DCE700BFAF4830F814005C
:10546000E8B91AE02046FFF7CCF90746A100491C2D
:105470004FF4407202EBC100FEF7A4F910B96FF0CF
:105480000300C6E70120A040A4490988084010B1E4
:105490000FB90020BDE707B100E0E3E700BF09F066
:1054A00007000A280DD006DC022809D003287CD08A
:1054B00004287BD15FE00B2879D00E28F9D101E0D8
:1054C00000BF00BF944830F81400E8BB08226946CA
:1054D000204601F01DFAA100491C4FF4807202EB36
:1054E000C1004021FEF7EEF900BFA100491C4FF4B6
:1054F000807202EBC100FEF765F90028F5D19DF836
:10550000000028709DF8010068709DF80200A870E6
:105510009DF80300E8709DF80400A8F800009DF8CD
:10552000050098F8001000EB0120A8F800009DF895
:105530000600794921F814009DF8070011F81410AD
:1055400000EB0120744900E004E021F81400802001
:1055500073490855704830F81400B04201DD3746F1
:1055600002E06D4830F814703E463A4651462046F7
:1055700001F0CEF9A4E0684830F81400C0BB022264
:105580006946204601F0C4F9A100491C4FF480721D
:1055900002EBC1004021FEF795F900BFA100491CB4
:1055A0004FF4807202EBC10002E036E080E033E0AD
:1055B000FEF708F90028F1D19DF80000564921F8BE
:1055C00014009DF8010011F8141000EB0120801E5A
:1055D000514921F81400084630F8140040F2EA510D
:1055E000884206DD2046FEF7B9FE6FF47A7010E7B8
:1055F00002E080204A490855474830F81400B0427C
:1056000001DD374602E0444830F814703A4651460E
:10561000204601F07DF953E000BF3F4830F8140008
:10562000E0BB06226946204601F072F9A100491C40
:105630004FF4807202EBC1004021FEF743F900BF36
:10564000A100491C4FF4807202EBC100FEF7BAF8CA
:105650000028F5D19DF8000028709DF801006870C1
:105660009DF80200A8709DF80300E8709DF8040002
:10567000294921F814009DF8050011F8141000EBD9
:105680000120254921F81400802025490855224889
:1056900030F81400B04202DD374603E007E01E4850
:1056A00030F814703A465146204601F031F907E0CF
:1056B0003946204601F06EF9174820F8147000BFF3
:1056C00000BFA100491C4FF4807202EBC1004021D1
:1056D000FEF7F8F800BFA100491C4FF4807202EBFE
:1056E000C100FEF76FF80028F5D10B4830F8140020
:1056F000C01B094921F81400084630F8140030B1E5
:105700000748005D40F001000549085502E000200F
:105710000349085538467CE6AC4100209A00002039
:105720009E0000202DE9FE4304460D4616461F4606
:10573000DDF82880042002900DF108093B4632462E
:1057400029462046CDE90089FFF756FEBDE8FE83D5
:1057500000B131B9054A064BDA60064B044A1361C1
:1057600002E0034AD060116170470000896A0008B6
:10577000A80000208B6A000800B131B9054A064B29
:105780005A61064B044A936102E0034A50619161F9
:10579000704700008F6A0008A80000208D6A00088A
:1057A00000BF094A128802F40072002AF9D000B141
:1057B00031B9064A044BDA61054B034A136202E031
:1057C000014AD06111627047A8000020BD6C00083A
:1057D000E56C000800BF094A128802F40072002A32
:1057E000F9D000B129B9064B044A5362054B9362C4
:1057F00002E0024A5062916270470000A800002057
:10580000996C0008C16C00082DE9F04104468846F7
:1058100016460025002700BF082C02DB681EBDE8E5
:10582000F08100BF00BFA100491C002202EBC100B3
:10583000FDF7C8FF00F00F00012802D06FF0040050
:10584000EDE700BF00BF16B96FF00D00E7E700BF3E
:10585000A100491C4FF4407202EBC100FDF7B2FFFA
:105860000546172D04D01C2D02D06FF00600D6E798
:105870000120A04064490988084040B3A100491CA8
:105880004FF4007202EBC100FDF79CFF00F01F0512
:1058900005F0100080B1A100491C4FF4007202EB2A
:1058A000C1001021FEF70EF80120A04056490988DA
:1058B0008143554801800AE005F0080028B12046E0
:1058C000FEF74CFD6FF00C00A9E70020A7E7A10050
:1058D000491C4FF4F85202EBC100FDF773FF4FF67D
:1058E000FF7101EA8027BE4200DD3E4624E02046EB
:1058F000FEF7BDFF0746A100491C4FF4407202EBC2
:10590000C100FDF75FFF0546172D08D01C2D06D0FE
:1059100015B92046FEF722FD6FF006007FE7012053
:10592000A0403A490988084018B1BE4201DD002074
:1059300075E7BE4200DC00E0D9E700BF32464146D1
:10594000204601F05AF80120A0402F49098808405C
:10595000E0B326E0A100491C4FF4407202EBC10005
:10596000FDF730FF0546172D13D01C2D11D055B172
:10597000A100491C4FF4007202EBC100FDF722FFA9
:1059800000F0080010B12046FEF7E8FC6FF00600BA
:1059900045E70120A0401D490988084008B10020C2
:1059A0003DE7A100491C4FF4007202EBC100FDF776
:1059B00009FF00F010000028CCD0A100491C4FF4D2
:1059C000007202EBC1001021FDF77CFFA100491C11
:1059D0004FF4807202EBC1002021FDF773FF00BF7E
:1059E000A100491C4FF4807202EBC100FDF7EAFEF2
:1059F0000028F5D10120A040034909880843024945
:105A0000088030460BE700009C0000209A00002030
:105A10002DE9FF4F81B0044616461F46DDE90E8B87
:105A20000025202000904FF0000900BF082C03DB68
:105A3000681E05B0BDE8F08F00BFA100491C002220
:105A400002EBC100FDF7BEFE00F00F00022806D0F9
:105A5000032806D0042803D00B2804D102E000BF9D
:105A600000BF00BF02E06FF00400E2E700BFA1004A
:105A7000491C002202EBC100FDF7A4FE0546042DDF
:105A80001FD0BBF1100F02D16FF00400D1E7BBF1C2
:105A9000040F13D10A2D01D00B2D02D16FF0040099
:105AA000C7E7A100491C4FF4406202EBC100042289
:105AB0003946FDF741FF2020009002E06FF00B0017
:105AC000B7E705F0030002281BD1B8F1000F15D08D
:105AD0004FEA2821A200521CC30203EBC200FDF7CB
