:020000040800F2
:10000000784A0020610200082D240008E52100083C
:10001000292400083D0500086D320008000000009A
:10002000000000000000000000000000A101000826
:100030003906000800000000FD010008392C000806
:100040007B0200087B0200087B0200087B0200089C
:100050007B0200087B0200087B0200087B0200088C
:100060007B0200087B0200087B0200087B0200087C
:100070007B0200087B0200087B0200087B0200086C
:100080007B0200087B0200087B0200087B0200085C
:100090007B0200087B0200087B0200087B0200084C
:1000A0007B020008352D00087B0200087B02000857
:1000B0007B0200087B0200087B0200087B0200082C
:1000C0007B0200087B0200087B0200087B0200081C
:1000D0007B0200087B0200087B0200085D320008FA
:1000E0007B0200087B0200087B0200087B020008FC
:1000F0007B0200087B0200087B0200087B020008EC
:100100007B0200087B0200087B0200087B020008DB
:10011000252E00087B0200087B0200087B020008F5
:100120007B0200087B0200087B0200087B020008BB
:100130007B02000800000000000000007B020008B5
:100140007B0200087B0200087B0200087B0200089B
:100150007B0200087B0200087B0200087B0200088B
:100160007B0200087B0200087B0200087B0200087B
:100170007B0200087B020008000000000000000075
:100180007B0200087B020008DFF810D000F014F9B1
:10019000004800476D400008AFF30080784A002017
:1001A0002C4B19680868B0E8F04F80F30988BFF35A
:1001B0006F8F4FF0000080F311887047000000003F
:1001C00008480068006880F308884FF0000080F35A
:1001D000148862B661B6BFF34F8FBFF36F8F00DF35
:1001E00000BF00BF08ED00E0DFF80C00016841F43B
:1001F00070010160704700BF88ED00E0EFF30980F7
:10020000BFF36F8F134B1A681EF0100F08BF20ED5D
:10021000108A20E9F04F106009B44FF0500080F3CD
:100220001188BFF34F8FBFF36F8F05F02FFE4FF094
:10023000000080F3118809BC19680868B0E8F04F25
:100240001EF0100F08BFB0EC108A80F30988BFF3CE
:100250006F8F704718000020EFF305807047000093
:100260000648804706480047FEE7FEE7FEE7FEE750
:10027000FEE7FEE7FEE7FEE7FEE7FEE7212D0008CA
:10028000890100082DE9F05F0546002092469B4653
:1002900088460646814640241BE02846414647469C
:1002A000224600F079F853465A46C01A914110D3BD
:1002B00011461846224600F060F82D1A67EB010837
:1002C0004F4622460120002100F057F817EB0009A5
:1002D0004E41201EA4F10104DFDC484631462A4687
:1002E0004346BDE8F09F40EA01039B0703D009E0C5
:1002F00008C9121F08C0042AFAD203E011F8013B12
:1003000000F8013B521EF9D27047D2B201E000F86A
:10031000012B491EFBD270470022F6E710B51346A9
:100320000A4604461946FFF7F0FF204610BD10B5F7
:10033000044604E00B7800F8013B03B1491C521E4F
:10034000F8D2204610BDCAB2401E10F8011F8A42E2
:1003500002D00029F9D100207047421C10F8011B7F
:100360000029FBD1801A7047034611F8012B00F8D1
:10037000012B002AF9D118467047202A04DB203AC5
:1003800000FA02F1002070479140C2F1200320FAE8
:1003900003F3194390407047202A04DB203A21FAE6
:1003A00002F00021704721FA02F3D040C2F120028E
:1003B0009140084319467047064C074D06E0E06837
:1003C00040F0010394E8070098471034AC42F6D39C
:1003D000FFF7DEFE646900088469000855494A6831
:1003E00022F440324A604A6843681A434A6002680D
:1003F000526822F4807203685A6002685368026986
:1004000043EA022203685A600268526822F040728E
:1004100003685A600268526883681A4303685A6026
:100420000268926822F4006203689A600268926827
:10043000C3681A4303689A603F4B826A9A4218D095
:100440000268926822F0706203689A60026892689B
:10045000836A1A4303689A600268926822F04052E5
:1004600003689A6002689268C36A1A4303689A60D4
:100470000BE00268926822F0706203689A6002687A
:10048000926822F0405203689A600268926822F0F3
:10049000020203689A6002689368027E43EA42029D
:1004A00003689A602022125CA2B10268526842F48A
:1004B000006203685A600268526822F4604203686E
:1004C0005A6002685368426A521E43EA4232036825
:1004D0005A6005E00268526822F4006203685A60BC
:1004E0000268D26A22F470020368DA620268D36A90
:1004F000828B521E43EA02520368DA6202689268F3
:1005000022F4007203689A600268936890F83020C1
:1005100043EA422203689A600268926822F4806289
:1005200003689A6002689368426943EA822203681A
:100530009A607047002301400100000F00BFFEE7F2
:10054000044A1070044A116041F22212034B1A80CF
:1005500070470000E4000020E0000020E6000020DA
:100560002DE9F04389B005460F46904600202E49FC
:1005700008702E49086000231A4602212C48007892
:1005800004F068FF4FF480732A483946026800205F
:1005900003F072FC86B235202B4632460090254887
:1005A00001682348007804F041FF35E020480078D6
:1005B00003F0EFFC061E17DDB6F5807F01DD4FF47A
:1005C000807602A803AB324600901A4801681848AA
:1005D000007804F05FFC86B242461648016804A821
:1005E00003F067FE814618E003F062FA0446002C2F
:1005F00007DA0F48007803F079FA002009B0BDE867
:10060000F0834CB935202B463246009009480168EA
:100610000748007804F00AFFC8E700BF04480078E4
:1006200003F064FA4846E9E7EC000020E800002007
:10063000E4000020E0000020704772B600BFFEE733
:1006400038B502460020009000BF92F83C00012817
:1006500001D1022038BD012082F83C0000BF0868AB
:10066000092816D91068C0680C780A3C04EB4405C8
:100670000724AC40A0431468E0600C780A3C04EB0B
:1006800044048868A0401468E46820431468E0606B
:1006900013E0106800690C7804EB44050724AC40B3
:1006A000A043146820610C7804EB44048868A040DF
:1006B000146824692043146820614868072817D209
:1006C0001068406B0C79641E04EB84051F24AC4059
:1006D000A04314686063088880B20C79641E04EB40
:1006E0008404A0401468646B20431468606331E0A4
:1006F00048680D2817D21068006B0C79E41F04EBD2
:1007000084051F24AC40A04314682063088880B28D
:100710000C79E41F04EB8404A0401468246B20438C
:100720001468206316E01068C06A0C790D3C04EB75
:1007300084051F24AC40A0431468E062088880B29E
:100740000C790D3C04EB8404A0401468E46A204357
:100750001468E062194B1A4C1068A04206D1086870
:10076000122803D1586840F480005860144C106877
:10077000A0421CD10868102802D00868112816D1A0
:10078000586840F400005860086810280FD10D48E0
:1007900000680D4CB0FBF4F000EB800040000090CE
:1007A00002E00098401E009000980028F9D100BF98
:1007B000002082F83C0000BF00BF4BE7002301404F
:1007C000002001401400002040420F0070B5044694
:1007D00000250CB9012070BD1549A06A884200D0DF
:1007E00000BF206C30B9204600F024F8002060647F
:1007F00084F83C00206C00F0100088B9206C20F4D4
:10080000885040F0020020642046FFF7E7FD0020FA
:100810006064206C20F0020040F00100206400E0E1
:10082000012500BF002084F83C0000BF2846D2E725
:100830000100000F10B586B00446142101A8FFF78F
:100840006BFD1949206888422BD100BF0020009021
:100850001648006840F48070144908600846006833
:1008600000F48070009000BF00BF00BF0020009027
:100870000E481438006840F004000C491439086030
:100880000846006800F00400009000BF00BF082088
:100890000190032002900020039001A9044800F079
:1008A00087F806B010BD0000002001404438024027
:1008B0000008024070B50446A56D00F083F90646B5
:1008C00094F83500022808D08020606500BF002021
:1008D00084F8340000BF012070BD2068006820F05B
:1008E0001600216808602068406920F080002168B7
:1008F0004861206C08B9A06C28B12068006820F01D
:100900000800216808602068006820F00100216864
:10091000086010E000F056F9801B05280BD9202054
:100920006065032084F8350000BF002084F834009F
:1009300000BF0320D0E72068006800F00100002815
:10094000E8D194F85C103F208840A860012084F82A
:10095000350000BF002084F8340000BF00BFBBE7B3
:10096000014691F83500022803D080204865012017
:100970007047052081F835000868006820F0010004
:100980000A6810600020F3E770B5044600F01AF919
:1009900006462546681C10B104480078054400BF8F
:1009A00000F010F9801BA842FAD370BD100000209F
:1009B000F8B502460B460025002400200021D6E0B1
:1009C000012606FA01F51E6806EA0504AC4274D158
:1009D0001E7906F00306012E04D01E7906F00306E8
:1009E000022E13D190684F000326BE40B0434F0043
:1009F000DE68BE4030439060506801268E40B043B0
:100A00001E79C6F300168E40304350601E7906F002
:100A10000306032E09D0D0684F000326BE40B04322
:100A20004F009E68BE403043D0601E7906F003063A
:100A3000022E13D1CF0802F1200656F827004E07E8
:100A4000F70E0F26BE40B0434F07FF0E1E69BE4093
:100A50003043CF0802F1200646F8270010684F0007
:100A60000326BE40B0431E7906F003064F00BE4089
:100A7000304310605E6806F44036002E76D000BF2A
:100A8000002600963C4E366846F480463A4F3E605B
:100A90003E46366806F48046009600BF00BF374EDB
:100AA0008F0856F827008E07370F0F26BE40B04339
:100AB000334EB24202D1002624E057E0314EB2421A
:100AC00001D101261EE0304EB24201D1022619E0CA
:100AD0002E4EB24201D1032614E02D4EB24201D176
:100AE00004260FE02B4EB24201D105260AE02A4E21
:100AF000B24201D1062605E0284EB24201D10726B6
:100B000000E008268F073F0FBE4030431B4E8F0882
:100B100046F82700224E3068A0435E6806F480162F
:100B200006B120431E4E3060361D3068A0435E681B
:100B300006F4001606B12043194E361D3060184EDB
:100B4000361F3068A0435E6806F4003606B12043C5
:100B5000134E361F3060361F3068A0435E6806F4BF
:100B6000803606B120430E4E083E3060491C1029E5
:100B7000FFF426AFF8BD00004438024008380140B9
:100B8000000002400004024000080240000C024045
:100B9000001002400014024000180240001C0240F5
:100BA000083C014010B5426921EA020302EA01044F
:100BB00043EA0443836110BD0AB1816101E00B0483
:100BC00083617047014800687047000008000020FA
:100BD00003480068034909780844014908607047E0
:100BE000080000201000002010B50D48006840F4F7
:100BF00000700B4908600846006840F48060086097
:100C00000846006840F480700860032000F0D6F8C1
:100C10000F2000F007F800F055F8002010BD00008C
:100C2000003C0240F0B587B004460026002700BF14
:100C3000002000901E48006840F001001C49086038
:100C40000846006800F00100009000BF00BF01A945
:100C500002A800F089F900F0BFF946001548B6FB7C
:100C6000F0F0471E14481549086040F2E731134878
:100C7000C1604760002101618160816100F00FFF68
:100C8000054695B90D4800F03FFF05466DB919209E
:100C900000F042F8102C07D200222146192000F063
:100CA0004FF80748046000E00125284607B0F0BD72
:100CB0004438024040420F0000000140740400200C
:100CC0000C00002008B500BF00200090114800680B
:100CD00040F480400F4908600846006800F48040F6
:100CE000009000BF00BF00BF00200090081F0068F8
:100CF00040F08050091F08600846006800F08050EE
:100D0000009000BF00BF00220F21901E00F018F8D5
:100D100008BD0000443802400146084600280DDBAB
:100D200000BF00BF00F01F0301229A4043099B004F
:100D300003F1E023C3F8002100BF00BF00BF7047EC
:100D40002DE9F05F80460D461646002702F04EFC66
:100D5000074639462A46334601F00700C0F1070A24
:100D6000BAF1040F02D94FF0040A01E0C0F1070AFA
:100D7000D14600F1040ABAF1070F02D24FF0000A7F
:100D800001E0A0F1030AD4464FF0010A0AFA09FA79
:100D9000AAF1010A0AEA020A0AFA0CFA4FF0010B58
:100DA0000BFA0CFBABF1010B0BEA030B4AEA0B0449
:100DB0002146404602F022FCBDE8F09F00BF00F053
:100DC0000702064B19684FF6FF031940044B0B430B
:100DD00043EA0221014B196000BF70470CED00E0AF
:100DE0000000FA0570B504460D460CB9012070BD2F
:100DF0005848006800F00700A84209D255490D7014
:100E00000846006800F00700A84201D00120EEE784
:100E1000207800F0020002281DD1207800F00400A4
:100E2000042805D14C48006840F4E0504A49086065
:100E3000207800F00800082805D14748006840F4F1
:100E40006040454908604448006820F0F000A1680F
:100E5000084341490860207800F00100A8B36068A9
:100E6000012807D13C4808380068C0F34040B8B9B1
:100E70000120BCE76068022802D06068032807D11F
:100E8000354808380068C0F3406048B90120AEE733
:100E9000314808380068C0F3400008B90120A6E7CF
:100EA0002D48006820F00300616808432A49086063
:100EB000FFF788FE064609E0FFF784FE801B41F23B
:100EC0008831884202D9032091E707E02248006870
:100ED00000F00C006168B0EB810FEDD11D48006897
:100EE00000F00700A84209D91A490D7008460068A9
:100EF00000F00700A84201D0012078E7207800F038
:100F00000400042807D11448006820F4E050E16888
:100F1000084311490860207800F00800082808D12B
:100F20000D48006820F46040216940EAC1000A4988
:100F3000086000F061F808490968C1F30311074A25
:100F4000515CC8400649086006480068FFF76AFE21
:100F500000204CE7003C0240083802403469000899
:100F6000140000200C0000200F2202600D4A1268BD
:100F700002F0030242600B4A126802F0F002826043
:100F8000084A126802F4E052C260064A126802F48B
:100F90006042D2080261044A126802F007020A6045
:100FA0007047000008380240003C024001480068D9
:100FB000704700001400002000B5FFF7F7FF044958
:100FC0000968C1F38221034A515CC84000BD00009A
:100FD000083802404469000800B5FFF7E7FF0449FC
:100FE0000968C1F34231034A515CC84000BD0000AA
:100FF00008380240446900082DE9F0470024002524
:101000000026A1462548006800F00C0020B1042805
:1010100005D008283AD105E0DFF8849039E0DFF800
:10102000849036E01D48001F006800F03F041B4814
:10103000001F006800F4800078B11A481749091FA2
:101040000968C1F38811A0FB017001462246002304
:101050003846FFF717F905460EE011480F49091FFA
:101060000968C1F38811A0FB0170014622460023E4
:101070003846FFF707F905460848001F0068C0F327
:101080000140401C4600B5FBF6F902E0DFF8109085
:1010900000BF00BF4846BDE8F087000008380240A6
:1010A0000024F40000127A00F8B504460CB90120BF
:1010B000F8BD207800F00100002874D0F9480068DD
:1010C00000F00C0004280DD0F648006800F00C0079
:1010D000082813D1F348001F006800F48000B0F521
:1010E000800F0BD1EF4808380068C0F3404000285B
:1010F00059D06068002856D10120D9E700BF606848
:10110000B0F5803F08D1E7480838006840F48030E7
:10111000E449083908601EE06068B0F5A02F0DD1E1
:10112000E0480838006840F48020DE49083908604B
:101130000846006840F4803008600CE0D948083860
:10114000006820F48030D7490839086008460068F4
:1011500020F48020086000BF606890B1FFF732FD86
:10116000054606E0FFF72EFD401B642801D9032049
:101170009EE7CC4808380068C0F340400028F1D012
:1011800011E0FFF71FFD054606E0FFF71BFD401BC2
:10119000642801D903208BE7C24808380068C0F3EF
:1011A00040400028F1D1207800F0020002285FD1F1
:1011B000BC48006800F00C0058B1BA48006800F064
:1011C0000C0008281CD1B748001F006800F48000FC
:1011D000B0B9B44808380068C0F3400020B1E068F6
:1011E000012801D0012063E7AE480838006820F0EC
:1011F000F800216940EAC100AA490839086037E0CF
:10120000E06800B30120A8490860FFF7DBFC054651
:1012100006E0FFF7D7FC401B022801D9032047E76F
:10122000A04808380068C0F340000028F1D09D486D
:101230000838006820F0F800216940EAC1009949A7
:101240000839086014E0002097490860FFF7BAFCED
:10125000054606E0FFF7B6FC401B022801D9032033
:1012600026E7904808380068C0F340000028F1D114
:10127000207800F0080008282CD16069A8B101206E
:101280008A490860FFF79EFC054606E0FFF79AFCD6
:10129000401B022801D903200AE782486C3000680D
:1012A000C0F340000028F1D014E000207F4908601E
:1012B000FFF788FC054606E0FFF784FC401B022888
:1012C00001D90320F4E677486C300068C0F3400091
:1012D0000028F1D1207800F00400042870D1002704
:1012E00070483830006800F0805090B900BF00208E
:1012F00000906C483830006840F0805069493831BF
:1013000008600846006800F08050009000BF00BFF1
:1013100001276748006800F48070B0B9644800682D
:1013200040F4807062490860FFF74CFC054606E017
:10133000FFF748FC401B022801D90320B8E65C48AF
:10134000006800F480700028F2D000BFA068012877
:1013500008D154486830006840F0010051496831B4
:1013600008601DE0A06805280DD14E48683000686F
:1013700040F004004B49683108600846006840F0BE
:10138000010008600CE047486830006820F0010068
:101390004449683108600846006820F0040008608D
:1013A00000BFA068A8B1FFF70DFC054609E0FFF7F4
:1013B00009FC401B41F28831884202D9032077E6BC
:1013C00026E0384868300068C0F340000028EED0BE
:1013D00013E0FFF7F7FB054608E0FFF7F3FB401BC0
:1013E00041F28831884201D9032061E62D486830F6
:1013F0000068C0F340000028EFD1012F07D1294831
:101400003830006820F0805026493831086000BF2D
:10141000A069002845D02348006800F00C00082887
:101420005DD0A069022845D100201F490866FFF75A
:10143000C9FB054606E0FFF7C5FB401B022801D9A2
:10144000032035E6174808380068C0F340600028DC
:10145000F1D1D4E907010843616A40EA8111012210
:10146000A06AC2EB500041EA00412C20005D41EA35
:1014700000600C49091F086001200B490866FFF74E
:10148000A1FB054606E0FFF79DFB401B022801D9A2
:1014900003200DE6034808380068C0F340600028C8
:1014A000F1D049E00838024000004742800E474230
:1014B00000700040002021490866FFF783FB0546C5
:1014C00006E0FFF77FFB401B022801D90320EFE570
:1014D0001B480068C0F340600028F2D12CE0A069EE
:1014E000012800D1E4E51648001D0668A06901281E
:1014F00020D006F48001E06981421BD106F03F0153
:10150000206A814216D147F6C0703040616AB0EB64
:10151000811F0FD106F440310122A06AC2EB5000B6
:10152000B1EB004F06D106F070612C20005DB1EBED
:10153000006F01D00120BBE50020B9E50000474263
:101540000038024010B504460CB9012010BD606A95
:1015500038B96068B0F5827F00D105E00021E16113
:1015600002E00021216161610021A16294F8510033
:1015700028B9002084F85000204600F047F80220E7
:1015800084F851002068006820F04000216808605D
:10159000A08800F48270218901F404410843A189E4
:1015A00001F400610843217C01F002010843217D20
:1015B00001F001010843218B01F400710843217FF0
:1015C00001F0380108432021095D01F08001084342
:1015D000218D01F400510843216808600421A069AD
:1015E00001EA104094F8241001F01001084321682A
:1015F00048602068C06920F400602168C86100204C
:101600006065012084F8510000209FE710B586B086
:101610000446142101A8FEF77FFE1B49206888427A
:101620002FD100BF002000901848006840F480507F
:10163000164908600846006800F48050009000BF1A
:1016400000BF00BF0020009010481438006840F030
:1016500001000E49143908600846006800F00100D6
:10166000009000BF00BFE020019002200290002007
:101670000390032004900520059001A90448FFF77A
:1016800097F906B010BD0000003001404438024018
:10169000000002402DE9F84304460F4616461D4659
:1016A000FFF790FA8046B14694F85100012802D025
:1016B0000220BDE8F88307B10EB90120F9E700BFA9
:1016C00094F85000012801D10220F2E7012084F8AB
:1016D000500000BF032084F851000020606527639C
:1016E000A686E686A063A087E08760642064A06881
:1016F000B0F5004F0BD12068006820F04000216851
:1017000008602068006840F4804021680860206814
:10171000006800F04000402805D02068006840F0D4
:10172000400021680860E068B0F5006F37D160685C
:1017300010B1B9F1010F09D1206B00882168C86090
:10174000206B801C2063E08E401EE08623E0206832
:10175000806800F0020002280AD1206B008821680E
:10176000C860206B801C2063E08E401EE08612E083
:10177000FFF728FAA0EB0800A84201D3681C00B9C3
:101780004DB9012084F8510000BF002084F85000BA
:1017900000BF03208DE7E08E0028D8D136E06068D6
:1017A00010B1B9F1010F09D1206B007821680873DD
:1017B000206B401C2063E08E401EE08623E0206802
:1017C000806800F0020002280AD1206B00782168AE
:1017D0000873206B401C2063E08E401EE08612E000
:1017E000FFF7F0F9A0EB0800A84201D3681C00B98C
:1017F0004DB9012084F8510000BF002084F850004A
:1018000000BF032055E7E08E0028D8D14246294684
:10181000204600F081FF08B120206065A06850B923
:1018200000BF002000902068C06800902068806899
:10183000009000BF00BF012084F8510000BF0020CD
:1018400084F8500000BF606D08B1012031E700202E
:101850002FE72DE9FE4F04460F4690461D460C9E8D
:1018600001200190FFF7AEF9814694F851B060680D
:101870000290AA46BBF1010F0BD00298B0F5827F0F
:1018800004D1A06810B9BBF1040F02D00220BDE85A
:10189000FE8F1FB1B8F1000F00D00DB90120F6E79F
:1018A00000BF94F85000012801D10220EFE7012089
:1018B00084F8500000BF94F85100042802D005209D
:1018C00084F8510000206065C4F83880E587A5875A
:1018D0002763E586A586206460642068006800F0C0
:1018E0004000402805D02068006840F04000216892
:1018F0000860E068B0F5006F52D1606810B1BAF1CD
:10190000010F09D1206B00882168C860206B801C02
:101910002063E08E401EE0863BE02068806800F097
:101920000200022810D1E08E70B1019801280BD17D
:10193000206B00882168C860206B801C2063E08ECB
:10194000401EE086002001902068806800F00100C1
:1019500068B1E08F58B12068C068A16B0880A06BA7
:10196000801CA063E08F401EE08701200190FFF7FC
:1019700029F9A0EB0900B0420BD3701C48B101203B
:1019800084F8510000BF002084F8500000BF0320FD
:101990007DE7E08E0028C0D1E08F0028BDD152E065
:1019A000606810B1BAF1010F09D1206B007821688D
:1019B0000873206B401C2063E08E401EE0863CE0F4
:1019C0002068806800F00200022810D1E08E70B11B
:1019D000019801280BD1206B007821680873206BD7
:1019E000401C2063E08E401EE086002001902068AD
:1019F000806800F0010068B1E08F58B12068C068CD
:101A0000A16B0870A06B401CA063E08F401EE087B4
:101A100001200190FFF7D6F8A0EB0900B04201D3F6
:101A2000701C00B94EB9012084F8510000BF00209D
:101A300084F8500000BF032029E7E08E0028BFD1C2
:101A4000E08F0028BCD14A463146204600F064FEB3
:101A500040B12020606500BF002084F8500000BF26
:101A6000012014E7A06850B900BF00200090206852
:101A7000C068009020688068009000BF00BF01200F
:101A800084F8510000BF002084F8500000BF606D52
:101A900008B10120FBE60020F9E67047704710B559
:101AA00004460CB9012010BD94F83D0028B900206F
:101AB00084F83C00204600F025F8022084F83D0020
:101AC000211D206801F03EF9012084F8460000BF86
:101AD00084F83E0001213F2001554020015541205E
:101AE000015500BF00BF012084F84200432001558A
:101AF000442001554520015500BF012084F83D00D8
:101B00000020D0E770470000014691F83D00012811
:101B100001D001207047022081F83D000868C068AC
:101B200040F001000B68D8601A4B086898421BD03F
:101B30000868B0F1804F17D0174B0868984213D04F
:101B4000164B086898420FD0154B086898420BD086
:101B5000144B0868984207D0134B0868984203D08A
:101B6000124B086898420CD10868806800F00702A0
:101B7000062A0CD00868006840F001000B68186065
:101B800005E00868006840F001000B68186000205C
:101B9000C0E70000000001400004004000080040D1
:101BA000000C0040000401400040014000180040CB
:101BB000704770B504462068C5682068066906F05D
:101BC0000200022819D105F00200022815D1401F99
:101BD00021680861012020772068806900F00300F7
:101BE00018B12046FFF7E4FF05E0204600F097F823
:101BF000204600F095F80020207706F00400042825
:101C000019D105F00400042815D1C04321680861EA
:101C1000022020772068806900F4407018B12046C7
:101C2000FFF7C6FF05E0204600F079F8204600F0F7
:101C300077F80020207706F00800082819D105F071
:101C40000800082815D1C0432168086104202077C6
:101C50002068C06900F0030018B12046FFF7A8FF14
:101C600005E0204600F05BF8204600F059F800201F
:101C7000207706F01000102819D105F01000102868
:101C800015D1C04321680861082020772068C06909
:101C900000F4407018B12046FFF78AFF05E02046A7
:101CA00000F03DF8204600F03BF80020207706F0D9
:101CB000010048B105F0010030B16FF0010021686A
:101CC0000861204600F02EF806F08000802809D137
:101CD00005F08000802805D1C043216808612046B6
:101CE000FFF7DBFE06F04000402809D105F0400078
:101CF000402805D1C04321680861204600F01EF845
:101D000006F02000202809D105F02000202805D168
:101D1000C043216808612046FFF7C0FE70BD7047D0
:101D20007047000010B5044603492068884201D17D
:101D3000FEF74EFF10BD00000000014070477047E5
:101D4000704700002DE9F84F0446206805682068B8
:101D5000C668206847694FF00009CA4605F00F09B8
:101D6000B9F1000F0AD105F0200038B106F02000CB
:101D700020B1204601F0ADF8BDE8F88FB9F1000FB1
:101D80007CD007F0010018B906F49070002875D0D7
:101D900005F0010030B106F4807018B1606C40F0BD
:101DA0000100606405F0040030B107F0010018B1D3
:101DB000606C40F00200606405F0020030B107F092
:101DC000010018B1606C40F00400606405F0080088
:101DD00048B106F0200010B907F0010018B1606C9E
:101DE00040F008006064606C002846D005F02000D8
:101DF00028B106F0200010B1204601F06AF82068F2
:101E00004069C0F3801A606C00F0080010B9BAF1A4
:101E1000000F2DD0204601F016F82068406900F030
:101E20004000402820D100BF00BF2168143151E894
:101E3000001F21F040002168143141E80002002A0F
:101E4000F3D100BFE06B50B17F48E16B0865E06BF8
:101E5000FEF786FD88B1E06B016D88470DE02046F6
:101E6000FFF76EFF09E009E02046FFF769FF04E095
:101E70002046FFF765FF002060647DE7206B0128A6
:101E800078D105F01000002874D006F0100000286A
:101E9000FAD000BF00200090206800680090206801
:101EA0004068009000BF00BF2068406900F040001B
:101EB000402870D1E06B006840681FFA80F8B8F1E4
:101EC000000F58D0A08D404555DDA4F82E80E06B62
:101ED000C069B0F5807F43D000BF00BF21680C31DE
:101EE00051E8001F21F4807021680C3141E80002A4
:101EF000002AF3D100BF00BF00BF2168143151E8B0
:101F0000001F21F001002168143141E80002002A7D
:101F1000F3D100BF00BF00BF2168143151E8001F9A
:101F200021F040002168143141E80002002AF3D179
:101F300000BF202084F842000020206300BF00BFC3
:101F400021680C3151E8001F21F0100021680C318C
:101F500041E80002002AF3D100BFE06BFEF7AAFCC3
:101F600002206063A08DE28D801A81B22046FFF7C7
:101F7000E6FE0EE052E0A08D40450AD1E06BC0695C
:101F8000B0F5807F05D102206063A18D2046FFF768
:101F9000D6FEF1E6FFE7A08DE18D401A1FFA80F82A
:101FA000E08DD0B3B8F1000F37D000BF00BF21687B
:101FB0000C3151E8001F21F4907021680C3141E888
:101FC0000002002AF3D100BF00BF00BF2168143116
:101FD00051E8001F21F001002168143141E800029E
:101FE000002AF3D100BF202084F8420000202063A3
:101FF00000BF00BF21680C3151E8001F21F0100024
:1020000021680C3141E80002002AF3D100BF022010
:10201000606341462046FFF792FEADE605F0800082
:1020200030B106F0800018B1204601F0E7F8A3E6D1
:1020300005F0400030B106F0400018B1204600F035
:1020400038FF99E600BF97E6352E000810B5044624
:102050000CB9012010BDA06900B100E000BF94F8E8
:10206000410028B9002084F84000204600F02AF8FA
:10207000242084F841002068C06820F400502168C2
:10208000C860204600F0A4FF2068006920F490405A
:10209000216808612068406920F02A0021684861B1
:1020A0002068C06840F400502168C8600020606467
:1020B000202084F8410084F842000020606300BFC3
:1020C000C8E7000010B586B00446142101A8FEF749
:1020D00023F93E492068884238D100BF0020009093
:1020E0003B48006840F40020394908600846006811
:1020F00000F40020009000BF00BF00BF002000904F
:1021000033481038006840F0010031491039086048
:102110000846006800F00100009000BF00BF0320E7
:1021200001900220029000200390032004900820D8
:10213000059001A92748FEF73BFC00220521342029
:10214000FEF7FEFD3420FEF7E7FD3CE02249206863
:10215000884238D100BF002000901D48006840F43C
:1021600080201B4908600846006800F48020009029
:1021700000BF00BF00BF0020009015481038006865
:1021800040F002001249103908600846006800F06B
:102190000200009000BF00BF4FF440600190022099
:1021A000029000200390032004900720059001A9CD
:1021B0000A48FEF7FDFB002205212720FEF7C0FD9F
:1021C0002720FEF7A9FD06B010BD0000004C00401E
:1021D0004038024000000240004800400004024035
:1021E0007047704700BFFEE71FB5002000900190C8
:1021F000029003901548164908604FF480304860FB
:102200000021134881600161017680F82010C162CD
:10221000104981620021C1600121C161002180F863
:10222000301001214161FEF7D1FA08B1FEF705FA3D
:102230000D20009001200190002002906946044882
:10224000FEF7FEF908B1FEF7F8F91FBD00200140C6
:10225000440300200100000F00B58FB01C220C4980
:1022600008A8FEF740F8002108A801F0F3FF09498B
:1022700008601C2206491C3101A8FEF734F8002131
:1022800001A801F0E7FF044908600FB000BD00009D
:10229000FC680008000000200400002000B587B0A2
:1022A000142102A8FEF738F800BF002001902E4844
:1022B000006840F004002C4908600846006800F0FF
:1022C0000400019000BF00BF00BF0020019008463D
:1022D000006840F0800008600846006800F0800058
:1022E000019000BF00BF00BF0020019008460068B9
:1022F00040F0010008600846006800F0010001900D
:1023000000BF00BF00BF002001900846006840F0F9
:10231000020008600846006800F00200019000BF5B
:1023200000BF002210211148FEF746FC01221102D5
:102330000F48FEF741FC102002900120039000207E
:102340000490059002A90948FEF732FB4FF4807013
:1023500002900120039000200490059002A90448F7
:10236000FEF726FB07B000BD3038024000000240F7
:102370000008024010B50E480E4908604FF4827004
:10238000486000210B488160C160016141614FF4E8
:10239000007181610821C161002101624162816295
:1023A0000A21C162FFF7CEF808B1FEF746F910BD69
:1023B000003001408C03002010B50B480B49086029
:1023C0004FF4E1304860002108488160C16001613C
:1023D0000C21416100218161C161FFF737FE08B125
:1023E000FEF72BF910BD0000004C0040E403002074
:1023F00010B50B480B4908604FF4E13048600021EC
:1024000008488160C16001610C2141610021816146
:10241000C161FFF71BFE08B1FEF70FF910BD000008
:10242000004800402C04002000BFFEE700BFFEE78C
:1024300010B5CEB05349002001F075FC48A9012029
:1024400001F071FC00BF50A050A352A24FF4807164
:10245000009008A801F0B0F80446002C06DDFF2C1F
:1024600004DC224608A9002000F0E2F800BF00BF0B
:102470009DF825019DF824119DF823219DF8223116
:10248000CDE90332CDE905109DF821019DF8201119
:102490003DA23EA3CDE90021029044A24FF48071F9
:1024A00008A801F089F80446002C06DDFF2C04DCA6
:1024B000224608A9002000F0BBF800BF00BF48A8D2
:1024C000417A027AC0799DF82631CDE90130CDE913
:1024D00003212DA02DA340A24FF48071009008A8E5
:1024E00001F06AF80446002C06DDFF2C04DC2246CD
:1024F00008A9002000F09CF800BF00BF48A8417B5D
:10250000027BC07A9DF82A31CDE90130CDE9032163
:102510001DA01EA337A24FF48071009008A801F0FF
:102520004BF80446002C06DDFF2C04DC224608A9EB
:10253000002000F07DF800BF00BF48A8417C007C6F
:1025400048AAD27B9DF82E31CDE90132CDE90301B5
:102550000DA00EA32EA24FF48071009008A801F0E8
:102560002BF80446002C06DDFF2C04DC224608A9CB
:10257000002000F05DF800BF01202C4908704EB02B
:1025800010BD000080000020493A00001B5B313B79
:1025900033326D0025732573204E6574776F726B2F
:1025A00020436F6E6669673A0D0A00002573257334
:1025B0002020204D41433A20253032583A253032F0
:1025C000583A253032583A253032583A2530325868
:1025D0003A253032580D0A002573257320202049F2
:1025E000503A202025642E25642E25642E25640D66
:1025F0000A00000025732573202020534E3A202026
:1026000025642E25642E25642E25640D0A00000005
:102610002573257320202047573A202025642E2536
:10262000642E25642E25640D0A000000960000200B
:102630002DE9F04104460D46164600BF0D480078CE
:1026400008B900F013FF00BFEFF311800746202008
:1026500080F3118800BF00BF32462946204600F0B3
:102660000BF88046F8B280F3118800BF00BF4046E7
:10267000BDE8F081AC4100202DE9F04707468846CF
:102680001646C24607EB47011B4800EBC109D9F8C3
:10269000140020B1012811D0022826D11EE048469E
:1026A00000F01CFF0546B54201D2002405E0344687
:1026B00032465146484600F058FF18E0484600F0C0
:1026C0000DFF0546B54201D2284600E030460446DB
:1026D00022465146484600F048FF08E0324651463F
:1026E000484600F009FF044601E0002400BF00BF97
:1026F0002046BDE8F0870000C441002070B50546C3
:102700000C462046FDF729FE06463246214628465D
:10271000FFF78EFF70BD00007CB504460E461546DF
:102720003346012202212046009500F039F828B1F5
:10273000606D40F02000606503207CBD1648006895
:102740001821B0FBF1F01549B0FBF1F04FF47A71AC
:10275000484301906068B0F5827F0DD13346002276
:1027600080212046009500F01BF898B1606D40F084
:10277000200060650320E0E700BF019800B908E091
:102780000198401E019020688068C0F3C0100028A6
:10279000F3D100BF0020D0E71400002040420F001A
:1027A0002DE9F84F04460D4690461E46DDF8289068
:1027B000FEF708FAA0EB0900371AFEF703FA824683
:1027C0002C480068C0F3CB307843009046E0701C82
:1027D000002843D0FEF7F6F9A0EB0A00B84200D279
:1027E000A7BB2068406820F0E0002168486060686E
:1027F000B0F5827F0DD1A068B0F5004F03D0A0687E
:10280000B0F5806F05D12068006820F04000216895
:102810000860A06AB0F5005F0DD100BF20680068B5
:1028200020F40050216808602068006840F40050DF
:102830002168086000BF012084F8510000BF00201B
:1028400084F8500000BF0320BDE8F88FFFE7009830
:1028500008B9002702E00098401E009020688068B8
:102860002840A84201D1012000E000204045AED11F
:102870000020E9E71400002000BF4FF480710448F5
:10288000FEF790F94FF4FA7001F0D3FCF5E7000081
:1028900000080240ADF5067D00BF7BA07BA37DA2B2
:1028A0004FF48071009044A800F086FE0546002D8C
:1028B00006DDFF2D04DC2A4644A90020FFF7B8FE00
:1028C00000BF03F02FFD7CA103C98591849084A9EA
:1028D00084A803F08CFC6420FEF756F84FF4645093
:1028E00000F0C6FC044600BF67A068A374A24FF4C2
:1028F0008071CDE9000444A800F05EFE0546002D7D
:1029000006DDFF2D04DC2A4644A90020FFF790FED7
:1029100000BF042C13D100BF5BA05CA373A2A10174
:10292000009044A800F048FE0546002D06DDFF2D6E
:1029300004DC2A4644A90020FFF77AFE15E000BF18
:1029400072A073A374A24FF48071CDE9000444A86F
:1029500000F032FE0546002D06DDFF2D04DC2A4680
:1029600044A90020FFF764FE00BFFFF761FD00BF30
:1029700045A046A377A24FF48071009044A800F0D0
:102980001BFE0546002D06DDFF2D04DC2A4644A96A
:102990000020FFF74DFE00BF02F038FEA0B100BFDF
:1029A0005AA05BA378A24FF48071009044A800F075
:1029B00003FE0546002D06DDFF2D04DC2A4644A952
:1029C0000020FFF735FE14E000BF2FA02FA378A250
:1029D0004FF48071009044A800F0EEFD0546002DF4
:1029E00006DDFF2D04DC2A4644A90020FFF720FE67
:1029F00000BF00BF02F074FF002840D0122175A074
:102A000002F0BEFF0546002D15DD00BF1EA01FA36E
:102A100075A24FF48071CDE9000504A800F0CCFD4B
:102A20000646002E06DDFF2E04DC324604A90020F7
:102A3000FFF7FEFD00BF4FF4807144A802F056FF7F
:102A40000546002D1ADD002044A9485500BF44A8C2
:102A50000DA10EA36DA2CDE9001502904FF4807177
:102A600004A800F0A9FD0646002E06DDFF2E04DCBA
:102A7000324604A90020FFF7DBFD00BF00BF4FF482
:102A80007A7001F0D6FBB5E7493A00001B5B313B99
:102A900033326D0025732573204E6574776F726B2A
:102AA0005461736B3A2057353530305F496E697425
:102AB0002E2E2E0D0A0000001010101010101010F5
:102AC00025732573204E6574776F726B5461736B39
:102AD0003A2057353530302056455253494F4E52E3
:102AE000203D203078253032580D0A00257325739B
:102AF000204E6574776F726B5461736B3A20573553
:102B0000353030204F4B210D0A000000453A0000BF
:102B10001B5B313B33316D0025732573204E65748B
:102B2000776F726B5461736B3A20573535303020B4
:102B30004552524F52212045787065637465642078
:102B4000307830342C20676F74203078253032583C
:102B50000D0A000025732573204E6574776F726B24
:102B60005461736B3A20436F6E6E656374696E6770
:102B700020746F204D5154542062726F6B65722E19
:102B80002E2E0D0A0000000025732573204E65745B
:102B9000776F726B5461736B3A2054435020636FAC
:102BA0006E6E656374206661696C6564210D0A0050
:102BB00025732573204E6574776F726B5461736B48
:102BC0003A2054435020636F6E6E656374656421D0
:102BD0000D0A000048656C6C6F2066726F6D2053A3
:102BE000544D33322100000025732573204E657447
:102BF000776F726B5461736B3A2073656E74202526
:102C0000642062797465730D0A00000025732573D2
:102C1000204E6574776F726B5461736B3A207265E6
:102C20006365697665642025642062797465733A0A
:102C30002025730D0A00000010B500BF502080F35E
:102C40001188BFF34F8FBFF36F8F00BF03F030FDCC
:102C500018B14FF080500449086000BF002080F395
:102C6000118800BF10BD000004ED00E000B593B076
:102C7000302107A8FDF750FB142102A8FDF74CFBFB
:102C800000BF002001902448006840F08050224995
:102C900008600846006800F08050019000BF00BF47
:102CA00000BF002001901D48006840F480401B498F
:102CB00008600846006800F48040019000BF00BF33
:102CC000012007900004089002200D9041050E910C
:102CD00004210F91A8211091022111910421129138
:102CE00007A8FEF7E1F908B1FDF7A7FC0F20029055
:102CF00002200390002004904FF4A05005904FF460
:102D000080500690052102A8FEF76CF808B1FDF787
:102D100094FC13B000BD0000403802400070004039
:102D20000348006840F470000149086070470000E3
:102D300088ED00E010B50248FEF73BFF10BD000033
:102D40007404002010B502682B4B98420ED0B0F1ED
:102D5000804F0BD0294B984208D0294B984205D080
:102D6000284B984202D0284B984203D122F070029F
:102D70004B681A43204B984220D0B0F1804F1DD0B1
:102D80001E4B98421AD01E4B984217D01D4B9842AA
:102D900014D01D4B984211D01C4B98420ED01C4BA6
:102DA00098420BD01B4B984208D01B4B984205D041
:102DB0001A4B984202D01A4B984203D122F4407227
:102DC000CB681A4322F080034C6943EA04028B6803
:102DD000C3620B688362084B984202D00A4B984248
:102DE00001D10B690363036843F00403036001230B
:102DF0004361026010BD000000000140000400407B
:102E000000080040000C0040000401400040014068
:102E1000004401400048014000180040001C0040F0
:102E20000020004010B50248FEF78CFF10BD0000E6
:102E3000E403002070B50446A56B0020E885284611
:102E4000FEF77EFF70BD00BF00BF02680C3252E883
:102E5000002F22F4907102680C3242E80013002B1C
:102E6000F3D100BF00BF00BF0268143252E8002F48
:102E700022F001010268143242E80013002BF3D162
:102E800000BF016B01290ED100BF00BF02680C32E8
:102E900052E8002F22F0100102680C3242E80013C1
:102EA000002BF3D100BF202180F8421000210163E4
:102EB000704710B504462068C06820F040002168C3
:102EC000C860202084F841002046FFF78AF90020DE
:102ED00010BDF8B504460025002694F842002228CB
:102EE00073D1A068B0F5805F0BD1206948B9A66A9C
:102EF00020684068C0F308003080A06A801CA0628F
:102F000014E0A56AA068B0F5805F03D0A06828B976
:102F1000206918B920684068287004E0206840687B
:102F200000F07F002870A06A401CA062E08D401E67
:102F300080B2E085002846D12068C06820F02000DB
:102F40002168C8602068C06820F480702168C8606B
:102F50002068406920F0010021684861202084F841
:102F6000420000206063206B012826D100202063EE
:102F700000BF00BF21680C3151E8001F21F0100094
:102F800021680C3141E80002002AF3D100BF20681B
:102F9000006800F0100010280AD100BF0020009047
:102FA00020680068009020684068009000BF00BF63
:102FB000A18D2046FEF7C3FE02E02046FFF710F980
:102FC0000020F8BD01E00020FBE70220F9E7000047
:102FD0002DE9F84F04462068006920F44050E1686C
:102FE0000843216808612169A068084361690843B2
:102FF000E169084300902068C06849F20C61884389
:10300000009908432168C8602068406920F4407036
:10301000A16908432168486176492068884203D045
:1030200075492068884203D1FDF7D6FF814602E04A
:10303000FDF7C2FF8146E069B0F5004F6CD1022078
:103040006168A0FB015003461920A9FB00700146EE
:103050002A463846FDF716F96421B0FBF1F04FEA35
:10306000001A02206168A0FB01510B461920A9FB40
:1030700000712A463846FDF705F98346022061684B
:10308000A0FB015003461920A9FB00712A463846CF
:10309000FDF7F8F86421B0FBF1F000EBC00101EBA3
:1030A0000010ABEB8000322101EBC0006421B0FBCB
:1030B000F1F000F0F8000AEB400A02206168A0FB82
:1030C000015003461920A9FB007001462A463846E4
:1030D000FDF7D8F8834602206168A0FB0150034643
:1030E0001920A9FB00712A463846FDF7CBF8642168
:1030F000B0FBF1F000EBC00101EB0010ABEB800086
:10310000322101EBC0006421B0FBF1F000F00700B8
:103110005044216888606AE004206168A0FB015087
:1031200003461920A9FB007001462A463846FDF7E0
:10313000A9F8824604206168A0FB015003461920CB
:10314000A9FB007001462A463846FDF79BF864212A
:10315000B0FBF1F000EBC00101EB0010AAEB800026
:10316000322101EB00106421B0FBF1F000F0F00A15
:1031700004206168A0FB017003461920A9FB0051DF
:103180003A462846FDF77EF86421B0FBF1F00AEBE1
:10319000001A04206168A0FB01510B461920A9FB0D
:1031A00000712A463846FDF76DF8834604206168B1
:1031B000A0FB015003461920A9FB007001462A46D6
:1031C0003846FDF75FF86421B0FBF1F000EBC00179
:1031D00001EB0010ABEB8000322101EB0010642109
:1031E000B0FBF1F000F00F00504421688860BDE8AA
:1031F000F88F00000010014000140140014691F8D2
:103200004100212828D18868B0F5805F0BD108697A
:1032100048B90A6A1088C0F308000B685860086A49
:10322000801C086205E00B6A581C086218780B685D
:103230005860C88C401E80B2C88458B90868C068FD
:1032400020F080000B68D8600868C06840F040003B
:103250000B68D860002070470220FCE710B50248D8
:10326000FEF770FD10BD00002C04002000BFFEE73B
:1032700038B504461A49C8688047194948698047E3
:1032800000BF1748406A10B11548806A70B91448E9
:10329000016AC4F3074088471148016AC4F3072054
:1032A0008847E0B20E4A116A88470DE0200C8DF87D
:1032B0000000200A8DF80100E0B28DF802000848F5
:1032C0000321826A684690470549C86980470546D8
:1032D000034988698047024908698047284638BD04
:1032E000A8000020F8B504460E4617461F49C868D6
:1032F00080471E494869804700BF1C48406A10B19A
:103300001A48806AC0B91948016AC4F3074088475F
:103310001648016AC4F307208847E0B2134A116ACD
:103320008847002505E01149C86980477055681C29
:1033300085B2BD42F7DB12E0200C8DF80000200AB8
:103340008DF80100E0B28DF8020008480321826A7E
:103350006846904705483946426A304690470349D7
:1033600088698047014908698047F8BDA8000020A6
:1033700038B504460D461A49C86880471849486957
:10338000804744F004041648806A90B91448016AE2
:10339000C4F3074088471248016AC4F307208847EE
:1033A000E0B20F4A116A88470D48016A28468847EB
:1033B0000FE0200C8DF80000200A8DF80100E0B22B
:1033C0008DF802008DF8035005480421826A684692
:1033D000904703498869804701490869804738BD9B
:1033E000A8000020F8B504460E4617461E49C868D6
:1033F00080471D494869804744F004041A48806AA0
:10340000C0B91948016AC4F3074088471648016AE1
:10341000C4F307208847E0B2134A116A88470025A1
:1034200005E0705D104A116A8847681C85B2BD428C
:10343000F7DB12E0200C8DF80000200A8DF8010067
:10344000E0B28DF8020008480321826A684690477E
:1034500005483946826A3046904703498869804763
:10346000014908698047F8BDA800002010B5124C3A
:1034700003202061606111A0A0611349E1614FF454
:10348000806121620021A1626162E1620BA020667D
:103490000E4961661021A16600212167E16661671E
:1034A0000BA1E01DFCF760FF0AA12046FCF75CFFC2
:1034B0002020A07110BD0000AC4100205465726D49
:1034C000696E616C000000005442002054460020E8
:1034D00052545400534547474552000010B5014629
:1034E0000A69CB689A4204D88C68641EE41AA01852
:1034F00001E0D41A601E10BD2DE9F047044689464C
:1035000017464FF0000AE56800BFD4F81080A845C0
:1035100003D9A8EB0500461E04E0A5EB0800401CFB
:10352000A1680E1AA068401BB04201D9304601E0E4
:10353000A068401B0646BE4201D2304600E0384635
:1035400006466168481932464946FCF7CCFEB2444B
:10355000B144BF1B3544A068A84200D10025E560F6
:10356000002FD2D15046BDE8F0872DE9F047044640
:1035700089461546E668A068871BAF4208D961688E
:1035800088192A464946FCF7AEFE7019E06010E043
:10359000B8466168881942464946FCF7A4FEA5EB87
:1035A000070809EB070142466068FCF79CFEC4F877
:1035B0000C80BDE8F08700000FB47CB50C0009ADAD
:1035C00001D0611E00E00021CDE90001064B6A46F2
:1035D0002946089800F036F8002C02D0009A002105
:1035E00011707CBC5DF814FB9B3A0008024800682F
:1035F000C0F30220704700000CED00E010B5002879
:1036000004DB0A07130E054A135406E00A07140EDA
:10361000034A00F00F031B1FD45410BD00E400E068
:1036200018ED00E002E008C8121F08C1002AFAD114
:1036300070477047002001E001C1121F002AFBD132
:10364000704700002DE9FF4F8DB00F46054600265C
:1036500006E025280BD0DDE90F1290476D1C761C83
:1036600028780028F5D111B03046BDE8F08F00244D
:10367000A246A1460122E94900E0044315F8013FB2
:10368000203B02FA03F00842F7D128782A2810D00C
:103690006FF02F022878A0F13001092914D80AEB25
:1036A0008A0102EB410144F0020400EB010A6D1CA7
:1036B000F0E701CF5FEA000A03D544F40054CAF1F1
:1036C000000A44F002046D1C28782E2817D115F842
:1036D000010F44F004042A280ED06FF02F0228783E
:1036E000A0F1300109290AD809EB890102EB410157
:1036F00000EB01096D1CF2E757F8049B6D1C28785C
:103700006C280FD006DC4C2817D068280DD06A280A
:1037100014D104E0742810D07A280FD10DE044F4BD
:1037200000140AE044F4801401E044F44014697881
:10373000814202D104F580146D1C6D1C28786E281E
:103740001ED00CDC632830D004DC00288BD0582835
:1037500011D19FE0642867D069280CD164E07328F8
:103760002DD004DC6F2872D0702804D194E0752825
:103770006ED078286DD0DDE90F129047761C4BE1B2
:10378000C4F30250022806D0032809D0042801CF30
:1037900009D0066040E101CFF117C0E900613BE1CB
:1037A00001CF068038E1067036E117F8040B8DF87A
:1037B000000000208DF80100EB46012003E057F8DF
:1037C00004BB4FF0FF3061074FF0000102D40DE061
:1037D00008F10101884649450FDA8045F8DB1BF8FE
:1037E00008100029F4D108E008F10101884681425F
:1037F000FADB1BF808100029F6D1DDE90F23AAEB4C
:1038000008008146214600F031F9304400EB0806FB
:1038100004E0DDE90F121BF8010B9047B8F1010835
:10382000F7D221464846F2E00A21C4F302524FF093
:10383000000B0891022A04D001CFC117032A09D036
:103840000AE0FF1D27F00707F7E8020108E02CE077
:103850001EE01FE000B2C117042A01D140B2C11717
:10386000021E71F1000206DA0023D0EB030063EBC5
:1038700001012D2202E0220504D52B228DF82420FF
:10388000012203E0E20701D02022F7E7904653E04F
:103890000A210BE0102109E010214FF0000B44F049
:1038A00004044FF00809089103E008214FF0000BD1
:1038B0000891C4F30252022A04D001CF0021032A46
:1038C00006D006E0FF1D27F00707F7E8020103E036
:1038D00080B2042A00D1C0B24FF0000822072BD5D5
:1038E0002A78702A07D0DDF820C08CF0100C5CEA32
:1038F0000B0C05D00EE040228DF82420012208E0B8
:1039000050EA010306D030238DF824308DF82520AD
:1039100002229046089B83F0080353EA0B030BD165
:1039200050EA010201D1620706D530228DF8242029
:103930004FF00108A9F101092A78582A04D038A2C9
:103940000B9208AA0A920BE03AA2F9E75B46089AA2
:10395000FCF798FC0B9B9B5C0A9A521E0A92137010
:1039600050EA0102F2D10A98ADEB000000F1200B01
:10397000600702D524F4803401E04FF00109D945F5
:1039800002DDA9EB0B0000E0002000EB0B0141443D
:103990000890AAEB010AE00306D4DDE90F232146D3
:1039A000504600F063F806444FF0000908E009A90A
:1039B00011F80900DDE90F12904709F10109761CA1
:1039C000C145F4DBE0030CD5DDE90F232146504669
:1039D00000F04CF8064404E0DDE90F123020904777
:1039E000761C0899481E08900029F5DC08E00A9822
:1039F0000A990078491C0A91DDE90F129047761C5C
:103A0000BBF10001ABF1010BF1DC21465046DDE9D1
:103A10000F2300F019F806446D1C21E60928010067
:103A20003031323334353637383961626364656634
:103A300000000000303132333435363738394142F6
:103A400043444546000000002DE9F04104460025AE
:103A50001E461746880404D405E039462020B047A6
:103A60006D1C641EF9D52846BDE8F0812DE9F041B2
:103A7000044600251E469046C80301D5302700E0C5
:103A80002027880404D505E041463846B0476D1C20
:103A9000641EF9D52846BDE8F0814A68002A06D0A0
:103AA0000A68531C0B6010704868401E48607047DD
:103AB0000C480068032812D300200A4908600A480D
:103AC0000078022804DB002007490870401E704778
:103AD00005480078401C044908700020F7E70120E1
:103AE000F5E70000E8000020EC00002010B50446D7
:103AF00000BF082C02DB4FF0FF3010BD00BFA1005B
:103B0000491C4FF4807202EBC1001021FFF730FC1A
:103B100000BFA100491C4FF4807202EBC100FFF707
:103B2000A7FB0028F5D1A100491C4FF4007202EB5D
:103B3000C1001F21FFF71CFC0120A0400F4909888C
:103B400081430E4801800120A0400D49098881432E
:103B50000B48018000200B4921F814000A49085540
:103B600000BFA100491C4FF4407202EBC100FFF7F7
:103B70007FFB0028F5D10120BFE700009A0000205C
:103B80009C000020644600209E0000202DE9F041AA
:103B900004460D4616461F4600BF082C03DB4FF0B7
:103BA000FF30BDE8F08100BF00BFA100491C00222A
:103BB00002EBC100FFF75CFB00F00300012802D01C
:103BC0006FF00400EDE700BF00BFA100491C4FF4F7
:103BD000407202EBC100FFF74BFB132802D06FF0DD
:103BE0000200DEE700BF2978687861F31F200146F4
:103BF000A87861F31F200146E87861F31F20014691
:103C0000481C00B111B96FF00B00CAE716B96FF08C
:103C10000A00C6E73112A200521C4FF4805303EB96
:103C2000C200FFF7A5FBF1B2A200521C4FF4805373
:103C300003EBC20202F58070FFF79AFB102F02D14E
:103C40006FF00400ADE7A100491C002202EBC100A7
:103C5000FFF70EFB092802D16FF00400A1E7A100D5
:103C6000491C4FF4406202EBC10004222946FFF7D1
:103C7000B9FBA100491C4FF4807202EBC100042182
:103C8000FFF776FB00BFA100491C4FF4807202EBE6
:103C9000C100FFF7EDFA0028F5D10120A0401B4933
:103CA0000988084008B100207BE722E0A100491CF8
:103CB0004FF4007202EBC100FFF7DAFA00F00800DF
:103CC00058B1A100491C4FF4007202EBC100082159
:103CD000FFF74EFB6FF00C0063E7A100491C4FF4A7
:103CE000407202EBC100FFF7C3FA10B96FF0030096
:103CF00057E7A100491C4FF4407202EBC100FFF7E7
:103D0000B7FA1728D2D101204BE700009A00002013
:103D100070B504460D461646042332462946204611
:103D2000FFF734FF70BD70B505460C46062D1CD25A
:103D3000DFE805F003070B0F1317204602F0A0FA87
:103D400016E0204602F00CFA12E0207802F0C4FAE5
:103D500070BD02F033FA20700AE0204602F0CFFA7C
:103D600006E0204602F02FFA02E04FF0FF30EFE7C6
:103D700000BF0020ECE72DE9F041B0B080460C46D2
:103D80001646C0236A462146404600F011FB054610
:103D9000681C18B9002030B0BDE8F0812C442046E2
:103DA00000F0EFF80746A41CA41C241DA41C112F2E
:103DB0005DD2DFE807F05C091A5C5C163D17181944
:103DC0005C5C1B285C2F5B0014F8010B307014F84E
:103DD000010B707014F8010BB07014F8010BF07047
:103DE00046E000BF00BF00BF00BF00BFC0236A465F
:103DF0002146404600F0DCFA0546681C08B9002060
:103E0000C9E72C4434E014F8015B2C4414F8015B3E
:103E10002C442DE0A41CC0236A462146404600F0F5
:103E2000C7FA0546681C08B90020B4E72C441FE017
:103E3000C0236A462146404600F0BAFA0546681C8F
:103E400008B90020A7E72C44C0236A462146404613
:103E500000F0AEFA0546681C08B900209BE72C4428
:103E6000241D241D241D241D241D01E000E000BF8D
:103E700000BF20468FE700002DE9F04FB1B081462A
:103E80008B4690461C46454632480088401C3149C6
:103E9000088008460188284600F016FD05464FF4C4
:103EA000807040EAC92080B200902846009900F056
:103EB0000BFD05460121284600F006FD05460021C0
:103EC000284600F001FD05460021284600F0FCFCD4
:103ED00005460021284600F0F7FC0546594601A892
:103EE000FCF742FA01AF3846FCF737FA1FFA80FABE
:103EF00000BF2E213846FCF726FA064616B1F01B05
:103F000084B200E0544605F8014B04B911E02246A2
:103F100039462846FCF70BFA25441EB9002005F85F
:103F2000010B06E0601C0744AAEB00001FFA80FAB0
:103F3000DFE700BF0121284600F0C6FC054601214D
:103F4000284600F0C1FC0546A5EB080000B231B0E0
:103F5000BDE8F08FE600002070B5B0B006460C4614
:103F6000C0236A462146304600F022FA0546681C06
:103F700010B9002030B070BD2C44A41CA41C2046F5
:103F8000F8E7014611F8013B18020A78024490B2A2
:103F9000704770B504460025002600BFA100491CEB
:103FA0004FF4185202EBC100FFF762F90646A10078
:103FB000491C4FF4185202EBC10101F58070FFF764
:103FC00057F900EB062086B2AEB1A100491C4FF4B0
:103FD000185202EBC100FFF74BF90546A100491C3E
:103FE0004FF4185202EBC10101F58070FFF740F960
:103FF00000EB052085B2B542D0D1284670BD70B522
:1040000004460025002600BFA100491C4FF40052C1
:1040100002EBC100FFF72CF90646A100491C4FF442
:10402000005202EBC10101F58070FFF721F900EBAE
:10403000062086B2AEB1A100491C4FF4005202EB3B
:10404000C100FFF715F90546A100491C4FF40052C5
:1040500002EBC10101F58070FFF70AF900EB0520C2
:1040600085B2B542D0D1284670BD0000C2B0FCF781
:10407000BBFDFEF7FBFDFEF711F9FEF7B5F8FEF705
:1040800079F9FEF799F9FEF7B3F939A10020FEF7A7
:1040900035FB00BF38A039A33AA24FF480710090DD
:1040A00002A8FFF789FA0446002C06DDFF2C04DC89
:1040B000224602A90020FEF7BBFA00BF00BF2EA0D7
:1040C0002EA33CA24FF48071009002A8FFF774FA6F
:1040D0000446002C06DDFF2C04DC224602A9002049
:1040E000FEF7A6FA00BF00BF23A024A33CA24FF412
:1040F0008071009002A8FFF75FFA0446002C06DDED
:10410000FF2C04DC224602A90020FEF791FA00BF32
:1041100000BF19A019A33AA24FF48071009002A821
:10412000FFF74AFA0446002C06DDFF2C04DC224689
:1041300002A90020FEF77CFA00BF00BF0EA00FA36B
:1041400010A24FF48071009002A8FFF735FA0446E0
:10415000002C06DDFF2C04DC224602A90020FEF71D
:1041600067FA00BFFEF778F800F06FF800BFFEE7CF
:104170001B5B324A00000000493A00001B5B313BE8
:1041800033326D0025732573203D3D3D3D3D3D3D62
:104190003D3D3D3D3D3D3D3D3D3D3D3D3D3D3D3D4F
:1041A0003D3D3D3D3D3D3D3D3D3D3D3D3D3D3D0D6F
:1041B0000A000000257325732053544D33324634D2
:1041C000204672656552544F532052545420507209
:1041D0006F6A65637420537461727465640D0A00BC
:1041E000257325732053797374656D20436C6F6359
:1041F0006B3A20313638204D487A0D0A0000000015
:104200002573257320525454204C6F6720537973C3
:1042100074656D20496E697469616C697A65640DB5
:104220000A00000001460020842901D0CA1C104465
:10423000704770B5044625460DB1294600E00121BE
:10424000084601F095FD002070BD10B501F0BEFDDF
:10425000002010BD7FB504460D46606998B1A06985
:1042600088B1B4F90800FFF7DDFF0646D4E9051070
:10427000CDE9006102902B462269D4E9001002F0DA
:10428000B9F9039013E0B4F90800FFF7CBFF064635
:1042900003A8CDE90060238A9AB22B46D4E9001026
:1042A00002F076F9012802D0002004B070BD039816
:1042B000FBE72DE9F0470446894692464F46122116
:1042C0002046FCF729F83846FFF75BFE2080B81C33
:1042D000FFF757FE064606F4004008B10120A07023
:1042E000C6F3C320E07006F4806008B1012020719D
:1042F00006F4007008B10120607106F4807008B106
:104300000120A07106F0800008B10120E07106F0E4
:104310000F002072381DFFF734FE6081B81DFFF7D3
:1043200030FEA08107F10800FFF72BFEE08107F1C6
:104330000A00FFF726FE208207F10C0800250DE099
:1043400041463846FFF708FE8046B8F1000F03D11A
:104350004FF0FF30BDE8F087681C85B26089A84245
:10436000EEDC00250DE0524641463846FFF703FDDE
:104370008046B8F1000F02D14FF0FF30EAE7681C29
:1043800085B2A089A842EEDC002501E0681C85B258
:10439000E089A842FADC002501E0681C85B2208A89
:1043A000A842FADC207A08B90120D3E70020D1E73F
:1043B0002DE9F04307468C461C4600250026A846FA
:1043C000614600BF11F8013B06B96D1C03F0C00047
:1043D000C0280AD106B96D1C0126087803F03F09F0
:1043E00000EB0920C11911F8013B03B91BE0581C6F
:1043F000201A04B2002C03DA4FF0FF30BDE8F0833E
:1044000006B91D4403E011F8010B02F8010B181E58
:10441000A3F101091FFA89F3F5D12E2002F8010B4F
:1044200008F10108CEE700BFB8F1000F04D12E203B
:1044300002F8010B601E04B2002002F8010B601E9E
:1044400004B22846DAE700002DE9F04105460E46A1
:104450001C4807681C480068001D01F085FB50B926
:104460001948006890F82C10012088401749096805
:10447000814316480160681C38B936B1124801689A
:10448000091D134801F0BAFB1AE07C190E480068B8
:104490004460BC4207D20C480168091D0D48006801
:1044A00001F092FB0CE008480168091D0A48006809
:1044B00001F08AFB09480068844201D20748046081
:1044C000BDE8F0812C000020180000203000002002
:1044D00098050020200000201C000020480000203B
:1044E00010B5044601F096FB23480068401C2249A1
:1044F00008602248006840B9204804600846006807
:1045000001280DD100F03EF90AE01D48006838B9D5
:104510001A480068C06AE16A884201D817480460F6
:1045200018480068401C1749086094F82C100120B6
:10453000884015490968084313490860E16A01EB9E
:104540008101124A02EB8100211D01F057FB01F0AD
:104550008BFB0B48006868B108480068C06AE16AD4
:10456000884207D24FF0805009490860BFF34F8F4F
:10457000BFF36F8F10BD000028000020180000203E
:10458000340000204400002030000020BC04002043
:1045900004ED00E010B516E001F03CFB0C48C068EB
:1045A000C468201D01F0E0FA0A480068401E09496D
:1045B000086009480068401E0749086001F054FB84
:1045C000204600F00BF8044800680028E4D110BD34
:1045D00084050020280000202400002010B5044697
:1045E00094F8510030B9206B01F05CFB204601F0DB
:1045F00059FB1AE094F85100012803D1204601F03C
:1046000051FB12E094F85100022801D1012000E092
:10461000002050B900BF502080F31188BFF34F8FA6
:10462000BFF36F8F00BF00BFFEE710BD30B54FF482
:104630007053174800F007042CB1C01D20F007008C
:10464000134C041B1B1B0246124C22600024114D0C
:104650006C60D018083820F007000F4C2060002450
:104660000D4D2D686C600C4D2D682C601146441A60
:104670004C60094C24680C60084D4C682C60084D57
:104680004C682C604FF00044064D2C6030BD00009B
:10469000AC050020540000205C00002064000020D5
:1046A000600000207000002000BFFFF773FF064885
:1046B00000680128F9D94FF0805004490860BFF321
:1046C0004F8FBFF36F8FF0E7BC04002004ED00E0D4
:1046D0002DE9FF5F81460E469246DDE90E7B109C78
:1046E000AAF10100216B01EB800828F0070808F00F
:1046F000070008B9012000E0002050B900BF502099
:1047000080F31188BFF34F8FBFF36F8F00BF00BFDF
:10471000FEE786B1002507E0715D04F134004155E4
:10472000705D00B902E06D1C102DF5D300BF0021B3
:104730004320015502E0002084F83400072F00D305
:104740000627E76267640020A064201D01F039FAA3
:1047500004F1180001F035FA2461C7F10700A061E7
:1047600064620020E06484F8500049464046039AA1
:1047700000F056F92060BBF1000F01D0CBF80040EB
:10478000BDE8FF9F10B5002407E004EB84010F4A49
:1047900002EB810001F008FA641C072CF5D30C48E9
:1047A00001F002FA0B4801F0FFF90B4801F0FCF9A7
:1047B0000A4801F0F9F90A4801F0F6F904480949F4
:1047C000086004480849086010BD0000BC040020CF
:1047D000480500205C0500207005002084050020AD
:1047E000980500201C0000202000002010B5014684
:1047F000164800E0006803688B42FBD3024643681A
:1048000013448B4204D143684C68234443600146FF
:104810000A464B6813440468A34211D10C4C036848
:104820002468A34208D04B680468646823444B6042
:1048300003681B680B6005E0054B1B680B6001E01B
:1048400003680B60884200D0016010BD5400002056
:104850005C0000200A490968096809B9012100E0E3
:10486000002121B14FF0FF31064A116006E00449F2
:104870000968C968C868034A416811607047000048
:104880001C000020480000200E480068401C08B9A9
:10489000012000E0002050B900BF502080F31188B3
:1048A000BFF34F8FBFF36F8F00BF00BFFEE700BFA6
:1048B000502080F31188BFF34F8FBFF36F8F00BF7D
:1048C00000BFFEE7740000200A1200F8012B00F878
:1048D000011B70472DE9F04104464FF0000801F03C
:1048E000CDFA4948006808B9FFF7A0FE47480068BC
:1048F0002040002870D1D4B1083404F00700B0B1D2
:1049000004F00700C0F10800044404F0070008B9EF
:10491000012000E0002050B900BF502080F3118832
:10492000BFF34F8FBFF36F8F00BF00BFFEE7002CB8
:1049300052D03748006884424ED8364E304605681B
:1049400001E02E462D686868A04202D2286800283F
:10495000F7D12D48006885423ED0306800F1080844
:10496000286830606868001B102819D92F1907F0D3
:10497000070008B9012000E0002050B900BF502016
:1049800080F31188BFF34F8FBFF36F8F00BF00BF5D
:10499000FEE76868001B78606C603846FFF726FF0A
:1049A0001B4968680968081A1949086008460068C0
:1049B00019490968884203D21548006816490860F9
:1049C0001249686809680843686000202860134835
:1049D0000068401C1149086001F00EFF08F0070054
:1049E00008B9012000E0002050B900BF502080F33A
:1049F0001188BFF34F8FBFF36F8F00BF00BFFEE77B
:104A00004046BDE8F08100005C00002070000020FE
:104A10006000002054000020640000206800002096
:104A2000001F4FF080730360001F21F0010303603B
:104A3000001F054B036014380260001F6FF0020373
:104A40000360203870470000894800082DE9F047CE
:104A50000446884616460027002500BF082C02DBC6
:104A6000681EBDE8F08700BF00BFA100491C0022FE
:104A700002EBC100FEF7FCFB00F00F00012802D0A2
:104A80006FF00400EDE700BF00BF16B96FF00D0036
:104A9000E7E700BFA100491C4FF4F05202EBC10050
:104AA000FEF7E6FB4FF6FF7101EA8025B54200DA1A
:104AB0002E4637E02046FFF76CFA0546A100491C58
:104AC0004FF4407202EBC100FEF7D2FB0746172FEE
:104AD0001ED01C2F16D105B125E02046FFF78FFA16
:104AE0008146A100491C4FF4F85202EBC100FEF7C9
:104AF000BFFBB9EB802F0BD12046FEF7F7FF6FF01D
:104B00000600AEE72046FEF7F1FF6FF00600A8E7CB
:104B10000120A04013490988084008B10020A0E7FF
:104B200005B100E0C6E700BFB54200DA2E463246C6
:104B30004146204601F054FAA100491C4FF480720E
:104B400002EBC1004021FEF713FC00BFA100491C8D
:104B50004FF4807202EBC100FEF78AFB0028F5D10A
:104B600030467EE79A0000202DE9FC5F04468A4625
:104B700016461D46DDE90C8B002700BF082C02DB22
:104B8000781EBDE8FC9F00BFA100491C002202EB7B
:104B9000C100FEF76DFB814600F00F00022806D031
:104BA000032805D0042805D00B2804D101E000BF5C
:104BB00000BF00BF02E06FF00400E2E700BF00BFEB
:104BC00016B96FF00D00DCE700BFAF4830F81400F5
:104BD000E8B91AE02046FFF7DCF90746A100491CB6
:104BE0004FF4407202EBC100FEF742FB10B96FF0C8
:104BF0000300C6E70120A040A4490988084010B17D
:104C00000FB90020BDE707B100E0E3E700BF09F0FE
:104C100007000A280DD006DC022809D003287CD022
:104C200004287BD15FE00B2879D00E28F9D101E070
:104C300000BF00BF944830F81400E8BB0822694662
:104C4000204601F0CDF9A100491C4FF4807202EB1F
:104C5000C1004021FEF78CFB00BFA100491C4FF4AE
:104C6000807202EBC100FEF703FB0028F5D19DF82E
:104C7000000028709DF8010068709DF80200A8707F
:104C80009DF80300E8709DF80400A8F800009DF866
:104C9000050098F8001000EB0120A8F800009DF82E
:104CA0000600794921F814009DF8070011F8141046
:104CB00000EB0120744900E004E021F8140080209A
:104CC00073490855704830F81400B04201DD37468A
:104CD00002E06D4830F814703E463A465146204690
:104CE00001F07EF9A4E0684830F81400C0BB02224D
:104CF0006946204601F074F9A100491C4FF4807206
:104D000002EBC1004021FEF733FB00BFA100491CAC
:104D10004FF4807202EBC10002E036E080E033E045
:104D2000FEF7A6FA0028F1D19DF80000564921F8B7
:104D300014009DF8010011F8141000EB0120801EF2
:104D4000514921F81400084630F8140040F2EA51A5
:104D5000884206DD2046FEF7C9FE6FF47A7010E740
:104D600002E080204A490855474830F81400B04214
:104D700001DD374602E0444830F814703A465146A7
:104D8000204601F02DF953E000BF3F4830F81400F1
:104D9000E0BB06226946204601F022F9A100491C29
:104DA0004FF4807202EBC1004021FEF7E1FA00BF30
:104DB000A100491C4FF4807202EBC100FEF758FAC3
:104DC0000028F5D19DF8000028709DF8010068705A
:104DD0009DF80200A8709DF80300E8709DF804009B
:104DE000294921F814009DF8050011F8141000EB72
:104DF0000120254921F81400802025490855224822
:104E000030F81400B04202DD374603E007E01E48E8
:104E100030F814703A465146204601F0E1F807E0B8
:104E20003946204601F01EF9174820F8147000BFDB
:104E300000BFA100491C4FF4807202EBC100402169
:104E4000FEF796FA00BFA100491C4FF4807202EBF6
:104E5000C100FEF70DFA0028F5D10B4830F8140018
:104E6000C01B094921F81400084630F8140030B17D
:104E70000748005D40F001000549085502E00020A8
:104E80000349085538467CE6644600209A00002015
:104E90009E0000202DE9FE4304460D4616461F469F
:104EA000DDF82880042002900DF108093B463246C7
:104EB00029462046CDE90089FFF756FEBDE8FE836E
:104EC00000B131B9054A064BDA60064B044A13615A
:104ED00002E0034AD0601161704700005961000888
:104EE000A80000205B61000800B131B9054A064BFB
:104EF0005A61064B044A936102E0034A5061916192
:104F0000704700005F610008A80000205D61000894
:104F100000BF094A128802F40072002AF9D000B1D9
:104F200031B9064A044BDA61054B034A136202E0C9
:104F3000014AD06111627047A80000208D6300080B
:104F4000B563000800BF094A128802F40072002A03
:104F5000F9D000B129B9064B044A5362054B93625C
:104F600002E0024A5062916270470000A8000020EF
:104F700069630008916300082DE9F0410446884602
:104F800016460025002700BF082C02DB681EBDE87E
:104F9000F08100BF00BFA100491C002202EBC1004C
:104FA000FEF766F900F00F00012802D06FF0040050
:104FB000EDE700BF00BF16B96FF00D00E7E700BFD7
:104FC000A100491C4FF4407202EBC100FEF750F9FA
:104FD0000546172D04D01C2D02D06FF00600D6E731
:104FE0000120A04064490988084040B3A100491C41
:104FF0004FF4007202EBC100FEF73AF900F01F0512
:1050000005F0100080B1A100491C4FF4007202EBC2
:10501000C1001021FEF7ACF90120A04056490988D3
:105020008143554801800AE005F0080028B1204678
:10503000FEF75CFD6FF00C00A9E70020A7E7A100D8
:10504000491C4FF4F85202EBC100FEF711F94FF67C
:10505000FF7101EA8027BE4200DD3E4624E0204683
:10506000FEF7CDFF0746A100491C4FF4407202EB4A
:10507000C100FEF7FDF80546172D08D01C2D06D0FF
:1050800015B92046FEF732FD6FF006007FE70120DC
:10509000A0403A490988084018B1BE4201DD00200D
:1050A00075E7BE4200DC00E0D9E700BF324641466A
:1050B000204601F00AF80120A0402F490988084045
:1050C000E0B326E0A100491C4FF4407202EBC1009E
:1050D000FEF7CEF80546172D13D01C2D11D055B173
:1050E000A100491C4FF4007202EBC100FEF7C0F8AA
:1050F00000F0080010B12046FEF7F8FC6FF0060043
:1051000045E70120A0401D490988084008B100205A
:105110003DE7A100491C4FF4007202EBC100FEF70D
:10512000A7F800F010000028CCD0A100491C4FF4D3
:10513000007202EBC1001021FEF71AF9A100491C10
:105140004FF4807202EBC1002021FEF711F900BF7D
:10515000A100491C4FF4807202EBC100FEF788F8F1
:105160000028F5D10120A0400349098808430249DD
:10517000088030460BE700009C0000209A000020C9
:105180002DE9FF4F81B0044616461F46DDE90E8B20
:105190000025202000904FF0000900BF082C03DB01
:1051A000681E05B0BDE8F08F00BFA100491C0022B9
:1051B00002EBC100FEF75CF800F00F00022806D0F9
:1051C000032806D0042803D00B2804D102E000BF36
:1051D00000BF00BF02E06FF00400E2E700BFA100E3
:1051E000491C002202EBC100FEF742F80546042DDF
:1051F0001FD0BBF1100F02D16FF00400D1E7BBF15B
:10520000040F13D10A2D01D00B2D02D16FF0040031
:10521000C7E7A100491C4FF4406202EBC100042221
:105220003946FEF7DFF82020009002E06FF00B0017
:10523000B7E705F0030002281BD1B8F1000F15D025
:105240004FEA2821A200521CC30203EBC200FEF762
:105250008FF808F0FF01A200521C4FF4805303EBBB
:10526000C20202F58070FEF783F802E06FF00A00D8
:1052700097E700BF16B96FF00D0092E700BF97F8EF
:1052800000A078786AF31F208246B8786AF31F205E
:105290008246F8786AF31F208246BAF1000F0DD1DA
:1052A000A100491C002202EBC100FDF7E1FF00F064
:1052B0000400042802D06FF00B0072E7B8F1000F71
:1052C0000DD1A100491C002202EBC100FDF7D0FF67
:1052D00000F00400042802D06FF00A0061E7A1008A
:1052E000491C4FF4407202EBC100FDF7C1FF0546B7
:1052F000422D06D0222D04D0322D02D06FF00600B0
:105300004FE7A100491C4FF4406202EBC1000422A8
:105310003946FEF767F84FEA2821A200521C4FF4E5
:10532000805303EBC200FEF723F808F0FF01A20050
:10533000521C4FF4805303EBC20202F58070FEF75B
:1053400017F8A100491C4FF4F85202EBC100FDF719
:105350008FFF4FF6FF7101EA80294E4500DD4E4672
:105360001CE02046FEF74BFE8146A100491C4FF48D
:10537000407202EBC100FDF77BFF10B96FF0030034
:105380000FE70120A04028490988084018B14E4580
:1053900001DD002005E74E4500DC00E0E1E700BF4D
:1053A00032462046029900F090FEA100491C4FF4BD
:1053B000807202EBC1002021FDF7DAFF00BFA100DF
:1053C000491C4FF4807202EBC100FDF751FF002829
:1053D000F5D125E0A100491C4FF4007202EBC10099
:1053E000FDF746FF00F01F0505F0100048B1A100D1
:1053F000491C4FF4007202EBC1001021FDF7B8FF09
:105400000FE005F0080058B1A100491C4FF40072EC
:1054100002EBC1000821FDF7ABFF6FF00C00C0E606
:10542000D8E700BF3046BCE69A0000202DE9FC41D9
:1054300004460D4616461F46DDF8208004203B46F4
:1054400032462946CDE900802046FFF799FEBDE8A7
:10545000FC8100002DE9F84304460E4617461D4620
:105460004FF0000800BF082C03DB4FF0FF30BDE811
:10547000F88300BF06F00F0004281DD006DC0128C9
:105480000BD0022815D0032819D116E00A2811D014
:105490000B2813D00E2812D10DE0042269464FF4D8
:1054A0007060FDF71FFF009810B96FF00200DEE793
:1054B00008E000BF00BF00BF00BF00BF02E06FF008
:1054C0000400D4E700BF05F0040010B16FF0050040
:1054D000CDE705B3012E02D0022E1AD106E005F069
:1054E000210010B96FF00500C1E713E005F02000BE
:1054F00028B105F0800010B96FF00500B7E705F09E
:10550000100028B105F0800010B96FF00500AEE77B
:1055100000E000BF00BF2046FEF7E8FA05F0F00209
:1055200042EA0601A200521C002303EBC200FDF771
:105530001FFF7FB9304807880088401C2E4908802B
:10554000084600884FF6F071884203D14FF440407E
:10555000294908803912A200521C4FF4806303EBE2
:10556000C200FDF705FFF9B2A200521C4FF48063A0
:1055700003EBC20202F58070FDF7FAFEA100491CA0
:105580004FF4807202EBC1000121FDF7F1FE00BF74
:10559000A100491C4FF4807202EBC100FDF768FEC8
:1055A0000028F5D10120A0401449098881431348FF
:1055B000018005F00100A0401049098808430F4907
:1055C00008800120A0400E49098881430C480180D1
:1055D00000200C4921F814000B49085500BFA10018
:1055E000491C4FF4407202EBC100FDF741FE002858
:1055F000F5D060B23BE70000980000209A00002040
:105600009C000020644600209E00002030B5C7B0FA
:1056100000BF67A06AA16BA36CA2CDE900104FF494
:10562000807107A8FDF7C8FF0546002D06DDFF2D98
:1056300004DC2A4607A90020FCF7FAFF00BF6C49EA
:105640005BA000F0E7F9C0B100BF6AA06AA36CA23A
:105650004FF48071009007A8FDF7AEFF0546002DBE
:1056600006DDFF2D04DC2A4607A90020FCF7E0FF39
:1056700000BF4FF0FF3047B030BD00BF40F25B735A
:105680005B48C0785A498978594A5278CDE9040371
:10569000CDE902215648007849A14AA361A2CDE98B
:1056A00000104FF4807107A8FDF786FF0546002D16
:1056B00006DDFF2D04DC2A4607A90020FCF7B8FF11
:1056C00000BF00231A4601211846FFF7C3FE044617
:1056D000C4B100BF47A048A35DA24FF48071CDE9DB
:1056E000000407A8FDF768FF0546002D06DDFF2D25
:1056F00004DC2A4607A90020FCF79AFF00BF4FF000
:10570000FF30B8E700BF00202DA12EA359A2CDE99C
:1057100000104FF4807107A8FDF74EFF0546002DDD
:1057200006DDFF2D04DC2A4607A90020FCF780FFD8
:1057300000BF40F25B722E490020FEF7E9FA0446F2
:10574000012C1BD000BF2BA02BA354A24FF48071BF
:10575000CDE9000407A8FDF72FFF0546002D06DD63
:10576000FF2D04DC2A4607A90020FCF761FF00BFDB
:105770000020FEF7BBF94FF0FF307CE701205149D4
:10578000087000BF0EA00FA34FA24FF480710090CD
:1057900007A8FDF711FF0546002D06DDFF2D04DCEF
:1057A0002A4607A90020FCF743FF00BF002062E75C
:1057B00062726F6B65722E656D71782E696F000075
:1057C000493A00001B5B313B33326D002573257372
:1057D000205443503A205265736F6C76696E67208F
:1057E000646F6D61696E3A2025730D0A0000000038
:1057F000D9000020453A00001B5B313B33316D007E
:1058000025732573205443503A20444E532072652B
:10581000736F6C7574696F6E206661696C65642165
:105820000D0A000025732573205443503A20436F1E
:105830006E6E656374696E6720746F2025642E2513
:10584000642E25642E25643A25642E2E2E0D0A0022
:1058500025732573205443503A20736F636B65742E
:105860002829206661696C65642C207265743D2569
:10587000640D0A0025732573205443503A20736F3A
:10588000636B6574282920637265617465642C20DC
:10589000736F636B3D25640D0A000000257325734B
:1058A000205443503A20636F6E6E6563742829203C
:1058B0006661696C65642C207265743D25640D0A0F
:1058C00000000000DD0000202573257320544350A4
:1058D0003A20436F6E6E6563746564210D0A0000A3
:1058E0000148007870470000DD000020F0B5C3B02B
:1058F00006460F461548007818B94FF0FF3043B000
:10590000F0BD3A4631460020FFF7A0F80446002CCF
:105910001ADA00BF0EA00FA310A24FF48071CDE9D8
:10592000000403A8FDF748FE0546002D06DDFF2D07
:1059300004DC2A4603A90020FCF77AFE00BF002001
:1059400002490870401EDAE72046D8E7DD00002053
:10595000453A00001B5B313B33316D0025732573E5
:10596000205443503A207265637628292066616985
:105970006C65642C207265743D25640D0A0000007E
:10598000F0B5C3B006460F461548007818B94FF079
:10599000FF3043B0F0BD3A4631460020FFF7ECFA45
:1059A0000446002C1ADA00BF0EA00FA310A24FF479
:1059B0008071CDE9000403A8FDF7FEFD0546002D2A
:1059C00006DDFF2D04DC2A4603A90020FCF730FE8B
:1059D00000BF002002490870401EDAE72046D8E7E1
:1059E000DD000020453A00001B5B313B33316D0088
:1059F00025732573205443503A2073656E6428291B
:105A0000206661696C65642C207265743D25640DA7
:105A10000A000000F0B5ADF5077D05460C462FA045
:105A20000068869000BF2EA02EA330A24FF4807194
:105A3000CDE9000506A8FDF7BFFD0746002F06DDEE
:105A4000FF2F04DC3A4606A90020FCF7F1FD00BF59
:105A500046A90020FAF774FD2246294686A8FAF7DF
:105A60007FFD0646012E20D100BFE078A178627844
:105A70002378CDE90232CDE9041019A019A324A29C
:105A80003102CDE9000506A8FDF796FD0746002F77
:105A900006DDFF2F04DC3A4606A90020FCF7C8FD0E
:105AA00000BF00200DF5077DF0BD00BF22A023A39D
:105AB00024A24FF48071CDE9000506A8FDF77CFD16
:105AC0000746002F06DDFF2F04DC3A4606A900201A
:105AD000FCF7AEFD00BF4FF0FF30E3E70808080811
