:020000040800F2
:100000009029012061020008C944000891340008C9
:10001000C5440008B90F0008D16E000800000000B8
:10002000000000000000000000000000A101000826
:10003000D113000800000000FD0100081D67000842
:100040007B0200087B0200087B0200087B0200089C
:100050007B0200087B0200087B0200087B0200088C
:100060007B0200087B0200087B0200087B0200087C
:100070007B0200087B0200087B0200087B0200086C
:100080007B0200087B0200087B0200087B0200085C
:100090007B0200087B0200087B0200087B0200084C
:1000A0007B020008196800087B0200087B02000838
:1000B000296800087B0200087B0200087B02000818
:1000C0007B0200087B0200087B0200087B0200081C
:1000D0007B0200087B0200087B020008C16E00085A
:1000E0007B0200087B0200087B0200087B020008FC
:1000F0007B0200087B0200087B0200087B020008EC
:100100007B0200087B0200087B0200087B020008DB
:10011000FD6900087B0200087B0200087B020008E2
:100120007B0200087B0200087B0200087B020008BB
:100130007B02000800000000000000007B020008B5
:100140007B0200087B0200087B0200087B0200089B
:100150007B0200087B0200087B0200087B0200088B
:100160007B0200087B0200087B0200087B0200087B
:100170007B0200087B020008000000000000000075
:100180007B0200087B020008DFF810D000F004FCBE
:1001900000480047C18F0008AFF30080902901207C
:1001A0002C4B19680868B0E8F04F80F30988BFF35A
:1001B0006F8F4FF0000080F311887047000000003F
:1001C00008480068006880F308884FF0000080F35A
:1001D000148862B661B6BFF34F8FBFF36F8F00DF35
:1001E00000BF00BF08ED00E0DFF80C00016841F43B
:1001F00070010160704700BF88ED00E0EFF30980F7
:10020000BFF36F8F134B1A681EF0100F08BF20ED5D
:10021000108A20E9F04F106009B44FF0500080F3CD
:100220001188BFF34F8FBFF36F8F0EF001F94FF0BE
:10023000000080F3118809BC19680868B0E8F04F25
:100240001EF0100F08BFB0EC108A80F30988BFF3CE
:100250006F8F704714000020EFF305807047000097
:100260000648804706480047FEE7FEE7FEE7FEE750
:10027000FEE7FEE7FEE7FEE7FEE7FEE705680008AB
:10028000890100082DE9F05F0546002092469B4653
:1002900088460646814640241BE02846414647469C
:1002A000224600F06EF953465A46C01A914110D3C7
:1002B00011461846224600F055F92D1A67EB010841
:1002C0004F4622460120002100F04CF917EB0009AF
:1002D0004E41201EA4F10104DFDC484631462A4687
:1002E0004346BDE8F09F40EA01039B0703D009E0C5
:1002F00008C9121F08C0042AFAD203E011F8013B12
:1003000000F8013B521EF9D27047D2B201E000F86A
:10031000012B491EFBD270470022F6E710B51346A9
:100320000A4604461946FFF7F0FF204610BD10B5F7
:10033000044604E00B7800F8013B03B1491C521E4F
:10034000F8D2204610BDCAB2401E10F8011F8A42E2
:1003500002D00029F9D100207047421C10F8011B7F
:100360000029FBD1801A704710B5002200E0521C12
:10037000835C8C5CA34201D1002BF8D1D8B2E1B2EE
:10038000401A10BD034611F8012B00F8012B002A7A
:10039000F9D11846704730B505460020034600E005
:1003A0005B1C934205D2EC5CC85C201A01D1002C86
:1003B000F6D130BD0FB400B58DB010A909900B90E7
:1003C00000914FF0FF300A9000200C9005480690F5
:1003D000054807906A4609A80F9900F0F7F80DB094
:1003E0005DF814FBE9050008070600082DE9FF5F2A
:1003F0001D464FF0FF3BD5E9014691465F464FF061
:100400000008A9697F1C01988847296A82468847A5
:100410000028F6D1BAF1FF3F0CD024F4C064002EBE
:1004200019DD600614D5BAF12B0F09D0BAF12D0FE2
:100430000ED103E0584604B0BDE8F09F44F4806458
:10044000A9697F1C01988847761E8246002E02DD2E
:10045000BAF1300F03D0B9F1000F26D032E0A9690C
:10046000761E44F400747F1C019888478246002E53
:1004700005DDBAF1780F06D0BAF1580F03D0B9F103
:10048000000F10D01EE0B9F1000F02D0B9F1100F2B
:1004900018D1A969761E24F400747F1C019888473E
:1004A0008246102002E0082000E00A20814609E090
:1004B00008FB0908A969761E44F400747F1C0198A2
:1004C00088478246002E05DD4946504600F069F80F
:1004D0000028EDDAE96901988847A00502D46FF099
:1004E0000100A8E7E00725D1600613D5600502D515
:1004F000C8F1000000E0404629680A1D2A6009682A
:10050000220501D5087015E0220701D5088011E009
:1005100008600FE02868011D29600068210502D5E8
:1005200080F8008006E0210702D5A0F8008001E0F5
:10053000C0F8008038467EE730B50B460146002003
:100540002022012409E021FA02F59D4205D303FA95
:1005500002F5491B04FA02F52844151EA2F1010216
:10056000F1DC30BD202A04DB203A00FA02F1002041
:1005700070479140C2F1200320FA03F319439040E1
:100580007047202A04DB203A21FA02F0002170474C
:1005900021FA02F3D040C2F12002914008431946EB
:1005A00070473A2800D2303820F02002412A01D387
:1005B000A2F13700884201D34FF0FF3070470000AE
:1005C000026811441378016018467047D1600449ED
:1005D00051610449116200211161114600F006BA0F
:1005E000C1050008E1090008426842B1016811F83C
:1005F000013B23B1521EC0E9001218467047012189
:10060000C160881E704742685AB1C368016843B927
:1006100083688B4205D0491E521CC0E9001200209D
:1006200070474FF0FF3070472DE9FE4F804681EA5A
:100630000300C00F0C46009021F0004123F000455C
:10064000B8EB0200A94105D24046214690461C461F
:100650000B46024623F00040104347D0270DC7F356
:100660000A00C3F30A510290401A019040286BDA45
:10067000C3F3130040F4801B0098924620B100237E
:10068000D2EB030A63EB0B0B01985946C0F1400211
:100690005046FFF767FF06460D4650465946019AF9
:1006A00000F08CF910EB08006141002487EA115238
:1006B00084EAE7731A4340D0009A62B3019A012A90
:1006C0004FEA075215DC001B61EB02014FF00042BC
:1006D00002EA0752CDE90042001C41F58011324682
:1006E0002B4600F02AFB03B0BDE8F08F40462146C0
:1006F000F9E7001B61EB0201001C41F580130018B3
:100700005B412018A2F5001747EB030140EAD570C2
:10071000B6196D4111E06D084FEA360645EAC0751D
:100720004FEA0752001B61EB0201001C41F58011EA
:1007300049084FEA30000019514132462B4603B0B8
:10074000BDE8F04F00F0EABA009801224000002313
:10075000D0EB020263EBE073009821464FEAE074AD
:10076000B8EB000061EB0401E9E783F000435BE7CD
:1007700081F0004158E72DE9FE4F81EA030404F0BF
:10078000004421F0004100944FF0000B23F000439F
:1007900050EA01045ED052EA03045BD0C3F30A546A
:1007A000C1F30A552C44A4F2F3340194A0FB025483
:1007B000C1F3130141F48011C3F3130343F4801315
:1007C00001FB024400FB034E840A970A44EA815469
:1007D00047EA8357A4FB076802958D0A05FB078546
:1007E0004FEA932C04FB0C542705029D4FEA065850
:1007F00047EA1637B5EB08056EEB070C870E920E2D
:1008000047EA811742EA8312A7FB0201B6EB0B010C
:1008100064EB00042B0D43EA0C335E1844EB1C50D0
:10082000DA465146E7FB0201C5F313044FEA0B33E6
:1008300043EA14534FEA0432019C43EA0603A4F14D
:100840000C040294009CCDE900B400F076FA03B0E9
:10085000BDE8F08F00200146F9E72DE9F04D81EA6F
:10086000030404F0004B21F0004514464FF0000A49
:1008700023F0004150EA050220D054EA01021DD0C5
:10088000C5F30A570246C5F31303C1F31300C1F3BE
:100890000A5640F4801543F48013A7EB0608101B9A
:1008A000D64608F2FD3873EB050002D308F10108C3
:1008B00001E092185B41B8F1000F03DA0020014615
:1008C000BDE8F08D00204FF48011064684460EE00E
:1008D000171B73EB050705D3121B63EB05030643D8
:1008E0004CEA010C49084FEA300092185B4150EA8B
:1008F0000107EDD152EA030012D082EA040083EA34
:100900000501084305D0101BAB4106D2012200238C
:1009100006E000224FF0004302E06FF001025310A6
:100920001AEB06004CEB085110EB0A0041EB0B01EF
:10093000BDE8F04D00F0F2B9C1F30A52C1F3130162
:1009400040F2FF3341F480119A4202DA002001465E
:10095000704740F233439A42A2F2334202DC5242E1
:10096000FFF70FBEFFF7FEBD30B5041E71F10004A6
:1009700004DB4FF00044404264EB0101141E73F1AC
:10098000000405DB1C464FF00043524263EB0403B6
:10099000994208BF904230BD064C074D06E0E06822
:1009A00040F0010394E8070098471034AC42F6D3B6
:1009B000FFF7EEFBF401010814020108202A06DB10
:1009C000CB17203A41FA02F043EAE07306E041FA1D
:1009D00002F3D040C2F1200291400843194670470B
:1009E000C0B24FF4F05100F0F7B900002DE9F34F19
:1009F0008BB04FF0000801F10C000C464FF0010BDA
:100A000046460DF1080A019062690121019890475C
:100A1000051E2DD0252D2CD0216A8847C0B16269D2
:100A2000012101989047216A88470028F7D1411E8B
:100A300062690198904700E0761CA1690B9888478D
:100A4000216A88470028F7D1E1690B988847DBE7DE
:100A5000A1690B9888470746A84201D1761CD3E7C5
:100A6000E1690B9888477F1C02D1B8F1000F6FD065
:100A700047E1002762693D463946019890472A2898
:100A800004D162690121019890470125DFF888921D
:100A90006269012101989047A0F130010A290AD228
:100AA0004F45E5DC07EB870100EB4107303FDFD422
:100AB00045F01005ECE7E90601D46FF000476C281B
:100AC0000AD04C2814D0682815D06A280DD0742874
:100AD0001CD07A281AD01DE0626901210198904744
:100AE0006C2802D045F0040514E045F002050DE045
:100AF00045F020050AE062690121019890476828C5
:100B000002D045F0080505E045F400656269012161
:100B100001989047C4E9015765283DD019DC582851
:100B20007AD00CDC452837D004DC252826D0412893
:100B300031D131E046282FD047282CD12CE05B283A
:100B400077D0612828D063287CD0642823D15AE04C
:100B5000D1E06F2848D008DC66281DD067281BD05C
:100B6000692821D06E2816D127E0702845D0732837
:100B700068D0752847D078280DD14DE0A1690B9831
:100B80008847054625283FF469AFE1690B988847F7
:100B90006D1C3FF46AAFB4E023466A466FF0010073
:100BA0000B99AFF300809FE045F040006060A8071C
:100BB00023464FF0000236D43EE0E8077FF447AF0B
:100BC0002068011D21600068290501D506701BE71A
:100BD000290701D5068017E7A90703D5F117C0E952
:100BE000006111E706600FE745F040006060A8076C
:100BF00023464FF0080216D41EE040F60E0125EA07
:100C00000100606016E045F040006060A8072346E0
:100C10004FF00A0207D40FE045F040006060A807DB
:100C200008D5234610226FF001000B99AFF3008026
:100C30005AE007E0234610226FF001000B99FFF7FE
:100C4000D5FB51E04FF000094F464B46632802D0D8
:100C50005B2807D041E02079C00601D40120A060C4
:100C600001273AE062690121019890475E2805D189
:100C70004FF001096269494601989047216939B9E5
:100C800000210A46534643F82120491C0829FADB73
:100C9000B0B3216969B9C11700EBD16253110AEBF6
:100CA000830122F01F02821A01200B689040034347
:100CB0000B6062690121019890475D28E8D1B9F184
:100CC000000F09D00020514651F82020D24341F8AE
:100CD0002020401C0828F7DB02AB224600976FF06B
:100CE00001000B99AFF3008000280CDA401C08D1FA
:100CF000BBF1000F05D04FF0FF300DB0BDE8F08F15
:100D0000FFE74046F9E7E90701D108F10108064489
:100D10004FF0000B78E60000CCCCCC0C10B5141EC4
:100D200073F1000408DA401C41F1000192185B41A4
:100D30001A4301D120F0010010BD2DE9F04D92467B
:100D40009B4611B1B1FA81F202E0B0FA80F2203292
:100D50009046FFF707FC04460F4640EA0A0041EAC6
:100D60000B0153465A46084313D0114653EA01007B
:100D700019D0C8F140025046FFF703FC05460E4665
:100D8000504659464246FFF7EDFB084305D0012087
:100D900004E020463946BDE8F08D0020054346EAD0
:100DA000E0762C4337430A986305E40AA0EB080079
:100DB0000022FD0A44EA47540A3002D500200146C9
:100DC000E9E7010510196941DDE9084500196941A4
:100DD000BDE8F04DA2E700007F2801D9002208E01D
:100DE000064A02EB5002C007127800D1120902F045
:100DF0000F0201209040084070470000C4FA00082C
:100E000070B58C1810F8015B15F0070301D110F8CC
:100E1000013B2A1106D110F8012B03E010F8016BF9
:100E200001F8016B5B1EF9D12B0705D40023521E7C
:100E30000DD401F8013BFAE710F8013BCB1A921CE4
:100E400003E013F8015B01F8015B521EF9D5A142E2
:100E5000D8D3002070BD000055494A6822F44032C2
:100E60004A604A6843681A434A600268526822F43A
:100E7000807203685A6002685368026943EA02227A
:100E800003685A600268526822F0407203685A6030
:100E90000268526883681A4303685A60026892685D
:100EA00022F4006203689A6002689268C3681A4379
:100EB00003689A603F4B826A9A4218D0026892682F
:100EC00022F0706203689A6002689268836A1A432B
:100ED00003689A600268926822F0405203689A6040
:100EE00002689268C36A1A4303689A600BE002685A
:100EF000926822F0706203689A600268926822F039
:100F0000405203689A600268926822F00202036805
:100F10009A6002689368027E43EA420203689A601C
:100F20002022125CA2B10268526842F40062036897
:100F30005A600268526822F4604203685A6002688C
:100F40005368426A521E43EA423203685A6005E01F
:100F50000268526822F4006203685A600268D26A2A
:100F600022F470020368DA620268D36A828B521E2E
:100F700043EA02520368DA620268926822F400725D
:100F800003689A600268936890F8302043EA42222E
:100F900003689A600268926822F4806203689A602B
:100FA00002689368426943EA822203689A60704744
:100FB000002301400100000F00BFFEE710B5084804
:100FC00000F076FA074800F073FA074800F070FA6C
:100FD000064800F06DFA064800F06AFA10BD0000FD
:100FE00074FA000884FA000894FA0008A4FA0008C9
:100FF000B4FA000838B504460D46002000900622D9
:101000002E494FF4106005F09FFF2C4800782B49C3
:10101000497808432949897808432849C978084309
:1010200026490979084325494979084378B90020B8
:101030002249087008204870DC2088700020C870A1
:101040000871487106224FF4106005F0FDFF1C483E
:1010500004701C4805601C481C4908601748C0788B
:101060000968084419490860144800790968084467
:101070001649086011484079096808441349086016
:101080000E48C0780D49097948400C4949794840D3
:101090000E49096808440D490860042269464FF466
:1010A000706005F0D1FF04226946900105F0CCFF85
:1010B0000BF0B0FA00200649087038BDFC00002093
:1010C000C0000020F000002078563412EC00002010
:1010D000DD00002070B569480078062801D10520A0
:1010E00070BD674909788900491C4FF4407202EBD2
:1010F000C10005F0EFFE222806D000234422022181
:101100005F4800780CF07EF9012509F027FDC4B294
:101110005A4890F90000052877D2DFE800F0030F65
:101120002C4F770000205749087048708870C870AD
:101130000BF0BEFC0120514908709CE0022C16D136
:1011400051480068007C4F4908704F480068407C57
:1011500048704D480068807C88704B480068C07CAF
:10116000C8700BF0F1FD02204449087002E006F05F
:10117000AFFC05467FE0052C14D106F06DFC40B1B4
:101180004248006880470BF045FA03203B4908704D
:1011900013E00BF03FFA3E480068804700203749D3
:1011A00008700AE0062C05D10BF034FA012033490F
:1011B000087002E006F08CFC05465CE0042535482A
:1011C0000068401C00B33448006832490968B0EB3D
:1011D000510F19D900242B4800783049087029484C
:1011E000407848702748807888702648C078C87052
:1011F0002B480068401C2A4908600BF0A5FD0BF045
:1012000009FA04201D49087035E033E00425052C57
:1012100024D1002023490870204800781949097812
:10122000884211D11D4840781649497888420BD12F
:101230001A48807813498978884205D11748C078C0
:101240001049C978884203D00325174800688047B1
:101250000BF0E0F90320094908700AE0062C05D1DB
:101260000BF0D8F901200549087002E006F030FCC7
:10127000054600E000BF00BF284631E7DD00002042
:10128000C0000020CD000020F0000020040100205C
:101290000C010020E0000020E4000020C900002034
:1012A000EC000020DE0000200801002010B50448FA
:1012B000007806F0F1FC06200249087010BD00001D
:1012C000C0000020DD00002002480068401C0149E9
:1012D00008607047E4000020044A1070044A11605E
:1012E00041F22212034B1A80704700001C010020BB
:1012F000180100201E0100202DE9F04389B00546A9
:101300000F46904600202E4908702E4908600023A1
:101310001A4602212C4800780CF074F84FF48073C0
:101320002A4839460268002007F010FA86B23520B4
:101330002B463246009025480168234800780CF07F
:101340004DF835E02048007807F05AFD061E17DDFD
:10135000B6F5807F01DD4FF4807602A803AB3246FC
:1013600000901A480168184800780BF0C1F886B25E
:1013700042461648016804A809F032FD814618E08B
:1013800006F0FCFB0446002C07DA0F48007806F054
:1013900083FC002009B0BDE8F0834CB935202B4612
:1013A0003246009009480168074800780CF016F8AA
:1013B000C8E700BF0448007806F06EFC4846E9E73D
:1013C00024010020200100201C0100201801002021
:1013D000704772B600BFFEE72DE9F0470446884625
:1013E000914601262E48006898BB2E482C4908607B
:1013F0002AE02B480068006807683846FEF7ADFF12
:1014000005462A4639462046FEF7C5FFB8B9605D55
:10141000202801D0605D90B921480068006890F9EB
:101420000C0000280ADB20460AF0F4F81C49096881
:10143000096891F90C10884200D0002608E018488D
:101440000068406816490860154800680028D0D137
:1014500000BF1348006848B146B94A4612494046A1
:10146000FEF765FF00200E49086016E00C48006892
:1014700068B10B48006800682246494683684046C8
:10148000984706464EB900200549086005E04A46DF
:1014900006494046FEF74BFF00263046BDE8F08780
:1014A000A40100209C01002078FF0008D0FF000864
:1014B00070B5054600260DB1012000E0002050B9AE
:1014C00000BF502080F31188BFF34F8FBFF36F8FA1
:1014D00000BF00BFFEE708200AF0A4FC04460CB1E0
:1014E000012000E0002050B900BF502080F3118897
:1014F000BFF34F8FBFF36F8F00BF00BFFEE724B174
:10150000214628460AF054FB0126304670BD0000F3
:1015100038B502460020009000BF92F83C00012838
:1015200001D1022038BD012082F83C0000BF0868CC
:10153000092816D91068C0680C780A3C04EB4405E9
:101540000724AC40A0431468E0600C780A3C04EB2C
:1015500044048868A0401468E46820431468E0608C
:1015600013E0106800690C7804EB44050724AC40D4
:10157000A043146820610C7804EB44048868A04000
:10158000146824692043146820614868072817D22A
:101590001068406B0C79641E04EB84051F24AC407A
:1015A000A04314686063088880B20C79641E04EB61
:1015B0008404A0401468646B20431468606331E0C5
:1015C00048680D2817D21068006B0C79E41F04EBF3
:1015D00084051F24AC40A04314682063088880B2AF
:1015E0000C79E41F04EB8404A0401468246B2043AE
:1015F0001468206316E01068C06A0C790D3C04EB97
:1016000084051F24AC40A0431468E062088880B2BF
:101610000C790D3C04EB8404A0401468E46A204378
:101620001468E062194B1A4C1068A04206D1086891
:10163000122803D1586840F480005860144C106898
:10164000A0421CD10868102802D00868112816D1C1
:10165000586840F400005860086810280FD10D4801
:1016600000680D4CB0FBF4F000EB800040000090EF
:1016700002E00098401E009000980028F9D100BFB9
:10168000002082F83C0000BF00BF4BE70023014070
:10169000002001401000002040420F0070B50446B9
:1016A00000250CB9012070BD1549A06A884200D000
:1016B00000BF206C30B9204600F024F800206064A0
:1016C00084F83C00206C00F0100088B9206C20F4F5
:1016D000885040F0020020642046FFF7BDFB002048
:1016E0006064206C20F0020040F00100206400E003
:1016F000012500BF002084F83C0000BF2846D2E747
:101700000100000F10B586B00446142101A8FEF7B1
:1017100003FE1949206888422BD100BF00200090A9
:101720001648006840F48070144908600846006854
:1017300000F48070009000BF00BF00BF0020009048
:101740000E481438006840F004000C491439086051
:101750000846006800F00400009000BF00BF0820A9
:101760000190032002900020039001A9044800F09A
:1017700087F806B010BD0000002001404438024048
:101780000008024070B50446A56D00F079F90646E0
:1017900094F83500022808D08020606500BF002042
:1017A00084F8340000BF012070BD2068006820F07C
:1017B0001600216808602068406920F080002168D8
:1017C0004861206C08B9A06C28B12068006820F03E
:1017D0000800216808602068006820F00100216886
:1017E000086010E000F04CF9801B05280BD9202080
:1017F0006065032084F8350000BF002084F83400C1
:1018000000BF0320D0E72068006800F00100002836
:10181000E8D194F85C103F208840A860012084F84B
:10182000350000BF002084F8340000BF00BFBBE7D4
:10183000014691F83500022803D080204865012038
:101840007047052081F835000868006820F0010025
:101850000A6810600020F3E770B5044600F010F944
:1018600006462546681C10B104480078054400BFB0
:1018700000F006F9801BA842FAD370BD0C000020CE
:10188000F8B502460B460025002400200021D6E0D2
:10189000012606FA01F51E6806EA0504AC4274D179
:1018A0001E7906F00306012E04D01E7906F0030609
:1018B000022E13D190684F000326BE40B0434F0064
:1018C000DE68BE4030439060506801268E40B043D1
:1018D0001E79C6F300168E40304350601E7906F024
:1018E0000306032E09D0D0684F000326BE40B04344
:1018F0004F009E68BE403043D0601E7906F003065C
:10190000022E13D1CF0802F1200656F827004E0709
:10191000F70E0F26BE40B0434F07FF0E1E69BE40B4
:101920003043CF0802F1200646F8270010684F0028
:101930000326BE40B0431E7906F003064F00BE40AA
:10194000304310605E6806F44036002E76D000BF4B
:10195000002600963C4E366846F480463A4F3E607C
:101960003E46366806F48046009600BF00BF374EFC
:101970008F0856F827008E07370F0F26BE40B0435A
:10198000334EB24202D1002624E057E0314EB2423B
:1019900001D101261EE0304EB24201D1022619E0EB
:1019A0002E4EB24201D1032614E02D4EB24201D197
:1019B00004260FE02B4EB24201D105260AE02A4E42
:1019C000B24201D1062605E0284EB24201D10726D7
:1019D00000E008268F073F0FBE4030431B4E8F08A4
:1019E00046F82700224E3068A0435E6806F4801651
:1019F00006B120431E4E3060361D3068A0435E683D
:101A000006F4001606B12043194E361D3060184EFC
:101A1000361F3068A0435E6806F4003606B12043E6
:101A2000134E361F3060361F3068A0435E6806F4E0
:101A3000803606B120430E4E083E3060491C102906
:101A4000FFF426AFF8BD00004438024008380140DA
:101A5000000002400004024000080240000C024066
:101A6000001002400014024000180240001C024016
:101A7000083C01400AB1816101E00B0483617047B9
:101A800001480068704700000400002070B504465B
:101A90000CB9012070BD4CF6CC402168086045F2BD
:101AA000555021680860D4E9001048602168A0689A
:101AB0008860FFF7E5FF05460DE0FFF7E1FF401BFB
:101AC00041F60101884206D92068C06800F0030091
:101AD00008B10320DEE72068C06800F0030000289A
:101AE000EBD14AF6AA20216808600020D2E701461F
:101AF0004AF6AA200A681060002070470348006870
:101B0000034909780844014908607047040000202F
:101B10000C00002010B50D48006840F400700B491F
:101B200008600846006840F4806008600846006865
:101B300040F480700860032000F0D6F80F2000F019
:101B400007F800F055F8002010BD0000003C0240EE
:101B5000F0B587B004460026002700BF00200090A3
:101B60001E48006840F001001C49086008460068F3
:101B700000F00100009000BF00BF01A902A800F022
:101B80009FF900F0D5F946001548B6FBF0F0471E66
:101B900014481549086040F2E7311348C1604760B6
:101BA000002101618160816100F080FF054695B9E7
:101BB0000D4800F0AFFF05466DB9192000F042F85E
:101BC000102C07D200222146192000F04FF80748B8
:101BD000046000E00125284607B0F0BD443802400B
:101BE00040420F0000000140940500200800002042
:101BF00008B500BF002000901148006840F4804004
:101C00000F4908600846006800F48040009000BF5B
:101C100000BF00BF00200090081F006840F0805007
:101C2000091F08600846006800F08050009000BF5F
:101C300000BF00220F21901E00F018F808BD000020
:101C4000443802400146084600280DDB00BF00BFB3
:101C500000F01F0301229A4043099B0003F1E02397
:101C6000C3F8002100BF00BF00BF70472DE9F05F3F
:101C700080460D461646002705F05EFA07463946AF
:101C80002A46334601F00700C0F1070ABAF1040FF3
:101C900002D94FF0040A01E0C0F1070AD14600F171
:101CA000040ABAF1070F02D24FF0000A01E0A0F1D6
:101CB000030AD4464FF0010A0AFA09FAAAF1010A06
:101CC0000AEA020A0AFA0CFA4FF0010B0BFA0CFBB3
:101CD000ABF1010B0BEA030B4AEA0B042146404629
:101CE00005F032FABDE8F09F00BF00F00702064B96
:101CF00019684FF6FF031940044B0B4343EA0221D6
:101D0000014B196000BF70470CED00E00000FA05C0
:101D100000BFBFF34F8F0748006800F4E06006493A
:101D20000843001D03490860BFF34F8F00BF00BF89
:101D300000BFFDE70CED00E00000FA0570B50446B9
:101D40000D460CB9012070BD5848006800F007002E
:101D5000A84209D255490D700846006800F00700F6
:101D6000A84201D00120EEE7207800F0020002280E
:101D70001DD1207800F00400042805D14C480068EB
:101D800040F4E0504A490860207800F00800082834
:101D900005D14748006840F4604045490860444820
:101DA000006820F0F000A1680843414908602078ED
:101DB00000F00100A8B36068012807D13C4808384A
:101DC0000068C0F34040B8B90120BCE76068022851
:101DD00002D06068032807D1354808380068C0F38E
:101DE000406048B90120AEE7314808380068C0F3C8
:101DF000400008B90120A6E72D48006820F0030044
:101E0000616808432A490860FFF73AFE064609E080
:101E1000FFF736FE801B41F28831884202D9032049
:101E200091E707E02248006800F00C006168B0EB21
:101E3000810FEDD11D48006800F00700A84209D9C4
:101E40001A490D700846006800F00700A84201D04A
:101E5000012078E7207800F00400042807D1144816
:101E6000006820F4E050E1680843114908602078D8
:101E700000F00800082808D10D48006820F46040F0
:101E8000216940EAC1000A49086000F061F8084988
:101E90000968C1F30311074A515CC840064908604C
:101EA00006480068FFF754FE00204CE7003C024063
:101EB00008380240F4F80008100000200800002054
:101EC0000F2202600D4A126802F0030242600B4AC0
:101ED000126802F0F0028260084A126802F4E052CE
:101EE000C260064A126802F46042D2080261044AE3
:101EF000126802F007020A607047000008380240CA
:101F0000003C0240014800687047000010000020BB
:101F100000B5FFF7F7FF04490968C1F38221034ABE
:101F2000515CC84000BD00000838024004F90008B8
:101F300000B5FFF7E7FF04490968C1F34231034ADE
:101F4000515CC84000BD00000838024004F9000898
:101F50002DE9F047002400250026A1462548006809
:101F600000F00C0020B1042805D008283AD105E083
:101F7000DFF8849039E0DFF8849036E01D48001FD8
:101F8000006800F03F041B48001F006800F4800058
:101F900078B11A481749091F0968C1F38811A0FBD5
:101FA00001700146224600233846FEF76BF90546CC
:101FB0000EE011480F49091F0968C1F38811A0FB01
:101FC00001700146224600233846FEF75BF90546BC
:101FD0000848001F0068C0F30140401C4600B5FBE4
:101FE000F6F902E0DFF8109000BF00BF4846BDE8F8
:101FF000F0870000083802400024F40000127A0044
:10200000F8B504460CB90120F8BD207800F00100B5
:10201000002874D0F948006800F00C0004280DD0A6
:10202000F648006800F00C00082813D1F348001FA0
:10203000006800F48000B0F5800F0BD1EF4808383D
:102040000068C0F34040002859D06068002856D18D
:102050000120D9E700BF6068B0F5803F08D1E748AC
:102060000838006840F48030E449083908601EE010
:102070006068B0F5A02F0DD1E0480838006840F442
:102080008020DE49083908600846006840F4803046
:1020900008600CE0D9480838006820F48030D7493F
:1020A000083908600846006820F48020086000BFF6
:1020B000606890B1FFF7E4FC054606E0FFF7E0FC3E
:1020C000401B642801D903209EE7CC4808380068EB
:1020D000C0F340400028F1D011E0FFF7D1FC0546E5
:1020E00006E0FFF7CDFC401B642801D903208BE7F5
:1020F000C24808380068C0F340400028F1D1207879
:1021000000F0020002285FD1BC48006800F00C001B
:1021100058B1BA48006800F00C0008281CD1B74834
:10212000001F006800F48000B0B9B44808380068A7
:10213000C0F3400020B1E068012801D0012063E72E
:10214000AE480838006820F0F800216940EAC10074
:10215000AA490839086037E0E06800B30120A849BF
:102160000860FFF78DFC054606E0FFF789FC401B81
:10217000022801D9032047E7A04808380068C0F3C7
:1021800040000028F1D09D480838006820F0F80091
:10219000216940EAC10099490839086014E000202B
:1021A00097490860FFF76CFC054606E0FFF768FCFE
:1021B000401B022801D9032026E790480838006810
:1021C000C0F340000028F1D1207800F00800082872
:1021D0002CD16069A8B101208A490860FFF750FC42
:1021E000054606E0FFF74CFC401B022801D90320FE
:1021F0000AE782486C300068C0F340000028F1D044
:1022000014E000207F490860FFF73AFC054606E02D
:10221000FFF736FC401B022801D90320F4E677487B
:102220006C300068C0F340000028F1D1207800F045
:102230000400042870D1002770483830006800F08E
:10224000805090B900BF002000906C483830006882
:1022500040F080506949383108600846006800F055
:102260008050009000BF00BF01276748006800F45D
:102270008070B0B96448006840F4807062490860BA
:10228000FFF7FEFB054606E0FFF7FAFB401B0228BE
:1022900001D90320B8E65C48006800F4807000288B
:1022A000F2D000BFA068012808D154486830006807
:1022B00040F001005149683108601DE0A068052820
:1022C0000DD14E486830006840F004004B49683139
:1022D00008600846006840F0010008600CE04748CC
:1022E0006830006820F00100444968310860084601
:1022F000006820F00400086000BFA068A8B1FFF7E4
:10230000BFFB054609E0FFF7BBFB401B41F28831EC
:10231000884202D9032077E626E038486830006812
:10232000C0F340000028EED013E0FFF7A9FB0546FC
:1023300008E0FFF7A5FB401B41F28831884201D934
:10234000032061E62D4868300068C0F34000002893
:10235000EFD1012F07D129483830006820F0805094
:1023600026493831086000BFA069002845D02348BD
:10237000006800F00C0008285DD0A069022845D153
:1023800000201F490866FFF77BFB054606E0FFF7C4
:1023900077FB401B022801D9032035E6174808388F
:1023A0000068C0F340600028F1D1D4E90701084378
:1023B000616A40EA81110122A06AC2EB500041EA41
:1023C00000412C20005D41EA00600C49091F0860B3
:1023D00001200B490866FFF753FB054606E0FFF7AF
:1023E0004FFB401B022801D903200DE603480838A3
:1023F0000068C0F340600028F1D049E0083802408E
:1024000000004742800E47420070004000202149F2
:102410000866FFF735FB054606E0FFF731FB401B7A
:10242000022801D90320EFE51B480068C0F3406093
:102430000028F2D12CE0A069012800D1E4E516487B
:10244000001D0668A069012820D006F48001E0691B
:1024500081421BD106F03F01206A814216D147F626
:10246000C0703040616AB0EB811F0FD106F440317B
:102470000122A06AC2EB5000B1EB004F06D106F07A
:1024800070612C20005DB1EB006F01D00120BBE535
:102490000020B9E5000047420038024010B504466C
:1024A0000CB9012010BD606A38B96068B0F5827F50
:1024B00000D105E00021E16102E0002121616161BC
:1024C0000021A16294F8510028B9002084F850003E
:1024D000204600F047F8022084F851002068006888
:1024E00020F0400021680860A08800F482702189F3
:1024F00001F404410843A18901F400610843217CEF
:1025000001F002010843217D01F001010843218B04
:1025100001F400710843217F01F0380108432021B4
:10252000095D01F080010843218D01F40051084349
:10253000216808600421A06901EA104094F8241081
:1025400001F010010843216848602068C06920F448
:1025500000602168C86100206065012084F8510096
:1025600000209FE710B586B00446142101A8FDF7AE
:10257000D3FE1B49206888422FD100BF0020009065
:102580001848006840F48050164908600846006802
:1025900000F48050009000BF00BF00BF00200090FA
:1025A00010481438006840F001000E4914390860E2
:1025B0000846006800F00100009000BF00BFE02066
:1025C0000190022002900020039003200490052037
:1025D000059001A90448FFF753F906B010BD0000AB
:1025E0000030014044380240000002402DE9F84329
:1025F00004460F4616461D46FFF742FA8046B1468E
:1026000094F85100012802D00220BDE8F88307B1F8
:102610000EB90120F9E700BF94F85000012801D15C
:102620000220F2E7012084F8500000BF032084F864
:102630005100002060652763A686E686A063A08718
:10264000E08760642064A068B0F5004F0BD120687B
:10265000006820F04000216808602068006840F4AD
:102660008040216808602068006800F04000402831
:1026700005D02068006840F0400021680860E068EC
:10268000B0F5006F37D1606810B1B9F1010F09D111
:10269000206B00882168C860206B801C2063E08E5E
:1026A000401EE08623E02068806800F002000228D7
:1026B0000AD1206B00882168C860206B801C2063D1
:1026C000E08E401EE08612E0FFF7DAF9A0EB08008A
:1026D000A84201D3681C00B94DB9012084F851000B
:1026E00000BF002084F8500000BF03208DE7E08E7B
:1026F0000028D8D136E0606810B1B9F1010F09D1D6
:10270000206B007821680873206B401C2063E08EEA
:10271000401EE08623E02068806800F00200022866
:102720000AD1206B007821680873206B401C20635D
:10273000E08E401EE08612E0FFF7A2F9A0EB080051
:10274000A84201D3681C00B94DB9012084F851009A
:1027500000BF002084F8500000BF032055E7E08E42
:102760000028D8D142462946204601F0CDFE08B1C6
:1027700020206065A06850B900BF0020009020684C
:10278000C068009020688068009000BF00BF0120F2
:1027900084F8510000BF002084F8500000BF606D35
:1027A00008B1012031E700202FE72DE9FE4F044654
:1027B0000F4690461D460C9E01200190FFF760F9E0
:1027C000814694F851B060680290AA46BBF1010FAF
:1027D0000BD00298B0F5827F04D1A06810B9BBF18C
:1027E000040F02D00220BDE8FE8F1FB1B8F1000F28
:1027F00000D00DB90120F6E700BF94F85000012881
:1028000001D10220EFE7012084F8500000BF94F8C6
:102810005100042802D0052084F851000020606592
:10282000C4F83880E587A5872763E586A5862064F8
:1028300060642068006800F04000402805D02068EF
:10284000006840F0400021680860E068B0F5006F63
:1028500052D1606810B1BAF1010F09D1206B008824
:102860002168C860206B801C2063E08E401EE086DB
:102870003BE02068806800F00200022810D1E08E62
:1028800070B1019801280BD1206B00882168C860C5
:10289000206B801C2063E08E401EE08600200190AB
:1028A0002068806800F0010068B1E08F58B12068AE
:1028B000C068A16B0880A06B801CA063E08F401EE5
:1028C000E08701200190FFF7DBF8A0EB0900B042A0
:1028D0000BD3701C48B1012084F8510000BF0020C8
:1028E00084F8500000BF03207DE7E08E0028C0D1AF
:1028F000E08F0028BDD152E0606810B1BAF1010F3D
:1029000009D1206B007821680873206B401C20637C
:10291000E08E401EE0863CE02068806800F0020007
:10292000022810D1E08E70B1019801280BD1206BE4
:10293000007821680873206B401C2063E08E401EE5
:10294000E086002001902068806800F0010068B1F6
:10295000E08F58B12068C068A16B0870A06B401C64
:10296000A063E08F401EE08701200190FFF788F808
:10297000A0EB0900B04201D3701C00B94EB9012090
:1029800084F8510000BF002084F8500000BF0320ED
:1029900029E7E08E0028BFD1E08F0028BCD14A464D
:1029A0003146204601F0B0FD40B12020606500BFF7
:1029B000002084F8500000BF012014E7A06850B93F
:1029C00000BF002000902068C068009020688068E8
:1029D000009000BF00BF012084F8510000BF00201C
:1029E00084F8500000BF606D08B10120FBE60020B4
:1029F000F9E670477047000030B502460B4600BF4D
:102A000092F83C00012801D1022030BD012082F85B
:102A10003C0000BF022082F83D0010684468106846
:102A2000816824F070041868044310684460184DED
:102A30001068A8421BD01068B0F1804F17D0154D18
:102A40001068A84213D0144D1068A8420FD0134D3F
:102A50001068A8420BD0124D1068A84207D0114D43
:102A60001068A84203D0104D1068A84205D121F08B
:102A700080015868014310688160012082F83D00A0
:102A800000BF002082F83C0000BF00BFBDE700008F
:102A9000000001400004004000080040000C00401D
:102AA00000040140004001400018004010B50446F9
:102AB0000CB9012010BD94F83D0028B9002084F81D
:102AC0003C00204600F025F8022084F83D00211D3E
:102AD000206803F0B1FE012084F8460000BF84F8AE
:102AE0003E0001213F200155402001554120015564
:102AF00000BF00BF012084F842004320015544205C
:102B000001554520015500BF012084F83D000020FB
:102B1000D0E77047014691F83D00012801D001201F
:102B20007047022081F83D000868C06840F001004D
:102B30000B68D8601A4B086898421BD00868B0F13F
:102B4000804F17D0174B0868984213D0164B08686F
:102B500098420FD0154B086898420BD0144B086868
:102B6000984207D0134B0868984203D0124B08686C
:102B700098420CD10868806800F00702062A0CD041
:102B80000868006840F001000B68186005E00868FC
:102B9000006840F001000B6818600020C0E70000EA
:102BA000000001400004004000080040000C00400C
:102BB0000004014000400140001800402DE9F041B0
:102BC00004460D46002700BF94F83C00012802D1BE
:102BD0000220BDE8F081012084F83C0000BF022003
:102BE00084F83D002068866826F0770626F47F4644
:102BF000206886602868502833D00CDC202850D00C
:102C000004DC00284BD0102851D149E0302849D0AD
:102C100040284CD139E060282DD0702807D0B0F57D
:102C2000805F03D0B0F5005F41D10DE041E0D5E910
:102C300002136A68206803F06FFE2068866846F019
:102C400077062068866034E0D5E902136A68206858
:102C500003F062FE2068806840F48040216888604C
:102C600027E0EA686968206803F06AFE502120685E
:102C700003F05DFE1DE0EA686968206803F073FEFA
:102C80006021206803F053FE13E0EA686968206859
:102C900003F056FE4021206803F049FE09E000BF22
:102CA00000BF00BF2968206803F041FE01E0012752
:102CB00000BF00BF012084F83D0000BF002084F861
:102CC0003C0000BF384684E7704770B50446206872
:102CD000C5682068066906F00200022819D105F0CF
:102CE0000200022815D1401F2168086101202077C9
:102CF0002068806900F0030018B12046FFF7E4FF68
:102D000005E0204600F097F8204600F095F80020F6
:102D1000207706F00400042819D105F004000428E7
:102D200015D1C0432168086102202077206880699E
:102D300000F4407018B12046FFF7C6FF05E02046BA
:102D400000F079F8204600F077F80020207706F0B0
:102D50000800082819D105F00800082815D1C0433B
:102D600021680861042020772068C06900F0030012
:102D700018B12046FFF7A8FF05E0204600F05BF8F9
:102D8000204600F059F80020207706F010001028A7
:102D900019D105F01000102815D1C0432168086131
:102DA000082020772068C06900F4407018B12046E0
:102DB000FFF78AFF05E0204600F03DF8204600F0CE
:102DC0003BF80020207706F0010048B105F0010033
:102DD00030B16FF0010021680861204600F02EF844
:102DE00006F08000802809D105F08000802805D1F8
:102DF000C043216808612046FFF7FBFD06F0400054
:102E0000402809D105F04000402805D1C043216881
:102E10000861204600F028F806F02000202809D19B
:102E200005F02000202805D1C04321680861204614
:102E3000FFF7E0FD70BD70477047000010B5044615
:102E400007492068884201D1FEF758FE2068B0F19A
:102E5000804F04D103480068401C0249086010BD3F
:102E600000000140000000207047704770470000DC
:102E70002DE9F84F0446206805682068C668206878
:102E800047694FF00009CA4605F00F09B9F1000F74
:102E90000AD105F0200038B106F0200020B120460C
:102EA00003F003FEBDE8F88FB9F1000F7CD007F006
:102EB000010018B906F49070002875D005F00100E3
:102EC00030B106F4807018B1606C40F001006064AD
:102ED00005F0040030B107F0010018B1606C40F05B
:102EE0000200606405F0020030B107F0010018B183
:102EF000606C40F00400606405F0080048B106F022
:102F0000200010B907F0010018B1606C40F0080013
:102F10006064606C002846D005F0200028B106F0FF
:102F2000200010B1204603F0C0FD20684069C0F3C6
:102F3000801A606C00F0080010B9BAF1000F2DD0B3
:102F4000204603F06CFD2068406900F040004028F6
:102F500020D100BF00BF2168143151E8001F21F0CB
:102F600040002168143141E80002002AF3D100BF7B
:102F7000E06B50B17F48E16B0865E06BFEF758FCF1
:102F800088B1E06B016D88470DE02046FFF76EFFCA
:102F900009E009E02046FFF769FF04E02046FFF75B
:102FA00065FF002060647DE7206B012878D105F083
:102FB0001000002874D006F010000028FAD000BFDE
:102FC0000020009020680068009020684068009011
:102FD00000BF00BF2068406900F04000402870D169
:102FE000E06B006840681FFA80F8B8F1000F58D015
:102FF000A08D404555DDA4F82E80E06BC069B0F58A
:10300000807F43D000BF00BF21680C3151E8001F12
:1030100021F4807021680C3141E80002002AF3D1CC
:1030200000BF00BF00BF2168143151E8001F21F02C
:1030300001002168143141E80002002AF3D100BFE9
:1030400000BF00BF2168143151E8001F21F040008B
:103050002168143141E80002002AF3D100BF20208A
:1030600084F842000020206300BF00BF21680C31BB
:1030700051E8001F21F0100021680C3141E80002E6
:10308000002AF3D100BFE06BFEF77CFB02206063F7
:10309000A08DE28D801A81B22046FFF7E6FE0EE099
:1030A00052E0A08D40450AD1E06BC069B0F5807F49
:1030B00005D102206063A18D2046FFF7D6FEF1E620
:1030C000FFE7A08DE18D401A1FFA80F8E08DD0B3A4
:1030D000B8F1000F37D000BF00BF21680C3151E8B4
:1030E000001F21F4907021680C3141E80002002A91
:1030F000F3D100BF00BF00BF2168143151E8001FA9
:1031000021F001002168143141E80002002AF3D1C6
:1031100000BF202084F842000020206300BF00BFD1
:1031200021680C3151E8001F21F0100021680C319A
:1031300041E80002002AF3D100BF0220606341464B
:103140002046FFF792FEADE605F0800030B106F0B4
:10315000800018B1204603F03DFEA3E605F04000D4
:1031600030B106F0400018B1204603F08EFC99E61D
:1031700000BF97E60D6A000810B504460CB901209F
:1031800010BDA06900B100E000BF94F8410028B96B
:10319000002084F84000204600F02AF8242084F81B
:1031A00041002068C06820F400502168C8602046B3
:1031B00003F0FAFC2068006920F49040216808615F
:1031C0002068406920F02A00216848612068C068B2
:1031D00040F400502168C86000206064202084F81A
:1031E000410084F842000020606300BFC8E700008F
:1031F00010B586B00446142101A8FDF78DF83E49AC
:103200002068884239D100BF002000903B48006808
:1032100040F40020394908600846006800F40020A6
:10322000009000BF00BF00BF00200090334810385E
:10323000006840F004003149103908600846006811
:1032400000F00400009000BF00BF4FF44060019008
:103250000220029000200390032004900820059093
:1032600001A92748FEF70CFB002205213420FEF7B8
:10327000FDFC3420FEF7E6FC3CE022492068884251
:1032800038D100BF002000901C48006840F4802026
:103290001A4908600846006800F48020009000BFCA
:1032A00000BF00BF0020009014481038006840F0B4
:1032B00002001249103908600846006800F0020058
:1032C000009000BF00BF4FF44060019002200290C8
:1032D00000200390032004900720059001A90A48CC
:1032E000FEF7CEFA002205212720FEF7BFFC27209B
:1032F000FEF7A8FC06B010BD004C0040403802406C
:103300000008024000480040000402402DE9F84F48
:1033100004460E46174699464FF0000A94F84200BC
:10332000202852D106B117B90120BDE8F88F00203E
:103330006064222084F8420000202063FEF7A0FB96
:103340008246A785E785A068B0F5805F04D1206933
:1033500010B90025B04602E035464FF000082CE0D9
:103360005346002220212046CDF8009003F062FD54
:1033700020B1202084F842000320D6E745B9206818
:103380004068C0F30800A8F8000008F1020811E046
:10339000A068B0F5805F03D0A06828B9206918B98B
:1033A00020684068287004E02068406800F07F00D2
:1033B00028706D1CE08D401EE085E08D0028CFD187
:1033C000202084F842000020AFE70220ADE77047DC
:1033D0002DE9F84F04460E46174699464FF0000A6D
:1033E00094F84100202850D106B117B90120BDE85A
:1033F000F88F00206064212084F84100FEF740FB34
:103400008246A784E784A068B0F5805F04D1206974
:1034100010B90025B04602E035464FF000081EE026
:103420005346002280212046CDF8009003F002FD93
:1034300020B1202084F841000320D8E745B9B8F82E
:103440000000C0F308002168486008F1020803E0AA
:103450002878216848606D1CE08C401EE084E08C78
:103460000028DDD15346002240212046CDF80090AF
:1034700003F0E0FC20B1202084F841000320B6E7EF
:10348000202084F841000020B1E70220AFE7704718
:1034900000BFFEE70146002000BF05E0002301F168
:1034A000280242F83030401C0528F7DB70472DE930
:1034B000F05F04460E4617469846DDE90BABDDF893
:1034C00028906665002505E0002104F1280040F8F9
:1034D00035106D1C052DF7DB6760C4F81080C4F84B
:1034E0000890C4F814A0C4F80CB0002020626062F8
:1034F000207720650120206004F1580003F05AFA7B
:1035000004F1600003F056FABDE8F09F10B50446E0
:10351000002020772062606A10B12046FFF7BAFFD2
:1035200010BD38B504460D466A462946204600F0CF
:1035300001F838BD2DE9F04198B004460E46154615
:103540004FF0FF37582227496846FCF7CCFE4FF072
:103550000008206A00B13CE016A803F02BFA16A878
:10356000616803F01FFA06B96E46308BA061B07E29
:10357000606204F16000A16903F009FA3246A168B3
:10358000206900F09FFAB0F1000800DC21E016AAE3
:103590004146204609F05CF9071E00D019E016AA42
:1035A000022120460AF0EEFF02280FD100202870E9
:1035B00068702946681CE368626900F04BF80128CE
:1035C00001D12F7804E04FF0FF3701E04FF0FF37D3
:1035D00000BF1FB90120206200202077384618B0B4
:1035E000BDE8F08164F900082DE9FE4F04460D4660
:1035F00016461F46DDF830A0002002900197804655
:10360000814601A808F0CAFC8DF808000298C0F3B2
:10361000C00028700298C0F303102070694601981A
:1036200000F03AF98146019908440190DDE9001063
:1036300000EB01080198A8EB0000022800DA06E080
:1036400001A808F0B2FC30804FF0010900BF4846E5
:10365000BDE8FE8F2DE9FF4704460D461646994604
:1036600000200390029600278046009002A808F0F0
:1036700095FC8DF80C000398C0F30310022800D0CD
:103680001FE001A9029800F007F98046029908445A
:103690000290DDE9011047180298381A022800DA72
:1036A0000FE002A808F07AFC8DF80000009800F006
:1036B0000100207002A808F071FC28704FF001088A
:1036C00000BF404604B0BDE8F0872DE9FF5F064625
:1036D0000C4617469846DDE90FABDDF83890002020
:1036E000039011980290002500200190009002A8FC
:1036F00008F054FC8DF80C000398C0F30310032865
:1037000000D032E00398C0F3C00030700398C0F3DB
:1037100041002060039800F001003870694602986B
:1037200000F0BAF8019002990844029000990298BA
:1037300045182A4602A9484608F044FC10B10298F0
:10374000281A00D511E02068002804DD02A808F03E
:103750002CFCA8F800000298281ACBF80000029868
:10376000CAF800000120019000BF019804B0BDE834
:10377000F09F2DE9FE4F05460E4614461F46DDE933
:103780000C9B00200290CDF804908046824601A850
:1037900008F004FC8DF808000298C0F30310092813
:1037A00000D02CE06946019800F076F88246019935
:1037B00008440190DDE9001000EB01080198A8EB36
:1037C0000000022800DA1AE001A808F0EEFB2880C9
:1037D000002020600DE02068B04202DD4FF0FF3A8B
:1037E0000DE001A808F0DAFB2268511C216047F8BF
:1037F000220001984045EED34FF0010A00BF504629
:10380000BDE8FE8F7CB504464FF0FF3600256846C4
:1038100003F0D0F86846616803F0C4F8A168206935
:1038200000F03FFA0546002D05DD6A462946204690
:1038300009F00EF806462046FFF768FE30467CBDCC
:103840002DE9F84305460C4601260027002020609C
:1038500000BF4FF0FF38781C0746042801DD00BF89
:1038600017E001216846A8478046B8F1010F00D053
:103870000FE09DF8001001F07F01206801FB0600B9
:103880002060F6019DF8000000F080000028E0D1E3
:1038900000BF3846BDE8F88370B504460D460348BE
:1038A000046029460248FFF7CBFF70BD28010020C5
:1038B000317A000830B50246002300BF0846CD1714
:1038C00001EB5565ED11A1EBC515ECB2CD1701EB80
:1038D0005565E911002901DD44F0800418465B1CA0
:1038E00014540029EADC184630BD2DE9F0410446A5
:1038F0000E460027B846206828B125682068FCF7E6
:103900002CFD074601E0A56867683046FCF725FDF9
:103910008046474508D13A4631462846FCF73BFDEC
:1039200010B90120BDE8F0810020FBE7401C802891
:1039300001DA401C0AE0B0F5804F01DA801C05E096
:103940000349884201DAC01C00E0001D70470000F6
:10395000FFFF1F002DE9F0418CB005460E461446CE
:103960004FF0FF3700200790089009900796804697
:10397000286A00B963E00AA803F01CF80AA869687D
:1039800003F010F82078012802D02078022803D113
:10399000284605F019FAA080D4E90201CDE9050115
:1039A00007A807C802AB07C3A0886178CDE900105B
:1039B00023780022A968286900F085F98046B8F1CB
:1039C000000F00DC3BE00AAA4146284608F040FF11
:1039D000071E00D033E02078012816D10AAA04215E
:1039E00028460AF0CFFD04280CD1E868009006AA0A
:1039F00005A904A86B69FFF7F7FD012801D04FF076
:103A0000FF371BE04FF0FF3718E02078022815D170
:103A10000AAA072128460AF0B5FD07280CD1E86854
:103A2000009006AA05A904A86B69FFF7DDFD01282F
:103A300001D04FF0FF3701E04FF0FF3700BF781C97
:103A400010B92846FFF762FD38460CB0BDE8F0819A
:103A50002DE9FC4704460E4615461F46DDF8288032
:103A60000020019081460094042E02DA6FF00109D3
:103A700024E0019865F307100190019867F3C300F3
:103A80000190062D01D1012100E00021019861F390
:103A9000420001909DF8041068460BF01BF80221CB
:103AA0000098FFF707FF00990844009041466846D8
:103AB0000BF016F80098A0EB040900BF4846BDE8DB
:103AC000FC8700002DE9FE4305460E46144602958C
:103AD00000200190009000274FF0FF38204600F0B2
:103AE000A5F807468146FFF721FFB04202DD6FF0DF
:103AF00001088FE000208DF80400019820F0F0000C
:103B0000103001909DF8041002A80AF0E3FF394636
:103B10000298FFF7CFFE029908440290207A042809
:103B200008D13EA102A80AF0C1FF042102A80AF0B0
:103B3000D1FF07E03BA102A80AF0B8FF032102A8C9
:103B40000AF0C8FF00208DF80000A17E009861F304
:103B500041000090E07E08B1012100E000210098C2
:103B600061F3820000900098C0F3800058B194F88F
:103B70003D10009861F3C400009094F83C10009848
:103B800061F345100090206C08B9A06C20B100983A
:103B900020F0800080300090E06C08B9606D20B1AA
:103BA000009820F04000403000909DF8001002A8DE
:103BB0000AF090FF218B02A80AF092FF02A8D4E934
:103BC0000423E1680AF0A4FFE07E58B102A8D4E91A
:103BD0000A23616A0AF09CFF02A8D4E90D23216B35
:103BE0000AF096FF0098C0F3C01028B102A8D4E9EB
:103BF0001123216C0AF08CFF0098C0F3801028B1CB
:103C000002A8D4E91423E16C0AF082FF0298A0EB29
:103C1000050800BF4046BDE8FE8300004D515454E6
:103C2000000000004D5149736470000070B50446F7
:103C30000025207A032801D10C2503E0207A0428EE
:103C400000D10A25D4E90412E06800F012FA801CC1
:103C50000544E07E68B1D4E90A12606A00F009FA0E
:103C6000861CD4E90D12206B00F003FA3044801C4E
:103C70000544206C08B9A06C30B1D4E91112206C55
:103C800000F0F7F9801C0544E06C08B9606D30B1B4
:103C9000D4E91412E06C00F0ECF9801C05442846CD
:103CA00070BD70B504460D460E222946204600F030
:103CB000E2F870BD70B504460D460C222946204638
:103CC00000F0D9F870BD2DE9F04F87B005460F46DA
:103CD00090461C46DDE915B6DDE9109A06950020F0
:103CE0000590049003900096204612A90EC900F09A
:103CF00042F804900290FFF719FEB84203DD6FF01E
:103D00000100039033E0059820F0F000303005907A
:103D1000059868F3C3000590059864F34200059088
:103D2000059869F3000005909DF8141006A80AF0A4
:103D3000D1FE04990698FFF7BDFD06990844069048
:103D400006A812A90EC90AF0E3FE002C03DD5146B5
:103D500006A80AF0C5FE324659460698FCF7C3FA93
:103D60000698304406900698401B039000BF0398C5
:103D700007B0BDE8F08F7FB50546089E002401A876
:103D800007C800F076F9801C30440444002D00DDA3
:103D9000A41C204604B070BD2DE9FF5F05460E4609
:103DA00017469846DDE90E9A03950020029001908F
:103DB000009000245146484600F046F883460190A2
:103DC000FFF7B4FDB04202DDA01E009038E00020F5
:103DD0008DF80800029820F0F000803002900298E0
:103DE00067F3C3000290029820F00600801C029046
:103DF0009DF8081003A80AF06DFE01990398FFF7DB
:103E000059FD039908440390414603A80AF068FE4F
:103E100000240FE004EB44000AEB800C03A89CE8AC
:103E20000E000AF075FE109810F8241003A80AF08E
:103E300051FE641C4C45EDDB0398401B009000BF15
:103E4000009804B0BDE8F09F2DE9F04105460E460C
:103E5000022700240AE004EB440006EB800393E809
:103E6000070000F006F9C01C0744641CAC42F2DBFA
:103E70003846BDE8F0812DE9FC4104460D46164662
:103E800000200190471E0094022D01DA871E15E0E4
:103E900000208DF80400019866F3071001909DF84A
:103EA000041068460AF016FE00210098FFF702FD94
:103EB0000099084400900098071B00BF3846BDE8F1
:103EC000FC812DE9F04105460F4616464FF0FF38BC
:103ED0004446002419E005F1280050F8340098B158
:103EE00005F1280151F834003946FCF73DFA58B97C
:103EF0003EB9002105F1280040F8341000EBC40061
:103F000041604FF0000802E0641C052CE3DB00BFB9
:103F1000CEB108F1010068B9002408E005F12800DD
:103F200050F8340010B94FF0000802E0641C052C72
:103F3000F4DB00BF052C06DA05F1280040F83470E8
:103F400000EBC40046604046BDE8F0812DE9FC412D
:103F500004460D4616461F4601A83B4632462946F2
:103F60000090204600F002F8BDE8FC812DE9FF47F3
:103F70008AB004460E461F46169D4FF0FF384FF09C
:103F8000000900200590069007900596206A00B968
:103F900048E008A802F00EFD08A8616802F002FDE2
:103FA000204604F011FF1FFA80FA0CA805A901228F
:103FB000CDE90021029053460022A1682069FFF755
:103FC000EBFE8146B9F1000F00DC2BE008AA494660
:103FD000204608F03DFCB0F1000800D022E008AA1D
:103FE000092120460AF0CEFA092818D100200490B1
:103FF0002870E16860692B4604AACDE9000101211F
:1040000003A8FFF7B6FB012808D12878802805D03F
:104010003A4631462046FFF754FF804601E04FF014
:10402000FF3800BF08F1010010B92046FFF76EFA13
:1040300040460EB0BDE8F0877CB504460D4600262C
:10404000684602F0B7FC2946684602F0ABFC00BFA8
:104050006946204603F06FFF002802DA4FF0FF3672
:1040600004E0684602F0AEFC0028F1D000BF304604
:104070007CBD37B50024009820B10098FCF76DF99D
:10408000044600E0019C20463EBD00001FB5002014
:1040900000900190029003901548164908604FF473
:1040A000803048600021134881600161017680F80A
:1040B0002010C162104981620021C1600121C161EB
:1040C000002180F8301001214161FDF7E7FA08B1C5
:1040D000FDF77FF90D200090012001900020029053
:1040E00069460448FDF714FA08B1FDF772F91FBDDF
:1040F00000200140640400200100000F10B5C2B090
:1041000000BF35A035A336A24FF48071009002A8FD
:1041100002F0DEFF0446002C0ADDFF2C08DC00BFA5
:10412000002C04DD02AA214637A009F02BFE00BFB7
:1041300000BF06F0E5F800BF27A028A334A24FF483
:104140008071009002A802F0C3FF0446002C0ADD33
:10415000FF2C08DC00BF002C04DD02AA21462AA0A7
:1041600009F010FE00BF00BF09F096FD00BF1AA0C5
:104170001AA331A24FF48071009002A802F0A8FFA8
:104180000446002C0ADDFF2C08DC00BF002C04DDF7
:1041900002AA21461CA009F0F5FD00BF00BF03F0F4
:1041A0000BFD00BF0CA00DA32DA24FF48071009059
:1041B00002A802F08DFF0446002C0ADDFF2C08DC6B
:1041C00000BF002C04DD02AA21460FA009F0DAFD91
:1041D00000BF00BF42B010BD493A0000000000001F
:1041E00025732573204652454552544F533A206358
:1041F00072656174696E67204D5154542074617307
:104200006B732E2E2E0D0A00252E2A73000000003F
:1042100025732573204652454552544F533A206327
:1042200072656174696E672054696D65722074618E
:10423000736B2E2E2E0D0A002573257320465245D2
:104240004552544F533A206372656174696E67201A
:10425000434C49207461736B2E2E2E0D0A00000012
:1042600025732573204652454552544F533A2061D9
:104270006C6C207461736B73206372656174656428
:104280002C207374617274696E672073636865644F
:10429000756C65722E2E2E0D0A00000000B587B0D9
:1042A000142102A8FCF738F800BF002001902E4826
:1042B000006840F004002C4908600846006800F0DF
:1042C0000400019000BF00BF00BF0020019008461D
:1042D000006840F0800008600846006800F0800038
:1042E000019000BF00BF00BF002001900846006899
:1042F00040F0010008600846006800F001000190ED
:1043000000BF00BF00BF002001900846006840F0D9
:10431000020008600846006800F00200019000BF3B
:1043200000BF002210211148FDF7A4FB0122110259
:104330000F48FDF79FFB1020029001200390002002
:104340000490059002A90948FDF79AFA4FF480708D
:1043500002900120039000200490059002A90448D7
:10436000FDF78EFA07B000BD303802400000024071
:104370000008024010B50E480E4908604FF48270E4
:10438000486000210B488160C160016141614FF4C8
:10439000007181610821C161002101624162816275
:1043A0000A21C162FEF77AF808B1FDF712F810BDD4
:1043B00000300140AC04002000B587B0002003901D
:1043C0000490059006900190029000BF00901F4855
:1043D000006840F001001D4908600846006800F0D0
:1043E0000100009000BF00BF080619490860532073
:1043F000486000211648816040F2E731C160002129
:10440000016180218161FEF751FB08B1FCF7E1FFFA
:104410004FF48050039003A90D48FEF7CFFB08B17D
:10442000FCF7D7FF00200190029001A90848FEF791
:10443000E3FA08B1FCF7CDFF002205211C20FDF7AF
:1044400015FC1C20FDF7FEFB07B000BD4038024004
:10445000B401002010B50B480B4908604FF4E1305F
:104460004860002108488160C16001610C21416100
:1044700000218161C161FEF77FFE08B1FCF7A9FF51
:1044800010BD0000004C00400405002010B50B4892
:104490000B4908604FF4E130486000210848816012
:1044A000C16001610C21416100218161C161FEF7A0
:1044B00063FE08B1FCF78DFF10BD0000004800400E
:1044C0004C05002000BFFEE700BFFEE70349016086
:1044D000034941600349816070470000D39E000892
:1044E0002D9F0008C99E0008416002607047014688
:1044F00001F00F01092903DC01F13000C0B270475F
:1045000001F13700C0B2FAE77CB504460E46154605
:104510003346012202212046009500F039F828B1E7
:10452000606D40F02000606503207CBD1648006887
:104530001821B0FBF1F01549B0FBF1F04FF47A719E
:10454000484301906068B0F5827F0DD13346002268
:1045500080212046009500F01BF898B1606D40F076
:10456000200060650320E0E700BF019800B908E083
:104570000198401E019020688068C0F3C010002898
:10458000F3D100BF0020D0E71000002040420F0010
:104590002DE9F84F04460D4690461E46DDF828905A
:1045A000FDF76EFAA0EB0900371AFDF769FA8246AB
:1045B0002C480068C0F3CB307843009046E0701C74
:1045C000002843D0FDF75CFAA0EB0A00B84200D205
:1045D000A7BB2068406820F0E00021684860606860
:1045E000B0F5827F0DD1A068B0F5004F03D0A06870
:1045F000B0F5806F05D12068006820F04000216888
:104600000860A06AB0F5005F0DD100BF20680068A7
:1046100020F40050216808602068006840F40050D1
:104620002168086000BF012084F8510000BF00200D
:1046300084F8500000BF0320BDE8F88FFFE7009822
:1046400008B9002702E00098401E009020688068AA
:104650002840A84201D1012000E000204045AED111
:104660000020E9E710000020C4B00025FCF7A6FCFC
:1046700000BF73A073A374A24FF48071009003A8CD
:1046800002F026FD0446002C0ADDFF2C08DC00BFEA
:10469000002C04DD03AA214670A009F073FB00BFC3
:1046A00000BF80216F48FBF737FEC7E00A230122D5
:1046B00043A96D48FEF72AFE002863D16423012236
:1046C00043A96948FEF784FE9DF80C010D2803D02C
:1046D0009DF80C010A2856D100BF624858A159A381
:1046E00062A2CDE900104FF4807103A802F0F0FC43
:1046F0000446002C0ADDFF2C08DC00BF002C04DD82
:1047000003AA214655A009F03DFB00BF00BF0020D1
:104710005449485500BF4FF400715D48FBF7FCFD5C
:104720004FF400725A494F48FCF756FE0446584869
:10473000FBF713FE86B26423324655494A48FEF71A
:1047400047FE04B900E0E6E700BF002580214548A8
:10475000FBF7E2FD00BF3AA03AA34EA24FF48071EE
:10476000009003A802F0B4FC0446002C0ADDFF2CE4
:1047700008DC00BF002C04DD03AA214637A009F0A5
:1047800001FB00BF57E09DF80C0109284AD16820C1
:1047900034490870652048706C2088707020C8709B
:1047A000002008710425642306223EA12E48FEF74E
:1047B0000FFE00BF4FF400713548FBF7ADFD4FF41D
:1047C000007233492748FCF707FE04463048FBF7E0
:1047D000C4FD86B2642332462D492348FEF7F8FD16
:1047E00004B900E0E6E700BF002580211D48FBF783
:1047F00093FD00BF12A013A326A24FF48071009076
:1048000003A802F065FC0446002C0ADDFF2C08DC3E
:1048100000BF002C04DD03AA214610A009F0B2FA63
:1048200000BF08E07F2D06DA9DF80C212846691CA0
:104830008DB20C490A540A2006F0BCF836E7000095
:10484000493A0000000000002573257320434C49BD
:104850003A2052656164790D0A000000252E2A7302
:10486000000000001023012004050020257325739B
:1048700020434C493A20636F6D6D616E6420726510
:10488000636569766564202D2025730D0A0000009C
:10489000902301202573257320434C493A203E2064
:1048A0000D0A000068656C700D0A0000C2B0002798
:1048B00000BF58A058A359A24FF48071009002A8DD
:1048C00002F006FC0446002C0ADDFF2C08DC00BFC9
:1048D000002C04DD02AA214659A009F053FA00BFBA
:1048E00000BF00BFFDF7CCF8C01BB0F5FA7F6ED358
:1048F000FDF7C6F807460AF0CDF8C6B2012E2BD058
:1049000051480078401C50490870084600780A2831
:1049100006DB4E480078012802D0012005F0D8F8C7
:1049200000BF494800784AA13BA34AA2CDE9001044
:104930004FF4807102A802F0CBFB0446002C0ADD84
:10494000FF2C08DC00BF002C04DD02AA21463CA09D
:1049500009F018FA00BF25E03B480078002821DD67
:1049600000BF2CA02CA347A24FF48071009002A896
:1049700002F0AEFB0446002C0ADDFF2C08DC00BF71
:10498000002C04DD02AA21462DA009F0FBF900BF8E
:1049900000BF00202C4908702C480078012801D164
:1049A00005F014F82948007800282CD02748007B0F
:1049B000002828D12549087803F02CFC05460DB3C2
:1049C00001202249087300BF21A013A300E01CE0CE
:1049D00037A24FF48071CDE9000502A802F078FB00
:1049E0000446002C0ADDFF2C08DC00BF002C04DD8F
:1049F00002AA214612A009F0C5F900BF00BF28464F
:104A000003F074FF00BF04F079F90A2005F0D2FF2B
:104A100068E70000493A0000000000002573257394
:104A2000204D51545420457863657074696F6E3A17
:104A3000207461736B20737461727465640D0A0075
:104A4000252E2A7300000000900100200023012081
:104A5000573A000025732573204D51545420457852
:104A600063657074696F6E3A20504859206C696EA6
:104A70006B20646F776E2028636865636B3D2564E7
:104A8000290D0A0025732573204D51545420457873
:104A900063657074696F6E3A20504859206C696E76
:104AA0006B207265636F76657265640D0A000000A5
:104AB00025732573204D51545420457863657074D7
:104AC000696F6E3A20657865637574696E672072E8
:104AD00065636F7665727920737472617465677946
:104AE0003D25640D0A000000ADF5167D00BF02E013
:104AF000642005F05FFF154800780028F8D04FF4D7
:104B0000FA7144A805F038FB0028F0D100BF54A882
:104B100044AA0FA39499CDE90032CDE902100DA368
:104B20000DA24FF4807104A802F0D2FA0446002CC2
:104B30000ADDFF2C08DC00BF002C04DD04AA21469E
:104B400010A009F01FF900BFD1E7000041010020CB
:104B5000493A00000000000025732573204D515490
:104B6000542052785461736B3A20746F7069633DBE
:104B700025732C207061796C6F61643D252E2A733A
:104B80000D0A0000252E2A7300000000ADF5147DEB
:104B900000BF02E0642005F00DFF164800780028F1
:104BA000F8D04FF4FA7142A805F026FE0028F0D1A3
:104BB0009DF84C3252A942A8929A04F077FD002841
:104BC000E7D000BF0CA00DA30DA24FF480710090A0
:104BD00002A802F07DFA0446002C0ADDFF2C08DC56
:104BE00000BF002C04DD02AA21460EA009F0CAF87D
:104BF00000BFCEE741010020453A00000000000060
:104C000025732573204D5154542054785461736B8F
:104C10003A207075626C697368206661696C6564BE
:104C20000D0A0000252E2A7300000000D6B000BF38
:104C3000FDA0FEA3FEA24FF48071009012A802F026
:104C400047FA1190119800280CDD1198FF2809DC13
:104C500000BF1198002804DD12AAFCA0119909F0E8
:104C600091F800BF00BF00BFEFA0F0A3F9A24FF47E
:104C70008071009012A802F02BFA11901198002870
:104C80000CDD1198FF2809DC00BF1198002804DD15
:104C900012AAEEA0119909F075F800BF00BF00BF7D
:104CA000F84800780D2881F00D84DFE810F00D0041
:104CB0007400DF005F01AB011E04D30617078707EE
:104CC000EB09250B0C0CE90B00BFD7A0D7A3EEA274
:104CD0004FF48071009012A802F0FAF91190119827
:104CE00000280CDD1198FF2809DC00BF119800286E
:104CF00004DD12AAD5A0119909F044F800BF00BF45
:104D000009F046FE00BFC8A0C8A3EEA24FF4807110
:104D1000009012A802F0DCF91190119800280CDD27
:104D20001198FF2809DC00BF1198002804DD12AAA1
:104D3000C6A0119909F026F800BF00BF1022082173
:104D400053A8FBF7E2FA53A953A809F086FD6420A3
:104D5000FCF782FD00BFB4A0B4A3E6A24FF48071BB
:104D6000009012A802F0B4F91190119800280CDDFF
:104D70001198FF2809DC00BF1198002804DD12AA51
:104D8000B2A0119908F0FEFF00BF00BF0120BD498D
:104D9000087001F0E3BB00BFA3A0A4A3E3A24FF4FB
:104DA0008071009012A802F093F9119011980028D8
:104DB0000CDD1198FF2809DC00BF1198002804DDE4
:104DC00012AAA2A0119908F0DDFF00BF00BF4FF4A6
:104DD000645002F07FF855905598042821D100BF07
:104DE00091A1559891A3DEA2CDE900104FF48071F6
:104DF00012A802F06DF91190119800280CDD11989D
:104E0000FF2809DC00BF1198002804DD12AA8FA03A
:104E1000119908F0B7FF00BF00BF02209949087040
:104E200023E000BFDCA1559880A3DC4ACDE9001047
:104E30004FF4807112A802F04BF9119011980028DC
:104E40000CDD1198FF2809DC00BF1198002804DD53
:104E500012AA7EA0119908F095FF00BF00BF0220A2
:104E600004F036FE0B208749087092E700BF6EA061
:104E70006EA3CBA24FF48071009011A802F028F924
:104E80001090109800280CDD1098FF2809DC00BF56
:104E90001098002804DD11AA6CA0109908F072FF88
:104EA00000BF00BF09F0F6FDC0B251905198012833
:104EB0003BD100BF5CA05DA3C94A4FF48071009054
:104EC00011A802F005F91090109800280CDD109838
:104ED000FF2809DC00BF1098002804DD11AA5BA0A0
:104EE000109908F04FFF00BF00BF00BF4EA04FA3B6
:104EF000BCA24FF48071009011A802F0E9F8109064
:104F0000109800280CDD1098FF2809DC00BF1098CD
:104F1000002804DD11AA4DA0109908F033FF00BF4E
:104F200000BF0320574908701FE000BFBAA03FA38D
:104F3000BA4A4FF48071009011A802F0C9F810909D
:104F4000109800280CDD1098FF2809DC00BF10988D
:104F5000002804DD11AA3DA0109908F013FF00BF3E
:104F600000BF4FF47A7005F025FD12E700BF2EA0B8
:104F70002EA3ABA24FF48071009012A802F0A8F803
:104F80001190119800280CDD1198FF2809DC00BF52
:104F90001198002804DD12AA2CA0119908F0F2FE45
:104FA00000BF00BFAC490320FCF724F8AB4AAC4972
:104FB000AC4807F0B3FA0020AB490860FCF760FD8D
:104FC000AA49086000BF18A018A3A94A4FF480712D
:104FD000009012A802F07CF81190119800280CDDC6
:104FE0001198FF2809DC00BF1198002804DD12AADF
:104FF00016A0119908F0C6FE00BF00BF0420214989
:105000000870C6E6FCF73CFD98490968401AB0F5FF
:105010007A7F05D3FCF734FD9449086003F00AFB5E
:10502000FCF758F8529025E1493A000000000000D2
:1050300025732573204E6574776F726B5461736BA3
:105040003A20737461727465640D0A00252E2A7308
:105050000000000025732573204E6574776F726B16
:105060005461736B3A20656E746572696E67207364
:1050700074617465206D616368696E652E2E2E0DF6
:105080000A0000004001002025732573204E45547E
:105090005F53544154455F494E49543A2052656725
:1050A0006973746572696E672057353530302053E7
:1050B00050492063616C6C6261636B732E2E2E0D00
:1050C0000A00000025732573204E45545F53544158
:1050D00054455F494E49543A20496E697469616C80
:1050E000697A696E672057353530302E2E2E0D0ABD
:1050F0000000000025732573204E45545F53544132
:1051000054455F494E49543A20573535303020696F
:105110006E697469616C697A6174696F6E20636F1E
:105120006D706C6574650D0A0000000025732573B1
:10513000204E45545F53544154455F573535303008
:105140005F434845434B3A2052656164696E67206E
:1051500056455253494F4E522E2E2E0D0A00000036
:1051600025732573204E45545F53544154455F5772
:10517000353530305F434845434B3A20573535305D
:1051800030204F4B212056455253494F4E523D300F
:1051900078253032580D0A00453A0000D4FB00084B
:1051A00025732573204E45545F53544154455F5039
:1051B00048595F4C494E4B5F434845434B3A204367
:1051C0006865636B696E6720504859206C696E6B27
:1051D000207374617475732E2E2E0D0A000000006A
:1051E00020FC000825732573204E45545F5354411D
:1051F00054455F5048595F4C494E4B5F43484543C7
:105200004B3A205573696E672044484350206D6FB8
:1052100064650D0A00000000573A0000F4FC000825
:1052200025732573204E45545F53544154455F44C4
:105230004843505F53544152543A2053746172743E
:10524000696E67204448435020636C69656E742E14
:105250002E2E0D0A00000000001F0120A984000866
:1052600019850008598200084C01002048010020DF
:1052700040FD0008529806287ED2DFE800F0C96C95
:10528000032649F100BFAFF26020AFF26023FE4A6F
:105290004FF48071009012A801F01AFF119011983C
:1052A00000280DDD1198FF280ADC00BF11980028A6
:1052B00005DD12AAAFF26C20119908F063FD00BF62
:1052C00000BF0620F14908700DE100BFAFF2A82031
:1052D000AFF2A823EEA24FF48071009012A801F063
:1052E000F7FE1190119800280DDD1198FF280ADCB7
:1052F00000BF1198002805DD12AAAFF2B020119965
:1053000008F040FD00BF00BF0620E0490870EAE059
:1053100000BFAFF2EC20AFF2EC23EDA24FF48071AE
:10532000009012A801F0D4FE1190119800280DDD14
:105330001198FF280ADC00BF1198002805DD12AA89
:10534000AFF2F820119908F01DFD00BF00BF062044
:10535000CE490870C7E0EE4800686421B0FBF1F266
:1053600001FB120028BB00BFE9480068B0FBF1F068
:10537000AFF24C31109000E094E0E4A3E5A2CDE957
:1053800000104FF4807112A801F0A2FE1190119844
:1053900000280DDD1198FF280ADC00BF11980028B5
:1053A00005DD12AAAFF25C30119908F0EBFC00BFEA
:1053B00000BFD7480068401CD5490860084600680F
:1053C000B0F57A7F23D900BFAFF23420CFA3DFA29C
:1053D0004FF48071009012A801F07AFE119011989C
:1053E00000280DDD1198FF280ADC00BF1198002865
:1053F00005DD12AAAFF2AC30119908F0C3FC00BF72
:1054000000BF042004F064FB0C20A04908706AE08F
:1054100000BFAFF27C20BDA3DBA24FF480710090EF
:1054200012A801F055FE1190119800280DDD119879
:10543000FF280ADC00BF1198002805DD12AAAFF290
:10544000F430119908F09EFC00BF00BFFBF72EFF5F
:10545000032004F03DFB0C208C49087043E0FFE77B
:1054600000BFAFF24C20A9A3D1A24FF480710090ED
:1054700012A801F02DFE1190119800280DDD119851
:10548000FF280ADC00BF1198002805DD12AAAFF240
:105490004440119908F076FC00BF00BF0B207B4907
:1054A000087020E000BFAFF29021529897A3CAA2E3
:1054B000CDE900104FF4807112A801F009FE11909F
:1054C000119800280DDD1198FF280ADC00BF119803
:1054D000002805DD12AAAFF28C40119908F052FCA9
:1054E00000BF00BF00BF00BF53E400BFAFF2C84021
:1054F00086A3C6A24FF48071009008A801F0E8FDD1
:105500000790079800280DDD0798FF280ADC00BFE8
:105510000798002805DD08AAAFF2D040079908F0E7
:1055200031FC00BF00BF00208DF8300108208DF84D
:105530003101DC208DF8320112208DF83301342046
:105540008DF8340156208DF835014BA84AA949AB96
:1055500048AACDE90010BBA1BDA0FAF72BFF4898DF
:10556000C0B28DF836014998C1B24CA8C1714A98B1
:10557000C1B24CA801724B98C1B24CA841724BA861
:105580004AA949AB48AACDE90010AEA1B4A0FAF7E8
:1055900011FF4898C0B28DF83A014998C1B24CA8A1
:1055A000C1724A98C1B24CA801734B98C1B24CA8C1
:1055B00041734BA84AA949AB48AACDE90010A1A163
:1055C000ABA0FAF7F7FE4898C0B28DF83E014998B3
:1055D000C1B24CA8C1734A98C1B24CA801744B988F
:1055E000C1B24CA841744BA84AA949AB48AACDE91D
:1055F000001094A1A1A0FAF7DDFE4898C0B28DF882
:1056000042014998C1B24CA8C1744A98C1B24CA891
:1056100001754B98C1B24CA841754CA9002002F00D
:1056200062FC00BFAFF2006038A396A24FF4807115
:10563000009008A801F04CFD0790079800280DDDA8
:105640000798FF280ADC00BF0798002805DD08AA94
:10565000AFF20860079908F095FB00BF00BF00BFDC
:105660009DF835019DF834119DF833219DF83231B4
:10567000CDE90332CDE905109DF831019DF83011D7
:10568000AFF25C6221A31DE184FD0008400100200F
:1056900025732573204E45545F53544154455F4450
:1056A0004843505F52554E3A20444843505F49505A
:1056B0005F4348414E474544202D204950206164B6
:1056C000647265737320757064617465640D0A009B
:1056D00025732573204E45545F53544154455F4410
:1056E0004843505F52554E3A20444843505F49501A
:1056F0005F4C4541534544202D204950206C656145
:1057000073652072656E657765640D0A00000000A0
:105710004C01002025732573204E45545F5354419E
:1057200054455F444843505F52554E3A20444843E5
:10573000502072756E6E696E672E2E2E202872654F
:105740007472793D2564290D0A00000025732573C4
:10575000204E45545F53544154455F444843505F85
:1057600052554E3A20444843502074696D656F7518
:1057700074206166746572203130207365636F6ECA
:1057800064730D0A0000000025732573204E4554F4
:105790005F53544154455F444843505F52554E3A1D
:1057A0002044484350206661696C6564210D0A00FD
:1057B00025732573204E45545F53544154455F442F
:1057C0004843505F52554E3A20444843502073742A
:1057D0006F707065640D0A0025732573204E455463
:1057E0005F53544154455F444843505F52554E3ACD
:1057F00020556E6B6E6F776E204448435020726563
:1058000073756C743A2025640D0A000025732573A6
:10581000204E45545F53544154455F4E45545F43B9
:105820004F4E4649473A20436F6E66696775726905
:105830006E67207374617469632049502E2E2E0D9B
:105840000A00000025642E25642E25642E256400A0
:105850003139322E3136382E312E383800000000E2
:105860003235352E3235352E3235352E30000000AA
:105870003139322E3136382E312E3100382E382E35
:10588000382E380025732573204E45545F535441FC
:1058900054455F4E45545F434F4E4649473A205367
:1058A000746174696320495020636F6E666967751F
:1058B000726564207375636365737366756C6C7968
:1058C000210D0A00CDE900210290FEA24FF4807163
:1058D00008A801F0FDFB0790079800280DDD079848
:1058E000FF280ADC00BF0798002805DD08AAAFF6EC
:1058F000A400079908F046FA00BF00BF00BF4CA8FB
:10590000417A007A4CAAD2799DF83631CDE901323C
:10591000CDE90301AFF6F000AFF21023F4A24FF48B
:105920008071009008A801F0D3FB07900798002829
:105930000DDD0798FF280ADC00BF0798002805DD69
:1059400008AAAFF6F800079908F01CFA00BF00BFDC
:1059500000BF4CA8407B4CA9097B4CAAD27A9DF889
:105960003A31CDE90132CDE90310AFF64410AFF280
:105970006423E6A24FF48071009008A801F0A8FB10
:105980000790079800280DDD0798FF280ADC00BF64
:105990000798002805DD08AAAFF65010079908F00F
:1059A000F1F900BF00BF00BF4CA8417C007C4CAAAD
:1059B000D27B9DF83E31CDE90132CDE90301AFF64E
:1059C0009810AFF2B823D8A24FF48071009008A8C5
:1059D00001F07EFB0790079800280DDD0798FF284F
:1059E0000ADC00BF0798002805DD08AAAFF6A4105E
:1059F000079908F0C7F900BF00BF00BF4CA8417D60
:105A0000027DC07C9DF84231CDE90130CDE9032112
:105A1000AFF6EC10AFF20C33CAA24FF480710090D5
:105A200008A801F055FB0790079800280DDD07989E
:105A3000FF280ADC00BF0798002805DD08AAAFF69A
:105A4000F410079908F09EF900BF00BF0620C44972
:105A5000087049E500BFAFF63020AFF25033C1A265
:105A60004FF48071009012A801F032FB1190119850
:105A700000280DDD1198FF280ADC00BF11980028CE
:105A800005DD12AAAFF63C20119908F07BF900BFA2
:105A900000BF03F0E5FD00BFAFF67420AFF2943312
:105AA000BEA24FF48071009012A801F011FB11907A
:105AB000119800280DDD1198FF280ADC00BF11980D
:105AC000002805DD12AAAFF67C20119908F05AF9DA
:105AD00000BF00BF0720A249087005E500BF40F2E3
