:020000040800F2
:10000000F049002061020008E91E0008BD1C00083C
:10001000E51E00083D0500087D26000800000000E0
:10002000000000000000000000000000A101000826
:100030004105000800000000FD01000849200008FB
:100040007B0200087B0200087B0200087B0200089C
:100050007B0200087B0200087B0200087B0200088C
:100060007B0200087B0200087B0200087B0200087C
:100070007B0200087B0200087B0200087B0200086C
:100080007B0200087B0200087B0200087B0200085C
:100090007B0200087B0200087B0200087B0200084C
:1000A0007B020008452100087B0200087B02000853
:1000B0007B0200087B0200087B0200087B0200082C
:1000C0007B0200087B0200087B0200087B0200081C
:1000D0007B0200087B0200087B0200086D260008F6
:1000E0007B0200087B0200087B0200087B020008FC
:1000F0007B0200087B0200087B0200087B020008EC
:100100007B0200087B0200087B0200087B020008DB
:10011000352200087B0200087B0200087B020008F1
:100120007B0200087B0200087B0200087B020008BB
:100130007B02000800000000000000007B020008B5
:100140007B0200087B0200087B0200087B0200089B
:100150007B0200087B0200087B0200087B0200088B
:100160007B0200087B0200087B0200087B0200087B
:100170007B0200087B020008000000000000000075
:100180007B0200087B020008DFF810D000F014F9B1
:1001900000480047B12B0008AFF30080F049002071
:1001A0002C4B19680868B0E8F04F80F30988BFF35A
:1001B0006F8F4FF0000080F311887047000000003F
:1001C00008480068006880F308884FF0000080F35A
:1001D000148862B661B6BFF34F8FBFF36F8F00DF35
:1001E00000BF00BF08ED00E0DFF80C00016841F43B
:1001F00070010160704700BF88ED00E0EFF30980F7
:10020000BFF36F8F134B1A681EF0100F08BF20ED5D
:10021000108A20E9F04F106009B44FF0500080F3CD
:100220001188BFF34F8FBFF36F8F03F073FA4FF056
:10023000000080F3118809BC19680868B0E8F04F25
:100240001EF0100F08BFB0EC108A80F30988BFF3CE
:100250006F8F704714000020EFF305807047000097
:100260000648804706480047FEE7FEE7FEE7FEE750
:10027000FEE7FEE7FEE7FEE7FEE7FEE731210008C6
:10028000890100082DE9F05F0546002092469B4653
:1002900088460646814640241BE02846414647469C
:1002A000224600F079F853465A46C01A914110D3BD
:1002B00011461846224600F060F82D1A67EB010837
:1002C0004F4622460120002100F057F817EB0009A5
:1002D0004E41201EA4F10104DFDC484631462A4687
:1002E0004346BDE8F09F40EA01039B0703D009E0C5
:1002F00008C9121F08C0042AFAD203E011F8013B12
:1003000000F8013B521EF9D27047D2B201E000F86A
:10031000012B491EFBD270470022F6E710B51346A9
:100320000A4604461946FFF7F0FF204610BD421C5E
:1003300010F8011B0029FBD1801A7047034611F801
:10034000012B00F8012B002AF9D11846704730B56F
:100350000B46014600202022012409E021FA02F583
:100360009D4205D303FA02F5491B04FA02F528441D
:10037000151EA2F10102F1DC30BD202A04DB203A77
:1003800000FA02F1002070479140C2F1200320FAE8
:1003900003F3194390407047202A04DB203A21FAE6
:1003A00002F00021704721FA02F3D040C2F120028E
:1003B0009140084319467047064C074D06E0E06837
:1003C00040F0010394E8070098471034AC42F6D39C
:1003D000FFF7DEFEB43C0008D43C000855494A68EB
:1003E00022F440324A604A6843681A434A6002680D
:1003F000526822F4807203685A6002685368026986
:1004000043EA022203685A600268526822F040728E
:1004100003685A600268526883681A4303685A6026
:100420000268926822F4006203689A600268926827
:10043000C3681A4303689A603F4B826A9A4218D095
:100440000268926822F0706203689A60026892689B
:10045000836A1A4303689A600268926822F04052E5
:1004600003689A6002689268C36A1A4303689A60D4
:100470000BE00268926822F0706203689A6002687A
:10048000926822F0405203689A600268926822F0F3
:10049000020203689A6002689368027E43EA42029D
:1004A00003689A602022125CA2B10268526842F48A
:1004B000006203685A600268526822F4604203686E
:1004C0005A6002685368426A521E43EA4232036825
:1004D0005A6005E00268526822F4006203685A60BC
:1004E0000268D26A22F470020368DA620268D36A90
:1004F000828B521E43EA02520368DA6202689268F3
:1005000022F4007203689A600268936890F83020C1
:1005100043EA422203689A600268926822F4806289
:1005200003689A6002689368426943EA822203681A
:100530009A607047002301400100000F00BFFEE7F2
:10054000704772B600BFFEE738B502460020009043
:1005500000BF92F83C00012801D1022038BD0120E3
:1005600082F83C0000BF0868092816D91068C068E6
:100570000C780A3C04EB44050724AC40A043146803
:10058000E0600C780A3C04EB44048868A0401468DE
:10059000E46820431468E06013E0106800690C7898
:1005A00004EB44050724AC40A043146820610C7898
:1005B00004EB44048868A04014682469204314684C
:1005C00020614868072817D21068406B0C79641EB8
:1005D00004EB84051F24AC40A043146860630888C2
:1005E00080B20C79641E04EB8404A0401468646B30
:1005F00020431468606331E048680D2817D2106802
:10060000006B0C79E41F04EB84051F24AC40A0436D
:1006100014682063088880B20C79E41F04EB84041A
:10062000A0401468246B20431468206316E010680F
:10063000C06A0C790D3C04EB84051F24AC40A04338
:100640001468E062088880B20C790D3C04EB8404E5
:10065000A0401468E46A20431468E062194B1A4C05
:100660001068A04206D10868122803D1586840F4E7
:1006700080005860144C1068A0421CD108681028F3
:1006800002D00868112816D1586840F4000058605C
:10069000086810280FD10D4800680D4CB0FBF4F02D
:1006A00000EB80004000009002E00098401E0090A7
:1006B00000980028F9D100BF002082F83C0000BF5C
:1006C00000BF4BE700230140002001401000002044
:1006D00040420F0070B5044600250CB9012070BDE2
:1006E0001549A06A884200D000BF206C30B920466E
:1006F00000F024F80020606484F83C00206C00F0D6
:10070000100088B9206C20F4885040F0020020646A
:100710002046FFF763FE00206064206C20F002009A
:1007200040F00100206400E0012500BF002084F8B3
:100730003C0000BF2846D2E70100000F10B586B08C
:100740000446142101A8FFF7E7FD194920688842F3
:100750002BD100BF002000901648006840F4807044
:10076000144908600846006800F48070009000BFDB
:1007700000BF00BF002000900E481438006840F011
:1007800004000C49143908600846006800F00400B1
:10079000009000BF00BF08200190032002900020BD
:1007A000039001A9044800F073F806B010BD0000E2
:1007B00000200140443802400008024070B5044661
:1007C000A56D00F06FF9064694F83500022808D0B0
:1007D0008020606500BF002084F8340000BF012045
:1007E00070BD2068006820F016002168086020684D
:1007F000406920F0800021684861206C08B9A06C35
:1008000028B12068006820F008002168086020688E
:10081000006820F001002168086010E000F042F953
:10082000801B05280BD920206065032084F8350043
:1008300000BF002084F8340000BF0320D0E7206808
:10084000006800F001000028E8D194F85C103F2017
:100850008840A860012084F8350000BF002084F89B
:10086000340000BF00BFBBE7014691F83500022805
:1008700003D08020486501207047052081F83500AD
:100880000868006820F001000A6810600020F3E7A3
:10089000F8B502460B460025002400200021D6E0D2
:1008A000012606FA01F51E6806EA0504AC4274D179
:1008B0001E7906F00306012E04D01E7906F0030609
:1008C000022E13D190684F000326BE40B0434F0064
:1008D000DE68BE4030439060506801268E40B043D1
:1008E0001E79C6F300168E40304350601E7906F024
:1008F0000306032E09D0D0684F000326BE40B04344
:100900004F009E68BE403043D0601E7906F003065B
:10091000022E13D1CF0802F1200656F827004E0709
:10092000F70E0F26BE40B0434F07FF0E1E69BE40B4
:100930003043CF0802F1200646F8270010684F0028
:100940000326BE40B0431E7906F003064F00BE40AA
:10095000304310605E6806F44036002E76D000BF4B
:10096000002600963C4E366846F480463A4F3E607C
:100970003E46366806F48046009600BF00BF374EFC
:100980008F0856F827008E07370F0F26BE40B0435A
:10099000334EB24202D1002624E057E0314EB2423B
:1009A00001D101261EE0304EB24201D1022619E0EB
:1009B0002E4EB24201D1032614E02D4EB24201D197
:1009C00004260FE02B4EB24201D105260AE02A4E42
:1009D000B24201D1062605E0284EB24201D10726D7
:1009E00000E008268F073F0FBE4030431B4E8F08A4
:1009F00046F82700224E3068A0435E6806F4801651
:100A000006B120431E4E3060361D3068A0435E683C
:100A100006F4001606B12043194E361D3060184EFC
:100A2000361F3068A0435E6806F4003606B12043E6
:100A3000134E361F3060361F3068A0435E6806F4E0
:100A4000803606B120430E4E083E3060491C102906
:100A5000FFF426AFF8BD00004438024008380140DA
:100A6000000002400004024000080240000C024066
:100A7000001002400014024000180240001C024016
:100A8000083C014010B5426921EA020302EA010470
:100A900043EA0443836110BD0AB1816101E00B04A4
:100AA000836170470148006870470000040000201F
:100AB0000348006803490978084401490860704701
:100AC000040000200C00002010B50D48006840F420
:100AD00000700B4908600846006840F480600860B8
:100AE0000846006840F480700860032000F0D6F8E3
:100AF0000F2000F007F800F055F8002010BD0000AE
:100B0000003C0240F0B587B004460026002700BF35
:100B1000002000901E48006840F001001C49086059
:100B20000846006800F00100009000BF00BF01A966
:100B300002A800F089F900F0BFF946001548B6FB9D
:100B4000F0F0471E14481549086040F2E731134899
:100B5000C1604760002101618160816100F00CFD8E
:100B6000054695B90D4800F03BFD05466DB91920C5
:100B700000F042F8102C07D200222146192000F084
:100B80004FF80748046000E00125284607B0F0BD93
:100B90004438024040420F000000014000040020A1
:100BA0000800002008B500BF002000901148006830
:100BB00040F480400F4908600846006800F4804017
:100BC000009000BF00BF00BF00200090081F006819
:100BD00040F08050091F08600846006800F080500F
:100BE000009000BF00BF00220F21901E00F018F8F7
:100BF00008BD0000443802400146084600280DDBCD
:100C000000BF00BF00F01F0301229A4043099B0070
:100C100003F1E023C3F8002100BF00BF00BF70470D
:100C20002DE9F05F80460D461646002701F0E8FDED
:100C3000074639462A46334601F00700C0F1070A45
:100C4000BAF1040F02D94FF0040A01E0C0F1070A1B
:100C5000D14600F1040ABAF1070F02D24FF0000AA0
:100C600001E0A0F1030AD4464FF0010A0AFA09FA9A
:100C7000AAF1010A0AEA020A0AFA0CFA4FF0010B79
:100C80000BFA0CFBABF1010B0BEA030B4AEA0B046A
:100C90002146404601F0BCFDBDE8F09F00BF00F0DA
:100CA0000702064B19684FF6FF031940044B0B432C
:100CB00043EA0221014B196000BF70470CED00E0D0
:100CC0000000FA0570B504460D460CB9012070BD50
:100CD0005848006800F00700A84209D255490D7035
:100CE0000846006800F00700A84201D00120EEE7A6
:100CF000207800F0020002281DD1207800F00400C6
:100D0000042805D14C48006840F4E0504A49086086
:100D1000207800F00800082805D14748006840F412
:100D20006040454908604448006820F0F000A16830
:100D3000084341490860207800F00100A8B36068CA
:100D4000012807D13C4808380068C0F34040B8B9D2
:100D50000120BCE76068022802D06068032807D140
:100D6000354808380068C0F3406048B90120AEE754
:100D7000314808380068C0F3400008B90120A6E7F0
:100D80002D48006820F00300616808432A49086084
:100D9000FFF788FE064609E0FFF784FE801B41F25C
:100DA0008831884202D9032091E707E02248006891
:100DB00000F00C006168B0EB810FEDD11D480068B8
:100DC00000F00700A84209D91A490D7008460068CA
:100DD00000F00700A84201D0012078E7207800F059
:100DE0000400042807D11448006820F4E050E168AA
:100DF000084311490860207800F00800082808D14D
:100E00000D48006820F46040216940EAC1000A49A9
:100E1000086000F061F808490968C1F30311074A46
:100E2000515CC8400649086006480068FFF76AFE42
:100E300000204CE7003C024008380240903C00088B
:100E400010000020080000200F2202600D4A1268E6
:100E500002F0030242600B4A126802F0F002826064
:100E6000084A126802F4E052C260064A126802F4AC
:100E70006042D2080261044A126802F007020A6066
:100E80007047000008380240003C024001480068FA
:100E9000704700001000002000B5FFF7F7FF04497D
:100EA0000968C1F38221034A515CC84000BD0000BB
:100EB00008380240A03C000800B5FFF7E7FF0449EE
:100EC0000968C1F34231034A515CC84000BD0000CB
:100ED00008380240A03C00082DE9F0470024002516
:100EE0000026A1462548006800F00C0020B1042827
:100EF00005D008283AD105E0DFF8849039E0DFF822
:100F0000849036E01D48001F006800F03F041B4835
:100F1000001F006800F4800078B11A481749091FC3
:100F20000968C1F38811A0FB017001462246002325
:100F30003846FFF7A7F905460EE011480F49091F8B
:100F40000968C1F38811A0FB017001462246002305
:100F50003846FFF797F905460848001F0068C0F3B8
:100F60000140401C4600B5FBF6F902E0DFF81090A6
:100F700000BF00BF4846BDE8F087000008380240C7
:100F80000024F40000127A00F8B504460CB90120E0
:100F9000F8BD207800F00100002874D0F9480068FE
:100FA00000F00C0004280DD0F648006800F00C009A
:100FB000082813D1F348001F006800F48000B0F542
:100FC000800F0BD1EF4808380068C0F3404000287C
:100FD00059D06068002856D10120D9E700BF606869
:100FE000B0F5803F08D1E7480838006840F4803009
:100FF000E449083908601EE06068B0F5A02F0DD103
:10100000E0480838006840F48020DE49083908606C
:101010000846006840F4803008600CE0D948083881
:10102000006820F48030D749083908600846006815
:1010300020F48020086000BF606890B1FFF732FDA7
:10104000054606E0FFF72EFD401B642801D903206A
:101050009EE7CC4808380068C0F340400028F1D033
:1010600011E0FFF71FFD054606E0FFF71BFD401BE3
:10107000642801D903208BE7C24808380068C0F310
:1010800040400028F1D1207800F0020002285FD112
:10109000BC48006800F00C0058B1BA48006800F085
:1010A0000C0008281CD1B748001F006800F480001D
:1010B000B0B9B44808380068C0F3400020B1E06817
:1010C000012801D0012063E7AE480838006820F00D
:1010D000F800216940EAC100AA490839086037E0F0
:1010E000E06800B30120A8490860FFF7DBFC054673
:1010F00006E0FFF7D7FC401B022801D9032047E791
:10110000A04808380068C0F340000028F1D09D488E
:101110000838006820F0F800216940EAC1009949C8
:101120000839086014E0002097490860FFF7BAFC0E
:10113000054606E0FFF7B6FC401B022801D9032054
:1011400026E7904808380068C0F340000028F1D135
:10115000207800F0080008282CD16069A8B101208F
:101160008A490860FFF79EFC054606E0FFF79AFCF7
:10117000401B022801D903200AE782486C3000682E
:10118000C0F340000028F1D014E000207F4908603F
:10119000FFF788FC054606E0FFF784FC401B0228A9
:1011A00001D90320F4E677486C300068C0F34000B2
:1011B0000028F1D1207800F00400042870D1002725
:1011C00070483830006800F0805090B900BF0020AF
:1011D00000906C483830006840F0805069493831E0
:1011E00008600846006800F08050009000BF00BF13
:1011F00001276748006800F48070B0B9644800684F
:1012000040F4807062490860FFF74CFC054606E038
:10121000FFF748FC401B022801D90320B8E65C48D0
:10122000006800F480700028F2D000BFA068012898
:1012300008D154486830006840F0010051496831D5
:1012400008601DE0A06805280DD14E486830006890
:1012500040F004004B49683108600846006840F0DF
:10126000010008600CE047486830006820F0010089
:101270004449683108600846006820F004000860AE
:1012800000BFA068A8B1FFF70DFC054609E0FFF715
:1012900009FC401B41F28831884202D9032077E6DD
:1012A00026E0384868300068C0F340000028EED0DF
:1012B00013E0FFF7F7FB054608E0FFF7F3FB401BE1
:1012C00041F28831884201D9032061E62D48683017
:1012D0000068C0F340000028EFD1012F07D1294852
:1012E0003830006820F0805026493831086000BF4F
:1012F000A069002845D02348006800F00C000828A9
:101300005DD0A069022845D100201F490866FFF77B
:10131000C9FB054606E0FFF7C5FB401B022801D9C3
:10132000032035E6174808380068C0F340600028FD
:10133000F1D1D4E907010843616A40EA8111012231
:10134000A06AC2EB500041EA00412C20005D41EA56
:1013500000600C49091F086001200B490866FFF76F
:10136000A1FB054606E0FFF79DFB401B022801D9C3
:1013700003200DE6034808380068C0F340600028E9
:10138000F1D049E00838024000004742800E474251
:1013900000700040002021490866FFF783FB0546E6
:1013A00006E0FFF77FFB401B022801D90320EFE591
:1013B0001B480068C0F340600028F2D12CE0A0690F
:1013C000012800D1E4E51648001D0668A06901283F
:1013D00020D006F48001E06981421BD106F03F0174
:1013E000206A814216D147F6C0703040616AB0EB86
:1013F000811F0FD106F440310122A06AC2EB5000D8
:10140000B1EB004F06D106F070612C20005DB1EB0E
:10141000006F01D00120BBE50020B9E50000474284
:101420000038024010B504460CB9012010BD606AB6
:1014300038B96068B0F5827F00D105E00021E16134
:1014400002E00021216161610021A16294F8510054
:1014500028B9002084F85000204600F047F8022008
:1014600084F851002068006820F04000216808607E
:10147000A08800F48270218901F404410843A18905
:1014800001F400610843217C01F002010843217D41
:1014900001F001010843218B01F400710843217F11
:1014A00001F0380108432021095D01F08001084363
:1014B000218D01F400510843216808600421A069CE
:1014C00001EA104094F8241001F01001084321684B
:1014D00048602068C06920F400602168C86100206D
:1014E0006065012084F8510000209FE710B586B0A8
:1014F0000446142101A8FEF70FFF1B49206888420B
:101500002FD100BF002000901848006840F48050A0
:10151000164908600846006800F48050009000BF3B
:1015200000BF00BF0020009010481438006840F051
:1015300001000E49143908600846006800F00100F7
:10154000009000BF00BFE020019002200290002028
:101550000390032004900520059001A90448FFF79B
:1015600097F906B010BD0000003001404438024039
:10157000000002407047704710B504460CB90120C6
:1015800010BD94F83D0028B9002084F83C002046A6
:1015900000F025F8022084F83D00211D206800F0AD
:1015A000D9FD012084F8460000BF84F83E000121E7
:1015B0003F200155402001554120015500BF00BF8B
:1015C000012084F842004320015544200155452064
:1015D000015500BF012084F83D000020D0E770478E
:1015E000014691F83D00012801D0012070470220FA
:1015F00081F83D000868C06840F001000B68D860C1
:101600001A4B086898421BD00868B0F1804F17D079
:10161000174B0868984213D0164B086898420FD0B1
:10162000154B086898420BD0144B0868984207D0B5
:10163000134B0868984203D0124B086898420CD1AB
:101640000868806800F00702062A0CD00868006865
:1016500040F001000B68186005E00868006840F081
:1016600001000B6818600020C0E700000000014086
:101670000004004000080040000C0040000401404D
:101680000040014000180040704770B504462068D3
:10169000C5682068066906F00200022819D105F025
:1016A0000200022815D1401F21680861012020771F
:1016B0002068806900F0030018B12046FFF7E4FFBE
:1016C00005E0204600F097F8204600F095F800204D
:1016D000207706F00400042819D105F0040004283E
:1016E00015D1C043216808610220207720688069F5
:1016F00000F4407018B12046FFF7C6FF05E0204611
:1017000000F079F8204600F077F80020207706F006
:101710000800082819D105F00800082815D1C04391
:1017200021680861042020772068C06900F0030068
:1017300018B12046FFF7A8FF05E0204600F05BF84F
:10174000204600F059F80020207706F010001028FD
:1017500019D105F01000102815D1C0432168086187
:10176000082020772068C06900F4407018B1204636
:10177000FFF78AFF05E0204600F03DF8204600F024
:101780003BF80020207706F0010048B105F0010089
:1017900030B16FF0010021680861204600F02EF89A
:1017A00006F08000802809D105F08000802805D14E
:1017B000C043216808612046FFF7DCFE06F04000C8
:1017C000402809D105F04000402805D1C0432168D8
:1017D0000861204600F01EF806F02000202809D1FC
:1017E00005F02000202805D1C0432168086120466B
:1017F000FFF7C1FE70BD70477047000010B504468A
:1018000003492068884201D1FFF752F910BD00005A
:101810000000014070477047704700002DE9F84F05
:101820000446206805682068C668206847694FF04C
:101830000009CA4605F00F09B9F1000F0AD105F0F9
:10184000200038B106F0200020B1204600F049FD0C
:10185000BDE8F88FB9F1000F7CD007F0010018B98E
:1018600006F49070002875D005F0010030B106F440
:10187000807018B1606C40F00100606405F00400F5
:1018800030B107F0010018B1606C40F002006064F4
:1018900005F0020030B107F0010018B1606C40F0B3
:1018A0000400606405F0080048B106F0200010B99B
:1018B00007F0010018B1606C40F008006064606CD3
:1018C000002846D005F0200028B106F0200010B115
:1018D000204600F006FD20684069C0F3801A606C65
:1018E00000F0080010B9BAF1000F2DD0204600F02A
:1018F000B2FC2068406900F04000402820D100BFC1
:1019000000BF2168143151E8001F21F04000216818
:10191000143141E80002002AF3D100BFE06B50B15E
:101920007F48E16B0865E06BFEF79EFF88B1E06BD6
:10193000016D88470DE02046FFF76EFF09E009E0E2
:101940002046FFF769FF04E02046FFF765FF00200F
:1019500060647DE7206B012878D105F01000002835
:1019600074D006F010000028FAD000BF00200090CC
:1019700020680068009020684068009000BF00BFA9
:101980002068406900F04000402870D1E06B00689A
:1019900040681FFA80F8B8F1000F58D0A08D40457C
:1019A00055DDA4F82E80E06BC069B0F5807F43D090
:1019B00000BF00BF21680C3151E8001F21F4807086
:1019C00021680C3141E80002002AF3D100BF00BFBA
:1019D00000BF2168143151E8001F21F00100216887
:1019E000143141E80002002AF3D100BF00BF00BF5C
:1019F0002168143151E8001F21F0400021681431A2
:101A000041E80002002AF3D100BF202084F8420000
:101A10000020206300BF00BF21680C3151E8001F87
:101A200021F0100021680C3141E80002002AF3D1B6
:101A300000BFE06BFEF7C2FE02206063A08DE28D66
:101A4000801A81B22046FFF7E6FE0EE052E0A08D3C
:101A500040450AD1E06BC069B0F5807F05D1022016
:101A60006063A18D2046FFF7D6FEF1E6FFE7A08D6B
:101A7000E18D401A1FFA80F8E08DD0B3B8F1000F65
:101A800037D000BF00BF21680C3151E8001F21F49E
:101A9000907021680C3141E80002002AF3D100BFA8
:101AA00000BF00BF2168143151E8001F21F0010080
:101AB0002168143141E80002002AF3D100BF202040
:101AC00084F842000020206300BF00BF21680C3171
:101AD00051E8001F21F0100021680C3141E800029C
:101AE000002AF3D100BF0220606341462046FFF781
:101AF00092FEADE605F0800030B106F0800018B12E
:101B0000204600F083FDA3E605F0400030B106F06A
:101B1000400018B1204600F0D4FB99E600BF97E6DC
:101B20004522000810B504460CB9012010BDA0697B
:101B300000B100E000BF94F8410028B9002084F80B
:101B40004000204600F02AF8242084F84100206854
:101B5000C06820F400502168C860204600F040FCB6
:101B60002068006920F4904021680861206840697D
:101B700020F02A00216848612068C06840F40050C5
:101B80002168C86000206064202084F8410084F847
:101B900042000020606300BFC8E7000010B586B0B7
:101BA0000446142101A8FEF7B7FB3E49206888428D
:101BB00038D100BF002000903B48006840F400206E
:101BC000394908600846006800F40020009000BF12
:101BD00000BF00BF0020009033481038006840F07C
:101BE00001003149103908600846006800F0010022
:101BF000009000BF00BF032001900220029000204F
:101C00000390032004900820059001A92748FEF7BF
:101C10003FFE002205213420FFF702F83420FEF7B2
:101C2000EBFF3CE022492068884238D100BF002009
:101C300000901D48006840F480201B490860084659
:101C4000006800F48020009000BF00BF00BF0020AB
:101C5000009015481038006840F002001249103911
:101C600008600846006800F00200009000BF00BF56
:101C70004FF4406001900220029000200390032066
:101C800004900720059001A90A48FEF701FE0022F2
:101C900005212720FEF7C4FF2720FEF7ADFF06B081
:101CA00010BD0000004C00404038024000000240DF
:101CB00000480040000402407047704700BFFEE744
:101CC0001FB500200090019002900390154816491E
:101CD00008604FF480304860002113488160016142
:101CE000017680F82010C162104981620021C16034
:101CF0000121C161002180F8301001214161FEF70E
:101D0000E9FC08B1FEF71DFC0D20009001200190B8
:101D10000020029069460448FEF716FC08B1FEF761
:101D200010FC1FBD00200140D00200200100000F68
:101D300000B587B01C2206496846FEF7D4FA002198
:101D4000684601F029F80349086007B000BD0000AB
:101D5000743C00080000002000B587B0142102A8E0
:101D6000FEF7DAFA00BF002001902E48006840F02C
:101D700004002C4908600846006800F00400019047
:101D800000BF00BF00BF002001900846006840F07F
:101D9000800008600846006800F08000019000BFE5
:101DA00000BF00BF002001900846006840F001001D
:101DB00008600846006800F00100019000BF00BF05
:101DC00000BF002001900846006840F00200086053
:101DD0000846006800F00200019000BF00BF00222A
:101DE00010211148FEF758FE012211020F48FEF79C
:101DF00053FE1020029001200390002004900590D3
:101E000002A90948FEF744FD4FF4807002900120BA
:101E1000039000200490059002A90448FEF738FDC5
:101E200007B000BD30380240000002400008024008
:101E300010B50E480E4908604FF4827048600021CA
:101E40000B488160C160016141614FF400718161A3
:101E50000021C1610162416281620A21C162FFF712
:101E6000E1FA08B1FEF76DFB10BD00000030014043
:101E70001803002010B50B480B4908604FF4E130FF
:101E80004860002108488160C16001610C21416106
:101E900000218161C161FFF745FE08B1FEF751FBEA
:101EA00010BD0000004C00407003002010B50B482E
:101EB0000B4908604FF4E130486000210848816018
:101EC000C16001610C21416100218161C161FFF7A5
:101ED00029FE08B1FEF735FB10BD000000480040A8
:101EE000B803002000BFFEE700BFFEE72DE9F04188
:101EF00004460D46164600BF0D48007808B900F0AC
:101F0000BFFB00BFEFF311800746202080F311884C
:101F100000BF00BF32462946204600F00BF880463D
:101F2000F8B280F3118800BF00BF4046BDE8F081E1
:101F3000384100202DE9F047074688461646C2463C
:101F400007EB47011B4800EBC109D9F8140020B189
:101F5000012811D0022826D11EE0484600F0C8FB17
:101F60000546B54201D2002405E0344632465146CA
:101F7000484600F004FC18E0484600F0B9FB05466E
:101F8000B54201D2284600E030460446224651467A
:101F9000484600F0F4FB08E032465146484600F05F
:101FA000B5FB044601E0002400BF00BF2046BDE8A9
:101FB000F08700005041002070B505460C462046D1
:101FC000FEF7B5F90646324621462846FFF78EFF52
:101FD00070BD0000C2B000BF0FA010A311A24FF44B
:101FE0008071009002A800F0F1FB0446002C06DD91
:101FF000FF2C04DC224602A90020FFF777FF00BF78
:1020000000BF4FF480710F48FEF73CFD4FF4FA70AB
:1020100000F0B1FEF5E70000493A00001B5B313BE0
:1020200033326D00257325732053746172744465D7
:102030006661756C745461736B207374617274A300
:10204000A10D0A000008024010B500BF502080F327
:102050001188BFF34F8FBFF36F8F00BF01F0E4FC17
:1020600018B14FF080500449086000BF002080F391
:10207000118800BF10BD000004ED00E000B593B072
:10208000302107A8FEF748F9142102A8FEF744F909
:1020900000BF002001902448006840F08050224991
:1020A00008600846006800F08050019000BF00BF43
:1020B00000BF002001901D48006840F480401B498B
:1020C00008600846006800F48040019000BF00BF2F
:1020D000012007900004089002200D9041050E9108
:1020E00004210F91A8211091022111910421129134
:1020F00007A8FEF749FF08B1FEF723FA0F20029068
:1021000002200390002004904FF4A05005904FF45B
:1021100080500690052102A8FEF7D4FD08B1FEF715
:1021200010FA13B000BD00004038024000700040BB
:102130000348006840F470000149086070470000DF
:1021400088ED00E010B50248FFF79FFA10BD0000CF
:102150000004002010B502682B4B98420ED0B0F15D
:10216000804F0BD0294B984208D0294B984205D07C
:10217000284B984202D0284B984203D122F070029B
:102180004B681A43204B984220D0B0F1804F1DD0AD
:102190001E4B98421AD01E4B984217D01D4B9842A6
:1021A00014D01D4B984211D01C4B98420ED01C4BA2
:1021B00098420BD01B4B984208D01B4B984205D03D
:1021C0001A4B984202D01A4B984203D122F4407223
:1021D000CB681A4322F080034C6943EA04028B68FF
:1021E000C3620B688362084B984202D00A4B984244
:1021F00001D10B690363036843F004030360012307
:102200004361026010BD0000000001400004004076
:1022100000080040000C0040000401400040014064
:10222000004401400048014000180040001C0040EC
:102230000020004010B50248FFF7F0FA10BD000082
:102240007003002070B50446A56B0020E885284681
:10225000FFF7E2FA70BD00BF00BF02680C3252E81F
:10226000002F22F4907102680C3242E80013002B18
:10227000F3D100BF00BF00BF0268143252E8002F44
:1022800022F001010268143242E80013002BF3D15E
:1022900000BF016B01290ED100BF00BF02680C32E4
:1022A00052E8002F22F0100102680C3242E80013BD
:1022B000002BF3D100BF202180F8421000210163E0
:1022C000704710B504462068C06820F040002168BF
:1022D000C860202084F841002046FFF7EEFC002073
:1022E00010BDF8B504460025002694F842002228C7
:1022F00073D1A068B0F5805F0BD1206948B9A66A98
:1023000020684068C0F308003080A06A801CA0628A
:1023100014E0A56AA068B0F5805F03D0A06828B972
:10232000206918B920684068287004E02068406877
:1023300000F07F002870A06A401CA062E08D401E63
:1023400080B2E085002846D12068C06820F02000D7
:102350002168C8602068C06820F480702168C86067
:102360002068406920F0010021684861202084F83D
:10237000420000206063206B012826D100202063EA
:1023800000BF00BF21680C3151E8001F21F0100090
:1023900021680C3141E80002002AF3D100BF206817
:1023A000006800F0100010280AD100BF0020009043
:1023B00020680068009020684068009000BF00BF5F
:1023C000A18D2046FFF727FA02E02046FFF774FCB4
:1023D0000020F8BD01E00020FBE70220F9E7000043
:1023E0002DE9F84F04462068006920F44050E16868
:1023F0000843216808612169A068084361690843AE
:10240000E169084300902068C06849F20C61884384
:10241000009908432168C8602068406920F4407032
:10242000A16908432168486176492068884203D041
:1024300075492068884203D1FEF73EFD814602E0DF
:10244000FEF72AFD8146E069B0F5004F6CD102200D
:102450006168A0FB015003461920A9FB00700146EA
:102460002A463846FDF70EFF6421B0FBF1F04FEA33
:10247000001A02206168A0FB01510B461920A9FB3C
:1024800000712A463846FDF7FDFE8346022061684A
:10249000A0FB015003461920A9FB00712A463846CB
:1024A000FDF7F0FE6421B0FBF1F000EBC00101EBA1
:1024B0000010ABEB8000322101EBC0006421B0FBC7
:1024C000F1F000F0F8000AEB400A02206168A0FB7E
:1024D000015003461920A9FB007001462A463846E0
:1024E000FDF7D0FE834602206168A0FB0150034641
:1024F0001920A9FB00712A463846FDF7C3FE642166
:10250000B0FBF1F000EBC00101EB0010ABEB800081
:10251000322101EBC0006421B0FBF1F000F00700B4
:102520005044216888606AE004206168A0FB015083
:1025300003461920A9FB007001462A463846FDF7DC
:10254000A1FE824604206168A0FB015003461920C9
:10255000A9FB007001462A463846FDF793FE642128
:10256000B0FBF1F000EBC00101EB0010AAEB800022
:10257000322101EB00106421B0FBF1F000F0F00A11
:1025800004206168A0FB017003461920A9FB0051DB
:102590003A462846FDF776FE6421B0FBF1F00AEBDF
:1025A000001A04206168A0FB01510B461920A9FB09
:1025B00000712A463846FDF765FE834604206168AF
:1025C000A0FB015003461920A9FB007001462A46D2
:1025D0003846FDF757FE6421B0FBF1F000EBC00177
:1025E00001EB0010ABEB8000322101EB0010642105
:1025F000B0FBF1F000F00F00504421688860BDE8A6
:10260000F88F00000010014000140140014691F8CD
:102610004100212828D18868B0F5805F0BD1086976
:1026200048B90A6A1088C0F308000B685860086A45
:10263000801C086205E00B6A581C086218780B6859
:102640005860C88C401E80B2C88458B90868C068F9
:1026500020F080000B68D8600868C06840F0400037
:102660000B68D860002070470220FCE710B50248D4
:10267000FFF7D4F810BD0000B803002000BFFEE74C
:1026800010B5124C03202061606111A0A0611349B4
:10269000E1614FF4806121620021A1626162E16227
:1026A0000BA020660E4961661021A16600212167FA
:1026B000E16661670BA1E01DFDF740FE0AA120461F
:1026C000FDF73CFE2020A07110BD00003841002025
:1026D0005465726D696E616C00000000E04100207D
:1026E000E0450020525454005345474745520000EE
:1026F00010B501460A69CB689A4204D88C68641EFA
:10270000E41AA01801E0D41A601E10BD2DE9F047AC
:102710000446894617464FF0000AE56800BFD4F822
:102720001080A84503D9A8EB0500461E04E0A5EBE0
:102730000800401CA1680E1AA068401BB04201D9D5
:10274000304601E0A068401B0646BE4201D230463A
:1027500000E0384606466168481932464946FDF7AA
:10276000C2FDB244B144BF1B3544A068A84200D1A9
:102770000025E560002FD2D15046BDE8F0872DE955
:10278000F047044689461546E668A068871BAF42B5
:1027900008D9616888192A464946FDF7A4FD7019D1
:1027A000E06010E0B8466168881942464946FDF786
:1027B0009AFDA5EB070809EB070142466068FDF7A3
:1027C00092FDC4F80C80BDE8F08700000FB47CB522
:1027D0000C0009AD01D0611E00E00021CDE900012F
:1027E000064B6A462946089800F036F8002C02D0BD
:1027F000009A002111707CBC5DF814FB9B2B000833
:1028000002480068C0F30220704700000CED00E0B1
:1028100010B5002804DB0A07130E054A135406E01E
:102820000A07140E034A00F00F031B1FD45410BDF7
:1028300000E400E018ED00E002E008C8121F08C143
:10284000002AFAD170477047002001E001C1121F31
:10285000002AFBD1704700002DE9FF4F8BB088465E
:102860000546002606E025280BD0DDE90D1290472D
:102870006D1C761C28780028F5D10FB03046BDE8D5
:10288000F08F0024A146A2460122AE4900E0044395
:1028900015F8013F203B02FA03F00842F7D12878EF
:1028A0002A2810D06FF02F022878A0F130010929D2
:1028B00015D809EB890102EB410144F0020400EB59
:1028C00001096D1CF0E758F8041B5FEA010903D504
:1028D00044F40054C9F1000944F002046D1C287846
:1028E0002E2817D115F8010F44F004042A280ED021
:1028F0006FF02F022878A0F1300109290AD80AEBDD
:102900008A0102EB410100EB010A6D1CF2E758F865
:1029100004AB6D1C28786C280FD006DC4C2817D02F
:1029200068280DD06A2814D104E0742810D07A28C1
:102930000FD10DE044F400140AE044F4801401E0E7
:1029400044F440146978814202D104F580146D1C6E
:102950006D1C2878692865D006DC00288DD0632896
:1029600027D0642806D15DE06E2808D073282AD0CD
:10297000752877D0DDE90D129047761CE0E0C4F3AE
:102980000250022809D003280DD0D8F800100428DE
:102990000DD00E6008F10408D2E0D8F80010F2174C
:1029A000C1E90062F6E7D8F800100E80F2E70E7079
:1029B000F0E718F8041B8DF8001000208DF80100D6
:1029C000EB46012003E058F804BB4FF0FF306107ED
:1029D0004FF0000701D40AE07F1C57450DDA87420B
:1029E000FADB1BF807100029F6D106E07F1C8742AE
:1029F000FCDB1BF807100029F8D1DDE90D23A9EB5A
:102A000007008146214600F0B1F83044C61904E0C1
:102A1000DDE90D121BF8010B90477F1EF8D221460D
:102A2000484688E058F8040BC4F302514FF00A0BF3
:102A3000032900D100B2042900D140B2002802DAF3
:102A400040422D2102E0210505D52B218DF82410CF
:102A5000012104E006E0E10710D02021F6E708AFED
:102A6000089113E058F8040BC4F302514FF00A0B1D
:102A7000032900D180B2042900D1C0B20021EEE7C1
:102A80005946FDF764FC303107F8011D0028F7D1E5
:102A9000ADEB070000F1200B600702D524F4803471
:102AA00001E04FF0010ADA4502DDAAEB0B0000E07D
:102AB0000020824600EB0B0108980144A9EB0100BD
:102AC0000A90E00306D4DDE90D2321460A9800F0C0
:102AD0004DF806444FF0000908E009A911F8090073
:102AE000DDE90D12904709F10109761C0899894525
:102AF000F3DBE0030CD5DDE90D2321460A9800F055
:102B000035F8064404E0DDE90D1230209047761CCC
:102B1000BAF10001AAF1010AF5DC05E0DDE90D12C8
:102B200017F8010B9047761CBBF10001ABF1010BCC
:102B3000F4DC0A982146DDE90D2300F005F806448F
:102B40006D1C97E6092801002DE9F0410446002597
:102B50001E461746880404D405E039462020B047B5
:102B60006D1C641EF9D52846BDE8F0812DE9F041C1
:102B7000044600251E469046C80301D5302700E0D4
:102B80002027880404D505E041463846B0476D1C2F
:102B9000641EF9D52846BDE8F0814A68002A06D0AF
:102BA0000A68531C0B6010704868401E48607047EC
:102BB000C2B0FDF789FFFFF761FAFFF7CDF8FFF725
:102BC0007FF8FFF735F9FFF755F9FFF76FF939A1EE
:102BD0000020FFF7F1F900BF38A039A33AA24FF463
:102BE0008071009002A8FFF7F1FD0446002C06DD7D
:102BF000FF2C04DC224602A90020FFF777F900BF72
:102C000000BF2EA02EA33CA24FF48071009002A81A
:102C1000FFF7DCFD0446002C06DDFF2C04DC224619
:102C200002A90020FFF762F900BF00BF23A024A380
:102C30003CA24FF48071009002A8FFF7C7FD044644
:102C4000002C06DDFF2C04DC224602A90020FFF741
:102C50004DF900BF00BF19A019A33AA24FF480712B
:102C6000009002A8FFF7B2FD0446002C06DDFF2C01
:102C700004DC224602A90020FFF738F900BF00BF9C
:102C80000EA00FA310A24FF48071009002A8FFF7CE
:102C90009DFD0446002C06DDFF2C04DC224602A923
:102CA0000020FFF723F900BFFFF742F800F06FF8AC
:102CB00000BFFEE71B5B324A00000000493A0000FB
:102CC0001B5B313B33326D0025732573203D3D3D49
:102CD0003D3D3D3D3D3D3D3D3D3D3D3D3D3D3D3D24
:102CE0003D3D3D3D3D3D3D3D3D3D3D3D3D3D3D3D14
:102CF0003D3D3D0D0A000000257325732053544DC2
:102D000033324634204672656552544F5320525434
:102D1000542050726F6A65637420537461727465D5
:102D2000640D0A00257325732053797374656D2033
:102D3000436C6F636B3A20313638204D487A0D0A68
:102D4000000000002573257320525454204C6F67F7
:102D50002053797374656D20496E697469616C697B
:102D60007A65640D0A00000001460020842901D024
:102D7000CA1C1044704770B5044625460DB129465B
:102D800000E00121084600F037FC002070BD10B5BE
:102D900000F060FC002010BD7FB504460D46606960
:102DA00098B1A06988B1B4F90800FFF7DDFF0646C5
:102DB000D4E90510CDE9006102902B462269D4E9DF
:102DC000001000F0D3FD039013E0B4F90800FFF702
:102DD000CBFF064603A8CDE90060238A9AB22B46B2
:102DE000D4E9001000F090FD012802D0002004B0CA
:102DF00070BD0398FBE700002DE9F04105460E4643
:102E00001C4807681C480068001D00F0F1FA50B922
:102E10001948006890F82C1001208840174909686B
:102E2000814316480160681C38B936B11248016800
:102E3000091D134800F026FB1AE07C190E480068B3
:102E40004460BC4207D20C480168091D0D48006867
:102E500000F0FEFA0CE008480168091D0A48006805
:102E600000F0F6FA09480068844201D2074804607D
:102E7000BDE8F08128000020140000202C00002074
:102E8000240500201C000020180000204400002021
:102E900010B5044600F002FB23480068401C22499C
:102EA00008602248006840B920480460084600686D
:102EB00001280DD100F03EF90AE01D48006838B93C
:102EC0001A480068C06AE16A884201D8174804605D
:102ED00018480068401C1749086094F82C1001201D
:102EE000884015490968084313490860E16A01EB05
:102EF0008101124A02EB8100211D00F0C3FA00F0AB
:102F0000F7FA0B48006868B108480068C06AE16ACF
:102F1000884207D24FF0805009490860BFF34F8FB5
:102F2000BFF36F8F10BD00002400002014000020AC
:102F300030000020400000202C0000204804002029
:102F400004ED00E010B516E000F0A8FA0C48C068E7
:102F5000C468201D00F04CFA0A480068401E094968
:102F6000086009480068401E0749086000F0C0FA80
:102F7000204600F00BF8044800680028E4D110BD9A
:102F800010050020240000202000002010B5044679
:102F900094F8510030B9206B00F0C8FA204600F0D8
:102FA000C5FA1AE094F85100012803D1204600F038
:102FB000BDFA12E094F85100022801D1012000E08E
:102FC000002050B900BF502080F31188BFF34F8F0D
:102FD000BFF36F8F00BF00BFFEE710BD30B54FF4E9
:102FE0007053174800F007042CB1C01D20F00700F3
:102FF000134C041B1B1B0246124C22600024114D73
:103000006C60D018083820F007000F4C20600024B6
:103010000D4D2D686C600C4D2D682C601146441AC6
:103020004C60094C24680C60084D4C682C60084DBD
:103030004C682C604FF00044064D2C6030BD000001
:1030400038050020500000205800002060000020BB
:103050005C0000206C00002000BFFFF773FF0648F3
:1030600000680128F9D94FF0805004490860BFF387
:103070004F8FBFF36F8FF0E74804002004ED00E0AE
:103080002DE9FF5F81460E469246DDE90E7B109CDE
:10309000AAF10100216B01EB800828F0070808F075
:1030A000070008B9012000E0002050B900BF5020FF
:1030B00080F31188BFF34F8FBFF36F8F00BF00BF46
:1030C000FEE786B1002507E0715D04F1340041554B
:1030D000705D00B902E06D1C102DF5D300BF00211A
:1030E0004320015502E0002084F83400072F00D36C
:1030F0000627E76267640020A064201D00F0A5F9A0
:1031000004F1180000F0A1F92461C7F10700A061E3
:1031100064620020E06484F8500049464046039A07
:1031200000F050F92060BBF1000F01D0CBF8004057
:10313000BDE8FF9F10B5002407E004EB84010F4AAF
:1031400002EB810000F074F9641C072CF5D30C48E5
:1031500000F06EF90B4800F06BF90B4800F068F9CD
:103160000A4800F065F90A4800F062F90448094984
:10317000086004480849086010BD000048040020A9
:10318000D4040020E8040020FC04002010050020E6
:1031900024050020180000201C00002010B5014666
:1031A000164800E0006803688B42FBD30246436880
:1031B00013448B4204D143684C6823444360014666
:1031C0000A464B6813440468A34211D10C4C0368AF
:1031D0002468A34208D04B680468646823444B60A9
:1031E00003681B680B6005E0054B1B680B6001E082
:1031F00003680B60884200D0016010BD50000020C1
:10320000580000200A490968096809B9012100E04D
:10321000002121B14FF0FF31064A116006E0044958
:103220000968C968C868034A4168116070470000AE
:1032300018000020440000200E480068401C08B917
:10324000012000E0002050B900BF502080F3118819
:10325000BFF34F8FBFF36F8F00BF00BFFEE700BF0C
:10326000502080F31188BFF34F8FBFF36F8F00BFE3
:1032700000BFFEE7700000202DE9F04104464FF04A
:10328000000800F03FFA4948006808B9FFF7A6FEB9
:10329000474800682040002870D1D4B1083404F0B9
:1032A0000700B0B104F00700C0F10800044404F0C6
:1032B000070008B9012000E0002050B900BF5020ED
:1032C00080F31188BFF34F8FBFF36F8F00BF00BF34
:1032D000FEE7002C52D03748006884424ED8364E64
:1032E0003046056801E02E462D686868A04202D28B
:1032F00028680028F7D12D48006885423ED0306804
:1033000000F10808286830606868001B102819D987
:103310002F1907F0070008B9012000E0002050B97C
:1033200000BF502080F31188BFF34F8FBFF36F8F22
:1033300000BF00BFFEE76868001B78606C6038461D
:10334000FFF72CFF1B4968680968081A19490860CB
:103350000846006819490968884203D21548006880
:1033600016490860124968680968084368600020C7
:10337000286013480068401C1149086000F0F8FB01
:1033800008F0070008B9012000E0002050B900BF94
:10339000502080F31188BFF34F8FBFF36F8F00BFB2
:1033A00000BFFEE74046BDE8F08100005800002065
:1033B0006C0000205C000020500000206000002015
:1033C00064000020001F4FF080730360001F21F095
:1033D00001030360001F054B036014380260001FE7
:1033E0006FF0020303602038704700003932000894
:1033F00001460A69D1E901309860D1E901035860BA
:103400005068884201D188685060002008611068C7
:10341000401E106010687047034B0360034B0B6045
:1034200080231360704700007C000020D000002043
:1034300000F1080141604FF0FF31816000F10801A7
:10344000C160016100210160704700210161704786
:1034500010B502460B685C1C0CB9106907E002F15C
:10346000080000E04068446824689C42FAD9446837
:103470004C604C68A160886041600A611468641CFB
:10348000146010BD42684A6093688B60936859600D
:103490009160086103685B1C0360704700BF5020A7
:1034A00080F31188BFF34F8FBFF36F8F00BF0E48BB
:1034B0000068401C0C49086008460068012812D1C9
:1034C0000A480068C0B208B9012000E0002050B9E5
:1034D00000BF502080F31188BFF34F8FBFF36F8F71
:1034E00000BF00BFFEE770477000002004ED00E061
:1034F0000D48006850B900BF502080F31188BFF319
:103500004F8FBFF36F8F00BF00BFFEE70648006814
:10351000401E054908600846006820B9002080F375
:10352000118800BF00BF70477000002070B50646CC
:103530003546002E44D0083D2C4622496068096873
:10354000084008B1012000E0002050B900BF502021
:1035500080F31188BFF34F8FBFF36F8F00BF00BFA1
:10356000FEE7206808B9012000E0002050B900BF44
:10357000502080F31188BFF34F8FBFF36F8F00BFD0
:1035800000BFFEE70F49606809680840C0B12068C5
:10359000B0B90C49606809688843606000F0B2F80F
:1035A0000949606809680844074908602046FFF730
:1035B000F5FD06480068401C0449086000F0D8FA90
:1035C00070BD00006C0000205C000020680000203E
:1035D00000204FF0E02108618861064800684FF440
:1035E0007A71B0FBF1F0401E4FF0E02148610720F6
:1035F000086170471000002070B504460025D4B162
:103600001248006808B9012000E0002050B900BF4E
:10361000502080F31188BFF34F8FBFF36F8F00BF2F
:1036200000BFFEE700F06EF800212046FFF7E4FB44
:1036300000F09EFA05463DB94FF0805004490860FD
:10364000BFF34F8FBFF36F8F70BD00004C000020A1
:1036500004ED00E010B586B000200590049003AAA8
:1036600004A905A8FFF7D8FE0022DDE904101346DF
:10367000CDE9002102901CA11D48039A00F076F9C3
:103680001C4908600846006808B1012400E00024D5
:10369000012C15D100BF502080F31188BFF34F8F4C
:1036A000BFF36F8F00BF4FF0FF3013490860012058
:1036B0001249086000201249086000F071F810E01B
:1036C000601C08B1012000E0002050B900BF50206C
:1036D00080F31188BFF34F8FBFF36F8F00BF00BF20
:1036E000FEE706B010BD000049444C450000000054
:1036F000593000084800002044000020300000201D
:103700002800002002480068401C014908607047FA
:103710004C0000201D48006818B101201C490860B9
:1037200032E000201A4908601A480068B0FA80F0B8
:10373000C0F11F0101EB8100174A52F8200008B1C7
:10374000012000E0002050B900BF502080F3118814
:10375000BFF34F8FBFF36F8F00BF00BFFEE701EBDA
:1037600081020D4B03EB820042685268426000F117
:1037700008024368934202D142685268426042683C
:10378000D268064B1A6000BF704700004C00002052
:10379000380000202C0000204804002014000020E5
:1037A0001CB5524800685249884201D0012000E00F
:1037B000002050B900BF502080F31188BFF34F8F15
:1037C000BFF36F8F00BF00BFFEE74848006848495D
:1037D000491E884201D0012000E0002050B900BFFE
:1037E000502080F31188BFF34F8FBFF36F8F00BF5E
:1037F00000BFFEE73F49084600780190FF200A46D7
:1038000010700846007800909DF8000000F0F0006D
:103810009DF80020904201D1012000E0002050B925
:1038200000BF502080F31188BFF34F8FBFF36F8F1D
:1038300000BF00BFFEE79DF8000000F050002E4AD8
:10384000107007202D4A106009E02C480068401EC7
:103850002A4A10609DF800004006000E00909DF876
:10386000000000F080008028EFD024480068C0F1FC
:103870000700042801D1012000E0002050B900BF5A
:10388000502080F31188BFF34F8FBFF36F8F00BFBD
:1038900000BFFEE7194800680002184A1060104691
:1038A000008800F4E0601060124A019810700F4820
:1038B0002030006840F470000C4920310860084650
:1038C000006840F070400860FFF782FE00200C495D
:1038D0000860FCF789FC0B48006840F0404009494B
:1038E0000860FCF76DFC00201CBD000000ED00E04E
:1038F00071C20F4100E400E0740000207800002055
:103900007000002034EF00E02DE9FF4F85B08046C5
:1039100089461746DDE912ABB800FFF7ADFC064655
:1039200056B15420FFF7A8FC04460CB1266304E00E
:103930003046FFF7FBFD00E000248CB1002084F846
:103940005100CDE900ABCDE902403A464946404638
:10395000089BFFF795FB2046FFF79AFA012501E047
:103960004FF0FF35284609B0BDE8F08F2DE9F04F44
:1039700085B00746884691469A46DDE90EB6109C0A
:103980000EB1012000E0002050B900BF502080F3AC
:103990001188BFF34F8FBFF36F8F00BF00BFFEE7EB
:1039A0000CB1012000E0002050B900BF502080F38E
:1039B0001188BFF34F8FBFF36F8F00BF00BFFEE7CB
:1039C000542003900398542801D1012000E00020E6
:1039D00050B900BF502080F31188BFF34F8FBFF361
:1039E0006F8F00BF00BFFEE700BFB4B1AEB1254688
:1039F0002C462E63022085F85100002004A953466E
:103A00004A46CDE900B1CDE9025041463846FFF7BC
:103A100037FB2846FFF73CFA01E0002004900498A9
:103A200005B0BDE8F08F00002DE9F0414FF000082F
:103A30004448006800287CD143480068451C42483F
:103A4000056015BB41480068006808B9012000E026
:103A5000002050B900BF502080F31188BFF34F8F72
:103A6000BFF36F8F00BF00BFFEE7384807683848D4
:103A70000068364908603648076036480068401CD0
:103A800034490860FFF7BEFB00BF33480068854239
:103A90003CD300BF2D480068006808B9012000E051
:103AA000002020B14FF0FF302B4908602DE027485F
:103AB0000068C068C4686668B54202D226480660DD
:103AC00023E0201DFFF794FCA06A18B104F1180050
:103AD000FFF78EFC94F82C10012088401F490968DC
:103AE00008431E490860E16A01EB81011C4A02EBB0
:103AF0008100211DFFF7C6FC1A49E06A0968C96AFE
:103B00008842C7D34FF00108C4E700BF15480068DA
:103B1000C06A00EB8000124951F82000012801D949
:103B20004FF001081048006808B14FF0010805E0A7
:103B3000FFE70E480068401C0C4908604046BDE89D
:103B4000F08100004C000020280000201800002018
:103B50001C0000203C000020440000202C0000201D
:103B60004804002014000020380000203400002009
:103B700070B5002400263648006850B900BF5020B8
:103B800080F31188BFF34F8FBFF36F8F00BF00BF6B
:103B9000FEE7FFF783FC2E480068401E2C490860B2
:103BA0000846006800284FD12A48006800284BD0FA
:103BB00024E02948C068C46804F11800FFF718FC25
:103BC000201DFFF715FC94F82C1001208840234994
:103BD0000968084321490860E16A01EB8101204A34
:103BE00002EB8100211DFFF74DFC1E49E06A0968C8
:103BF000C96A884202D301201B4908601648006840
:103C000008B9012000E000200028D2D00CB1FFF755
:103C1000F9FA1648056865B100BFFFF705FF10B156
:103C20000120114908606D1E002DF6D100200F49BA
:103C300008600D48006838B1012630070C4908605B
:103C4000BFF34F8FBFF36F8FFFF752FC304670BD4D
:103C50004C00002024000020FC0400202C00002048
:103C60004804002014000020380000203400002008
:103C700004ED00E0A83C0008D51F0008000000008B
:103C800000000000800000000000000000000000B4
:103C900000000000000000000102030406070809FC
:103CA000000000000102030464656661756C7454D1
:103CB00061736B00D43C0008000000207C00000011
:103CC00038280008503D00087C000020744900009E
:103CD000482800080000000000000000100000005C
:103CE000010000000024F4000000000000000000BB
:103CF00000000000000000000000000000000000C4
:103D000000000000000000000000000000000000B3
:103D100000000000000000000000000000000000A3
:103D20000000000000000000000000000000000093
:103D30000000000000000000000000000000000083
:103D400000000000AAAAAAAA0000000000000000CB
:040000050800018965
:00000001FF
