:020000040800F2
:100000007029012061020008814400089934000829
:100010007D440008B90F00081968000800000000BE
:10002000000000000000000000000000A101000826
:10003000D113000800000000FD0100086560000801
:100040007B0200087B0200087B0200087B0200089C
:100050007B0200087B0200087B0200087B0200088C
:100060007B0200087B0200087B0200087B0200087C
:100070007B0200087B0200087B0200087B0200086C
:100080007B0200087B0200087B0200087B0200085C
:100090007B0200087B0200087B0200087B0200084C
:1000A0007B020008616100087B0200087B020008F7
:1000B000716100087B0200087B0200087B020008D7
:1000C0007B0200087B0200087B0200087B0200081C
:1000D0007B0200087B0200087B0200080968000818
:1000E0007B0200087B0200087B0200087B020008FC
:1000F0007B0200087B0200087B0200087B020008EC
:100100007B0200087B0200087B0200087B020008DB
:10011000456300087B0200087B0200087B020008A0
:100120007B0200087B0200087B0200087B020008BB
:100130007B02000800000000000000007B020008B5
:100140007B0200087B0200087B0200087B0200089B
:100150007B0200087B0200087B0200087B0200088B
:100160007B0200087B0200087B0200087B0200087B
:100170007B0200087B020008000000000000000075
:100180007B0200087B020008DFF810D000F004FCBE
:100190000048004759840008AFF30080702901200F
:1001A0002C4B19680868B0E8F04F80F30988BFF35A
:1001B0006F8F4FF0000080F311887047000000003F
:1001C00008480068006880F308884FF0000080F35A
:1001D000148862B661B6BFF34F8FBFF36F8F00DF35
:1001E00000BF00BF08ED00E0DFF80C00016841F43B
:1001F00070010160704700BF88ED00E0EFF30980F7
:10020000BFF36F8F134B1A681EF0100F08BF20ED5D
:10021000108A20E9F04F106009B44FF0500080F3CD
:100220001188BFF34F8FBFF36F8F0DF007F84FF0BA
:10023000000080F3118809BC19680868B0E8F04F25
:100240001EF0100F08BFB0EC108A80F30988BFF3CE
:100250006F8F704714000020EFF305807047000097
:100260000648804706480047FEE7FEE7FEE7FEE750
:10027000FEE7FEE7FEE7FEE7FEE7FEE74D6100086A
:10028000890100082DE9F05F0546002092469B4653
:1002900088460646814640241BE02846414647469C
:1002A000224600F06EF953465A46C01A914110D3C7
:1002B00011461846224600F055F92D1A67EB010841
:1002C0004F4622460120002100F04CF917EB0009AF
:1002D0004E41201EA4F10104DFDC484631462A4687
:1002E0004346BDE8F09F40EA01039B0703D009E0C5
:1002F00008C9121F08C0042AFAD203E011F8013B12
:1003000000F8013B521EF9D27047D2B201E000F86A
:10031000012B491EFBD270470022F6E710B51346A9
:100320000A4604461946FFF7F0FF204610BD10B5F7
:10033000044604E00B7800F8013B03B1491C521E4F
:10034000F8D2204610BDCAB2401E10F8011F8A42E2
:1003500002D00029F9D100207047421C10F8011B7F
:100360000029FBD1801A704710B5002200E0521C12
:10037000835C8C5CA34201D1002BF8D1D8B2E1B2EE
:10038000401A10BD034611F8012B00F8012B002A7A
:10039000F9D11846704730B505460020034600E005
:1003A0005B1C934205D2EC5CC85C201A01D1002C86
:1003B000F6D130BD0FB400B58DB010A909900B90E7
:1003C00000914FF0FF300A9000200C9005480690F5
:1003D000054807906A4609A80F9900F0F7F80DB094
:1003E0005DF814FBE9050008070600082DE9FF5F2A
:1003F0001D464FF0FF3BD5E9014691465F464FF061
:100400000008A9697F1C01988847296A82468847A5
:100410000028F6D1BAF1FF3F0CD024F4C064002EBE
:1004200019DD600614D5BAF12B0F09D0BAF12D0FE2
:100430000ED103E0584604B0BDE8F09F44F4806458
:10044000A9697F1C01988847761E8246002E02DD2E
:10045000BAF1300F03D0B9F1000F26D032E0A9690C
:10046000761E44F400747F1C019888478246002E53
:1004700005DDBAF1780F06D0BAF1580F03D0B9F103
:10048000000F10D01EE0B9F1000F02D0B9F1100F2B
:1004900018D1A969761E24F400747F1C019888473E
:1004A0008246102002E0082000E00A20814609E090
:1004B00008FB0908A969761E44F400747F1C0198A2
:1004C00088478246002E05DD4946504600F069F80F
:1004D0000028EDDAE96901988847A00502D46FF099
:1004E0000100A8E7E00725D1600613D5600502D515
:1004F000C8F1000000E0404629680A1D2A6009682A
:10050000220501D5087015E0220701D5088011E009
:1005100008600FE02868011D29600068210502D5E8
:1005200080F8008006E0210702D5A0F8008001E0F5
:10053000C0F8008038467EE730B50B460146002003
:100540002022012409E021FA02F59D4205D303FA95
:1005500002F5491B04FA02F52844151EA2F1010216
:10056000F1DC30BD202A04DB203A00FA02F1002041
:1005700070479140C2F1200320FA03F319439040E1
:100580007047202A04DB203A21FA02F0002170474C
:1005900021FA02F3D040C2F12002914008431946EB
:1005A00070473A2800D2303820F02002412A01D387
:1005B000A2F13700884201D34FF0FF3070470000AE
:1005C000026811441378016018467047D1600449ED
:1005D00051610449116200211161114600F006BA0F
:1005E000C1050008E1090008426842B1016811F83C
:1005F000013B23B1521EC0E9001218467047012189
:10060000C160881E704742685AB1C368016843B927
:1006100083688B4205D0491E521CC0E9001200209D
:1006200070474FF0FF3070472DE9FE4F804681EA5A
:100630000300C00F0C46009021F0004123F000455C
:10064000B8EB0200A94105D24046214690461C461F
:100650000B46024623F00040104347D0270DC7F356
:100660000A00C3F30A510290401A019040286BDA45
:10067000C3F3130040F4801B0098924620B100237E
:10068000D2EB030A63EB0B0B01985946C0F1400211
:100690005046FFF767FF06460D4650465946019AF9
:1006A00000F08CF910EB08006141002487EA115238
:1006B00084EAE7731A4340D0009A62B3019A012A90
:1006C0004FEA075215DC001B61EB02014FF00042BC
:1006D00002EA0752CDE90042001C41F58011324682
:1006E0002B4600F02AFB03B0BDE8F08F40462146C0
:1006F000F9E7001B61EB0201001C41F580130018B3
:100700005B412018A2F5001747EB030140EAD570C2
:10071000B6196D4111E06D084FEA360645EAC0751D
:100720004FEA0752001B61EB0201001C41F58011EA
:1007300049084FEA30000019514132462B4603B0B8
:10074000BDE8F04F00F0EABA009801224000002313
:10075000D0EB020263EBE073009821464FEAE074AD
:10076000B8EB000061EB0401E9E783F000435BE7CD
:1007700081F0004158E72DE9FE4F81EA030404F0BF
:10078000004421F0004100944FF0000B23F000439F
:1007900050EA01045ED052EA03045BD0C3F30A546A
:1007A000C1F30A552C44A4F2F3340194A0FB025483
:1007B000C1F3130141F48011C3F3130343F4801315
:1007C00001FB024400FB034E840A970A44EA815469
:1007D00047EA8357A4FB076802958D0A05FB078546
:1007E0004FEA932C04FB0C542705029D4FEA065850
:1007F00047EA1637B5EB08056EEB070C870E920E2D
:1008000047EA811742EA8312A7FB0201B6EB0B010C
:1008100064EB00042B0D43EA0C335E1844EB1C50D0
:10082000DA465146E7FB0201C5F313044FEA0B33E6
:1008300043EA14534FEA0432019C43EA0603A4F14D
:100840000C040294009CCDE900B400F076FA03B0E9
:10085000BDE8F08F00200146F9E72DE9F04D81EA6F
:10086000030404F0004B21F0004514464FF0000A49
:1008700023F0004150EA050220D054EA01021DD0C5
:10088000C5F30A570246C5F31303C1F31300C1F3BE
:100890000A5640F4801543F48013A7EB0608101B9A
:1008A000D64608F2FD3873EB050002D308F10108C3
:1008B00001E092185B41B8F1000F03DA0020014615
:1008C000BDE8F08D00204FF48011064684460EE00E
:1008D000171B73EB050705D3121B63EB05030643D8
:1008E0004CEA010C49084FEA300092185B4150EA8B
:1008F0000107EDD152EA030012D082EA040083EA34
:100900000501084305D0101BAB4106D2012200238C
:1009100006E000224FF0004302E06FF001025310A6
:100920001AEB06004CEB085110EB0A0041EB0B01EF
:10093000BDE8F04D00F0F2B9C1F30A52C1F3130162
:1009400040F2FF3341F480119A4202DA002001465E
:10095000704740F233439A42A2F2334202DC5242E1
:10096000FFF70FBEFFF7FEBD30B5041E71F10004A6
:1009700004DB4FF00044404264EB0101141E73F1AC
:10098000000405DB1C464FF00043524263EB0403B6
:10099000994208BF904230BD064C074D06E0E06822
:1009A00040F0010394E8070098471034AC42F6D3B6
:1009B000FFF7EEFB98ED0008B8ED0008202A06DBF3
:1009C000CB17203A41FA02F043EAE07306E041FA1D
:1009D00002F3D040C2F1200291400843194670470B
:1009E000C0B24FF4F05100F0F7B900002DE9F34F19
:1009F0008BB04FF0000801F10C000C464FF0010BDA
:100A000046460DF1080A019062690121019890475C
:100A1000051E2DD0252D2CD0216A8847C0B16269D2
:100A2000012101989047216A88470028F7D1411E8B
:100A300062690198904700E0761CA1690B9888478D
:100A4000216A88470028F7D1E1690B988847DBE7DE
:100A5000A1690B9888470746A84201D1761CD3E7C5
:100A6000E1690B9888477F1C02D1B8F1000F6FD065
:100A700047E1002762693D463946019890472A2898
:100A800004D162690121019890470125DFF888921D
:100A90006269012101989047A0F130010A290AD228
:100AA0004F45E5DC07EB870100EB4107303FDFD422
:100AB00045F01005ECE7E90601D46FF000476C281B
:100AC0000AD04C2814D0682815D06A280DD0742874
:100AD0001CD07A281AD01DE0626901210198904744
:100AE0006C2802D045F0040514E045F002050DE045
:100AF00045F020050AE062690121019890476828C5
:100B000002D045F0080505E045F400656269012161
:100B100001989047C4E9015765283DD019DC582851
:100B20007AD00CDC452837D004DC252826D0412893
:100B300031D131E046282FD047282CD12CE05B283A
:100B400077D0612828D063287CD0642823D15AE04C
:100B5000D1E06F2848D008DC66281DD067281BD05C
:100B6000692821D06E2816D127E0702845D0732837
:100B700068D0752847D078280DD14DE0A1690B9831
:100B80008847054625283FF469AFE1690B988847F7
:100B90006D1C3FF46AAFB4E023466A466FF0010073
:100BA0000B99AFF300809FE045F040006060A8071C
:100BB00023464FF0000236D43EE0E8077FF447AF0B
:100BC0002068011D21600068290501D506701BE71A
:100BD000290701D5068017E7A90703D5F117C0E952
:100BE000006111E706600FE745F040006060A8076C
:100BF00023464FF0080216D41EE040F60E0125EA07
:100C00000100606016E045F040006060A8072346E0
:100C10004FF00A0207D40FE045F040006060A807DB
:100C200008D5234610226FF001000B99AFF3008026
:100C30005AE007E0234610226FF001000B99FFF7FE
:100C4000D5FB51E04FF000094F464B46632802D0D8
:100C50005B2807D041E02079C00601D40120A060C4
:100C600001273AE062690121019890475E2805D189
:100C70004FF001096269494601989047216939B9E5
:100C800000210A46534643F82120491C0829FADB73
:100C9000B0B3216969B9C11700EBD16253110AEBF6
:100CA000830122F01F02821A01200B689040034347
:100CB0000B6062690121019890475D28E8D1B9F184
:100CC000000F09D00020514651F82020D24341F8AE
:100CD0002020401C0828F7DB02AB224600976FF06B
:100CE00001000B99AFF3008000280CDA401C08D1FA
:100CF000BBF1000F05D04FF0FF300DB0BDE8F08F15
:100D0000FFE74046F9E7E90701D108F10108064489
:100D10004FF0000B78E60000CCCCCC0C10B5141EC4
:100D200073F1000408DA401C41F1000192185B41A4
:100D30001A4301D120F0010010BD2DE9F04D92467B
:100D40009B4611B1B1FA81F202E0B0FA80F2203292
:100D50009046FFF707FC04460F4640EA0A0041EAC6
:100D60000B0153465A46084313D0114653EA01007B
:100D700019D0C8F140025046FFF703FC05460E4665
:100D8000504659464246FFF7EDFB084305D0012087
:100D900004E020463946BDE8F08D0020054346EAD0
:100DA000E0762C4337430A986305E40AA0EB080079
:100DB0000022FD0A44EA47540A3002D500200146C9
:100DC000E9E7010510196941DDE9084500196941A4
:100DD000BDE8F04DA2E700007F2801D9002208E01D
:100DE000064A02EB5002C007127800D1120902F045
:100DF0000F0201209040084070470000B4E800084E
:100E000070B58C1810F8015B15F0070301D110F8CC
:100E1000013B2A1106D110F8012B03E010F8016BF9
:100E200001F8016B5B1EF9D12B0705D40023521E7C
:100E30000DD401F8013BFAE710F8013BCB1A921CE4
:100E400003E013F8015B01F8015B521EF9D5A142E2
:100E5000D8D3002070BD000055494A6822F44032C2
:100E60004A604A6843681A434A600268526822F43A
:100E7000807203685A6002685368026943EA02227A
:100E800003685A600268526822F0407203685A6030
:100E90000268526883681A4303685A60026892685D
:100EA00022F4006203689A6002689268C3681A4379
:100EB00003689A603F4B826A9A4218D0026892682F
:100EC00022F0706203689A6002689268836A1A432B
:100ED00003689A600268926822F0405203689A6040
:100EE00002689268C36A1A4303689A600BE002685A
:100EF000926822F0706203689A600268926822F039
:100F0000405203689A600268926822F00202036805
:100F10009A6002689368027E43EA420203689A601C
:100F20002022125CA2B10268526842F40062036897
:100F30005A600268526822F4604203685A6002688C
:100F40005368426A521E43EA423203685A6005E01F
:100F50000268526822F4006203685A600268D26A2A
:100F600022F470020368DA620268D36A828B521E2E
:100F700043EA02520368DA620268926822F400725D
:100F800003689A600268936890F8302043EA42222E
:100F900003689A600268926822F4806203689A602B
:100FA00002689368426943EA822203689A60704744
:100FB000002301400100000F00BFFEE710B5084804
:100FC00000F076FA074800F073FA074800F070FA6C
:100FD000064800F06DFA064800F06AFA10BD0000FD
:100FE00064E8000874E8000884E8000894E8000851
:100FF000A4E8000838B504460D46002000900622FB
:101000002E494FF4106005F043FC2C4800782B4922
:10101000497808432949897808432849C978084309
:1010200026490979084325494979084378B90020B8
:101030002249087008204870DC2088700020C870A1
:101040000871487106224FF4106005F0A1FC1C489D
:1010500004701C4805601C481C4908601748C0788B
:101060000968084419490860144800790968084467
:101070001649086011484079096808441349086016
:101080000E48C0780D49097948400C4949794840D3
:101090000E49096808440D490860042269464FF466
:1010A000706005F075FC04226946900105F070FC43
:1010B0000AF08EF900200649087038BDFC000020B7
:1010C000C0000020F000002078563412EC00002010
:1010D000DD00002070B569480078062801D10520A0
:1010E00070BD674909788900491C4FF4407202EBD2
:1010F000C10005F093FB222806D0002344220221E0
:101100005F4800780BF052F8012508F005FCC4B2E6
:101110005A4890F90000052877D2DFE800F0030F65
:101120002C4F770000205749087048708870C870AD
:101130000AF092FB0120514908709CE0022C16D164
:1011400051480068007C4F4908704F480068407C57
:1011500048704D480068807C88704B480068C07CAF
:10116000C8700AF0C5FC02204449087002E006F08D
:1011700053F905467FE0052C14D106F011F940B172
:101180004248006880470AF023F903203B49087071
:1011900013E00AF01DF93E480068804700203749F7
:1011A00008700AE0062C05D10AF012F90120334933
:1011B000087002E006F030F905465CE00425354889
:1011C0000068401C00B33448006832490968B0EB3D
:1011D000510F19D900242B4800783049087029484C
:1011E000407848702748807888702648C078C87052
:1011F0002B480068401C2A4908600AF079FC0AF074
:10120000E7F804201D49087035E033E00425052C7B
:1012100024D1002023490870204800781949097812
:10122000884211D11D4840781649497888420BD12F
:101230001A48807813498978884205D11748C078C0
:101240001049C978884203D00325174800688047B1
:101250000AF0BEF80320094908700AE0062C05D1FF
:101260000AF0B6F801200549087002E006F0D4F84B
:10127000054600E000BF00BF284631E7DD00002042
:10128000C0000020CD000020F0000020040100205C
:101290000C010020E0000020E4000020C900002034
:1012A000EC000020DE0000200801002010B50448FA
:1012B000007806F095F906200249087010BD00007C
:1012C000C0000020DD00002002480068401C0149E9
:1012D00008607047E4000020044A1070044A11605E
:1012E00041F22212034B1A80704700001C010020BB
:1012F000180100201E0100202DE9F04389B00546A9
:101300000F46904600202E4908702E4908600023A1
:101310001A4602212C4800780AF048FF4FF48073E7
:101320002A4839460268002006F092FE86B235202F
:101330002B463246009025480168234800780AF081
:1013400021FF35E02048007806F0A6FF061E17DDD5
:10135000B6F5807F01DD4FF4807602A803AB3246FC
:1013600000901A4801681848007809F09FFF86B27B
:1013700042461648016804A808F010FC814618E0AF
:1013800006F0A0F80446002C07DA0F48007806F0B3
:1013900027F9002009B0BDE8F0834CB935202B4671
:1013A0003246009009480168074800780AF0EAFED2
:1013B000C8E700BF0448007806F012F94846E9E79C
:1013C00024010020200100201C0100201801002021
:1013D000704772B600BFFEE72DE9F0470446884625
:1013E000914601262E48006898BB2E482C4908607B
:1013F0002AE02B480068006807683846FEF7ADFF12
:1014000005462A4639462046FEF7C5FFB8B9605D55
:10141000202801D0605D90B921480068006890F9EB
:101420000C0000280ADB204608F0D2FF1C4909689E
:10143000096891F90C10884200D0002608E018488D
:101440000068406816490860154800680028D0D137
:1014500000BF1348006848B146B94A4612494046A1
:10146000FEF765FF00200E49086016E00C48006892
:1014700068B10B48006800682246494683684046C8
:10148000984706464EB900200549086005E04A46DF
:1014900006494046FEF74BFF00263046BDE8F08780
:1014A000940100208C0100201CEB000874EB000864
:1014B00070B5054600260DB1012000E0002050B9AE
:1014C00000BF502080F31188BFF34F8FBFF36F8FA1
:1014D00000BF00BFFEE7082009F082FB04460CB104
:1014E000012000E0002050B900BF502080F3118897
:1014F000BFF34F8FBFF36F8F00BF00BFFEE724B174
:101500002146284609F032FA0126304670BD000017
:1015100038B502460020009000BF92F83C00012838
:1015200001D1022038BD012082F83C0000BF0868CC
:10153000092816D91068C0680C780A3C04EB4405E9
:101540000724AC40A0431468E0600C780A3C04EB2C
:1015500044048868A0401468E46820431468E0608C
:1015600013E0106800690C7804EB44050724AC40D4
:10157000A043146820610C7804EB44048868A04000
:10158000146824692043146820614868072817D22A
:101590001068406B0C79641E04EB84051F24AC407A
:1015A000A04314686063088880B20C79641E04EB61
:1015B0008404A0401468646B20431468606331E0C5
:1015C00048680D2817D21068006B0C79E41F04EBF3
:1015D00084051F24AC40A04314682063088880B2AF
:1015E0000C79E41F04EB8404A0401468246B2043AE
:1015F0001468206316E01068C06A0C790D3C04EB97
:1016000084051F24AC40A0431468E062088880B2BF
:101610000C790D3C04EB8404A0401468E46A204378
:101620001468E062194B1A4C1068A04206D1086891
:10163000122803D1586840F480005860144C106898
:10164000A0421CD10868102802D00868112816D1C1
:10165000586840F400005860086810280FD10D4801
:1016600000680D4CB0FBF4F000EB800040000090EF
:1016700002E00098401E009000980028F9D100BFB9
:10168000002082F83C0000BF00BF4BE70023014070
:10169000002001401000002040420F0070B50446B9
:1016A00000250CB9012070BD1549A06A884200D000
:1016B00000BF206C30B9204600F024F800206064A0
:1016C00084F83C00206C00F0100088B9206C20F4F5
:1016D000885040F0020020642046FFF7BDFB002048
:1016E0006064206C20F0020040F00100206400E003
:1016F000012500BF002084F83C0000BF2846D2E747
:101700000100000F10B586B00446142101A8FEF7B1
:1017100003FE1949206888422BD100BF00200090A9
:101720001648006840F48070144908600846006854
:1017300000F48070009000BF00BF00BF0020009048
:101740000E481438006840F004000C491439086051
:101750000846006800F00400009000BF00BF0820A9
:101760000190032002900020039001A9044800F09A
:1017700087F806B010BD0000002001404438024048
:101780000008024070B50446A56D00F083F90646D6
:1017900094F83500022808D08020606500BF002042
:1017A00084F8340000BF012070BD2068006820F07C
:1017B0001600216808602068406920F080002168D8
:1017C0004861206C08B9A06C28B12068006820F03E
:1017D0000800216808602068006820F00100216886
:1017E000086010E000F056F9801B05280BD9202076
:1017F0006065032084F8350000BF002084F83400C1
:1018000000BF0320D0E72068006800F00100002836
:10181000E8D194F85C103F208840A860012084F84B
:10182000350000BF002084F8340000BF00BFBBE7D4
:10183000014691F83500022803D080204865012038
:101840007047052081F835000868006820F0010025
:101850000A6810600020F3E770B5044600F01AF93A
:1018600006462546681C10B104480078054400BFB0
:1018700000F010F9801BA842FAD370BD0C000020C4
:10188000F8B502460B460025002400200021D6E0D2
:10189000012606FA01F51E6806EA0504AC4274D179
:1018A0001E7906F00306012E04D01E7906F0030609
:1018B000022E13D190684F000326BE40B0434F0064
:1018C000DE68BE4030439060506801268E40B043D1
:1018D0001E79C6F300168E40304350601E7906F024
:1018E0000306032E09D0D0684F000326BE40B04344
:1018F0004F009E68BE403043D0601E7906F003065C
:10190000022E13D1CF0802F1200656F827004E0709
:10191000F70E0F26BE40B0434F07FF0E1E69BE40B4
:101920003043CF0802F1200646F8270010684F0028
:101930000326BE40B0431E7906F003064F00BE40AA
:10194000304310605E6806F44036002E76D000BF4B
:10195000002600963C4E366846F480463A4F3E607C
:101960003E46366806F48046009600BF00BF374EFC
:101970008F0856F827008E07370F0F26BE40B0435A
:10198000334EB24202D1002624E057E0314EB2423B
:1019900001D101261EE0304EB24201D1022619E0EB
:1019A0002E4EB24201D1032614E02D4EB24201D197
:1019B00004260FE02B4EB24201D105260AE02A4E42
:1019C000B24201D1062605E0284EB24201D10726D7
:1019D00000E008268F073F0FBE4030431B4E8F08A4
:1019E00046F82700224E3068A0435E6806F4801651
:1019F00006B120431E4E3060361D3068A0435E683D
:101A000006F4001606B12043194E361D3060184EFC
:101A1000361F3068A0435E6806F4003606B12043E6
:101A2000134E361F3060361F3068A0435E6806F4E0
:101A3000803606B120430E4E083E3060491C102906
:101A4000FFF426AFF8BD00004438024008380140DA
:101A5000000002400004024000080240000C024066
:101A6000001002400014024000180240001C024016
:101A7000083C014010B5426921EA020302EA010470
:101A800043EA0443836110BD0AB1816101E00B04A4
:101A9000836170470148006870470000040000201F
:101AA00070B504460CB9012070BD4CF6CC402168DD
:101AB000086045F2555021680860D4E9001048607C
:101AC0002168A0688860FFF7E5FF05460DE0FFF795
:101AD000E1FF401B41F60101884206D92068C06839
:101AE00000F0030008B10320DEE72068C06800F0C2
:101AF00003000028EBD14AF6AA20216808600020E4
:101B0000D2E701464AF6AA200A6810600020704712
:101B10000348006803490978084401490860704790
:101B2000040000200C00002010B50D48006840F4AF
:101B300000700B4908600846006840F48060086047
:101B40000846006840F480700860032000F0D6F872
:101B50000F2000F007F800F055F8002010BD00003D
:101B6000003C0240F0B587B004460026002700BFC5
:101B7000002000901E48006840F001001C490860E9
:101B80000846006800F00100009000BF00BF01A9F6
:101B900002A800F089F900F0BFF946001548B6FB2D
:101BA000F0F0471E14481549086040F2E731134829
:101BB000C1604760002101618160816100F06AFFBE
:101BC000054695B90D4800F099FF05466DB91920F5
:101BD00000F042F8102C07D200222146192000F014
:101BE0004FF80748046000E00125284607B0F0BD23
:101BF0004438024040420F000000014084050020AC
:101C00000800002008B500BF0020009011480068BF
:101C100040F480400F4908600846006800F48040A6
:101C2000009000BF00BF00BF00200090081F0068A8
:101C300040F08050091F08600846006800F080509E
:101C4000009000BF00BF00220F21901E00F018F886
:101C500008BD0000443802400146084600280DDB5C
:101C600000BF00BF00F01F0301229A4043099B0000
:101C700003F1E023C3F8002100BF00BF00BF70479D
:101C80002DE9F05F80460D461646002704F0F8FE69
:101C9000074639462A46334601F00700C0F1070AD5
:101CA000BAF1040F02D94FF0040A01E0C0F1070AAB
:101CB000D14600F1040ABAF1070F02D24FF0000A30
:101CC00001E0A0F1030AD4464FF0010A0AFA09FA2A
:101CD000AAF1010A0AEA020A0AFA0CFA4FF0010B09
:101CE0000BFA0CFBABF1010B0BEA030B4AEA0B04FA
:101CF0002146404604F0CCFEBDE8F09F00BF00F056
:101D00000702064B19684FF6FF031940044B0B43BB
:101D100043EA0221014B196000BF70470CED00E05F
:101D20000000FA0570B504460D460CB9012070BDDF
:101D30005848006800F00700A84209D255490D70C4
:101D40000846006800F00700A84201D00120EEE735
:101D5000207800F0020002281DD1207800F0040055
:101D6000042805D14C48006840F4E0504A49086016
:101D7000207800F00800082805D14748006840F4A2
:101D80006040454908604448006820F0F000A168C0
:101D9000084341490860207800F00100A8B360685A
:101DA000012807D13C4808380068C0F34040B8B962
:101DB0000120BCE76068022802D06068032807D1D0
:101DC000354808380068C0F3406048B90120AEE7E4
:101DD000314808380068C0F3400008B90120A6E780
:101DE0002D48006820F00300616808432A49086014
:101DF000FFF750FE064609E0FFF74CFE801B41F25C
:101E00008831884202D9032091E707E02248006820
:101E100000F00C006168B0EB810FEDD11D48006847
:101E200000F00700A84209D91A490D700846006859
:101E300000F00700A84201D0012078E7207800F0E8
:101E40000400042807D11448006820F4E050E16839
:101E5000084311490860207800F00800082808D1DC
:101E60000D48006820F46040216940EAC1000A4939
:101E7000086000F061F808490968C1F30311074AD6
:101E8000515CC8400649086006480068FFF76AFED2
:101E900000204CE7003C02400838024000E7000800
:101EA00010000020080000200F2202600D4A126876
:101EB00002F0030242600B4A126802F0F0028260F4
:101EC000084A126802F4E052C260064A126802F43C
:101ED0006042D2080261044A126802F007020A60F6
:101EE0007047000008380240003C0240014800688A
:101EF000704700001000002000B5FFF7F7FF04490D
:101F00000968C1F38221034A515CC84000BD00004A
:101F10000838024010E7000800B5FFF7E7FF044962
:101F20000968C1F34231034A515CC84000BD00005A
:101F30000838024010E700082DE9F047002400258A
:101F40000026A1462548006800F00C0020B10428B6
:101F500005D008283AD105E0DFF8849039E0DFF8B1
:101F6000849036E01D48001F006800F03F041B48C5
:101F7000001F006800F4800078B11A481749091F53
:101F80000968C1F38811A0FB0170014622460023B5
:101F90003846FEF777F905460EE011480F49091F4C
:101FA0000968C1F38811A0FB017001462246002395
:101FB0003846FEF767F905460848001F0068C0F379
:101FC0000140401C4600B5FBF6F902E0DFF8109036
:101FD00000BF00BF4846BDE8F08700000838024057
:101FE0000024F40000127A00F8B504460CB9012070
:101FF000F8BD207800F00100002874D0F94800688E
:1020000000F00C0004280DD0F648006800F00C0029
:10201000082813D1F348001F006800F48000B0F5D1
:10202000800F0BD1EF4808380068C0F3404000280B
:1020300059D06068002856D10120D9E700BF6068F8
:10204000B0F5803F08D1E7480838006840F4803098
:10205000E449083908601EE06068B0F5A02F0DD192
:10206000E0480838006840F48020DE4908390860FC
:102070000846006840F4803008600CE0D948083811
:10208000006820F48030D7490839086008460068A5
:1020900020F48020086000BF606890B1FFF7FAFC70
:1020A000054606E0FFF7F6FC401B642801D9032033
:1020B0009EE7CC4808380068C0F340400028F1D0C3
:1020C00011E0FFF7E7FC054606E0FFF7E3FC401BE5
:1020D000642801D903208BE7C24808380068C0F3A0
:1020E00040400028F1D1207800F0020002285FD1A2
:1020F000BC48006800F00C0058B1BA48006800F015
:102100000C0008281CD1B748001F006800F48000AC
:10211000B0B9B44808380068C0F3400020B1E068A6
:10212000012801D0012063E7AE480838006820F09C
:10213000F800216940EAC100AA490839086037E07F
:10214000E06800B30120A8490860FFF7A3FC05463A
:1021500006E0FFF79FFC401B022801D9032047E758
:10216000A04808380068C0F340000028F1D09D481E
:102170000838006820F0F800216940EAC100994958
:102180000839086014E0002097490860FFF782FCD6
:10219000054606E0FFF77EFC401B022801D903201C
:1021A00026E7904808380068C0F340000028F1D1C5
:1021B000207800F0080008282CD16069A8B101201F
:1021C0008A490860FFF766FC054606E0FFF762FCF7
:1021D000401B022801D903200AE782486C300068BE
:1021E000C0F340000028F1D014E000207F490860CF
:1021F000FFF750FC054606E0FFF74CFC401B0228A9
:1022000001D90320F4E677486C300068C0F3400041
:102210000028F1D1207800F00400042870D10027B4
:1022200070483830006800F0805090B900BF00203E
:1022300000906C483830006840F08050694938316F
:1022400008600846006800F08050009000BF00BFA2
:1022500001276748006800F48070B0B964480068DE
:1022600040F4807062490860FFF714FC054606E000
:10227000FFF710FC401B022801D90320B8E65C4898
:10228000006800F480700028F2D000BFA068012828
:1022900008D154486830006840F001005149683165
:1022A00008601DE0A06805280DD14E486830006820
:1022B00040F004004B49683108600846006840F06F
:1022C000010008600CE047486830006820F0010019
:1022D0004449683108600846006820F0040008603E
:1022E00000BFA068A8B1FFF7D5FB054609E0FFF7DE
:1022F000D1FB401B41F28831884202D9032077E6A6
:1023000026E0384868300068C0F340000028EED06E
:1023100013E0FFF7BFFB054608E0FFF7BBFB401BE0
:1023200041F28831884201D9032061E62D486830A6
:102330000068C0F340000028EFD1012F07D12948E1
:102340003830006820F0805026493831086000BFDE
:10235000A069002845D02348006800F00C00082838
:102360005DD0A069022845D100201F490866FFF70B
:1023700091FB054606E0FFF78DFB401B022801D9C3
:10238000032035E6174808380068C0F3406000288D
:10239000F1D1D4E907010843616A40EA81110122C1
:1023A000A06AC2EB500041EA00412C20005D41EAE6
:1023B00000600C49091F086001200B490866FFF7FF
:1023C00069FB054606E0FFF765FB401B022801D9C3
:1023D00003200DE6034808380068C0F34060002879
:1023E000F1D049E00838024000004742800E4742E1
:1023F00000700040002021490866FFF74BFB0546AE
:1024000006E0FFF747FB401B022801D90320EFE558
:102410001B480068C0F340600028F2D12CE0A0699E
:10242000012800D1E4E51648001D0668A0690128CE
:1024300020D006F48001E06981421BD106F03F0103
:10244000206A814216D147F6C0703040616AB0EB15
:10245000811F0FD106F440310122A06AC2EB500067
:10246000B1EB004F06D106F070612C20005DB1EB9E
:10247000006F01D00120BBE50020B9E50000474214
:102480000038024010B504460CB9012010BD606A46
:1024900038B96068B0F5827F00D105E00021E161C4
:1024A00002E00021216161610021A16294F85100E4
:1024B00028B9002084F85000204600F047F8022098
:1024C00084F851002068006820F04000216808600E
:1024D000A08800F48270218901F404410843A18995
:1024E00001F400610843217C01F002010843217DD1
:1024F00001F001010843218B01F400710843217FA1
:1025000001F0380108432021095D01F080010843F2
:10251000218D01F400510843216808600421A0695D
:1025200001EA104094F8241001F0100108432168DA
:1025300048602068C06920F400602168C8610020FC
:102540006065012084F8510000209FE710B586B037
:102550000446142101A8FDF7DFFE1B4920688842CC
:102560002FD100BF002000901848006840F4805030
:10257000164908600846006800F48050009000BFCB
:1025800000BF00BF0020009010481438006840F0E1
:1025900001000E49143908600846006800F0010087
:1025A000009000BF00BFE0200190022002900020B8
:1025B0000390032004900520059001A90448FFF72B
:1025C0005FF906B010BD0000003001404438024001
:1025D000000002402DE9F84304460F4616461D460A
:1025E000FFF758FA8046B14694F85100012802D00E
:1025F0000220BDE8F88307B10EB90120F9E700BF5A
:1026000094F85000012801D10220F2E7012084F85B
:10261000500000BF032084F851000020606527634C
:10262000A686E686A063A087E08760642064A06831
:10263000B0F5004F0BD12068006820F04000216801
:1026400008602068006840F48040216808602068C5
:10265000006800F04000402805D02068006840F085
:10266000400021680860E068B0F5006F37D160680D
:1026700010B1B9F1010F09D1206B00882168C86041
:10268000206B801C2063E08E401EE08623E02068E3
:10269000806800F0020002280AD1206B00882168BF
:1026A000C860206B801C2063E08E401EE08612E034
:1026B000FFF7F0F9A0EB0800A84201D3681C00B9AD
:1026C0004DB9012084F8510000BF002084F850006B
:1026D00000BF03208DE7E08E0028D8D136E0606887
:1026E00010B1B9F1010F09D1206B0078216808738E
:1026F000206B401C2063E08E401EE08623E02068B3
:10270000806800F0020002280AD1206B007821685E
:102710000873206B401C2063E08E401EE08612E0B0
:10272000FFF7B8F9A0EB0800A84201D3681C00B974
:102730004DB9012084F8510000BF002084F85000FA
:1027400000BF032055E7E08E0028D8D14246294635
:10275000204601F0B5FE08B120206065A06850B9A0
:1027600000BF002000902068C0680090206880684A
:10277000009000BF00BF012084F8510000BF00207E
:1027800084F8500000BF606D08B1012031E70020DF
:102790002FE72DE9FE4F04460F4690461D460C9E3E
:1027A00001200190FFF776F9814694F851B06068F6
:1027B0000290AA46BBF1010F0BD00298B0F5827FC0
:1027C00004D1A06810B9BBF1040F02D00220BDE80B
:1027D000FE8F1FB1B8F1000F00D00DB90120F6E750
:1027E00000BF94F85000012801D10220EFE701203A
:1027F00084F8500000BF94F85100042802D005204E
:1028000084F8510000206065C4F83880E587A5870A
:102810002763E586A586206460642068006800F070
:102820004000402805D02068006840F04000216842
:102830000860E068B0F5006F52D1606810B1BAF17D
:10284000010F09D1206B00882168C860206B801CB3
:102850002063E08E401EE0863BE02068806800F048
:102860000200022810D1E08E70B1019801280BD12E
:10287000206B00882168C860206B801C2063E08E7C
:10288000401EE086002001902068806800F0010072
:1028900068B1E08F58B12068C068A16B0880A06B58
:1028A000801CA063E08F401EE08701200190FFF7AD
:1028B000F1F8A0EB0900B0420BD3701C48B1012025
:1028C00084F8510000BF002084F8500000BF0320AE
:1028D0007DE7E08E0028C0D1E08F0028BDD152E016
:1028E000606810B1BAF1010F09D1206B007821683E
:1028F0000873206B401C2063E08E401EE0863CE0A5
:102900002068806800F00200022810D1E08E70B1CB
:10291000019801280BD1206B007821680873206B87
:10292000401C2063E08E401EE0860020019020685D
:10293000806800F0010068B1E08F58B12068C0687D
:10294000A16B0870A06B401CA063E08F401EE08765
:1029500001200190FFF79EF8A0EB0900B04201D3DF
:10296000701C00B94EB9012084F8510000BF00204E
:1029700084F8500000BF032029E7E08E0028BFD173
:10298000E08F0028BCD14A463146204601F098FD30
:1029900040B12020606500BF002084F8500000BFD7
:1029A000012014E7A06850B900BF00200090206803
:1029B000C068009020688068009000BF00BF0120C0
:1029C00084F8510000BF002084F8500000BF606D03
:1029D00008B10120FBE60020F9E6704770470000CF
:1029E00030B502460B4600BF92F83C00012801D1E9
:1029F000022030BD012082F83C0000BF022082F896
:102A00003D00106844681068816824F070041868FC
:102A1000044310684460184D1068A8421BD0106829
:102A2000B0F1804F17D0154D1068A84213D0144D47
:102A30001068A8420FD0134D1068A8420BD0124D59
:102A40001068A84207D0114D1068A84203D0104D5D
:102A50001068A84205D121F0800158680143106830
:102A60008160012082F83D0000BF002082F83C0018
:102A700000BF00BFBDE700000000014000040040AF
:102A800000080040000C00400004014000400140EC
:102A90000018004010B504460CB9012010BD94F890
:102AA0003D0028B9002084F83C00204600F025F8BD
:102AB000022084F83D00211D206803F061FB012005
:102AC00084F8460000BF84F83E0001213F200155F4
:102AD000402001554120015500BF00BF012084F86E
:102AE000420043200155442001554520015500BFB7
:102AF000012084F83D000020D0E77047014691F89E
:102B00003D00012801D001207047022081F83D00DE
:102B10000868C06840F001000B68D8601A4B08686C
:102B200098421BD00868B0F1804F17D0174B086847
:102B3000984213D0164B086898420FD0154B08687E
:102B400098420BD0144B0868984207D0134B086882
:102B5000984203D0124B086898420CD108688068EC
:102B600000F00702062A0CD00868006840F0010057
:102B70000B68186005E00868006840F001000B6809
:102B800018600020C0E70000000001400004004081
:102B900000080040000C00400004014000400140DB
:102BA000001800402DE9F04104460D46002700BF03
:102BB00094F83C00012802D10220BDE8F0810120F8
:102BC00084F83C0000BF022084F83D00206886683D
:102BD00026F0770626F47F4620688660286850280D
:102BE00033D00CDC202850D004DC00284BD0102837
:102BF00051D149E0302849D040284CD139E06028F3
:102C00002DD0702807D0B0F5805F03D0B0F5005FFD
:102C100041D10DE041E0D5E902136A68206803F074
:102C20001FFB2068866846F077062068866034E0DF
:102C3000D5E902136A68206803F012FB20688068F7
:102C400040F480402168886027E0EA68696820686D
:102C500003F01AFB5021206803F00DFB1DE0EA6829
:102C60006968206803F023FB6021206803F003FB00
:102C700013E0EA686968206803F006FB40212068D9
:102C800003F0F9FA09E000BF00BF00BF296820681F
:102C900003F0F1FA01E0012700BF00BF012084F832
:102CA0003D0000BF002084F83C0000BF384684E7A8
:102CB000704770B504462068C5682068066906F04C
:102CC0000200022819D105F00200022815D1401F88
:102CD00021680861012020772068806900F00300E6
:102CE00018B12046FFF7E4FF05E0204600F097F812
:102CF000204600F095F80020207706F00400042814
:102D000019D105F00400042815D1C04321680861D9
:102D1000022020772068806900F4407018B12046B6
:102D2000FFF7C6FF05E0204600F079F8204600F0E6
:102D300077F80020207706F00800082819D105F060
:102D40000800082815D1C0432168086104202077B5
:102D50002068C06900F0030018B12046FFF7A8FF03
:102D600005E0204600F05BF8204600F059F800200E
:102D7000207706F01000102819D105F01000102857
:102D800015D1C04321680861082020772068C069F8
:102D900000F4407018B12046FFF78AFF05E0204696
:102DA00000F03DF8204600F03BF80020207706F0C8
:102DB000010048B105F0010030B16FF00100216859
:102DC0000861204600F02EF806F08000802809D126
:102DD00005F08000802805D1C043216808612046A5
:102DE000FFF7FBFD06F04000402809D105F0400048
:102DF000402805D1C04321680861204600F038F81A
:102E000006F02000202809D105F02000202805D157
:102E1000C043216808612046FFF7E0FD70BD7047A0
:102E20007047000010B504460E492068884201D161
:102E3000FEF76EFE2068B0F1804F12D10A4800689C
:102E4000401C09490860084600684FF47A71B0FBDD
:102E5000F1F201FB120020B94FF480710348FEF734
:102E600009FE10BD000001400000002000080240E3
:102E700070477047704700002DE9F84F04462068FE
:102E800005682068C668206847694FF00009CA468F
:102E900005F00F09B9F1000F0AD105F0200038B193
:102EA00006F0200020B1204603F0A3FABDE8F88F19
:102EB000B9F1000F7CD007F0010018B906F490704A
:102EC000002875D005F0010030B106F4807018B10B
:102ED000606C40F00100606405F0040030B107F060
:102EE000010018B1606C40F00200606405F002005F
:102EF00030B107F0010018B1606C40F0040060646C
:102F000005F0080048B106F0200010B907F00100F4
:102F100018B1606C40F008006064606C002846D016
:102F200005F0200028B106F0200010B1204603F083
:102F300060FA20684069C0F3801A606C00F00800F5
:102F400010B9BAF1000F2DD0204603F00CFA20681A
:102F5000406900F04000402820D100BF00BF216838
:102F6000143151E8001F21F040002168143141E87C
:102F70000002002AF3D100BFE06B50B17F48E16B43
:102F80000865E06BFEF754FC88B1E06B016D884783
:102F90000DE02046FFF76EFF09E009E02046FFF74D
:102FA00069FF04E02046FFF765FF002060647DE7CD
:102FB000206B012878D105F01000002874D006F0AD
:102FC00010000028FAD000BF0020009020680068A0
:102FD000009020684068009000BF00BF20684069F2
:102FE00000F04000402870D1E06B006840681FFA94
:102FF00080F8B8F1000F58D0A08D404555DDA4F8F9
:103000002E80E06BC069B0F5807F43D000BF00BF69
:1030100021680C3151E8001F21F4807021680C31C7
:1030200041E80002002AF3D100BF00BF00BF2168C1
:10303000143151E8001F21F001002168143141E8EA
:103040000002002AF3D100BF00BF00BF2168143185
:1030500051E8001F21F040002168143141E80002CE
:10306000002AF3D100BF202084F842000020206312
:1030700000BF00BF21680C3151E8001F21F0100093
:1030800021680C3141E80002002AF3D100BFE06B57
:10309000FEF778FB02206063A08DE28D801A81B27A
:1030A0002046FFF7E6FE0EE052E0A08D40450AD133
:1030B000E06BC069B0F5807F05D102206063A18D0F
:1030C0002046FFF7D6FEF1E6FFE7A08DE18D401A1E
:1030D0001FFA80F8E08DD0B3B8F1000F37D000BFF1
:1030E00000BF21680C3151E8001F21F49070216865
:1030F0000C3141E80002002AF3D100BF00BF00BF3D
:103100002168143151E8001F21F0010021681431B9
:1031100041E80002002AF3D100BF202084F84200D9
:103120000020206300BF00BF21680C3151E8001F60
:1031300021F0100021680C3141E80002002AF3D18F
:1031400000BF0220606341462046FFF792FEADE6D5
:1031500005F0800030B106F0800018B1204603F081
:10316000DDFAA3E605F0400030B106F0400018B1EA
:10317000204603F02EF999E600BF97E65563000854
:1031800010B504460CB9012010BDA06900B100E0E3
:1031900000BF94F8410028B9002084F84000204680
:1031A00000F02AF8242084F841002068C06820F448
:1031B00000502168C860204603F09AF92068006931
:1031C00020F49040216808612068406920F02A00BE
:1031D000216848612068C06840F400502168C860D8
:1031E00000206064202084F8410084F84200002020
:1031F000606300BFC8E7000010B586B00446142124
:1032000001A8FDF789F83E492068884239D100BFFE
:10321000002000903B48006840F4002039490860D5
:103220000846006800F40020009000BF00BF00BF07
:103230000020009033481038006840F00400314905
:10324000103908600846006800F00400009000BFD4
:1032500000BF4FF4406001900220029000200390D4
:10326000032004900820059001A92748FEF708FBD9
:10327000002205213420FEF703FD3420FEF7ECFC8C
:103280003CE022492068884238D100BF00200090ED
:103290001C48006840F480201A490860084600680D
:1032A00000F48020009000BF00BF00BF002000900D
:1032B00014481038006840F00200124910390860C4
:1032C0000846006800F00200009000BF00BF4FF405
:1032D000406001900220029000200390032004909F
:1032E0000720059001A90A48FEF7CAFA0022052125
:1032F0002720FEF7C5FC2720FEF7AEFC06B010BD68
:10330000004C0040403802400008024000480040A5
:10331000000402402DE9F84F04460E461746994630
:103320004FF0000A94F84200202852D106B117B994
:103330000120BDE8F88F00206064222084F842005C
:1033400000202063FEF7A6FB8246A785E785A068DC
:10335000B0F5805F04D1206910B90025B04602E0C5
:1033600035464FF000082CE053460022202120462D
:10337000CDF8009003F002FA20B1202084F842003A
:103380000320D6E745B920684068C0F30800A8F8D4
:10339000000008F1020811E0A068B0F5805F03D0DA
:1033A000A06828B9206918B920684068287004E02E
:1033B0002068406800F07F0028706D1CE08D401E82
:1033C000E085E08D0028CFD1202084F84200002045
:1033D000AFE70220ADE770472DE9F84F04460E46EF
:1033E000174699464FF0000A94F84100202850D122
:1033F00006B117B90120BDE8F88F002060642120D4
:1034000084F84100FEF746FB8246A784E784A06863
:10341000B0F5805F04D1206910B90025B04602E004
:1034200035464FF000081EE053460022802120461A
:10343000CDF8009003F0A2F920B1202084F84100DB
:103440000320D8E745B9B8F80000C0F308002168A8
:10345000486008F1020803E02878216848606D1C84
:10346000E08C401EE084E08C0028DDD15346002231
:1034700040212046CDF8009003F080F920B12020B3
:1034800084F841000320B6E7202084F841000020A2
:10349000B1E70220AFE7704700BFFEE7014600201A
:1034A00000BF05E0002301F1280242F83030401C43
:1034B0000528F7DB70472DE9F05F04460E461746F6
:1034C0009846DDE90BABDDF828906665002505E040
:1034D000002104F1280040F835106D1C052DF7DBA4
:1034E0006760C4F81080C4F80890C4F814A0C4F849
:1034F0000CB00020206260622077206501202060EF
:1035000004F1580002F0FAFE04F1600002F0F6FE49
:10351000BDE8F09F10B50446002020772062606A65
:1035200010B12046FFF7BAFF10BD38B504460D466E
:103530006A462946204600F001F838BD2DE9F041E1
:1035400098B004460E4615464FF0FF3758222749DB
:103550006846FCF7C8FE4FF00008206A00B13CE066
:1035600016A802F0CBFE16A8616802F0BFFE06B9ED
:103570006E46308BA061B07E606204F16000A1698C
:1035800002F0A9FE3246A168206900F081FAB0F18C
:10359000000800DC21E016AA4146204608F02CF87D
:1035A000071E00D019E016AA0221204609F0F0FEFD
:1035B00002280FD10020287068702946681CE36833
:1035C000626900F04BF8012801D12F7804E04FF038
:1035D000FF3701E04FF0FF3700BF1FB90120206225
:1035E00000202077384618B0BDE8F08170E7000869
:1035F0002DE9FE4F04460D4616461F46DDF830A065
:103600000020029001978046814601A807F0A4FBA4
:103610008DF808000298C0F3C00028700298C0F32B
:10362000031020706946019800F01CF98146019949
:1036300008440190DDE9001000EB01080198A8EBB7
:103640000000022800DA06E001A807F08CFB3080B9
:103650004FF0010900BF4846BDE8FE8F2DE9FF4746
:1036600004460D4616469946002003900296002710
:103670008046009002A807F06FFB8DF80C000398BD
:10368000C0F30310022800D01FE001A9029800F047
:10369000E9F88046029908440290DDE901104718D4
:1036A0000298381A022800DA0FE002A807F054FB4B
:1036B0008DF80000009800F00100207002A807F0CB
:1036C0004BFB28704FF0010800BF404604B0BDE836
:1036D000F0872DE9FF5F06460C4617469846DDE960
:1036E0000FABDDF838900020039011980290002570
:1036F00000200190009002A807F02EFB8DF80C002E
:103700000398C0F30310032800D032E00398C0F3FD
:10371000C00030700398C0F341002060039800F0AF
:10372000010038706946029800F09CF801900299F7
:10373000084402900099029845182A4602A9484672
:1037400007F01EFB10B10298281A00D511E020687E
:10375000002804DD02A807F006FBA8F80000029884
:10376000281ACBF800000298CAF800000120019046
:1037700000BF019804B0BDE8F09F2DE9FE4F05465B
:103780000E4614461F46DDE90C9B00200290CDF842
:1037900004908046824601A807F0DEFA8DF8080002
:1037A0000298C0F30310092800D02CE06946019864
:1037B00000F058F88246019908440190DDE90010B4
:1037C00000EB01080198A8EB0000022800DA1AE0DB
:1037D00001A807F0C8FA2880002020600DE02068CA
:1037E000B04202DD4FF0FF3A0DE001A807F0B4FA55
:1037F0002268511C216047F8220001984045EED311
:103800004FF0010A00BF5046BDE8FE8F2DE9F84396
:1038100005460C46012600270020206000BF4FF01F
:10382000FF38781C0746042801DD00BF17E001219E
:103830006846A8478046B8F1010F00D00FE09DF818
:10384000001001F07F01206801FB06002060F601F6
:103850009DF8000000F080000028E0D100BF38464D
:10386000BDE8F88370B504460D4603480460294658
:103870000248FFF7CBFF70BD2801002079730008D4
:1038800030B50246002300BF0846CD1701EB556551
:10389000ED11A1EBC515ECB2CD1701EB5565E911A2
:1038A000002901DD44F0800418465B1C14540029F3
:1038B000EADC184630BD2DE9F04104460E460027EB
:1038C000B846206828B125682068FCF746FD074601
:1038D00001E0A56867683046FCF73FFD8046474534
:1038E00008D13A4631462846FCF755FD10B901206B
:1038F000BDE8F0810020FBE7401C802801DA401C75
:103900000AE0B0F5804F01DA801C05E003498842E7
:1039100001DAC01C00E0001D70470000FFFF1F001F
:103920002DE9F0418CB005460E4614464FF0FF37A6
:10393000002007900890099007968046286A00B9F1
:1039400063E00AA802F0DAFC0AA8696802F0CEFC7B
:103950002078012802D02078022803D1284604F0DC
:103960007FFCA080D4E90201CDE9050107A807C8C2
:1039700002AB07C3A0886178CDE90010237800224C
:10398000A968286900F07CF98046B8F1000F00DCD6
:103990003BE00AAA4146284607F02EFE071E00D04B
:1039A00033E02078012816D10AAA0421284609F01C
:1039B000EFFC04280CD1E868009006AA05A904A829
:1039C0006B69FFF715FE012801D04FF0FF371BE0B0
:1039D0004FF0FF3718E02078022815D10AAA0721F6
:1039E000284609F0D5FC07280CD1E868009006AA03
:1039F00005A904A86B69FFF7FBFD012801D04FF072
:103A0000FF3701E04FF0FF3700BF781C10B92846A0
:103A1000FFF780FD38460CB0BDE8F0812DE9FC478A
:103A200004460E4615461F46DDF82880002001900A
:103A300081460094042E02DA6FF0010924E0019817
:103A400065F307100190019867F3C3000190062DFC
:103A500001D1012100E00021019861F342000190B1
:103A60009DF80410684609F03BFF02210098FFF71B
:103A700007FF0099084400904146684609F036FF68
:103A80000098A0EB040900BF4846BDE8FC87000091
:103A90002DE9FE4305460E4614460295002001908E
:103AA000009000274FF0FF38204600F0A5F80746A9
:103AB0008146FFF721FFB04202DD6FF001088FE081
:103AC00000208DF80400019820F0F00010300190E3
:103AD0009DF8041002A809F003FF39460298FFF789
:103AE000CFFE029908440290207A042808D13EA112
:103AF00002A809F0E1FE042102A809F0F1FE07E0A6
:103B00003BA102A809F0D8FE032102A809F0E8FEB3
:103B100000208DF80000A17E009861F34100009024
:103B2000E07E08B1012100E00021009861F38200ED
:103B300000900098C0F3800058B194F83D100098B0
:103B400061F3C400009094F83C10009861F34510B4
:103B50000090206C08B9A06C20B1009820F0800083
:103B600080300090E06C08B9606D20B1009820F0C2
:103B70004000403000909DF8001002A809F0B0FE0F
:103B8000218B02A809F0B2FE02A8D4E90423E1685F
:103B900009F0C4FEE07E58B102A8D4E90A23616AA4
:103BA00009F0BCFE02A8D4E90D23216B09F0B6FE92
:103BB0000098C0F3C01028B102A8D4E91123216CE9
:103BC00009F0ACFE0098C0F3801028B102A8D4E937
:103BD0001423E16C09F0A2FE0298A0EB050800BFD7
:103BE0004046BDE8FE8300004D51545400000000E3
:103BF0004D5149736470000070B504460025207A69
:103C0000032801D10C2503E0207A042800D10A25DD
:103C1000D4E90412E06800F009FA801C0544E07E53
:103C200068B1D4E90A12606A00F000FA861CD4E98F
:103C30000D12206B00F0FAF93044801C0544206C12
:103C400008B9A06C30B1D4E91112206C00F0EEF983
:103C5000801C0544E06C08B9606D30B1D4E91412E1
:103C6000E06C00F0E3F9801C0544284670BD70B597
:103C700004460D460C222946204600F0D9F870BDB6
:103C80002DE9F04F87B005460F4690461C46DDE90A
:103C900015B6DDE9109A0695002005900490039072
:103CA0000096204612A90EC900F042F80490029036
:103CB000FFF722FEB84203DD6FF00100039033E00E
:103CC000059820F0F00030300590059868F3C300A7
:103CD0000590059864F342000590059869F300008B
:103CE00005909DF8141006A809F0FAFD04990698AD
:103CF000FFF7C6FD06990844069006A812A90EC94A
:103D000009F00CFE002C03DD514606A809F0EEFD7B
:103D1000324659460698FCF7E6FA06983044069073
:103D20000698401B039000BF039807B0BDE8F08FD2
:103D30007FB50546089E002401A807C800F076F963
:103D4000801C30440444002D00DDA41C204604B037
:103D500070BD2DE9FF5F05460E4617469846DDE922
:103D60000E9A039500200290019000900024514685
:103D7000484600F046F883460190FFF7BDFDB0428B
:103D800002DDA01E009038E000208DF808000298A7
:103D900020F0F00080300290029867F3C300029098
:103DA000029820F00600801C02909DF8081003A8DD
:103DB00009F096FD01990398FFF762FD0399084405
:103DC0000390414603A809F091FD00240FE004EBA5
:103DD00044000AEB800C03A89CE80E0009F09EFD4D
:103DE000109810F8241003A809F07AFD641C4C45C3
:103DF000EDDB0398401B009000BF009804B0BDE8C5
:103E0000F09F2DE9F04105460E46022700240AE006
:103E100004EB440006EB800393E8070000F006F98A
:103E2000C01C0744641CAC42F2DB3846BDE8F0819C
:103E30002DE9FC4104460D46164600200190471E20
:103E40000094022D01DA871E15E000208DF8040091
:103E5000019866F3071001909DF80410684609F078
:103E60003FFD00210098FFF70BFD009908440090EA
:103E70000098071B00BF3846BDE8FC812DE9F041E2
:103E800005460F4616464FF0FF384446002419E019
:103E900005F1280050F8340098B105F1280151F8D7
:103EA00034003946FCF760FA58B93EB9002105F1F3
:103EB000280040F8341000EBC40041604FF00008C7
:103EC00002E0641C052CE3DB00BFCEB108F1010069
:103ED00068B9002408E005F1280050F8340010B952
:103EE0004FF0000802E0641C052CF4DB00BF052C39
:103EF00006DA05F1280040F8347000EBC400466093
:103F00004046BDE8F0812DE9FC4104460D461646C9
:103F10001F4601A83B46324629460090204600F045
:103F200002F8BDE8FC812DE9FF478AB004460E4641
:103F30001F46169D4FF0FF384FF0000900200590F6
:103F4000069007900596206A00B948E008A802F09C
:103F5000D5F908A8616802F0C9F9204604F080F993
:103F60001FFA80FA0CA805A90122CDE900210290D0
:103F700053460022A1682069FFF7EBFE8146B9F1A4
:103F8000000F00DC2BE008AA4946204607F034FB6E
:103F9000B0F1000800D022E008AA0921204609F06B
:103FA000F7F9092818D1002004902870E1686069A9
:103FB0002B4604AACDE90001012103A8FFF7DDFB90
:103FC000012808D12878802805D03A463146204675
:103FD000FFF754FF804601E04FF0FF3800BF08F1C3
:103FE000010010B92046FFF795FA40460EB0BDE833
:103FF000F0877CB504460D460026684602F07EF93F
:104000002946684602F072F900BF6946204603F06F
:1040100036FC002802DA4FF0FF3604E0684602F072
:1040200075F90028F1D000BF30467CBD37B50024BB
:10403000009820B10098FCF790F9044600E0019C3C
:1040400020463EBD1FB500200090019002900390D5
:104050001548164908604FF4803048600021134825
:1040600081600161017680F82010C162104981628F
:104070000021C1600121C161002180F830100121BF
:104080004161FDF70BFB08B1FDF7A3F90D2000908E
:10409000012001900020029069460448FDF738FA9B
:1040A00008B1FDF796F91FBD00200140540400201F
:1040B0000100000F10B5C2B000BF35A035A336A275
:1040C0004FF48071009002A802F0A6FC0446002C78
:1040D0000ADDFF2C08DC00BF002C04DD02AA21460B
:1040E00037A008F057FD00BF00BF05F009F900BF79
:1040F00027A028A334A24FF48071009002A802F0F8
:104100008BFC0446002C0ADDFF2C08DC00BF002CD1
:1041100004DD02AA21462AA008F03CFD00BF00BF32
:1041200008F0C4FC00BF1AA01AA331A24FF480719A
:10413000009002A802F070FC0446002C0ADDFF2C5F
:1041400008DC00BF002C04DD02AA21461CA008F0F8
:1041500021FD00BF00BF03F0D3F900BF0CA00DA3E9
:104160002DA24FF48071009002A802F055FC044685
:10417000002C0ADDFF2C08DC00BF002C04DD02AAA5
:1041800021460FA008F006FD00BF00BF42B010BDE1
:10419000493A00000000000025732573204652456F
:1041A0004552544F533A206372656174696E6720BB
:1041B0004D515454207461736B732E2E2E0D0A00D2
:1041C000252E2A73000000002573257320465245D2
:1041D0004552544F533A206372656174696E67208B
:1041E00054696D6572207461736B2E2E2E0D0A005A
:1041F00025732573204652454552544F533A206348
:1042000072656174696E6720434C49207461736BF9
:104210002E2E2E0D0A0000002573257320465245D0
:104220004552544F533A20616C6C207461736B7328
:1042300020637265617465642C20737461727469A3
:104240006E67207363686564756C65722E2E2E0D23
:104250000A00000000B587B0142102A8FCF75CF842
:1042600000BF002001902E48006840F004002C4957
:1042700008600846006800F00400019000BF00BF1D
:1042800000BF002001900846006840F080000860F0
:104290000846006800F08000019000BF00BF00BF2A
:1042A000002001900846006840F0010008600846C0
:1042B000006800F00100019000BF00BF00BF0020B7
:1042C00001900846006840F0020008600846006857
:1042D00000F00200019000BF00BF00221021114831
:1042E000FDF7D2FB012211020F48FDF7CDFB102094
:1042F00002900120039000200490059002A9094833
:10430000FDF7BEFA4FF48070029001200390002068
:104310000490059002A90448FDF7B2FA07B000BD69
:1043200030380240000002400008024010B50E483C
:104330000E4908604FF48270486000210B4881608C
:10434000C160016141614FF4007181610821C16167
:1043500000210162416281620A21C162FEF792F886
:1043600008B1FDF736F810BD003001409C04002074
:1043700000B587B00020039004900590069001904E
:10438000029000BF00901F48006840F001001D49E6
:1043900008600846006800F00100009000BF00BF00
:1043A00008061949086053204860002116488160BA
:1043B00040F2E731C1600021016180218161FEF797
:1043C00069FB08B1FDF705F84FF48050039003A98D
:1043D0000D48FEF7E7FB08B1FCF7FBFF002001905A
:1043E000029001A90848FEF7FBFA08B1FCF7F1FFBB
:1043F000002205211C20FDF743FC1C20FDF72CFCAE
:1044000007B000BD40380240A401002010B50B48A1
:104410000B4908604FF4E130486000210848816092
:10442000C16001610C21416100218161C161FEF720
:10443000A7FE08B1FCF7CDFF10BD0000004C004006
:10444000F404002010B50B480B4908604FF4E1302C
:104450004860002108488160C16001610C21416110
:1044600000218161C161FEF78BFE08B1FCF7B1FF4D
:1044700010BD0000004800403C05002000BFFEE7E2
:1044800000BFFEE7034901600349416003498160C1
:1044900070470000D38E00082D8F0008C98E0008D9
:1044A000416002607047014601F00F01092903DCF9
:1044B00001F13000C0B2704701F13700C0B2FAE735
:1044C0007CB504460E46154633460122022120469D
:1044D000009500F039F828B1606D40F0200060656B
:1044E00003207CBD164800681821B0FBF1F0154987
:1044F000B0FBF1F04FF47A71484301906068B0F579
:10450000827F0DD13346002280212046009500F0A5
:104510001BF898B1606D40F0200060650320E0E773
:1045200000BF019800B908E00198401E0190206882
:104530008068C0F3C0100028F3D100BF0020D0E78E
:104540001000002040420F002DE9F84F04460D46B0
:1045500090461E46DDF82890FDF79CFAA0EB090076
:10456000371AFDF797FA82462C480068C0F3CB3023
:104570007843009046E0701C002843D0FDF78AFA8B
:10458000A0EB0A00B84200D2A7BB2068406820F028
:10459000E000216848606068B0F5827F0DD1A068B6
:1045A000B0F5004F03D0A068B0F5806F05D120684A
:1045B000006820F0400021680860A06AB0F5005F44
:1045C0000DD100BF2068006820F400502168086009
:1045D0002068006840F400502168086000BF012096
:1045E00084F8510000BF002084F8500000BF032071
:1045F000BDE8F88FFFE7009808B9002702E00098AF
:10460000401E0090206880682840A84201D1012007
:1046100000E000204045AED10020E9E71000002076
:10462000C4B00025FCF7CAFC00BF73A073A374A23A
:104630004FF48071009003A802F0EEF90446002CBC
:104640000ADDFF2C08DC00BF002C04DD03AA214694
:1046500070A008F09FFA00BF00BF80216F48FBF7F1
:104660005BFEC7E00A23012243A96D48FEF752FE14
:10467000002863D16423012243A96948FEF7ACFEF8
:104680009DF80C010D2803D09DF80C010A2856D185
:1046900000BF624858A159A362A2CDE900104FF4AF
:1046A000807103A802F0B8F90446002C0ADDFF2C43
:1046B00008DC00BF002C04DD03AA214655A008F049
:1046C00069FA00BF00BF00205449485500BF4FF4AD
:1046D00000715D48FBF720FE4FF400725A494F48C5
:1046E000FCF77AFE04465848FBF737FE86B264238F
:1046F000324655494A48FEF76FFE04B900E0E6E746
:1047000000BF002580214548FBF706FE00BF3AA008
:104710003AA34EA24FF48071009003A802F07CF9F6
:104720000446002C0ADDFF2C08DC00BF002C04DD51
:1047300003AA214637A008F02DFA00BF57E09DF8E4
:104740000C0109284AD16820344908706520487056
:104750006C2088707020C8700020087104256423C4
:1047600006223EA12E48FEF737FE00BF4FF400712F
:104770003548FBF7D1FD4FF4007233492748FCF769
:104780002BFE04463048FBF7E8FD86B26423324630
:104790002D492348FEF720FE04B900E0E6E700BFFC
:1047A000002580211D48FBF7B7FD00BF12A013A311
:1047B00026A24FF48071009003A802F02DF9044660
:1047C000002C0ADDFF2C08DC00BF002C04DD03AA4E
:1047D000214610A008F0DEF900BF08E07F2D06DAC0
:1047E0009DF80C212846691C8DB20C490A540A20F8
:1047F00004F0BEFF36E70000493A00000000000068
:104800002573257320434C493A2052656164790D24
:104810000A000000252E2A7300000000F02201206B
:10482000F40400202573257320434C493A20636F1C
:104830006D6D616E64207265636569766564202DB7
:104840002025730D0A0000007023012025732573B5
:1048500020434C493A203E200D0A000068656C70E8
:104860000D0A0000ADF5167D00BF02E0642004F0E3
:104870007FFF154800780028F8D04FF4FA7144A85B
:1048800004F07AFC0028F0D100BF54A844AA0FA37A
:104890009499CDE90032CDE902100DA30DA24FF499
:1048A000807104A802F0B8F80446002C0ADDFF2C41
:1048B00008DC00BF002C04DD04AA214610A008F08B
:1048C00069F900BFD1E7000041010020493A00002A
:1048D0000000000025732573204D51545420527858
:1048E0005461736B3A20746F7069633D25732C209B
:1048F0007061796C6F61643D252E2A730D0A00008A
:10490000252E2A7300000000ADF5147D00BF02E0E3
:10491000642004F02DFF164800780028F8D04FF4EA
:10492000FA7142A804F046FE0028F0D19DF84C32FE
:1049300052A942A8929A04F0C7F80028E7D000BF15
:104940000CA00DA30DA24FF48071009002A802F0FC
:1049500063F80446002C0ADDFF2C08DC00BF002CA5
:1049600004DD02AA21460EA008F014F900BFCEE72C
:1049700041010020453A0000000000002573257326
:10498000204D5154542054785461736B3A20707503
:10499000626C697368206661696C65640D0A000069
:1049A000252E2A7300000000D6B000BFFDA0FEA394
:1049B000FEA24FF48071009012A802F02DF8119021
:1049C000119800280CDD1198FF2809DC00BF119810
:1049D000002804DD12AAFCA0119908F0DBF800BF42
:1049E00000BF00BFEFA0F0A3F9A24FF480710090C8
:1049F00012A802F011F81190119800280CDD1198FE
:104A0000FF2809DC00BF1198002804DD12AAEEA0DF
:104A1000119908F0BFF800BF00BF00BFF848007848
:104A20000B2881F00F82DFE810F00B007200DA0033
:104A30005A01A6011404E10625079207F3090E0A9C
:104A400000BFD8A0D8A3EFA24FF48071009012A8A5
:104A500001F0E2FF1190119800280CDD1198FF2859
:104A600009DC00BF1198002804DD12AAD6A0119914
:104A700008F090F800BF00BF08F090FE00BFC9A08A
:104A8000C9A3EFA24FF48071009012A801F0C4FFF7
:104A90001190119800280CDD1198FF2809DC00BF47
:104AA0001198002804DD12AAC7A0119908F072F825
:104AB00000BF00BF1022082153A8FBF726FC53A912
:104AC00053A808F0D0FD6420FCF7C6FE00BFB5A0D7
:104AD000B5A3E7A24FF48071009012A801F09CFFEB
:104AE0001190119800280CDD1198FF2809DC00BFF7
:104AF0001198002804DD12AAB3A0119908F04AF811
:104B000000BF00BF0120BE49087001F0E4B900BF3A
:104B1000A4A0A5A3E4A24FF48071009012A801F014
:104B20007BFF1190119800280CDD1198FF2809DCFB
:104B300000BF1198002804DD12AAA3A0119908F063
:104B400029F800BF00BF4FF4645001F067FE559094
:104B50005598042821D100BF92A1559892A3DFA2B5
:104B6000CDE900104FF4807112A801F055FF1190AB
:104B7000119800280CDD1198FF2809DC00BF11985E
:104B8000002804DD12AA90A0119908F003F800BFD4
:104B900000BF02209A49087020E000BFDDA15598AF
:104BA00081A3DD4ACDE900104FF4807112A801F015
:104BB00033FF1190119800280CDD1198FF2809DCB3
:104BC00000BF1198002804DD12AA7FA0119907F0F8
:104BD000E1FF00BF00BF0A208949087095E700BFC8
:104BE00070A071A3CDA24FF48071009011A801F0C4
:104BF00013FF1090109800280CDD1098FF2809DC96
:104C000000BF1098002804DD11AA6FA0109907F0CA
:104C1000C1FF00BF00BF08F043FEC0B251905198E1
:104C200001283BD100BF5FA05FA3CC4A4FF4807145
:104C3000009011A801F0F0FE1090109800280CDDF3
:104C40001098FF2809DC00BF1098002804DD11AA85
:104C50005DA0109907F09EFF00BF00BF00BF51A0EC
:104C600051A3BFA24FF48071009011A801F0D4FEAF
:104C70001090109800280CDD1098FF2809DC00BF68
:104C80001098002804DD11AA4FA0109907F082FFA8
:104C900000BF00BF03205A4908701FE000BFBDA03D
:104CA00041A3BD4A4FF48071009011A801F0B4FEF9
:104CB0001090109800280CDD1098FF2809DC00BF28
:104CC0001098002804DD11AA3FA0109907F062FF98
:104CD00000BF00BF4FF47A7004F04AFD15E700BF33
:104CE00030A031A3ADA24FF48071009012A801F062
:104CF00093FE1190119800280CDD1198FF2809DC13
:104D000000BF1198002804DD12AA2FA0119907F006
:104D100041FF00BF00BFAF490020FCF76BF9AE4A6E
:104D2000AE49AF4806F0D8FA0020AE490860FCF75B
:104D3000B1FEAD49086000BF1AA01BA3AB4A4FF4F7
:104D40008071009012A801F067FE11901198002860
:104D50000CDD1198FF2809DC00BF1198002804DD44
:104D600012AA19A0119907F015FF00BF00BF042077
:104D700023490870C9E6FCF78DFE9B490968401A73
:104D8000B0F57A7F05D3FCF785FE9749086003F0FC
:104D9000D3F8FCF79FF952905298062800D227E1E9
:104DA00034E20000493A000000000000257325733A
:104DB000204E6574776F726B5461736B3A20737415
:104DC00061727465640D0A00252E2A7300000000CC
:104DD00025732573204E6574776F726B5461736B06
:104DE0003A20656E746572696E67207374617465CC
:104DF000206D616368696E652E2E2E0D0A0000001D
:104E00004001002025732573204E45545F535441C3
:104E100054455F494E49543A205265676973746539
:104E200072696E6720573535303020535049206302
:104E3000616C6C6261636B732E2E2E0D0A00000094
:104E400025732573204E45545F53544154455F49A3
:104E50004E49543A20496E697469616C697A696E89
:104E6000672057353530302E2E2E0D0A00000000F9
:104E700025732573204E45545F53544154455F4973
:104E80004E49543A20573535303020696E6974697F
:104E9000616C697A6174696F6E20636F6D706C65A7
:104EA00074650D0A0000000025732573204E4554DB
:104EB0005F53544154455F57353530305F43484563
:104EC000434B3A2052656164696E672056455253E0
:104ED000494F4E522E2E2E0D0A00000025732573C9
:104EE000204E45545F53544154455F57353530305B
:104EF0005F434845434B3A205735353030204F4BC0
:104F0000212056455253494F4E523D30782530327C
:104F1000580D0A00453A000038E90008257325734A
:104F2000204E45545F53544154455F5048595F4C9F
:104F3000494E4B5F434845434B3A20436865636B9A
:104F4000696E6720504859206C696E6B20737461DC
:104F50007475732E2E2E0D0A0000000084E90008DF
:104F600025732573204E45545F53544154455F507B
:104F700048595F4C494E4B5F434845434B3A205597
:104F800073696E672044484350206D6F64650D0A55
:104F900000000000573A000010EA0008257325734E
:104FA000204E45545F53544154455F444843505F3D
:104FB00053544152543A205374617274696E67209D
:104FC0004448435020636C69656E742E2E2E0D0A82
:104FD00000000000F01E0120AD7D00081D7E0008CD
:104FE0005D7B00084C010020480100205CEA0008BD
:104FF000DFE800F0C66C032649EA00BFAFF25C2090
:10500000AFF25C23FE4A4FF48071009012A801F0C9
:1050100003FD1190119800280DDD1198FF280ADC7E
:1050200000BF1198002805DD12AAAFF26420119983
:1050300007F0B0FD00BF00BF0620F249087006E18E
:1050400000BFAFF2A020AFF2A023EFA24FF4807117
:10505000009012A801F0E0FC1190119800280DDDDD
:105060001198FF280ADC00BF1198002805DD12AA5C
:10507000AFF2AC20119907F08DFD00BF00BF0620F4
:10508000E0490870E3E000BFAFF2E820AFF2E823A8
:10509000EDA24FF48071009012A801F0BDFC1190B8
:1050A000119800280DDD1198FF280ADC00BF119827
:1050B000002805DD12AAAFF2F020119907F06AFD71
:1050C00000BF00BF0620CF490870C0E0EE4800686E
:1050D0000A21B0FBF1F201FB120018BB00BFEA4845
:1050E0000068B0FBF1F0AFF244311090E5A3E7A205
:1050F000CDE900104FF4807112A801F08DFC1190E1
:10510000119800280DDD1198FF280ADC00BF1198C6
:10511000002805DD12AAAFF25030119907F03AFDD0
:1051200000BF00BFD8480068401CD7490860084647
:105130000068B0F5167F22D900BFAFF22820D1A3B6
:10514000E0A24FF48071009012A801F065FC11906C
:10515000119800280DDD1198FF280ADC00BF119876
:10516000002805DD12AAAFF2A030119907F012FD58
:1051700000BF00BFFCF79AF80A20A249087066E059
:1051800000BFAFF27020BFA3DDA24FF4807100908A
:1051900012A801F041FC1190119800280DDD119822
:1051A000FF280ADC00BF1198002805DD12AAAFF223
:1051B000E830119907F0EEFC00BF00BFFCF776F86D
:1051C0000A209049087042E000BFAFF23820ADA33A
:1051D000D5A24FF48071009012A801F01DFC11902F
:1051E000119800280DDD1198FF280ADC00BF1198E6
:1051F000002805DD12AAAFF23040119907F0CAFC71
:1052000000BF00BF0A207F49087020E000BFAFF256
:105210007C2152989BA3CEA2CDE900104FF480715F
:1052200012A801F0F9FB1190119800280DDD1198DA
:10523000FF280ADC00BF1198002805DD12AAAFF292
:105240007840119907F0A6FC00BF00BF00BF00BF67
:105250005BE400BFAFF2B4408AA3CAA24FF48071EE
:10526000009008A801F0D8FB0790079800280DDDF2
:105270000798FF280ADC00BF0798002805DD08AA68
:10528000AFF2BC40079907F085FC00BF00BF0020CB
:105290008DF8300108208DF83101DC208DF83201C5
:1052A00012208DF8330134208DF8340156208DF80A
:1052B00035014BA84AA949AB48AACDE90010BFA1C6
:1052C000C1A0FBF777F84898C0B28DF8360149982D
:1052D000C1B24CA8C1714A98C1B24CA801724B9896
:1052E000C1B24CA841724BA84AA949AB48AACDE922
:1052F0000010B2A1B8A0FBF75DF84898C0B28DF8D5
:105300003A014998C1B24CA8C1724A98C1B24CA89E
:1053100001734B98C1B24CA841734BA84AA949AB41
:1053200048AACDE90010A5A1AFA0FBF743F8489823
:10533000C0B28DF83E014998C1B24CA8C1734A98D9
:10534000C1B24CA801744B98C1B24CA841744BA88F
:105350004AA949AB48AACDE9001098A1A5A0FBF73E
:1053600029F84898C0B28DF842014998C1B24CA8BA
:10537000C1744A98C1B24CA801754B98C1B24CA8EF
:1053800041754CA9002002F052FA00BFAFF2EC5078
:105390003CA39AA24FF48071009008A801F03CFB56
:1053A0000790079800280DDD0798FF280ADC00BF4A
:1053B0000798002805DD08AAAFF2F450079907F016
:1053C000E9FB00BF00BF00BF9DF835019DF8341117
:1053D0009DF833219DF83231CDE90332CDE9051036
:1053E0009DF831019DF83011AFF2486225A3CDE957
:1053F0000021029091A24FF4807108A834E10000CE
:10540000A0EA00084001002025732573204E455472
:105410005F53544154455F444843505F52554E3AA0
:1054200020444843505F49505F4348414E474544FC
:10543000202D20495020616464726573732075705B
:1054400064617465640D0A0025732573204E45540C
:105450005F53544154455F444843505F52554E3A60
:1054600020444843505F49505F4C454153454420D8
:105470002D204950206C656173652072656E6577DB
:1054800065640D0A000000004C010020257325739F
:10549000204E45545F53544154455F444843505F48
:1054A00052554E3A20444843502072756E6E696ED4
:1054B000672E2E2E202872657472793D2564290D81
:1054C0000A00000025732573204E45545F53544154
:1054D00054455F444843505F52554E3A2044484338
:1054E000502074696D656F757420616674657220F3
:1054F0003630207365636F6E64730D0A0000000020
:1055000025732573204E45545F53544154455F44E1
:105510004843505F52554E3A2044484350206661FC
:10552000696C6564210D0A0025732573204E45546E
:105530005F53544154455F444843505F52554E3A7F
:1055400020444843502073746F707065640D0A00E6
:1055500025732573204E45545F53544154455F4491
:105560004843505F52554E3A20556E6B6E6F776EC2
:10557000204448435020726573756C743A2025644A
:105580000D0A000025732573204E45545F53544186
:1055900054455F4E45545F434F4E4649473A20437A
:1055A0006F6E6669677572696E672073746174697E
:1055B000632049502E2E2E0D0A00000025642E2552
:1055C000642E25642E2564003139322E3136382E72
:1055D000312E3838000000003235352E3235352E68
:1055E0003235352E300000003139322E3136382E2A
:1055F000312E3100382E382E382E38002573257381
:10560000204E45545F53544154455F4E45545F43CB
:105610004F4E4649473A205374617469632049509C
:1056200020636F6E66696775726564207375636366
:1056300065737366756C6C79210D0A00257325738B
:105640002020204D41433A20253032583A2530322F
:10565000583A253032583A253032583A25303258A7
:105660003A253032580D0A0001F0D6F90790079814
:1056700000280DDD0798FF280ADC00BF07980028E6
:1056800005DD08AAAFF6C000079907F083FA00BF4E
:1056900000BF00BF4CA8417A007A4CAAD2799DF88D
:1056A0003631CDE90132CDE90301AFF60810AFF292
:1056B0002C23FEA24FF48071009008A801F0ACF9F1
:1056C0000790079800280DDD0798FF280ADC00BF27
:1056D0000798002805DD08AAAFF61410079907F00F
:1056E00059FA00BF00BF00BF4CA8407B4CA9097B02
:1056F0004CAAD27A9DF83A31CDE90132CDE90310B6
:10570000AFF66010AFF28423EFA24FF480710090E7
:1057100008A801F081F90790079800280DDD079887
:10572000FF280ADC00BF0798002805DD08AAAFF6AD
:105730006810079907F02EFA00BF00BF00BF4CA801
:10574000407C4CA90A7CC97B9DF83E31CDE90131F2
:10575000CDE90320AFF6B410AFF2D823E1A24FF4A5
:105760008071009008A801F057F907900798002869
:105770000DDD0798FF280ADC00BF0798002805DD2B
:1057800008AAAFF6BC10079907F004FA00BF00BFE3
:1057900000BF4CA8417D007D4CAAD27C9DF84231CF
:1057A000CDE90132CDE90301AFF60820AFF22C3389
:1057B000D3A24FF48071009008A801F02DF9079052
:1057C000079800280DDD0798FF280ADC00BF07981E
:1057D000002805DD08AAAFF61020079907F0DAF9CE
:1057E00000BF00BF0620CD49087074E300BFAFF6CC
:1057F0004C20AFF27033CAA24FF48071009012A80F
:1058000001F00AF91190119800280DDD1198FF2878
:105810000ADC00BF1198002805DD12AAAFF6582057
:10582000119907F0B7F900BF00BF03F027F900BFD7
:10583000AFF69020AFF2B433C7A24FF4807100905E
:1058400012A801F0E9F81190119800280DDD1198C7
:10585000FF280ADC00BF1198002805DD12AAAFF668
:105860009820119907F096F900BF00BF0720AB49B7
:10587000087030E300BF40F25B70C4A1AFF6DC22D9
:10588000AFF20043CDE900210290C44A4FF4807189
:1058900012A801F0C1F81190119800280DDD11989F
:1058A000FF280ADC00BF1198002805DD12AAAFF618
:1058B000E820119907F06EF900BF00BF02F0EAFF7F
:1058C00010B300BFAFF6B410AFF24843B4A24FF428
:1058D0008071009012A801F09FF811901198002893
:1058E0000DDD1198FF280ADC00BF1198002805DDA6
:1058F00012AAAFF62C30119907F04CF900BF00BF87
:105900000A208649087021E000BFAFF66830AFF288
:105910008C43B1A24FF48071009012A801F07CF882
:105920001190119800280DDD1198FF280ADC00BFA6
:105930001198002805DD12AAAFF67430119907F00E
:1059400029F900BF00BF082074490870C3E200BFF6
:10595000B1A0AFF6B031AFF2D443B2A2CDE900109E
:105960004FF4807112A801F057F811901198002897
:105970000DDD1198FF280ADC00BF1198002805DD15
:1059800012AAAFF6BC30119907F004F900BF00BFAE
:10599000B44A0121A0A003F055F910B300BFAFF63F
:1059A0008C20AFF22053B0A24FF48071009012A867
:1059B00001F032F81190119800280DDD1198FF28A0
:1059C0000ADC00BF1198002805DD12AAAFF60840D6
:1059D000119907F0DFF800BF00BF0A204F49087097
:1059E00015E200BF8CA0AFF64441AFF26853AB4A5A
:1059F000CDE900104FF4807112A801F00DF811905C
:105A0000119800280DDD1198FF280ADC00BF1198BD
:105A1000002805DD12AAAFF65040119907F0BAF838
:105A200000BF00BF00BFAFF68440AFF2A8539CA2F6
:105A30004FF48071009012A800F0EEFF11901198C1
:105A400000280DDD1198FF280ADC00BF11980028FE
:105A500005DD12AAAFF69040119907F09BF800BF40
:105A600000BF00BFAFF6C440AFF2E85398A24FF4B6
:105A70008071009012A800F0CFFF119011980028BB
:105A80000DDD1198FF280ADC00BF1198002805DD04
:105A900012AAAFF6CC40119907F07CF800BF00BF06
:105AA00000BF40F25B7039A12AE100002573257325
:105AB00020202049503A202025642E25642E25647C
:105AC0002E25640D0A000000257325732020205325
:105AD0004E3A202025642E25642E25642E25640D43
