:020000040800F2
:10000000D081002061020008D92900088F2700084C
:10001000D5290008B9090008A5390008000000002A
:10002000000000000000000000000000A101000826
:10003000B50A000800000000FD010008E5320008D4
:100040007B0200087B0200087B0200087B0200089C
:100050007B0200087B0200087B0200087B0200088C
:100060007B0200087B0200087B0200087B0200087C
:100070007B0200087B0200087B0200087B0200086C
:100080007B0200087B0200087B0200087B0200085C
:100090007B0200087B0200087B0200087B0200084C
:1000A0007B020008E13300087B0200087B020008A5
:1000B0007B0200087B0200087B0200087B0200082C
:1000C0007B0200087B0200087B0200087B0200081C
:1000D0007B0200087B0200087B02000895390008BB
:1000E0007B0200087B0200087B0200087B020008FC
:1000F0007B0200087B0200087B0200087B020008EC
:100100007B0200087B0200087B0200087B020008DB
:10011000D13400087B0200087B0200087B02000843
:100120007B0200087B0200087B0200087B020008BB
:100130007B02000800000000000000007B020008B5
:100140007B0200087B0200087B0200087B0200089B
:100150007B0200087B0200087B0200087B0200088B
:100160007B0200087B0200087B0200087B0200087B
:100170007B0200087B020008000000000000000075
:100180007B0200087B020008DFF810D000F0E2FAE2
:1001900000480047D54A0008AFF30080D081002016
:1001A0002C4B19680868B0E8F04F80F30988BFF35A
:1001B0006F8F4FF0000080F311887047000000003F
:1001C00008480068006880F308884FF0000080F35A
:1001D000148862B661B6BFF34F8FBFF36F8F00DF35
:1001E00000BF00BF08ED00E0DFF80C00016841F43B
:1001F00070010160704700BF88ED00E0EFF30980F7
:10020000BFF36F8F134B1A681EF0100F08BF20ED5D
:10021000108A20E9F04F106009B44FF0500080F3CD
:100220001188BFF34F8FBFF36F8F06F04FFC4FF075
:10023000000080F3118809BC19680868B0E8F04F25
:100240001EF0100F08BFB0EC108A80F30988BFF3CE
:100250006F8F70471C000020EFF30580704700008F
:100260000648804706480047FEE7FEE7FEE7FEE750
:10027000FEE7FEE7FEE7FEE7FEE7FEE7CD33000818
:10028000890100082DE9F05F0546002092469B4653
:1002900088460646814640241BE02846414647469C
:1002A000224600F08FF853465A46C01A914110D3A7
:1002B00011461846224600F076F82D1A67EB010821
:1002C0004F4622460120002100F06DF817EB00098F
:1002D0004E41201EA4F10104DFDC484631462A4687
:1002E0004346BDE8F09F40EA01039B0703D009E0C5
:1002F00008C9121F08C0042AFAD203E011F8013B12
:1003000000F8013B521EF9D27047D2B201E000F86A
:10031000012B491EFBD270470022F6E710B51346A9
:100320000A4604461946FFF7F0FF204610BD10B5F7
:10033000044604E00B7800F8013B03B1491C521E4F
:10034000F8D2204610BDCAB2401E10F8011F8A42E2
:1003500002D00029F9D100207047421C10F8011B7F
:100360000029FBD1801A7047034611F8012B00F8D1
:10037000012B002AF9D11846704730B50B460146CB
:1003800000202022012409E021FA02F59D4205D334
:1003900003FA02F5491B04FA02F52844151EA2F1DE
:1003A0000102F1DC30BD202A04DB203A00FA02F120
:1003B000002070479140C2F1200320FA03F3194353
:1003C00090407047202A04DB203A21FA02F00021F5
:1003D000704721FA02F3D040C2F120029140084355
:1003E000194670472DE9FE4F804681EA0300C00F91
:1003F0000C46009021F0004123F00045B8EB0200CC
:10040000A94105D24046214690461C460B4602466D
:1004100023F00040104347D0270DC7F30A00C3F371
:100420000A510290401A019040286BDAC3F313007E
:1004300040F4801B0098924620B10023D2EB030ABF
:1004400063EB0B0B01985946C0F140025046FFF791
:10045000AAFF06460D4650465946019A00F08CF90F
:1004600010EB08006141002487EA115284EAE77327
:100470001A4340D0009A62B3019A012A4FEA075208
:1004800015DC001B61EB02014FF0004202EA07524B
:10049000CDE90042001C41F5801132462B4600F0A8
:1004A0008CF903B0BDE8F08F40462146F9E7001B08
:1004B00061EB0201001C41F5801300185B4120181C
:1004C000A2F5001747EB030140EAD570B6196D415C
:1004D00011E06D084FEA360645EAC0754FEA07524B
:1004E000001B61EB0201001C41F5801149084FEA35
:1004F00030000019514132462B4603B0BDE8F04FA1
:1005000000F04CB90098012240000023D0EB020219
:1005100063EBE073009821464FEAE074B8EB00000B
:1005200061EB0401E9E783F000435BE781F0004100
:1005300058E72DE9FE4F81EA030404F0004421F05E
:10054000004100944FF0000B23F0004350EA0104F7
:100550005ED052EA03045BD0C3F30A54C1F30A55D8
:100560002C44A4F2F3340194A0FB0254C1F3130110
:1005700041F48011C3F3130343F4801301FB0244DD
:1005800000FB034E840A970A44EA815447EA8357E2
:10059000A4FB076802958D0A05FB07854FEA932C9B
:1005A00004FB0C542705029D4FEA065847EA16370C
:1005B000B5EB08056EEB070C870E920E47EA811724
:1005C00042EA8312A7FB0201B6EB0B0164EB0004C5
:1005D0002B0D43EA0C335E1844EB1C50DA465146AF
:1005E000E7FB0201C5F313044FEA0B3343EA14534C
:1005F0004FEA0432019C43EA0603A4F10C0402947E
:10060000009CCDE900B400F0D8F803B0BDE8F08F4D
:1006100000200146F9E72DE9F04D81EA030404F0DA
:10062000004B21F0004514464FF0000A23F0004132
:1006300050EA050220D054EA01021DD0C5F30A5742
:100640000246C5F31303C1F31300C1F30A5640F485
:10065000801543F48013A7EB0608101BD64608F25A
:10066000FD3873EB050002D308F1010801E0921890
:100670005B41B8F1000F03DA00200146BDE8F08DC0
:1006800000204FF48011064684460EE0171B73EBE2
:10069000050705D3121B63EB050306434CEA010C67
:1006A00049084FEA300092185B4150EA0107EDD14A
:1006B00052EA030012D082EA040083EA05010843EB
:1006C00005D0101BAB4106D20122002306E0002218
:1006D0004FF0004302E06FF0010253101AEB0600E6
:1006E0004CEB085110EB0A0041EB0B01BDE8F04D5B
:1006F00000F054B8C1F30A52C1F3130140F2FF33C2
:1007000041F480119A4202DA00200146704740F21B
:1007100033439A42A2F2334202DC5242FFF752BE06
:10072000FFF741BE30B5041E71F1000404DB4FF049
:100730000044404264EB0101141E73F1000405DB28
:100740001C464FF00043524263EB0403994208BF3A
:10075000904230BD064C074D06E0E06840F00103D2
:1007600094E8070098471034AC42F6D3FFF710FD29
:100770003876000858760008202A06DBCB17203A86
:1007800041FA02F043EAE07306E041FA02F3D04096
:10079000C2F12002914008431946704710B5141E5B
:1007A00073F1000408DA401C41F1000192185B412A
:1007B0001A4301D120F0010010BD2DE9F04D924601
:1007C0009B4611B1B1FA81F202E0B0FA80F2203218
:1007D0009046FFF7E8FD04460F4640EA0A0041EA6A
:1007E0000B0153465A46084313D0114653EA010001
:1007F00019D0C8F140025046FFF7E4FD05460E4609
:10080000504659464246FFF7CEFD084305D0012029
:1008100004E020463946BDE8F08D0020054346EA55
:10082000E0762C4337430A986305E40AA0EB0800FE
:100830000022FD0A44EA47540A3002D5002001464E
:10084000E9E7010510196941DDE908450019694129
:10085000BDE8F04DA2E7000055494A6822F4403255
:100860004A604A6843681A434A600268526822F440
:10087000807203685A6002685368026943EA022280
:1008800003685A600268526822F0407203685A6036
:100890000268526883681A4303685A600268926863
:1008A00022F4006203689A6002689268C3681A437F
:1008B00003689A603F4B826A9A4218D00268926835
:1008C00022F0706203689A6002689268836A1A4331
:1008D00003689A600268926822F0405203689A6046
:1008E00002689268C36A1A4303689A600BE0026860
:1008F000926822F0706203689A600268926822F03F
:10090000405203689A600268926822F0020203680B
:100910009A6002689368027E43EA420203689A6022
:100920002022125CA2B10268526842F4006203689D
:100930005A600268526822F4604203685A60026892
:100940005368426A521E43EA423203685A6005E025
:100950000268526822F4006203685A600268D26A30
:1009600022F470020368DA620268D36A828B521E34
:1009700043EA02520368DA620268926822F4007263
:1009800003689A600268936890F8302043EA422234
:1009900003689A600268926822F4806203689A6031
:1009A00002689368426943EA822203689A6070474A
:1009B000002301400100000F00BFFEE7044A107051
:1009C000044A116041F22212034B1A807047000062
:1009D000E8000020E4000020EA0000202DE9F043B8
:1009E00089B005460F46904600202E4908702E49D2
:1009F000086000231A4602212C48007805F0EAFA24
:100A00004FF480732A4839460268002003F068FFDB
:100A100086B235202B46324600902548016823488F
:100A2000007805F0C3FA35E02048007803F0E5FFD0
:100A3000061E17DDB6F5807F01DD4FF4807602A833
:100A400003AB324600901A4801681848007805F058
:100A5000E5F886B242461648016804A804F071F928
:100A6000814618E003F04EFD0446002C07DA0F48DB
:100A7000007803F065FD002009B0BDE8F0834CB9B3
:100A800035202B4632460090094801680748007817
:100A900005F08CFAC8E700BF0448007803F050FD69
:100AA0004846E9E7F0000020EC000020E8000020C4
:100AB000E4000020704772B600BFFEE738B502467A
:100AC0000020009000BF92F83C00012801D10220D4
:100AD00038BD012082F83C0000BF0868092816D9FB
:100AE0001068C0680C780A3C04EB44050724AC404D
:100AF000A0431468E0600C780A3C04EB4404886866
:100B0000A0401468E46820431468E06013E01068B3
:100B100000690C7804EB44050724AC40A04314683A
:100B200020610C7804EB44048868A04014682469B0
:100B30002043146820614868072817D21068406B6A
:100B40000C79641E04EB84051F24AC40A043146898
:100B50006063088880B20C79641E04EB8404A040B2
:100B60001468646B20431468606331E048680D28A2
:100B700017D21068006B0C79E41F04EB84051F2466
:100B8000AC40A04314682063088880B20C79E41F4D
:100B900004EB8404A0401468246B20431468206391
:100BA00016E01068C06A0C790D3C04EB84051F2424
:100BB000AC40A0431468E062088880B20C790D3C18
:100BC00004EB8404A0401468E46A20431468E062E3
:100BD000194B1A4C1068A04206D10868122803D19C
:100BE000586840F480005860144C1068A0421CD132
:100BF0000868102802D00868112816D1586840F4F7
:100C000000005860086810280FD10D4800680D4C8E
:100C1000B0FBF4F000EB80004000009002E0009890
:100C2000401E009000980028F9D100BF002082F8F3
:100C30003C0000BF00BF4BE7002301400020014003
:100C40001800002040420F0070B5044600250CB982
:100C5000012070BD1549A06A884200D000BF206CF9
:100C600030B9204600F024F80020606484F83C008D
:100C7000206C00F0100088B9206C20F4885040F0FF
:100C8000020020642046FFF7E7FD00206064206C2E
:100C900020F0020040F00100206400E0012500BFC8
:100CA000002084F83C0000BF2846D2E70100000F76
:100CB00010B586B00446142101A8FFF72DFB194991
:100CC000206888422BD100BF0020009016480068A1
:100CD00040F48070144908600846006800F4807091
:100CE000009000BF00BF00BF002000900E481438E5
:100CF000006840F004000C49143908600846006898
:100D000000F00400009000BF00BF08200190032005
:100D100002900020039001A9044800F087F806B073
:100D200010BD00000020014044380240000802408D
:100D300070B50446A56D00F083F9064694F83500B9
:100D4000022808D08020606500BF002084F83400AD
:100D500000BF012070BD2068006820F016002168E7
:100D600008602068406920F0800021684861206C9C
:100D700008B9A06C28B12068006820F0080021683C
:100D800008602068006820F001002168086010E019
:100D900000F056F9801B05280BD920206065032040
:100DA00084F8350000BF002084F8340000BF032021
:100DB000D0E72068006800F001000028E8D194F82E
:100DC0005C103F208840A860012084F8350000BFF7
:100DD000002084F8340000BF00BFBBE7014691F853
:100DE0003500022803D08020486501207047052087
:100DF00081F835000868006820F001000A6810607A
:100E00000020F3E770B5044600F01AF906462546BF
:100E1000681C10B104480078054400BF00F010F9C8
:100E2000801BA842FAD370BD14000020F8B502461A
:100E30000B460025002400200021D6E0012606FAFA
:100E400001F51E6806EA0504AC4274D11E7906F06D
:100E50000306012E04D01E7906F00306022E13D1DC
:100E600090684F000326BE40B0434F00DE68BE408E
:100E700030439060506801268E40B0431E79C6F31F
:100E800000168E40304350601E7906F00306032E94
:100E900009D0D0684F000326BE40B0434F009E6883
:100EA000BE403043D0601E7906F00306022E13D1F7
:100EB000CF0802F1200656F827004E07F70E0F263E
:100EC000BE40B0434F07FF0E1E69BE403043CF08FF
:100ED00002F1200646F8270010684F000326BE40A6
:100EE000B0431E7906F003064F00BE403043106049
:100EF0005E6806F44036002E76D000BF00260096CD
:100F00003C4E366846F480463A4F3E603E46366870
:100F100006F48046009600BF00BF374E8F0856F893
:100F200027008E07370F0F26BE40B043334EB24224
:100F300002D1002624E057E0314EB24201D1012611
:100F40001EE0304EB24201D1022619E02E4EB242CE
:100F500001D1032614E02D4EB24201D104260FE048
:100F60002B4EB24201D105260AE02A4EB24201D1EF
:100F7000062605E0284EB24201D1072600E00826E9
:100F80008F073F0FBE4030431B4E8F0846F82700A7
:100F9000224E3068A0435E6806F4801606B12043F6
:100FA0001E4E3060361D3068A0435E6806F40016A1
:100FB00006B12043194E361D3060184E361F30687A
:100FC000A0435E6806F4003606B12043134E361F78
:100FD0003060361F3068A0435E6806F4803606B184
:100FE00020430E4E083E3060491C1029FFF426AF06
:100FF000F8BD0000443802400838014000000240BB
:101000000004024000080240000C024000100240B0
:101010000014024000180240001C0240083C01403D
:1010200010B5426921EA020302EA010443EA0443DB
:10103000836110BD0AB1816101E00B0483617047D7
:1010400001480068704700000C00002070B504469D
:101050000CB9012070BD4CF6CC402168086045F207
:10106000555021680860D4E9001048602168A068E4
:101070008860FFF7E5FF05460DE0FFF7E1FF401B45
:1010800041F60101884206D92068C06800F00300DB
:1010900008B10320DEE72068C06800F003000028E4
:1010A000EBD14AF6AA20216808600020D2E7014669
:1010B0004AF6AA200A6810600020704703480068BA
:1010C0000349097808440149086070470C00002072
:1010D0001400002010B50D48006840F400700B4962
:1010E00008600846006840F48060086008460068B0
:1010F00040F480700860032000F0D6F80F2000F064
:1011000007F800F055F8002010BD0000003C024038
:10111000F0B587B004460026002700BF00200090ED
:101120001E48006840F001001C490860084600683D
:1011300000F00100009000BF00BF01A902A800F06C
:1011400089F900F0BFF946001548B6FBF0F0471EDC
:1011500014481549086040F2E7311348C160476000
:10116000002101618160816100F00FFF054695B9A2
:101170000D4800F03FFF05466DB9192000F042F818
:10118000102C07D200222146192000F04FF8074802
:10119000046000E00125284607B0F0BD4438024055
:1011A00040420F0000000140840400201000002095
:1011B00008B500BF002000901148006840F480404E
:1011C0000F4908600846006800F48040009000BFA6
:1011D00000BF00BF00200090081F006840F0805052
:1011E000091F08600846006800F08050009000BFAA
:1011F00000BF00220F21901E00F018F808BD00006B
:10120000443802400146084600280DDB00BF00BFFD
:1012100000F01F0301229A4043099B0003F1E023E1
:10122000C3F8002100BF00BF00BF70472DE9F05F89
:1012300080460D461646002702F0E8FC0746394670
:101240002A46334601F00700C0F1070ABAF1040F3D
:1012500002D94FF0040A01E0C0F1070AD14600F1BB
:10126000040ABAF1070F02D24FF0000A01E0A0F120
:10127000030AD4464FF0010A0AFA09FAAAF1010A50
:101280000AEA020A0AFA0CFA4FF0010B0BFA0CFBFD
:10129000ABF1010B0BEA030B4AEA0B042146404673
:1012A00002F0BCFCBDE8F09F00BF00F00702064B57
:1012B00019684FF6FF031940044B0B4343EA022120
:1012C000014B196000BF70470CED00E00000FA050B
:1012D00070B504460D460CB9012070BD5848006831
:1012E00000F00700A84209D255490D700846006871
:1012F00000F00700A84201D00120EEE7207800F0BE
:10130000020002281DD1207800F00400042805D135
:101310004C48006840F4E0504A490860207800F0EA
:101320000800082805D14748006840F46040454956
:1013300008604448006820F0F000A1680843414973
:101340000860207800F00100A8B36068012807D188
:101350003C4808380068C0F34040B8B90120BCE7F9
:101360006068022802D06068032807D13548083831
:101370000068C0F3406048B90120AEE73148083842
:101380000068C0F3400008B90120A6E72D480068B6
:1013900020F00300616808432A490860FFF750FE07
:1013A000064609E0FFF74CFE801B41F28831884277
:1013B00002D9032091E707E02248006800F00C0002
:1013C0006168B0EB810FEDD11D48006800F00700A7
:1013D000A84209D91A490D700846006800F00700B4
:1013E000A84201D0012078E7207800F0040004280A
:1013F00007D11448006820F4E050E168084311491F
:101400000860207800F00800082808D10D4800681E
:1014100020F46040216940EAC1000A49086000F0F8
:1014200061F808490968C1F30311074A515CC840D3
:101430000649086006480068FFF76AFE00204CE78E
:10144000003C0240083802400876000818000020DE
:10145000100000200F2202600D4A126802F0030201
:1014600042600B4A126802F0F0028260084A126879
:1014700002F4E052C260064A126802F46042D208E6
:101480000261044A126802F007020A607047000015
:1014900008380240003C02400148006870470000E4
:1014A0001800002000B5FFF7F7FF04490968C1F3F1
:1014B0008221034A515CC84000BD00000838024048
:1014C0001876000800B5FFF7E7FF04490968C1F383
:1014D0004231034A515CC84000BD00000838024058
:1014E000187600082DE9F047002400250026A146C3
:1014F0002548006800F00C0020B1042805D0082819
:101500003AD105E0DFF8849039E0DFF8849036E0E6
:101510001D48001F006800F03F041B48001F0068C2
:1015200000F4800078B11A481749091F0968C1F30F
:101530008811A0FB01700146224600233846FEF7C1
:10154000A1FE05460EE011480F49091F0968C1F3C5
:101550008811A0FB01700146224600233846FEF7A1
:1015600091FE05460848001F0068C0F30140401C7A
:101570004600B5FBF6F902E0DFF8109000BF00BFAF
:101580004846BDE8F0870000083802400024F40017
:1015900000127A00F8B504460CB90120F8BD207895
:1015A00000F00100002874D0F948006800F00C0039
:1015B00004280DD0F648006800F00C00082813D16C
:1015C000F348001F006800F48000B0F5800F0BD1D5
:1015D000EF4808380068C0F34040002859D06068E0
:1015E000002856D10120D9E700BF6068B0F5803FE0
:1015F00008D1E7480838006840F48030E4490839E9
:1016000008601EE06068B0F5A02F0DD1E0480838F2
:10161000006840F48020DE49083908600846006808
:1016200040F4803008600CE0D9480838006820F4A5
:101630008030D749083908600846006820F48020C7
:10164000086000BF606890B1FFF7FAFC054606E04D
:10165000FFF7F6FC401B642801D903209EE7CC4825
:1016600008380068C0F340400028F1D011E0FFF7CF
:10167000E7FC054606E0FFF7E3FC401B642801D9C0
:1016800003208BE7C24808380068C0F340400028B8
:10169000F1D1207800F0020002285FD1BC48006838
:1016A00000F00C0058B1BA48006800F00C0008289F
:1016B0001CD1B748001F006800F48000B0B9B448DE
:1016C00008380068C0F3400020B1E068012801D06C
:1016D000012063E7AE480838006820F0F80021696F
:1016E00040EAC100AA490839086037E0E06800B361
:1016F0000120A8490860FFF7A3FC054606E0FFF7B4
:101700009FFC401B022801D9032047E7A048083866
:101710000068C0F340000028F1D09D4808380068F8
:1017200020F0F800216940EAC100994908390860B1
:1017300014E0002097490860FFF782FC054606E0A8
:10174000FFF77EFC401B022801D9032026E79048C2
:1017500008380068C0F340000028F1D1207800F07C
:10176000080008282CD16069A8B101208A490860C6
:10177000FFF766FC054606E0FFF762FC401B022807
:1017800001D903200AE782486C300068C0F34000AA
:101790000028F1D014E000207F490860FFF750FCDA
:1017A000054606E0FFF74CFC401B022801D9032048
:1017B000F4E677486C300068C0F340000028F1D1AF
:1017C000207800F00400042870D1002770483830D9
:1017D000006800F0805090B900BF002000906C4875
:1017E0003830006840F08050694938310860084658
:1017F000006800F08050009000BF00BF01276748DC
:10180000006800F48070B0B96448006840F48070EB
:1018100062490860FFF714FC054606E0FFF710FC7C
:10182000401B022801D90320B8E65C48006800F498
:1018300080700028F2D000BFA068012808D1544869
:101840006830006840F001005149683108601DE0CF
:10185000A06805280DD14E486830006840F00400AB
:101860004B49683108600846006840F00100086094
:101870000CE047486830006820F0010044496831B6
:1018800008600846006820F00400086000BFA068F7
:10189000A8B1FFF7D5FB054609E0FFF7D1FB401BD8
:1018A00041F28831884202D9032077E626E03848A1
:1018B00068300068C0F340000028EED013E0FFF766
:1018C000BFFB054608E0FFF7BBFB401B41F2883138
:1018D000884201D9032061E62D4868300068C0F3D2
:1018E00040000028EFD1012F07D129483830006887
:1018F00020F0805026493831086000BFA0690028D8
:1019000045D02348006800F00C0008285DD0A0698D
:10191000022845D100201F490866FFF791FB0546C4
:1019200006E0FFF78DFB401B022801D9032035E6B6
:10193000174808380068C0F340600028F1D1D4E9A6
:1019400007010843616A40EA81110122A06AC2EBE3
:10195000500041EA00412C20005D41EA00600C4942
:10196000091F086001200B490866FFF769FB05465F
:1019700006E0FFF765FB401B022801D903200DE6B6
:10198000034808380068C0F340600028F1D049E0FF
:101990000838024000004742800E47420070004075
:1019A000002021490866FFF74BFB054606E0FFF7DC
:1019B00047FB401B022801D90320EFE51B480068C4
:1019C000C0F340600028F2D12CE0A069012800D1CA
:1019D000E4E51648001D0668A069012820D006F439
:1019E0008001E06981421BD106F03F01206A8142FB
:1019F00016D147F6C0703040616AB0EB811F0FD13D
:101A000006F440310122A06AC2EB5000B1EB004F56
:101A100006D106F070612C20005DB1EB006F01D0A3
:101A20000120BBE50020B9E5000047420038024034
:101A300010B504460CB9012010BD606A38B9606861
:101A4000B0F5827F00D105E00021E16102E00021D4
:101A5000216161610021A16294F8510028B9002040
:101A600084F85000204600F047F8022084F8510026
:101A70002068006820F0400021680860A08800F419
:101A80008270218901F404410843A18901F40061B5
:101A90000843217C01F002010843217D01F001018E
:101AA0000843218B01F400710843217F01F03801C4
:101AB00008432021095D01F080010843218D01F4D4
:101AC00000510843216808600421A06901EA104020
:101AD00094F8241001F01001084321684860206840
:101AE000C06920F400602168C861002060650120A1
:101AF00084F8510000209FE710B586B004461421F9
:101B000001A8FEF709FC1B49206888422FD100BFBD
:101B1000002000901848006840F480501649086082
:101B20000846006800F48050009000BF00BF00BF6E
:101B30000020009010481438006840F001000E4961
:101B4000143908600846006800F00100009000BFEA
:101B500000BFE020019002200290002003900320AB
:101B600004900520059001A90448FFF75FF906B02D
:101B700010BD000000300140443802400000024027
:101B80002DE9F84304460F4616461D46FFF758FA5E
:101B90008046B14694F85100012802D00220BDE8E9
:101BA000F88307B10EB90120F9E700BF94F850009F
:101BB000012801D10220F2E7012084F8500000BF83
:101BC000032084F85100002060652763A686E6861E
:101BD000A063A087E08760642064A068B0F5004F30
:101BE0000BD12068006820F0400021680860206860
:101BF000006840F48040216808602068006800F0B8
:101C00004000402805D02068006840F0400021686E
:101C10000860E068B0F5006F37D1606810B1B9F1C5
:101C2000010F09D1206B00882168C860206B801CDF
:101C30002063E08E401EE08623E02068806800F08C
:101C4000020002280AD1206B00882168C860206B3E
:101C5000801C2063E08E401EE08612E0FFF7F0F962
:101C6000A0EB0800A84201D3681C00B94DB90120BF
:101C700084F8510000BF002084F8500000BF03200A
:101C80008DE7E08E0028D8D136E0606810B1B9F158
:101C9000010F09D1206B007821680873206B401C6C
:101CA0002063E08E401EE08623E02068806800F01C
:101CB000020002280AD1206B007821680873206B8B
:101CC000401C2063E08E401EE08612E0FFF7B8F96A
:101CD000A0EB0800A84201D3681C00B94DB901204F
:101CE00084F8510000BF002084F8500000BF03209A
:101CF00055E7E08E0028D8D142462946204600F01C
:101D000085FF08B120206065A06850B900BF0020A1
:101D100000902068C068009020688068009000BF34
:101D200000BF012084F8510000BF002084F850005B
:101D300000BF606D08B1012031E700202FE72DE9D9
:101D4000FE4F04460F4690461D460C9E0120019012
:101D5000FFF776F9814694F851B060680290AA4680
:101D6000BBF1010F0BD00298B0F5827F04D1A068BF
:101D700010B9BBF1040F02D00220BDE8FE8F1FB1E5
:101D8000B8F1000F00D00DB90120F6E700BF94F8BC
:101D90005000012801D10220EFE7012084F8500013
:101DA00000BF94F85100042802D0052084F85100A7
:101DB00000206065C4F83880E587A5872763E5863D
:101DC000A586206460642068006800F04000402818
:101DD00005D02068006840F0400021680860E06895
:101DE000B0F5006F52D1606810B1BAF1010F09D19E
:101DF000206B00882168C860206B801C2063E08E07
:101E0000401EE0863BE02068806800F00200022867
:101E100010D1E08E70B1019801280BD1206B0088A1
:101E20002168C860206B801C2063E08E401EE08625
:101E3000002001902068806800F0010068B1E08F08
:101E400058B12068C068A16B0880A06B801CA0639B
:101E5000E08F401EE08701200190FFF7F1F8A0EB32
:101E60000900B0420BD3701C48B1012084F8510026
:101E700000BF002084F8500000BF03207DE7E08E03
:101E80000028C0D1E08F0028BDD152E0606810B1B9
:101E9000BAF1010F09D1206B007821680873206B1B
:101EA000401C2063E08E401EE0863CE02068806895
:101EB00000F00200022810D1E08E70B101980128D4
:101EC0000BD1206B007821680873206B401C2063C5
:101ED000E08E401EE086002001902068806800F0BF
:101EE000010068B1E08F58B12068C068A16B08702C
:101EF000A06B401CA063E08F401EE0870120019092
:101F0000FFF79EF8A0EB0900B04201D3701C00B9A6
:101F10004EB9012084F8510000BF002084F8500021
:101F200000BF032029E7E08E0028BFD1E08F002802
:101F3000BCD14A463146204600F068FE40B1202020
:101F4000606500BF002084F8500000BF012014E746
:101F5000A06850B900BF002000902068C0680090C1
:101F600020688068009000BF00BF012084F8510005
:101F700000BF002084F8500000BF606D08B1012050
:101F8000FBE60020F9E67047704710B504460CB92F
:101F9000012010BD94F83D0028B9002084F83C00D1
:101FA000204600F025F8022084F83D00211D20681D
:101FB00001F01EFA012084F8460000BF84F83E00BC
:101FC00001213F200155402001554120015500BF0E
:101FD00000BF012084F842004320015544200155F0
:101FE0004520015500BF012084F83D000020D0E7C6
:101FF00070470000014691F83D00012801D0012002
:102000007047022081F83D000868C06840F0010078
:102010000B68D8601A4B086898421BD00868B0F16A
:10202000804F17D0174B0868984213D0164B08689A
:1020300098420FD0154B086898420BD0144B086893
:10204000984207D0134B0868984203D0124B086897
:1020500098420CD10868806800F00702062A0CD06C
:102060000868006840F001000B68186005E0086827
:10207000006840F001000B6818600020C0E7000015
:10208000000001400004004000080040000C004037
:10209000000401400040014000180040704770B546
:1020A00004462068C5682068066906F00200022818
:1020B00019D105F00200022815D1401F21680861DE
:1020C000012020772068806900F0030018B12046C5
:1020D000FFF7E4FF05E0204600F097F8204600F007
:1020E00095F80020207706F00400042819D105F0A7
:1020F0000400042815D1C04321680861022020771C
:102100002068806900F4407018B12046FFF7C6FFD0
:1021100005E0204600F079F8204600F077F800202E
:10212000207706F00800082819D105F008000828D3
:1021300015D1C04321680861042020772068C06958
:1021400000F0030018B12046FFF7A8FF05E0204685
:1021500000F05BF8204600F059F80020207706F0E8
:102160001000102819D105F01000102815D1C04317
:1021700021680861082020772068C06900F4407059
:1021800018B12046FFF78AFF05E0204600F03DF831
:10219000204600F03BF80020207706F0010048B10F
:1021A00005F0010030B16FF00100216808612046A0
:1021B00000F02EF806F08000802809D105F080009C
:1021C000802805D1C043216808612046FFF7DBFE67
:1021D00006F04000402809D105F04000402805D114
:1021E000C04321680861204600F01EF806F0200078
:1021F000202809D105F02000202805D1C0432168FE
:1022000008612046FFF7C0FE70BD704770470000B0
:1022100010B5044603492068884201D1FEF74EFFFD
:1022200010BD00000000014070477047704700007B
:102230002DE9F84F0446206805682068C6682068C4
:1022400047694FF00009CA4605F00F09B9F1000FC0
:102250000AD105F0200038B106F0200020B1204658
:1022600001F08DF9BDE8F88FB9F1000F7CD007F0CF
:10227000010018B906F49070002875D005F001002F
:1022800030B106F4807018B1606C40F001006064F9
:1022900005F0040030B107F0010018B1606C40F0A7
:1022A0000200606405F0020030B107F0010018B1CF
:1022B000606C40F00400606405F0080048B106F06E
:1022C000200010B907F0010018B1606C40F0080060
:1022D0006064606C002846D005F0200028B106F04C
:1022E000200010B1204601F04AF920684069C0F38F
:1022F000801A606C00F0080010B9BAF1000F2DD000
:10230000204601F0F6F82068406900F040004028BF
:1023100020D100BF00BF2168143151E8001F21F017
:1023200040002168143141E80002002AF3D100BFC7
:10233000E06B50B17F48E16B0865E06BFEF74EFD46
:1023400088B1E06B016D88470DE02046FFF76EFF16
:1023500009E009E02046FFF769FF04E02046FFF7A7
:1023600065FF002060647DE7206B012878D105F0CF
:102370001000002874D006F010000028FAD000BF2A
:10238000002000902068006800902068406800905D
:1023900000BF00BF2068406900F04000402870D1B5
:1023A000E06B006840681FFA80F8B8F1000F58D061
:1023B000A08D404555DDA4F82E80E06BC069B0F5D6
:1023C000807F43D000BF00BF21680C3151E8001F5F
:1023D00021F4807021680C3141E80002002AF3D119
:1023E00000BF00BF00BF2168143151E8001F21F079
:1023F00001002168143141E80002002AF3D100BF36
:1024000000BF00BF2168143151E8001F21F04000D7
:102410002168143141E80002002AF3D100BF2020D6
:1024200084F842000020206300BF00BF21680C3107
:1024300051E8001F21F0100021680C3141E8000232
:10244000002AF3D100BFE06BFEF772FC022060634C
:10245000A08DE28D801A81B22046FFF7E6FE0EE0E5
:1024600052E0A08D40450AD1E06BC069B0F5807F95
:1024700005D102206063A18D2046FFF7D6FEF1E66C
:10248000FFE7A08DE18D401A1FFA80F8E08DD0B3F0
:10249000B8F1000F37D000BF00BF21680C3151E800
:1024A000001F21F4907021680C3141E80002002ADD
:1024B000F3D100BF00BF00BF2168143151E8001FF5
:1024C00021F001002168143141E80002002AF3D113
:1024D00000BF202084F842000020206300BF00BF1E
:1024E00021680C3151E8001F21F0100021680C31E7
:1024F00041E80002002AF3D100BF02206063414698
:102500002046FFF792FEADE605F0800030B106F000
:10251000800018B1204601F0C7F9A3E605F040009D
:1025200030B106F0400018B1204601F018F899E6E5
:1025300000BF97E6E134000810B504460CB901204D
:1025400010BDA06900B100E000BF94F8410028B9B7
:10255000002084F84000204600F02AF8242084F867
:1025600041002068C06820F400502168C8602046FF
:1025700001F084F82068006920F490402168086127
:102580002068406920F02A00216848612068C068FE
:1025900040F400502168C86000206064202084F866
:1025A000410084F842000020606300BFC8E70000DB
:1025B00010B586B00446142101A8FDF7ADFE3E49D2
:1025C0002068884239D100BF002000903B48006855
:1025D00040F40020394908600846006800F40020F3
:1025E000009000BF00BF00BF0020009033481038AB
:1025F000006840F00400314910390860084600685E
:1026000000F00400009000BF00BF4FF44060019054
:1026100002200290002003900320049008200590DF
:1026200001A92748FEF702FC002205213420FEF70D
:10263000FDFD3420FEF7E6FD3CE02249206888429B
:1026400038D100BF002000901C48006840F4802072
:102650001A4908600846006800F48020009000BF16
:1026600000BF00BF0020009014481038006840F000
:1026700002001249103908600846006800F00200A4
:10268000009000BF00BF4FF4406001900220029014
:1026900000200390032004900720059001A90A4818
:1026A000FEF7C4FB002205212720FEF7BFFD2720EF
:1026B000FEF7A8FD06B010BD004C004040380240B7
:1026C00000080240004800400004024070472DE925
:1026D000F84F04460E46174699464FF0000A94F804
:1026E0004100202850D106B117B90120BDE8F88F6C
:1026F00000206064212084F84100FEF7A1FC82469E
:10270000A784E784A068B0F5805F04D1206910B980
:102710000025B04602E035464FF000081EE0534663
:10272000002280212046CDF8009001F0EDF820B184
:10273000202084F841000320D8E745B9B8F800000C
:10274000C0F308002168486008F1020803E0287817
:10275000216848606D1CE08C401EE084E08C0028FD
:10276000DDD15346002240212046CDF8009001F0F3
:10277000CBF820B1202084F841000320B6E72020C8
:1027800084F841000020B1E70220AFE7704700BFA6
:10279000FEE700001FB5002000900190029003901A
:1027A0001548164908604FF48030486000211348EE
:1027B00081600161017680F82010C1621049816258
:1027C0000021C1600121C161002180F83010012188
:1027D0004161FEF739FA08B1FEF76DF90D2000905E
:1027E000012001900020029069460448FEF766F936
:1027F00008B1FEF760F91FBD00200140540300201E
:102800000100000F00B58FB01C220C4908A8FDF78D
:102810006AFD002108A802F065FA094908601C2237
:1028200006491C3101A8FDF75EFD002101A802F058
:1028300059FA044908600FB000BD0000D0750008C7
:10284000000000200400002000B587B0142102A879
:10285000FDF762FD00BF002001902E48006840F0A7
:1028600004002C4908600846006800F0040001904C
:1028700000BF00BF00BF002001900846006840F084
:10288000800008600846006800F08000019000BFEA
:1028900000BF00BF002001900846006840F0010022
:1028A00008600846006800F00100019000BF00BF0A
:1028B00000BF002001900846006840F00200086058
:1028C0000846006800F00200019000BF00BF00222F
:1028D00010211148FEF7AEFB012211020F48FEF74E
:1028E000A9FB102002900120039000200490059085
:1028F00002A90948FEF79AFA4FF48070029001206D
:10290000039000200490059002A90448FEF78EFA77
:1029100007B000BD3038024000000240000802400D
:1029200010B50E480E4908604FF4827048600021CF
:102930000B488160C160016141614FF400718161A8
:102940000821C16100210162416281620A21C162E4
:10295000FFF76EF808B1FEF7AEF810BD0030014089
:102960009C03002010B50B480B4908604FF4E13080
:102970004860002108488160C16001610C2141610B
:1029800000218161C161FFF7D7FD08B1FEF793F81F
:1029900010BD0000004C0040F403002010B50B48AF
:1029A0000B4908604FF4E13048600021084881601D
:1029B000C16001610C21416100218161C161FFF7AA
:1029C000BBFD08B1FEF777F810BD000000480040DD
:1029D0003C04002000BFFEE700BFFEE710B5CEB00C
:1029E0005E49002001F0D3FE48A9012001F0CFFE8E
:1029F00000BF5BA05BA35CA24FF48071009008A8AD
:102A000001F0D0F80446002C0ADDFF2C08DC00BFE2
:102A1000002C04DD08AA214659A003F09DFE00BF4A
:102A200000BF00BF9DF825019DF824119DF82321CA
:102A30009DF82231CDE90332CDE905109DF8210141
:102A40009DF8201146A247A3CDE9002102904EA295
:102A50004FF4807108A801F0A5F80446002C0ADDA7
:102A6000FF2C08DC00BF002C04DD08AA214644A08E
:102A700003F072FE00BF00BF00BF48A8407A48A91B
:102A8000097A48AAD2799DF82631CDE90132CDE9FB
:102A9000031033A033A347A24FF48071009008A81D
:102AA00001F080F80446002C0ADDFF2C08DC00BF92
:102AB000002C04DD08AA214631A003F04DFE00BF22
:102AC00000BF00BF48A8417B007B48AAD27A9DF88E
:102AD0002A31CDE90132CDE9030121A021A33CA295
:102AE0004FF48071009008A801F05CF80446002CB7
:102AF0000ADDFF2C08DC00BF002C04DD08AA2146FB
:102B00001FA003F029FE00BF00BF00BF48A8417C02
:102B1000007C48AAD27B9DF82E31CDE90132CDE967
:102B200003010FA00FA331A24FF48071009008A8F9
:102B300001F038F80446002C0ADDFF2C08DC00BF49
:102B4000002C04DD08AA21460DA003F005FE00BFFD
:102B500000BF01202C4908704EB010BD8400002039
:102B6000493A00000000000025732573204E65746B
:102B7000776F726B20436F6E6669673A0D0A0000CB
:102B8000252E2A7300000000257325732020204D78
:102B900041433A20253032583A253032583A2530D0
:102BA00032583A253032583A253032583A253032A8
:102BB000580D0A002573257320202049503A202003
:102BC00025642E25642E25642E25640D0A00000040
:102BD00025732573202020534E3A202025642E256E
:102BE000642E25642E25640D0A00000025732573CC
:102BF00020202047573A202025642E25642E256466
:102C00002E25640D0A0000009A0000207CB50446C1
:102C10000E4615463346012202212046009500F05B
:102C200039F828B1606D40F02000606503207CBD5C
:102C3000164800681821B0FBF1F01549B0FBF1F01F
:102C40004FF47A71484301906068B0F5827F0DD1EE
:102C50003346002280212046009500F01BF898B1F1
:102C6000606D40F0200060650320E0E700BF019840
:102C700000B908E00198401E019020688068C0F308
:102C8000C0100028F3D100BF0020D0E718000020BA
:102C900040420F002DE9F84F04460D4690461E466F
:102CA000DDF82890FEF7CCF9A0EB0900371AFEF703
:102CB000C7F982462C480068C0F3CB3078430090B7
:102CC00046E0701C002843D0FEF7BAF9A0EB0A00DA
:102CD000B84200D2A7BB2068406820F0E00021681D
:102CE00048606068B0F5827F0DD1A068B0F5004FF4
:102CF00003D0A068B0F5806F05D12068006820F08F
:102D0000400021680860A06AB0F5005F0DD100BFE7
:102D10002068006820F4005021680860206800687E
:102D200040F400502168086000BF012084F8510081
:102D300000BF002084F8500000BF0320BDE8F88FDA
:102D4000FFE7009808B9002702E00098401E0090B5
:102D5000206880682840A84201D1012000E00020BE
:102D60004045AED10020E9E71800002000BF4FF435
:102D700080710448FEF754F94FF4FA7001F0A1FF96
:102D8000F5E7000000080240C4B000BFB3A0B4A340
:102D9000B4A24FF48071009002A800F003FF054632
:102DA000002D0ADDFF2D08DC00BF002D04DD02AA86
:102DB0002946B7A003F0D0FC00BF00BFB648FEF71D
:102DC00076F900BFA5A0A6A3B4A24FF4807100902D
:102DD00002A800F0E7FE0546002D0ADDFF2D08DC05
:102DE00000BF002D04DD02AA2946A9A003F0B4FC0F
:102DF00000BF00BF04F000F900BF98A098A3B4A2E0
:102E00004FF48071009002A800F0CCFE0546002D22
:102E10000ADDFF2D08DC00BF002D04DD02AA2946D3
:102E20009BA003F099FC00BF00BFB6A103C943916A
:102E3000429042A942A804F044F800BF87A088A3AA
:102E4000B2A24FF48071009002A800F0ABFE0546DC
:102E5000002D0ADDFF2D08DC00BF002D04DD02AAD5
:102E600029468BA003F078FC00BF00BF6420FDF76B
:102E7000C9FF00BF79A07AA3AFA24FF48071009080
:102E800002A800F08FFE0546002D0ADDFF2D08DCAC
:102E900000BF002D04DD02AA29467DA003F05CFCE2
:102EA00000BF00BF4FF4645000F07EFD044600BF39
:102EB0006AA06BA3ACA24FF48071CDE9000402A814
:102EC00000F070FE0546002D0ADDFF2D08DC00BF76
:102ED000002D04DD02AA29466DA003F03DFC00BFD1
:102EE00000BF042C17D100BF5CA05DA3AAA2A10162
:102EF000009002A800F056FE0546002D0ADDFF2DC9
:102F000008DC00BF002D04DD02AA294660A003F002
:102F100023FC00BF19E000BFA7A051A3A7A24FF454
:102F20008071CDE9000402A800F03CFE0546002DAA
:102F30000ADDFF2D08DC00BF002D04DD02AA2946B2
:102F400053A003F009FC00BF00BF00BF43A044A38F
:102F5000A9A24FF48071009002A800F023FE05465C
:102F6000002D0ADDFF2D08DC00BF002D04DD02AAC4
:102F7000294647A003F0F0FB00BF00BFFFF72EFD7E
:102F800000BF36A036A3A9A24FF48071009002A81A
:102F900000F008FE0546002D0ADDFF2D08DC00BF0D
:102FA000002D04DD02AA294639A003F0D5FB00BF9D
:102FB00000BF00BF29A02AA3AAA24FF480710090ED
:102FC00002A800F0EFFD0546002D0ADDFF2D08DC0C
:102FD00000BF002D04DD02AA29462DA003F0BCFB92
:102FE00000BF00BF03F0D2F8C0B100BF72A01CA3A5
:102FF000A9A24FF48071009002A800F0D3FD05460D
:10300000002D0ADDFF2D08DC00BF002D04DD02AA23
:1030100029461FA003F0A0FB00BF18E000BF0FA0CF
:103020000FA3A7A24FF48071009002A800F0BAFD90
:103030000546002D0ADDFF2D08DC00BF002D04DD54
:1030400002AA294612A003F087FB00BF00BF00BF01
:103050004FF47A7001F035FEFAE70000493A0000BB
:103060000000000025732573204E6574776F726B26
:103070005461736B3A20737465702031202D207475
:1030800061736B20737461727465640D0A000000D3
:10309000252E2A7300000000F400002025732573FC
:1030A000204E6574776F726B5461736B3A20737442
:1030B00065702032202D20726567697374657269AE
:1030C0006E672053504920636266756E630D0A0077
:1030D00025732573204E6574776F726B5461736B23
:1030E0003A20737465702033202D2063616C6C6905
:1030F0006E672077697A636869705F696E69740DBD
:103100000A00000010101010101010102573257305
:10311000204E6574776F726B5461736B3A207374D1
:1031200065702034202D2064656C61792031303049
:103130006D730D0A0000000025732573204E657421
:10314000776F726B5461736B3A20737465702035BE
:10315000202D2072656164696E672056455253497F
:103160004F4E520D0A00000025732573204E6574E2
:10317000776F726B5461736B3A207374657020368D
:10318000202D2056455253494F4E52203D20307835
:10319000253032580D0A000025732573204E6574C2
:1031A000776F726B5461736B3A205735353030202E
:1031B0004F4B210D0A000000453A0000257325738E
:1031C000204E6574776F726B5461736B3A2057357C
:1031D000353030204552524F52212045787065637A
:1031E00074656420307830342C20676F7420307818
:1031F000253032580D0A000025732573204E657462
:10320000776F726B5461736B3A20737465702037FB
:10321000202D2063616C6C696E67204E6574436F6E
:103220006E6669675F496E69740D0A0025732573C0
:10323000204E6574776F726B5461736B3A207374B0
:1032400065702038202D2063616C6C696E67207476
:1032500063705F636C69656E745F636F6E6E6563E8
:10326000740D0A0025732573204E6574776F726B99
:103270005461736B3A20436F6E6E656374696E6759
:1032800020746F204D5154542062726F6B65722E02
:103290002E2E0D0A0000000025732573204E657444
:1032A000776F726B5461736B3A2054435020636F95
:1032B0006E6E656374206661696C6564210D0A0039
:1032C00025732573204E6574776F726B5461736B31
:1032D0003A2054435020636F6E6E656374656421B9
:1032E0000D0A000010B500BF502080F31188BFF315
:1032F0004F8FBFF36F8F00BF04F044F818B14FF049
:1033000080500449086000BF002080F3118800BF8E
:1033100010BD000004ED00E000B593B0302107A817
:10332000FCF7FAFF142102A8FCF7F6FF00BF00200B
:1033300001902448006840F0805022490860084607
:10334000006800F08050019000BF00BF00BF002067
:1033500001901D48006840F480401B490860084601
:10336000006800F48040019000BF00BF012007907A
:103370000004089002200D9041050E9104210F9148
:10338000A8211091022111910421129107A8FEF7A2
:1033900001F908B1FDF78FFB0F2002900220039086
:1033A000002004904FF4A05005904FF480500690F8
:1033B000052102A8FDF78CFF08B1FDF77CFB13B0D7
:1033C00000BD000040380240007000400348006823
:1033D00040F47000014908607047000088ED00E08B
:1033E00010B50248FEF75BFE10BD0000840400200B
:1033F00010B502682B4B98420ED0B0F1804F0BD025
:10340000294B984208D0294B984205D0284B984226
:1034100002D0284B984203D122F070024B681A4325
:10342000204B984220D0B0F1804F1DD01E4B9842C7
:103430001AD01E4B984217D01D4B984214D01D4BEA
:10344000984211D01C4B98420ED01C4B98420BD086
:103450001B4B984208D01B4B984205D01A4B984200
:1034600002D01A4B984203D122F44072CB681A431F
:1034700022F080034C6943EA04028B68C3620B6844
:103480008362084B984202D00A4B984201D10B69E3
:103490000363036843F00403036001234361026094
:1034A00010BD000000000140000400400008004082
:1034B000000C004000040140004001400044014075
:1034C0000048014000180040001C0040002000405F
:1034D00010B50248FEF7ACFE10BD0000F40300205A
:1034E00070B50446A56B0020E8852846FEF79EFED1
:1034F00070BD00BF00BF02680C3252E8002F22F4FA
:10350000907102680C3242E80013002BF3D100BF27
:1035100000BF00BF0268143252E8002F22F0010100
:103520000268143242E80013002BF3D100BF016B94
:1035300001290ED100BF00BF02680C3252E8002FF3
:1035400022F0100102680C3242E80013002BF3D184
:1035500000BF202180F8421000210163704710B5A0
:1035600004462068C06820F040002168C860202020
:1035700084F841002046FFF709F9002010BDF8B596
:1035800004460025002694F84200222873D1A06842
:10359000B0F5805F0BD1206948B9A66A2068406801
:1035A000C0F308003080A06A801CA06214E0A56A05
:1035B000A068B0F5805F03D0A06828B9206918B969
:1035C00020684068287004E02068406800F07F00B0
:1035D0002870A06A401CA062E08D401E80B2E08589
:1035E000002846D12068C06820F020002168C8600B
:1035F0002068C06820F480702168C8602068406935
:1036000020F0010021684861202084F84200002059
:103610006063206B012826D10020206300BF00BF1B
:1036200021680C3151E8001F21F0100021680C3195
:1036300041E80002002AF3D100BF2068006800F0D2
:10364000100010280AD100BF0020009020680068F8
:10365000009020684068009000BF00BFA18D204608
:10366000FEF7E3FD02E02046FFF730F80020F8BD4A
:1036700001E00020FBE70220F9E700002DE9F84F08
:1036800004462068006920F44050E168084321683E
:1036900008612169A068084361690843E16908433A
:1036A00000902068C06849F20C6188430099084383
:1036B0002168C8602068406920F44070A16908430F
:1036C0002168486176492068884203D0754920689E
:1036D000884203D1FDF7F6FE814602E0FDF7E2FEE7
:1036E0008146E069B0F5004F6CD102206168A0FB13
:1036F000015003461920A9FB007001462A463846AE
:10370000FCF7C0FD6421B0FBF1F04FEA001A022083
:103710006168A0FB01510B461920A9FB00712A46E4
:103720003846FCF7AFFD834602206168A0FB0150DC
:1037300003461920A9FB00712A463846FCF7A2FD72
:103740006421B0FBF1F000EBC00101EB0010ABEB2A
:103750008000322101EBC0006421B0FBF1F000F0E9
:10376000F8000AEB400A02206168A0FB0150034602
:103770001920A9FB007001462A463846FCF782FD55
:10378000834602206168A0FB015003461920A9FB73
:1037900000712A463846FCF775FD6421B0FBF1F054
:1037A00000EBC00101EB0010ABEB8000322101EB1C
:1037B000C0006421B0FBF1F000F007005044216824
:1037C00088606AE004206168A0FB0150034619206C
:1037D000A9FB007001462A463846FCF753FD824695
:1037E00004206168A0FB015003461920A9FB00706A
:1037F00001462A463846FCF745FD6421B0FBF1F04E
:1038000000EBC00101EB0010AAEB8000322101EBBC
:1038100000106421B0FBF1F000F0F00A04206168B0
:10382000A0FB017003461920A9FB00513A46284627
:10383000FCF728FD6421B0FBF1F00AEB001A04202C
:103840006168A0FB01510B461920A9FB00712A46B3
:103850003846FCF717FD834604206168A0FB015041
:1038600003461920A9FB007001462A463846FCF79A
:1038700009FD6421B0FBF1F000EBC00101EB001089
:10388000ABEB8000322101EB00106421B0FBF1F0C2
:1038900000F00F00504421688860BDE8F88F0000F8
:1038A0000010014000140140014691F84100212818
:1038B00028D18868B0F5805F0BD1086948B90A6AD9
:1038C0001088C0F308000B685860086A801C086202
:1038D00005E00B6A581C086218780B685860C88CA1
:1038E000401E80B2C88458B90868C06820F08000C3
:1038F0000B68D8600868C06840F040000B68D8606A
:10390000002070470220FCE72DE9F84304460D46ED
:1039100017469846089E31E0701C70B3FDF790FB87
:10392000A0EB0800B04200D816B90320BDE8F88328
:103930002068C06800F00400F8B1802D1ED0402D32
:103940001CD020680068C0F3C000B0B100BF0020E8
:10395000009020680068009020684068009000BFD8
:1039600000BF2046FFF7C5FD0820606400BF0020AF
:1039700084F8400000BF0120D8E7FFE72068006816
:103980002840A84201D1012000E00020B842C3D065
:103990000020CBE710B50248FEF74AFC10BD00003E
:1039A0003C04002000BFFEE738B504461A49C86849
:1039B000804719494869804700BF1748406A10B1DD
:1039C0001548806A70B91448016AC4F307408847F3
:1039D0001148016AC4F307208847E0B20E4A116A11
:1039E00088470DE0200C8DF80000200A8DF80100BA
:1039F000E0B28DF8020008480321826A68469047C9
:103A00000549C869804705460349886980470249D6
:103A100008698047284638BDAC000020F8B5044648
:103A20000E4617461F49C86880471E4948698047A7
:103A300000BF1C48406A10B11A48806AC0B91948D2
:103A4000016AC4F3074088471648016AC4F3072097
:103A50008847E0B2134A116A8847002505E01149FA
:103A6000C86980477055681C85B2BD42F7DB12E01B
:103A7000200C8DF80000200A8DF80100E0B28DF8CE
:103A8000020008480321826A684690470548394683
:103A9000426A30469047034988698047014908696E
:103AA0008047F8BDAC00002038B504460D461A49E1
:103AB000C868804718494869804744F0040416489C
:103AC000806A90B91448016AC4F3074088471248D5
:103AD000016AC4F307208847E0B20F4A116A884799
:103AE0000D48016A284688470FE0200C8DF8000039
:103AF000200A8DF80100E0B28DF802008DF8035025
:103B000005480421826A68469047034988698047CE
:103B100001490869804738BDAC000020F8B504466B
:103B20000E4617461E49C86880471D4948698047A8
:103B300044F004041A48806AC0B91948016AC4F301
:103B4000074088471648016AC4F307208847E0B257
:103B5000134A116A8847002505E0705D104A116A12
:103B60008847681C85B2BD42F7DB12E0200C8DF857
:103B70000000200A8DF80100E0B28DF8020008482C
:103B80000321826A6846904705483946826A304672
:103B90009047034988698047014908698047F8BD13
:103BA000AC0000200FB47CB50C0009AD01D0611E43
:103BB00000E00021CDE90001064B6A46294608983D
:103BC00000F012F9002C02D0009A002111707CBC88
:103BD0005DF814FBEF4400087CB50C001D4616464A
:103BE000014601D0601E00E00020CDE90010064B28
:103BF0006A462946304600F0F7F8002C02D0009AB9
:103C0000002111707CBD0000EF44000802480068EC
:103C1000C0F30220704700000CED00E010B5002852
:103C200004DB0A07130E054A135406E00A07140EB4
:103C3000034A00F00F031B1FD45410BD00E400E042
:103C400018ED00E002E008C8121F08C1002AFAD1EE
:103C500070477047002001E001C1121F002AFBD10C
:103C6000704700002DE9FF5F82B00021DDE90430DC
:103C7000020DDDF840B0034318D044F61050A2F214
:103C8000FF3242431514119801281FD0A5EB0B00F9
:103C9000401C5FEA000A4FF000064E4FDFF83891F3
:103CA000B046504615D5CAF1000413E0119801241E
:103CB0004AA3012801D16FEA0B010298119AC0E9C9
:103CC0000031C0E9024206B0BDE8F09FCBF1000030
:103CD000DFE704460021404A491842EB0450CDE991
:103CE000001012E0E00707D032463B464046494606
:103CF000FCF71FFC8046894632463B461046194673
:103D0000FCF717FC06460F466410002CEAD1DDE9EB
:103D10000401DDE90023BAF1000F06DAFCF709FC23
:103D200042464B46FCF705FC05E0FCF774FC4246B6
:103D30004B46FCF770FC04460E460022284BFCF76D
:103D4000F1FC03D84FF0FF30014607E00022254B7D
:103D500020463146FCF746FBFCF7CCFC102409E07A
:103D6000002C0ADB0A220023FCF78CFA039B30327A
:103D70001A55641E50EA0102F2D1641C039AC4F180
:103D800011031444119A012A03D0012208430DD1D2
:103D90000AE0084304D000204FF0110B119072E7A5
:103DA000A3EB0B056D1E0DE05B4504DD4FF000023B
:103DB00005F1010504E003DA4FF00002A5F1010569
:103DC000002AECD002981199C0E90231C0E90045FF
:103DD00079E70000000014400000F03F30000000D0
:103DE0000000F0430000E03F2DE9FF4F95B09A46F8
:103DF000884606460025EEE1252877D1002427468F
:103E0000F94A0121039400E0044316F8013F203BE6
:103E100001FA03F01042F7D130782A2811D06FF060
:103E20002F033078A0F13002092A16D8039A44F003
:103E3000020402EB820203EB42021044761C039060
:103E4000EFE758F8042B0392002A03DA504244F4B7
:103E50000054039044F00204761C30782E2816D1CA
:103E600016F8010F44F004042A280DD06FF02F0239
:103E70003078A0F13003092B09D807EB870302EB58
:103E80004303C718761CF3E758F8047B761C307898
:103E90006C280FD006DC4C2817D068280DD06A2873
:103EA00014D104E0742810D07A280FD10DE044F426
:103EB00000140AE044F4801401E044F440147278E1
:103EC000824202D104F58014761C761C3078662874
:103ED0000BD013DC582877D009DC002875D0452892
:103EE000F6D04628F4D047281AD193E118E0632889
:103EF00035D0642879D0652812D18BE1702873D031
:103F000008DC6728F1D069286FD06E280DD06F28A3
:103F100006D1ACE073282CD0752874D0782853D003
:103F20005246179990476D1C54E1C4F30250022881
:103F300009D003280DD0D8F8001004280DD00D604A
:103F400008F1040846E1D8F80010EA17C1E9005268
:103F5000F6E7D8F800100D80F2E70D70F0E718F8DA
:103F6000041B8DF8001000208DF80100EB460120A5
:103F700003E058F804BB4FF0FF3061074FF0000139
:103F800002D40DE009F101018946B9420FDA8145F9
:103F9000F8DB1BF809100029F4D108E009F1010150
:103FA00089468142FADB1BF809100029F6D10398F3
:103FB0005346A0EB090721463846179A00F080FACD
:103FC000284400EB090507E044E008E10DE01BF898
:103FD000010B524617999047B9F10109F7D25346A0
:103FE00021463846179AF2E039E00A21C4F302521A
:103FF0004FF0000B0091022A06D058F8040BC117AD
:10400000032A09D00AE023E008F1070020F00702A4
:10401000F2E80201904605E000B2C117042A01D17E
:1040200040B2C117002906DA0A460021404261EB7E
:1040300002012D2202E0220504D52B228DF8042056
:10404000012203E0E20701D02022F7E7914657E082
:104050000A2100E010214FF0000B00910BE010212D
:104060004FF0000B44F004040827009103E00820FF
:104070004FF0000B0090C4F30252022A05D058F80A
:10408000040B0021032A08D008E008F1070020F003
:104090000702F2E80201904603E080B2042A00D150
:1040A000C0B24FF0000922072AD53278702A07D013
:1040B000DDF800C08CF0100C5CEA0B0C05D00EE0B3
:1040C00040228DF80420012208E050EA010306D0C6
:1040D00030238DF804308DF8052002229146009B94
:1040E00083F0080353EA0B030AD150EA010201D11D
:1040F000620705D530228DF804204FF001097F1E9C
:104100003278582A04D039A20C920CAA02920BE001
:104110003BA2F9E75B46009AFCF7B4F80C9B9B5C6A
:10412000029A521E0292137050EA0102F2D10298D2
:1041300004A9081A00F1200B600702D524F480348A
:1041400000E001275F4502DDA7EB0B0000E0002047
:1041500000EB0B01009003984944401A0390E003E0
:1041600006D453462146179A039800F0A9F905444E
:10417000002706E001A85246C05D179990476D1CC4
:104180007F1C4F45F6DBE0030CD553462146179ABA
:10419000039800F095F9054404E030205246179941
:1041A00090476D1C0099481E00900029F5DC08E03E
:1041B0000298029952460078491C0291179990473B
:1041C0006D1CBBF10001ABF1010BF1DC5BE100F018
:1041D00065F90544761C307800287FF40DAE19B0DF
:1041E0002846BDE8F08F0000092801003031323345
:1041F0003435363738396162636465660000000023
:10420000303132333435363738394142434445460C
:1042100000000000600700D4062708F1070020F026
:104220000700F0E80223804603F0004C5FEA0C0030
:1042300001D097A009E0200501D596A005E0E00790
:1042400001D095A001E0AFF24C001390307823F03C
:10425000004365280CD006DC452809D046281DD02F
:1042600047287FD13BE0662818D067287AD136E00E
:104270000021112F01DB112000E0781CCDE90001A5
:1042800004A90CA8FFF7EEFCDDE90D010C9A4FF034
:10429000000B07F10109109200914EE04FF0004031
:1042A0000097CDE9011004A90CA8FFF7DBFCDDE9BC
:1042B0000D020C9B0F994FF0000B9146109300924A
:1042C00011B9791C00EB0109B7EB090003D4C0F167
:1042D000FF3B07F10109A9EB0700019042E0012F24
:1042E00000DA01270021112F01DD112000E03846FE
:1042F000CDE9000104A90CA8FFF7B4FCDDE90D012C
:104300000C9A00914FF0000BB946109221070FD480
:10431000009A4A4503DA914601E0A9F10109B9F191
:10432000010F05DD109AA9F10101515C3029F4D08B
:10433000B84202DA10F1040F03DA0121CDE90110CD
:1043400010E0002803DC8344A9EB000102E0411CDB
:10435000494500DD8946A0EB0B00401C01904FF061
:1043600000400290200705D40198484502DB4FF039
:10437000FF30019000208DF84B0002980DF14B07A3
:10438000B0F1004F25D002200C902B200D90029808
:1043900000280CDA404202902D200D9007E00A21FF
:1043A0000298FBF7EAFF3031029007F8011D0C99E3
:1043B000481E0C900029F2DC02980028EFD1791EEB
:1043C0000D980870307800F0200040F0450007F8A4
:1043D000020D11A8C01BC01D02901398007800B1F7
:1043E000012000EB0901019801EBE0710298014402
:1043F0000398401A401E0390E00306D4534621461A
:10440000179A039800F05CF805441398007818B1E7
:104410005246179990476D1CE00323D55346214619
:10442000179A039800F04CF805441BE0BBF1000F0D
:1044300007DB0098584504DD1098179910F80B0019
:1044400001E0179930205246904701980BF1010B7B
:10445000401E05F10105019004D12E205246179906
:1044600090476D1CB9F10001A9F10109DEDC05E0FE
:1044700017F8010B5246179990476D1C0299481E78
:1044800002900029F4DC53462146179A03989EE6D1
:104490002D0000002B000000200000002DE9F0415D
:1044A000044600251E461746880404D405E0394614
:1044B0002020B0476D1C641EF9D52846BDE8F08168
:1044C0002DE9F041044600251E469046C80301D55B
:1044D000302700E02027880404D505E0414638460F
:1044E000B0476D1C641EF9D52846BDE8F0814A68C6
:1044F000002A06D00A68531C0B6010704868401EE2
:10450000486070470C480068032812D300200A490D
:1045100008600A480078022804DB00200749087078
:10452000401E704705480078401C04490870002070
:10453000F7E70120F5E70000EC000020F000002084
:1045400010B5044600BF082C02DB4FF0FF3010BD51
:1045500000BFA100491C4FF4807202EBC100102182
:10456000FFF7A2FA00BFA100491C4FF4807202EBD2
:10457000C100FFF719FA0028F5D1A100491C4FF43A
:10458000007202EBC1001F21FFF78EFA0120A0404C
:104590000F49098881430E4801800120A0400D4940
:1045A000098881430B48018000200B4921F8140041
:1045B0000A49085500BFA100491C4FF4407202EBA4
:1045C000C100FFF7F1F90028F5D10120BFE7000095
:1045D0009E000020A0000020BC7D0020A200002042
:1045E0002DE9F04104460D461646984600BF082CBA
:1045F00003DB4FF0FF30BDE8F08100BF00BFA1003A
:10460000491C002202EBC100FFF7CEF900F00300C5
:10461000012802D06FF00400EDE700BF00BFA10049
:10462000491C4FF4407202EBC100FFF7BDF913289B
:1046300002D06FF00200DEE700BF2978687861F3EE
:104640001F200146A87861F31F200146E87861F336
:104650001F200146481C00B111B96FF00B00CAE7DA
:1046600016B96FF00A00C6E73112A200521C4FF4CF
:10467000805303EBC200FFF717FAF1B2A200521CFD
:104680004FF4805303EBC20202F58070FFF70CFA7F
:10469000B8F1100F02D16FF00400ACE7A100491C83
:1046A000002202EBC100FFF77FF9092802D16FF069
:1046B0000400A0E7A100491C4FF4406202EBC100D6
:1046C00004222946FFF72AFAA100491C4FF4807200
:1046D00002EBC1000421FFF7E7F900BFA100491C6C
:1046E0004FF4807202EBC100FFF75EF90028F5D1AC
:1046F0000120A0401E490988084008B100207AE73F
:10470000002729E0A100491C4FF4007202EBC10010
:10471000FFF74AF900F0080058B1A100491C4FF416
:10472000007202EBC1000821FFF7BEF96FF00C0028
:1047300061E7A100491C4FF4407202EBC100FFF792
:1047400033F910B96FF0030055E77F1C0948874221
:1047500002D36FF00C004EE7A100491C4FF44072E9
:1047600002EBC100FFF720F91728CBD1012042E767
:104770009E000020A086010070B504460D46164636
:104780000423324629462046FFF72AFF70BD70B544
:1047900005460C46062D1CD2DFE805F003070B0F7B
:1047A0001317204602F0D6FB16E0204602F042FB2B
:1047B00012E0207802F0FAFB70BD02F069FB207075
:1047C0000AE0204602F005FC06E0204602F065FB08
:1047D00002E04FF0FF30EFE700BF0020ECE72DE9EB
:1047E000F041B0B080460C461646C0236A462146CA
:1047F000404600F025FB0546681C18B9002030B083
:10480000BDE8F0812C44204600F0EFF80746A41CD8
:10481000A41C241DA41C112F5DD2DFE807F05C0945
:104820001A5C5C163D1718195C5C1B285C2F5B003A
:1048300014F8010B307014F8010B707014F8010BB0
:10484000B07014F8010BF07046E000BF00BF00BF6D
:1048500000BF00BFC0236A462146404600F0F0FA80
:104860000546681C08B90020C9E72C4434E014F858
:10487000015B2C4414F8015B2C442DE0A41CC023E4
:104880006A462146404600F0DBFA0546681C08B936
:104890000020B4E72C441FE0C0236A46214640466E
:1048A00000F0CEFA0546681C08B90020A7E72C44A2
:1048B000C0236A462146404600F0C2FA0546681CFD
:1048C00008B900209BE72C44241D241D241D241D11
:1048D000241D01E000E000BF00BF20468FE700007C
:1048E0002DE9F04FB1B081468B4690461C464546B7
:1048F00032480088401C3149088008460188284613
:1049000000F034FF05464FF4807040EAC92080B2C1
:1049100000902846009900F029FF0546012128460D
:1049200000F024FF05460021284600F01FFF054641
:104930000021284600F01AFF05460021284600F015
:1049400015FF0546594601A8FBF70EFD01AF384695
:10495000FBF703FD1FFA80FA00BF2E213846FBF754
:10496000F2FC064616B1F01B84B200E0544605F88E
:10497000014B04B911E0224639462846FBF7D7FC23
:1049800025441EB9002005F8010B06E0601C074411
:10499000AAEB00001FFA80FADFE700BF01212846DA
:1049A00000F0E4FE05460121284600F0DFFE054642
:1049B000A5EB080000B231B0BDE8F08FEA0000209E
:1049C00070B5B0B006460C46C0236A462146304654
:1049D00000F036FA0546681C10B9002030B070BDF2
:1049E0002C44A41CA41C2046F8E7014611F8013B06
:1049F00018020A78024490B2704770B50446002548
:104A0000002600BFA100491C4FF4185202EBC10060
:104A1000FEF7CAFF0646A100491C4FF4185202EBEC
:104A2000C10101F58070FEF7BFFF00EB062086B2E2
:104A3000AEB1A100491C4FF4185202EBC100FEF7C1
:104A4000B3FF0546A100491C4FF4185202EBC10107
:104A500001F58070FEF7A8FF00EB052085B2B54296
:104A6000D0D1284670BD70B504460025002600BF91
:104A7000A100491C4FF4005202EBC100FEF794FF65
:104A80000646A100491C4FF4005202EBC10101F59A
:104A90008070FEF789FF00EB062086B2AEB1A10060
:104AA000491C4FF4005202EBC100FEF77DFF0546A2
:104AB000A100491C4FF4005202EBC10101F58070C6
:104AC000FEF772FF00EB052085B2B542D0D1284633
:104AD00070BD0000C2B0FCF7FDFAFEF71DFCFDF74B
:104AE000B3FEFDF757FEFDF71BFFFDF73BFFFDF79C
:104AF00055FF00F0F1F900BF00BF00BF41A042A385
:104B000042A24FF48071009002A8FFF74BF80446D0
:104B1000002C0ADDFF2C08DC00BF002C04DD02AAFB
:104B2000214646A001F018FE00BF00BF00BF35A01F
:104B300035A344A24FF48071009002A8FFF732F829
:104B40000446002C0ADDFF2C08DC00BF002C04DD2D
:104B500002AA214639A001F0FFFD00BF00BF00BF3F
:104B600028A029A342A24FF48071009002A8FFF769
:104B700019F80446002C0ADDFF2C08DC00BF002CCD
:104B800004DD02AA21462DA001F0E6FD00BF00BF12
:104B900000BF1CA01CA33EA24FF48071009002A88D
:104BA000FFF700F80446002C0ADDFF2C08DC00BFEC
:104BB000002C04DD02AA214620A001F0CDFD00BF9B
:104BC00000BF00BF0FA010A310A24FF4807100908F
:104BD00002A8FEF7E7FF0446002C0ADDFF2C08DCE4
:104BE00000BF002C04DD02AA214614A001F0B4FD90
:104BF00000BF00BF02F014F8FDF704FE00F06DF8EE
:104C000000BFFEE7493A000000000000257325734D
:104C1000203D3D3D3D3D3D3D3D3D3D3D3D3D3D3DE1
:104C20003D3D3D3D3D3D3D3D3D3D3D3D3D3D3D3DB4
:104C30003D3D3D3D3D3D3D0D0A000000252E2A73C2
:104C400000000000257325732053544D3332463441
:104C5000204672656552544F53205254542050726E
:104C60006F6A65637420537461727465640D0A0021
:104C7000257325732053797374656D20436C6F63BE
:104C80006B3A20313638204D487A0D0A000000007A
:104C90002573257320525454204C6F672053797329
:104CA00074656D20496E697469616C697A65640D1B
:104CB0000A00000001460020842901D0CA1C1044CB
:104CC000704770B5044625460DB1294600E0012124
:104CD000084601F06DFE002070BD10B501F096FE93
:104CE000002010BD7FB504460D46606998B1A069EB
:104CF00088B1B4F90800FFF7DDFF0646D4E90510D6
:104D0000CDE9006102902B462269D4E9001002F03F
:104D1000DBFA039013E0B4F90800FFF7CBFF064677
:104D200003A8CDE90060238A9AB22B46D4E900108B
:104D300002F098FA012802D0002004B070BD039858
:104D4000FBE72DE9F0470446894692464F4612217B
:104D50002046FBF7E1FA3846FFF747FE2080B81CF3
:104D6000FFF743FE064606F4004008B10120A0709C
:104D7000C6F3C320E07006F4806008B10120207102
:104D800006F4007008B10120607106F4807008B16B
:104D90000120A07106F0800008B10120E07106F04A
:104DA0000F002072381DFFF720FE6081B81DFFF74D
:104DB0001CFEA08107F10800FFF717FEE08107F154
:104DC0000A00FFF712FE208207F10C0800250DE013
:104DD00041463846FFF7F4FD8046B8F1000F03D195
:104DE0004FF0FF30BDE8F087681C85B26089A842AB
:104DF000EEDC00250DE0524641463846FFF7EFFC59
:104E00008046B8F1000F02D14FF0FF30EAE7681C8E
:104E100085B2A089A842EEDC002501E0681C85B2BD
:104E2000E089A842FADC002501E0681C85B2208AEE
:104E3000A842FADC207A08B90120D3E70020D1E7A4
:104E40002DE9F04307468C461C4600250026A8465F
:104E5000614600BF11F8013B06B96D1C03F0C000AC
:104E6000C0280AD106B96D1C0126087803F03F0955
:104E700000EB0920C11911F8013B03B91BE0581CD4
:104E8000201A04B2002C03DA4FF0FF30BDE8F083A3
:104E900006B91D4403E011F8010B02F8010B181EBE
:104EA000A3F101091FFA89F3F5D12E2002F8010BB5
:104EB00008F10108CEE700BFB8F1000F04D12E20A1
:104EC00002F8010B601E04B2002002F8010B601E04
:104ED00004B22846DAE7000030B5C1B09A48046849
:104EE00000BF9AA09AA39BA24FF48071009001A8E2
:104EF000FEF758FE0546002D0ADDFF2D08DC00BF39
:104F0000002D04DD01AA294699A001F025FC00BF6F
:104F100000BF00BF8DA08EA397A24FF480710090B8
:104F200001A8FEF73FFE0546002D0ADDFF2D08DC37
:104F300000BF002D04DD01AA29468DA001F00CFC64
:104F400000BF00BF04F00040C0B100BF7FA080A33D
:104F500090A24FF48071009001A8FEF723FE054651
:104F6000002D0ADDFF2D08DC00BF002D04DD01AAA5
:104F700029467FA001F0F0FB00BF00BF04F0804095
:104F8000C0B100BF71A072A38CA24FF480710090D9
:104F900001A8FEF707FE0546002D0ADDFF2D08DCFF
:104FA00000BF002D04DD01AA294671A001F0D4FB49
:104FB00000BF00BF04F00050C0B100BF63A064A3F5
:104FC00089A24FF48071009001A8FEF7EBFD054621
:104FD000002D0ADDFF2D08DC00BF002D04DD01AA35
:104FE000294663A001F0B8FB00BF00BF04F0805069
:104FF000C0B100BF55A056A388A24FF480710090A5
:1050000001A8FEF7CFFD0546002D0ADDFF2D08DCC7
:1050100000BF002D04DD01AA294655A001F09CFB2C
:1050200000BF00BF04F00060C0B100BF47A048A3AC
:1050300083A24FF48071009001A8FEF7B3FD0546EE
:10504000002D0ADDFF2D08DC00BF002D04DD01AAC4
:10505000294647A001F080FB00BF00BF04F080603C
:10506000C0B100BF39A03AA380A24FF48071009074
:1050700001A8FEF797FD0546002D0ADDFF2D08DC8F
:1050800000BF002D04DD01AA294639A001F064FB10
:1050900000BF00BF04F00070C0B100BF2BA02CA364
:1050A0007DA24FF48071009001A8FEF77BFD0546BC
:1050B000002D0ADDFF2D08DC00BF002D04DD01AA54
:1050C00029462BA001F048FB00BF00BF04F07E4042
:1050D000C0B900BF1DA01EA379A24FF4807100903B
:1050E00001A8FEF75FFD0546002D0ADDFF2D08DC57
:1050F00000BF002D04DD01AA29461DA001F02CFBF4
:1051000000BF00BF00BF11A011A312A24FF4807115
:10511000009001A8FEF746FD0546002D0ADDFF2D93
:1051200008DC00BF002D04DD01AA294610A001F013
:1051300013FB00BF00BF0448006840F080700249C4
:10514000086041B030BD000074380240493A0000A8
:105150000000000025732573203D3D3D3D3D3D3D54
:105160003D3D3D3D3D3D3D3D3D3D3D3D3D0D0A000F
:10517000252E2A730000000025732573204C6173CF
:10518000742052657365742043617573653A0D0A26
:1051900000000000257325732020202D204C6F7700
:1051A0002D706F77657220726573657420284C507E
:1051B000575252535446290D0A0000002573257397
:1051C0002020202D2057696E646F772077617463EB
:1051D00068646F6720726573657420285757444769
:1051E00052535446290D0A00257325732020202D83
:1051F00020496E646570656E64656E7420776174B5
:105200006368646F6720726573657420284957442A
:105210004752535446290D0A000000002573257398
:105220002020202D20536F6674776172652072658F
:10523000736574202853465452535446290D0A006E
:10524000257325732020202D20506F7765722D6FD8
:105250006E202F20504F52207265736574202850A5
:105260004F5252535446290D0A00000025732573EE
:105270002020202D2050696E2072657365742028CF
:105280004E5253542070696E29202850494E525373
:105290005446290D0A000000257325732020202D77
:1052A0002042726F776E2D6F75742072657365740E
:1052B0002028424F5252535446290D0A0000000044
:1052C000257325732020202D20556E6B6E6F776E11
:1052D000206F72206F746865722072657365742028
:1052E00063617573650D0A002DE9F04105460E46B0
:1052F0001C4807681C480068001D01F04DFA50B9B1
:105300001948006890F82C10012088401749096856
:10531000814316480160681C38B936B112480168EB
:10532000091D134801F08AFA1AE07C190E4800683A
:105330004460BC4207D20C480168091D0D48006852
:1053400001F062FA0CE008480168091D0A4800688B
:1053500001F05AFA09480068844201D20748046003
:10536000BDE8F081300000201C0000203400002047
:10537000A805002024000020200000204C00002070
:1053800010B5044601F066FA23480068401C224923
:1053900008602248006840B9204804600846006858
:1053A00001280DD100F040F90AE01D48006838B925
:1053B0001A480068C06AE16A884201D81748046048
:1053C00018480068401C1749086094F82C10012008
:1053D000884015490968084313490860E16A01EBF0
:1053E0008101124A02EB8100211D01F027FA01F030
:1053F0005BFA0B48006868B108480068C06AE16A57
:10540000884207D24FF0805009490860BFF34F8FA0
:10541000BFF36F8F10BD00002C0000201C00002087
:10542000380000204800002034000020CC04002078
:1054300004ED00E010B516E001F00CFA0C48C0686D
:10544000C468201D01F0A8F90A480068401E0949F7
:10545000086009480068401E0749086001F024FA06
:10546000204600F00BF8044800680028E4D110BD85
:10547000940500202C0000202800002010B50446D0
:1054800094F8510030B9206B01F02CFA204601F05D
:1054900029FA1AE094F85100012803D1204601F0BE
:1054A00021FA12E094F85100022801D1012000E015
:1054B000002050B900BF502080F31188BFF34F8FF8
:1054C000BFF36F8F00BF00BFFEE710BD30B54FF4D4
:1054D000F043174800F007042CB1C01D20F007006E
:1054E000134C041B1B1B0246124C22600024114D5E
:1054F0006C60D018083820F007000F4C20600024A2
:105500000D4D2D686C600C4D2D682C601146441AB1
:105510004C60094C24680C60084D4C682C60084DA8
:105520004C682C604FF00044064D2C6030BD0000EC
:10553000BC0500205800002060000020680000200A
:10554000640000207400002000BFFFF773FF0748CD
:105550000068012807D94FF0805005490860BFF363
:105560004F8FBFF36F8F01F037F9EEE7CC040020C7
:1055700004ED00E02DE9FF5F81460E469246DDE92D
:105580000E7B109CAAF10100216B01EB800828F032
:10559000070808F0070008B9012000E0002050B912
:1055A00000BF502080F31188BFF34F8FBFF36F8F80
:1055B00000BF00BFFEE786B1002507E0715D04F182
:1055C00034004155705D00B902E06D1C102DF5D31B
:1055D00000BF00214320015502E0002084F8340080
:1055E000072F00D30627E76267640020A064201D10
:1055F00001F007F904F1180001F003F92461C7F183
:105600000700A06164620020E06484F8500049460D
:105610004046039A00F056F92060BBF1000F01D01C
:10562000CBF80040BDE8FF9F10B5002407E004EB75
:1056300084010F4A02EB810001F0D6F8641C072CAC
:10564000F5D30C4801F0D0F80B4801F0CDF80B4829
:1056500001F0CAF80A4801F0C7F80A4801F0C4F896
:1056600004480949086004480849086010BD000062
:10567000CC040020580500206C0500208005002087
:1056800094050020A8050020200000202400002010
:1056900010B50146164800E0006803688B42FBD352
:1056A0000246436813448B4204D143684C68234448
:1056B000436001460A464B6813440468A34211D173
:1056C0000C4C03682468A34208D04B6804686468E3
:1056D00023444B6003681B680B6005E0054B1B68A7
:1056E0000B6001E003680B60884200D0016010BDD0
:1056F00058000020600000200A490968096809B9BB
:10570000012100E0002121B14FF0FF31064A116074
:1057100006E004490968C968C868034A416811601D
:1057200070470000200000204C0000200E48006858
:10573000401C08B9012000E0002050B900BF5020F3
:1057400080F31188BFF34F8FBFF36F8F00BF00BF8F
:10575000FEE700BF502080F31188BFF34F8FBFF3E7
:105760006F8F00BF00BFFEE7780000200A1200F82C
:10577000012B00F8011B70472DE9F04104464FF062
:10578000000801F09BF94948006808B9FFF79EFE40
:10579000474800682040002870D1D4B1083404F094
:1057A0000700B0B104F00700C0F10800044404F0A1
:1057B000070008B9012000E0002050B900BF5020C8
:1057C00080F31188BFF34F8FBFF36F8F00BF00BF0F
:1057D000FEE7002C52D03748006884424ED8364E3F
:1057E0003046056801E02E462D686868A04202D266
:1057F00028680028F7D12D48006885423ED03068DF
:1058000000F10808286830606868001B102819D962
:105810002F1907F0070008B9012000E0002050B957
:1058200000BF502080F31188BFF34F8FBFF36F8FFD
:1058300000BF00BFFEE76868001B78606C603846F8
:10584000FFF726FF1B4968680968081A19490860AC
:105850000846006819490968884203D2154800685B
:1058600016490860124968680968084368600020A2
:10587000286013480068401C1149086001F026FEAA
:1058800008F0070008B9012000E0002050B900BF6F
:10589000502080F31188BFF34F8FBFF36F8F00BF8D
:1058A00000BFFEE74046BDE8F08100006000002038
:1058B00074000020640000205800002068000020D0
:1058C0006C000020001F4FF080730360001F21F068
:1058D00001030360001F054B036014380260001FC2
:1058E0006FF0020303602038704700002D57000856
:1058F0002DE9FC5F04468A4616461D46DDE90C8B01
:10590000002700BF082C02DB781EBDE8FC9F00BF0B
:10591000A100491C002202EBC100FEF745F88146B8
:1059200000F00F00022806D0032805D0042805D077
:105930000B2804D101E000BF00BF00BF02E06FF000
:105940000400E2E700BF00BF16B96FF00D00DCE70E
:1059500000BFAF4830F81400E8B91AE02046FFF75E
:105960004CF80746A100491C4FF4407202EBC100FD
:10597000FEF71AF810B96FF00300C6E70120A04047
:10598000A4490988084010B10FB90020BDE707B14C
:1059900000E0E3E700BF09F007000A280DD006DCAD
:1059A000022809D003287CD004287BD15FE00B2893
:1059B00079D00E28F9D101E000BF00BF944830F83B
:1059C0001400E8BB08226946204601F073F9A100E3
:1059D000491C4FF4807202EBC1004021FEF764F8CD
:1059E00000BFA100491C4FF4807202EBC100FDF71B
:1059F000DBFF0028F5D19DF8000028709DF801001C
:105A000068709DF80200A8709DF80300E8709DF88A
:105A10000400A8F800009DF8050098F8001000EBBD
:105A20000120A8F800009DF80600794921F814002B
:105A30009DF8070011F8141000EB0120744900E0F4
:105A400004E021F81400802073490855704830F8AC
:105A50001400B04201DD374602E06D4830F81470A2
:105A60003E463A465146204601F024F9A4E06848F3
:105A700030F81400C0BB02226946204601F01AF932
:105A8000A100491C4FF4807202EBC1004021FEF7D7
:105A90000BF800BFA100491C4FF4807202EBC1005B
:105AA00002E036E080E033E0FDF77EFF0028F1D130
:105AB0009DF80000564921F814009DF8010011F8E6
:105AC000141000EB0120801E514921F814000846F3
:105AD00030F8140040F2EA51884206DD2046FEF715
