:020000040800F2
:100000004085002061020008BD350008CB270008AC
:10001000B9350008F5090008214700080000000074
:10002000000000000000000000000000A101000826
:10003000F10A000800000000FD010008F53F00087B
:100040007B0200087B0200087B0200087B0200089C
:100050007B0200087B0200087B0200087B0200088C
:100060007B0200087B0200087B0200087B0200087C
:100070007B0200087B0200087B0200087B0200086C
:100080007B0200087B0200087B0200087B0200085C
:100090007B0200087B0200087B0200087B0200084C
:1000A0007B020008F14000087B0200087B02000888
:1000B0007B0200087B0200087B0200087B0200082C
:1000C0007B0200087B0200087B0200087B0200081C
:1000D0007B0200087B0200087B0200081147000831
:1000E0007B0200087B0200087B0200087B020008FC
:1000F0007B0200087B0200087B0200087B020008EC
:100100007B0200087B0200087B0200087B020008DB
:100110004D4200087B0200087B0200087B020008B9
:100120007B0200087B0200087B0200087B020008BB
:100130007B02000800000000000000007B020008B5
:100140007B0200087B0200087B0200087B0200089B
:100150007B0200087B0200087B0200087B0200088B
:100160007B0200087B0200087B0200087B0200087B
:100170007B0200087B020008000000000000000075
:100180007B0200087B020008DFF810D000F000FBC3
:1001900000480047C55B0008AFF3008040850020A1
:1001A0002C4B19680868B0E8F04F80F30988BFF35A
:1001B0006F8F4FF0000080F311887047000000003F
:1001C00008480068006880F308884FF0000080F35A
:1001D000148862B661B6BFF34F8FBFF36F8F00DF35
:1001E00000BF00BF08ED00E0DFF80C00016841F43B
:1001F00070010160704700BF88ED00E0EFF30980F7
:10020000BFF36F8F134B1A681EF0100F08BF20ED5D
:10021000108A20E9F04F106009B44FF0500080F3CD
:100220001188BFF34F8FBFF36F8F08F099FB4FF02A
:10023000000080F3118809BC19680868B0E8F04F25
:100240001EF0100F08BFB0EC108A80F30988BFF3CE
:100250006F8F704718000020EFF305807047000093
:100260000648804706480047FEE7FEE7FEE7FEE750
:10027000FEE7FEE7FEE7FEE7FEE7FEE7DD400008FB
:10028000890100082DE9F05F0546002092469B4653
:1002900088460646814640241BE02846414647469C
:1002A000224600F0ACF853465A46C01A914110D38A
:1002B00011461846224600F093F82D1A67EB010804
:1002C0004F4622460120002100F08AF817EB000972
:1002D0004E41201EA4F10104DFDC484631462A4687
:1002E0004346BDE8F09F40EA01039B0703D009E0C5
:1002F00008C9121F08C0042AFAD203E011F8013B12
:1003000000F8013B521EF9D27047D2B201E000F86A
:10031000012B491EFBD270470022F6E710B51346A9
:100320000A4604461946FFF7F0FF204610BD10B5F7
:10033000044604E00B7800F8013B03B1491C521E4F
:10034000F8D2204610BDCAB2401E10F8011F8A42E2
:1003500002D00029F9D100207047421C10F8011B7F
:100360000029FBD1801A704710B5002200E0521C12
:10037000835C8C5CA34201D1002BF8D1D8B2E1B2EE
:10038000401A10BD034611F8012B00F8012B002A7A
:10039000F9D11846704730B505460020034600E005
:1003A0005B1C934205D2EC5CC85C201A01D1002C86
:1003B000F6D130BD30B50B46014600202022012485
:1003C00009E021FA02F59D4205D303FA02F5491B23
:1003D00004FA02F52844151EA2F10102F1DC30BD39
:1003E000202A04DB203A00FA02F1002070479140F5
:1003F000C2F1200320FA03F3194390407047202AEA
:1004000004DB203A21FA02F00021704721FA02F3BE
:10041000D040C2F1200291400843194670472DE9AF
:10042000FE4F804681EA0300C00F0C46009021F089
:10043000004123F00045B8EB0200A94105D2404637
:10044000214690461C460B46024623F000401043CE
:1004500047D0270DC7F30A00C3F30A510290401A90
:10046000019040286BDAC3F3130040F4801B00981E
:10047000924620B10023D2EB030A63EB0B0B0198E9
:100480005946C0F140025046FFF7AAFF06460D4606
:1004900050465946019A00F08DF910EB0800614171
:1004A000002487EA115284EAE7731A4340D0009A85
:1004B00062B3019A012A4FEA075215DC001B61EB77
:1004C00002014FF0004202EA0752CDE90042001C4F
:1004D00041F5801132462B4600F08DF903B0BDE89E
:1004E000F08F40462146F9E7001B61EB0201001C3A
:1004F00041F5801300185B412018A2F5001747EB67
:10050000030140EAD570B6196D4111E06D084FEA5C
:10051000360645EAC0754FEA0752001B61EB02013F
:10052000001C41F5801149084FEA30000019514183
:1005300032462B4603B0BDE8F04F00F04DB90098AD
:10054000012240000023D0EB020263EBE07300982D
:1005500021464FEAE074B8EB000061EB0401E9E7E3
:1005600083F000435BE781F0004158E72DE9FE4F3F
:1005700081EA030404F0004421F0004100944FF0AC
:10058000000B23F0004350EA01045ED052EA03045A
:100590005BD0C3F30A54C1F30A552C44A4F2F334DC
:1005A0000194A0FB0254C1F3130141F48011C3F381
:1005B000130343F4801301FB024400FB034E840A3F
:1005C000970A44EA815447EA8357A4FB07680295D7
:1005D0008D0A05FB07854FEA932C04FB0C54270575
:1005E000029D4FEA065847EA1637B5EB08056EEB51
:1005F000070C870E920E47EA811742EA8312A7FB87
:100600000201B6EB0B0164EB00042B0D43EA0C3343
:100610005E1844EB1C50DA465146E7FB0201C5F375
:1006200013044FEA0B3343EA14534FEA0432019C9C
:1006300043EA0603A4F10C040294009CCDE900B443
:1006400000F0D9F803B0BDE8F08F00200146F9E7CB
:100650002DE9F04D81EA030404F0004B21F0004540
:1006600014464FF0000A23F0004150EA050220D062
:1006700054EA01021DD0C5F30A570246C5F313031D
:10068000C1F31300C1F30A5640F4801543F48013FC
:10069000A7EB0608101BD64608F2FD3873EB0500E1
:1006A00002D308F1010801E092185B41B8F1000F94
:1006B00003DA00200146BDE8F08D00204FF48011E0
:1006C000064684460EE0171B73EB050705D3121B85
:1006D00063EB050306434CEA010C49084FEA30007E
:1006E00092185B4150EA0107EDD152EA030012D0A3
:1006F00082EA040083EA0501084305D0101BAB41E0
:1007000006D20122002306E000224FF0004302E05F
:100710006FF0010253101AEB06004CEB085110EB7E
:100720000A0041EB0B01BDE8F04D00F055B8C1F3F4
:100730000A52C1F3130140F2FF3341F480119A428F
:1007400002DA00200146704740F233439A42A2F297
:10075000334202DC5242FFF752BEFFF741BE0000B7
:1007600030B5041E71F1000404DB4FF00044404238
:1007700064EB0101141E73F1000405DB1C464FF00D
:100780000043524263EB0403994208BF904230BDDC
:10079000064C074D06E0E06840F0010394E80700CE
:1007A00098471034AC42F6D3FFF7F2FC5496000899
:1007B00074960008202A06DBCB17203A41FA02F093
:1007C00043EAE07306E041FA02F3D040C2F12002AE
:1007D000914008431946704710B5141E73F1000488
:1007E00008DA401C41F1000192185B411A4301D123
:1007F00020F0010010BD2DE9F04D92469B4611B14D
:10080000B1FA81F202E0B0FA80F220329046FFF7AE
:10081000E7FD04460F4640EA0A0041EA0B01534651
:100820005A46084313D0114653EA010019D0C8F1C3
:1008300040025046FFF7E3FD05460E465046594636
:100840004246FFF7CDFD084305D0012004E02046D5
:100850003946BDE8F08D0020054346EAE0762C439A
:1008600037430A986305E40AA0EB08000022FD0A5A
:1008700044EA47540A3002D500200146E9E7010561
:1008800010196941DDE9084500196941BDE8F04DDD
:10089000A2E7000055494A6822F440324A604A689B
:1008A00043681A434A600268526822F480720368FF
:1008B0005A6002685368026943EA022203685A6078
:1008C0000268526822F0407203685A6002685268F7
:1008D00083681A4303685A600268926822F40062CF
:1008E00003689A6002689268C3681A4303689A6052
:1008F0003F4B826A9A4218D00268926822F0706276
:1009000003689A6002689268836A1A4303689A606F
:100910000268926822F0405203689A600268926806
:10092000C36A1A4303689A600BE00268926822F077
:10093000706203689A600268926822F0405203680D
:100940009A600268926822F0020203689A60026864
:100950009368027E43EA420203689A602022125C96
:10096000A2B10268526842F4006203685A600268E9
:10097000526822F4604203685A6002685368426A0F
:10098000521E43EA423203685A6005E00268526828
:1009900022F4006203685A600268D26A22F470028C
:1009A0000368DA620268D36A828B521E43EA0252FB
:1009B0000368DA620268926822F4007203689A603F
:1009C0000268936890F8302043EA422203689A60F4
:1009D0000268926822F4806203689A6002689368F1
:1009E000426943EA822203689A607047002301400B
:1009F0000100000F00BFFEE7044A1070044A1160B6
:100A000041F22212034B1A8070470000E4000020DC
:100A1000E0000020E60000202DE9F04389B0054603
:100A20000F46904600202E4908702E49086000238A
:100A30001A4602212C48007807F0EEF84FF4807334
:100A40002A4839460268002004F04AFF86B2352061
:100A50002B4632460090254801682348007807F06D
:100A6000C7F835E02048007804F0D3FF061E17DDF4
:100A7000B6F5807F01DD4FF4807602A803AB3246E5
:100A800000901A4801681848007806F0B5FD86B253
:100A900042461648016804A805F02DFD814618E07D
:100AA00004F002FC0446002C07DA0F48007804F03A
:100AB00019FC002009B0BDE8F0834CB935202B4665
:100AC00032460090094801680748007807F090F81E
:100AD000C8E700BF0448007804F004FC4846E9E792
:100AE000EC000020E8000020E4000020E0000020EE
:100AF000704772B600BFFEE738B50246002000908E
:100B000000BF92F83C00012801D1022038BD01202D
:100B100082F83C0000BF0868092816D91068C06830
:100B20000C780A3C04EB44050724AC40A04314684D
:100B3000E0600C780A3C04EB44048868A040146828
:100B4000E46820431468E06013E0106800690C78E2
:100B500004EB44050724AC40A043146820610C78E2
:100B600004EB44048868A040146824692043146896
:100B700020614868072817D21068406B0C79641E02
:100B800004EB84051F24AC40A0431468606308880C
:100B900080B20C79641E04EB8404A0401468646B7A
:100BA00020431468606331E048680D2817D210684C
:100BB000006B0C79E41F04EB84051F24AC40A043B8
:100BC00014682063088880B20C79E41F04EB840465
:100BD000A0401468246B20431468206316E010685A
:100BE000C06A0C790D3C04EB84051F24AC40A04383
:100BF0001468E062088880B20C790D3C04EB840430
:100C0000A0401468E46A20431468E062194B1A4C4F
:100C10001068A04206D10868122803D1586840F431
:100C200080005860144C1068A0421CD1086810283D
:100C300002D00868112816D1586840F400005860A6
:100C4000086810280FD10D4800680D4CB0FBF4F077
:100C500000EB80004000009002E00098401E0090F1
:100C600000980028F9D100BF002082F83C0000BFA6
:100C700000BF4BE70023014000200140140000208A
:100C800040420F0070B5044600250CB9012070BD2C
:100C90001549A06A884200D000BF206C30B92046B8
:100CA00000F024F80020606484F83C00206C00F020
:100CB000100088B9206C20F4885040F002002064B5
:100CC0002046FFF7E7FD00206064206C20F0020062
:100CD00040F00100206400E0012500BF002084F8FE
:100CE0003C0000BF2846D2E70100000F10B586B0D7
:100CF0000446142101A8FFF70FFB19492068884218
:100D00002BD100BF002000901648006840F480708E
:100D1000144908600846006800F48070009000BF25
:100D200000BF00BF002000900E481438006840F05B
:100D300004000C49143908600846006800F00400FB
:100D4000009000BF00BF0820019003200290002007
:100D5000039001A9044800F087F806B010BD000018
:100D600000200140443802400008024070B50446AB
:100D7000A56D00F083F9064694F83500022808D0E6
:100D80008020606500BF002084F8340000BF01208F
:100D900070BD2068006820F0160021680860206897
:100DA000406920F0800021684861206C08B9A06C7F
:100DB00028B12068006820F00800216808602068D9
:100DC000006820F001002168086010E000F056F98A
:100DD000801B05280BD920206065032084F835008E
:100DE00000BF002084F8340000BF0320D0E7206853
:100DF000006800F001000028E8D194F85C103F2062
:100E00008840A860012084F8350000BF002084F8E5
:100E1000340000BF00BFBBE7014691F8350002284F
:100E200003D08020486501207047052081F83500F7
:100E30000868006820F001000A6810600020F3E7ED
:100E400070B5044600F01AF906462546681C10B134
:100E500004480078054400BF00F010F9801BA84248
:100E6000FAD370BD10000020F8B502460B460025ED
:100E7000002400200021D6E0012606FA01F51E68B4
:100E800006EA0504AC4274D11E7906F00306012E71
:100E900004D01E7906F00306022E13D190684F008D
:100EA0000326BE40B0434F00DE68BE403043906032
:100EB000506801268E40B0431E79C6F300168E405E
:100EC000304350601E7906F00306032E09D0D06827
:100ED0004F000326BE40B0434F009E68BE403043E3
:100EE000D0601E7906F00306022E13D1CF0802F15E
:100EF000200656F827004E07F70E0F26BE40B043D7
:100F00004F07FF0E1E69BE403043CF0802F1200696
:100F100046F8270010684F000326BE40B0431E79F4
:100F200006F003064F00BE40304310605E6806F4D2
:100F30004036002E76D000BF002600963C4E366824
:100F400046F480463A4F3E603E46366806F4804698
:100F5000009600BF00BF374E8F0856F827008E0757
:100F6000370F0F26BE40B043334EB24202D10026A7
:100F700024E057E0314EB24201D101261EE0304E4E
:100F8000B24201D1022619E02E4EB24201D103260F
:100F900014E02D4EB24201D104260FE02B4EB24296
:100FA00001D105260AE02A4EB24201D1062605E00B
:100FB000284EB24201D1072600E008268F073F0FD6
:100FC000BE4030431B4E8F0846F82700224E306843
:100FD000A0435E6806F4801606B120431E4E3060C2
:100FE000361D3068A0435E6806F4001606B1204343
:100FF000194E361D3060184E361F3068A0435E68AB
:1010000006F4003606B12043134E361F3060361FFB
:101010003068A0435E6806F4803606B120430E4E69
:10102000083E3060491C1029FFF426AFF8BD0000CF
:1010300044380240083801400000024000040240E9
:1010400000080240000C0240001002400014024060
:1010500000180240001C0240083C014010B54269E3
:1010600021EA020302EA010443EA0443836110BD5A
:101070000AB1816101E00B04836170470148006897
:10108000704700000800002070B504460CB901202C
:1010900070BD4CF6CC402168086045F2555021687F
:1010A0000860D4E9001048602168A0688860FFF7F4
:1010B000E5FF05460DE0FFF7E1FF401B41F60101AA
:1010C000884206D92068C06800F0030008B10320F8
:1010D000DEE72068C06800F003000028EBD14AF684
:1010E000AA20216808600020D2E701464AF6AA201B
:1010F0000A681060002070470348006803490978B7
:1011000008440149086070470800002010000020D2
:1011100010B50D48006840F400700B49086008469F
:10112000006840F4806008600846006840F4807001
:101130000860032000F0D6F80F2000F007F800F058
:1011400055F8002010BD0000003C0240F0B587B00B
:1011500004460026002700BF002000901E480068BB
:1011600040F001001C4908600846006800F00100DA
:10117000009000BF00BF01A902A800F089F900F0AB
:10118000BFF946001548B6FBF0F0471E1448154954
:10119000086040F2E7311348C160476000210161F7
:1011A0008160816100F00FFF054695B90D4800F0A0
:1011B0003FFF05466DB9192000F042F8102C07D208
:1011C00000222146192000F04FF80748046000E093
:1011D0000125284607B0F0BD4438024040420F00C8
:1011E00000000140840400200C00002008B500BF6E
:1011F000002000901148006840F480400F490860CA
:101200000846006800F48040009000BF00BF00BFA7
:1012100000200090081F006840F08050091F0860FF
:101220000846006800F08050009000BF00BF002218
:101230000F21901E00F018F808BD0000443802404D
:101240000146084600280DDB00BF00BF00F01F0369
:1012500001229A4043099B0003F1E023C3F80021D7
:1012600000BF00BF00BF70472DE9F05F80460D460C
:101270001646002703F088FB074639462A463346C0
:1012800001F00700C0F1070ABAF1040F02D94FF0CC
:10129000040A01E0C0F1070AD14600F1040ABAF1DC
:1012A000070F02D24FF0000A01E0A0F1030AD44672
:1012B0004FF0010A0AFA09FAAAF1010A0AEA020A37
:1012C0000AFA0CFA4FF0010B0BFA0CFBABF1010B15
:1012D0000BEA030B4AEA0B042146404603F05CFB91
:1012E000BDE8F09F00BF00F00702064B19684FF6FB
:1012F000FF031940044B0B4343EA0221014B1960E1
:1013000000BF70470CED00E00000FA0570B5044620
:101310000D460CB9012070BD5848006800F0070068
:10132000A84209D255490D700846006800F0070030
:10133000A84201D00120EEE7207800F00200022848
:101340001DD1207800F00400042805D14C48006825
:1013500040F4E0504A490860207800F0080008286E
:1013600005D14748006840F460404549086044485A
:10137000006820F0F000A168084341490860207827
:1013800000F00100A8B36068012807D13C48083884
:101390000068C0F34040B8B90120BCE7606802288B
:1013A00002D06068032807D1354808380068C0F3C8
:1013B000406048B90120AEE7314808380068C0F302
:1013C000400008B90120A6E72D48006820F003007E
:1013D000616808432A490860FFF750FE064609E0A5
:1013E000FFF74CFE801B41F28831884202D903206E
:1013F00091E707E02248006800F00C006168B0EB5C
:10140000810FEDD11D48006800F00700A84209D9FE
:101410001A490D700846006800F00700A84201D084
:10142000012078E7207800F00400042807D1144850
:10143000006820F4E050E168084311490860207812
:1014400000F00800082808D10D48006820F460402A
:10145000216940EAC1000A49086000F061F80849C2
:101460000968C1F30311074A515CC8400649086086
:1014700006480068FFF76AFE00204CE7003C024087
:101480000838024074950008140000200C00002069
:101490000F2202600D4A126802F0030242600B4AFA
:1014A000126802F0F0028260084A126802F4E05208
:1014B000C260064A126802F46042D2080261044A1D
:1014C000126802F007020A60704700000838024004
:1014D000003C0240014800687047000014000020F2
:1014E00000B5FFF7F7FF04490968C1F38221034AF9
:1014F000515CC84000BD00000838024084950008D7
:1015000000B5FFF7E7FF04490968C1F34231034A18
:10151000515CC84000BD00000838024084950008B6
:101520002DE9F047002400250026A1462548006843
:1015300000F00C0020B1042805D008283AD105E0BD
:10154000DFF8849039E0DFF8849036E01D48001F12
:10155000006800F03F041B48001F006800F4800092
:1015600078B11A481749091F0968C1F38811A0FB0F
:1015700001700146224600233846FEF783FE0546E9
:101580000EE011480F49091F0968C1F38811A0FB3B
:1015900001700146224600233846FEF773FE0546D9
:1015A0000848001F0068C0F30140401C4600B5FB1E
:1015B000F6F902E0DFF8109000BF00BF4846BDE832
:1015C000F0870000083802400024F40000127A007E
:1015D000F8B504460CB90120F8BD207800F00100F0
:1015E000002874D0F948006800F00C0004280DD0E1
:1015F000F648006800F00C00082813D1F348001FDB
:10160000006800F48000B0F5800F0BD1EF48083877
:101610000068C0F34040002859D06068002856D1C7
:101620000120D9E700BF6068B0F5803F08D1E748E6
:101630000838006840F48030E449083908601EE04A
:101640006068B0F5A02F0DD1E0480838006840F47C
:101650008020DE49083908600846006840F4803080
:1016600008600CE0D9480838006820F48030D74979
:10167000083908600846006820F48020086000BF30
:10168000606890B1FFF7FAFC054606E0FFF7F6FC4C
:10169000401B642801D903209EE7CC480838006825
:1016A000C0F340400028F1D011E0FFF7E7FC054609
:1016B00006E0FFF7E3FC401B642801D903208BE719
:1016C000C24808380068C0F340400028F1D12078B3
:1016D00000F0020002285FD1BC48006800F00C0056
:1016E00058B1BA48006800F00C0008281CD1B7486F
:1016F000001F006800F48000B0B9B44808380068E2
:10170000C0F3400020B1E068012801D0012063E768
:10171000AE480838006820F0F800216940EAC100AE
:10172000AA490839086037E0E06800B30120A849F9
:101730000860FFF7A3FC054606E0FFF79FFC401B8F
:10174000022801D9032047E7A04808380068C0F301
:1017500040000028F1D09D480838006820F0F800CB
:10176000216940EAC10099490839086014E0002065
:1017700097490860FFF782FC054606E0FFF77EFC0C
:10178000401B022801D9032026E79048083800684A
:10179000C0F340000028F1D1207800F008000828AC
:1017A0002CD16069A8B101208A490860FFF766FC66
:1017B000054606E0FFF762FC401B022801D9032022
:1017C0000AE782486C300068C0F340000028F1D07E
:1017D00014E000207F490860FFF750FC054606E052
:1017E000FFF74CFC401B022801D90320F4E67748A0
:1017F0006C300068C0F340000028F1D1207800F080
:101800000400042870D1002770483830006800F0C8
:10181000805090B900BF002000906C4838300068BC
:1018200040F080506949383108600846006800F08F
:101830008050009000BF00BF01276748006800F497
:101840008070B0B96448006840F4807062490860F4
:10185000FFF714FC054606E0FFF710FC401B0228CA
:1018600001D90320B8E65C48006800F480700028C5
:10187000F2D000BFA068012808D154486830006841
:1018800040F001005149683108601DE0A06805285A
:101890000DD14E486830006840F004004B49683173
:1018A00008600846006840F0010008600CE0474806
:1018B0006830006820F0010044496831086008463B
:1018C000006820F00400086000BFA068A8B1FFF71E
:1018D000D5FB054609E0FFF7D1FB401B41F28831FB
:1018E000884202D9032077E626E03848683000684D
:1018F000C0F340000028EED013E0FFF7BFFB054621
:1019000008E0FFF7BBFB401B41F28831884201D958
:10191000032061E62D4868300068C0F340000028CD
:10192000EFD1012F07D129483830006820F08050CE
:1019300026493831086000BFA069002845D02348F7
:10194000006800F00C0008285DD0A069022845D18D
:1019500000201F490866FFF791FB054606E0FFF7E8
:101960008DFB401B022801D9032035E617480838B3
:101970000068C0F340600028F1D1D4E907010843B2
:10198000616A40EA81110122A06AC2EB500041EA7B
:1019900000412C20005D41EA00600C49091F0860ED
:1019A00001200B490866FFF769FB054606E0FFF7D3
:1019B00065FB401B022801D903200DE603480838C7
:1019C0000068C0F340600028F1D049E008380240C8
:1019D00000004742800E474200700040002021492D
:1019E0000866FFF74BFB054606E0FFF747FB401B89
:1019F000022801D90320EFE51B480068C0F34060CE
:101A00000028F2D12CE0A069012800D1E4E51648B5
:101A1000001D0668A069012820D006F48001E06955
:101A200081421BD106F03F01206A814216D147F660
:101A3000C0703040616AB0EB811F0FD106F44031B5
:101A40000122A06AC2EB5000B1EB004F06D106F0B4
:101A500070612C20005DB1EB006F01D00120BBE56F
:101A60000020B9E5000047420038024010B50446A6
:101A70000CB9012010BD606A38B96068B0F5827F8A
:101A800000D105E00021E16102E0002121616161F6
:101A90000021A16294F8510028B9002084F8500078
:101AA000204600F047F8022084F8510020680068C2
:101AB00020F0400021680860A08800F4827021892D
:101AC00001F404410843A18901F400610843217C29
:101AD00001F002010843217D01F001010843218B3F
:101AE00001F400710843217F01F0380108432021EF
:101AF000095D01F080010843218D01F40051084384
:101B0000216808600421A06901EA104094F82410BB
:101B100001F010010843216848602068C06920F482
:101B200000602168C86100206065012084F85100D0
:101B300000209FE710B586B00446142101A8FEF7E7
:101B4000EBFB1B49206888422FD100BF002000908A
:101B50001848006840F4805016490860084600683C
:101B600000F48050009000BF00BF00BF0020009034
:101B700010481438006840F001000E49143908601C
:101B80000846006800F00100009000BF00BFE020A0
:101B90000190022002900020039003200490052071
:101BA000059001A90448FFF75FF906B010BD0000D9
:101BB0000030014044380240000002402DE9F84363
:101BC00004460F4616461D46FFF758FA8046B146B2
:101BD00094F85100012802D00220BDE8F88307B133
:101BE0000EB90120F9E700BF94F85000012801D197
:101BF0000220F2E7012084F8500000BF032084F89F
:101C00005100002060652763A686E686A063A08752
:101C1000E08760642064A068B0F5004F0BD12068B5
:101C2000006820F04000216808602068006840F4E7
:101C30008040216808602068006800F0400040286B
:101C400005D02068006840F0400021680860E06826
:101C5000B0F5006F37D1606810B1B9F1010F09D14B
:101C6000206B00882168C860206B801C2063E08E98
:101C7000401EE08623E02068806800F00200022811
:101C80000AD1206B00882168C860206B801C20630B
:101C9000E08E401EE08612E0FFF7F0F9A0EB0800AE
:101CA000A84201D3681C00B94DB9012084F8510045
:101CB00000BF002084F8500000BF03208DE7E08EB5
:101CC0000028D8D136E0606810B1B9F1010F09D110
:101CD000206B007821680873206B401C2063E08E25
:101CE000401EE08623E02068806800F002000228A1
:101CF0000AD1206B007821680873206B401C206398
:101D0000E08E401EE08612E0FFF7B8F9A0EB080075
:101D1000A84201D3681C00B94DB9012084F85100D4
:101D200000BF002084F8500000BF032055E7E08E7C
:101D30000028D8D142462946204601F06BFD08B163
:101D400020206065A06850B900BF00200090206886
:101D5000C068009020688068009000BF00BF01202C
:101D600084F8510000BF002084F8500000BF606D6F
:101D700008B1012031E700202FE72DE9FE4F04468E
:101D80000F4690461D460C9E01200190FFF776F904
:101D9000814694F851B060680290AA46BBF1010FE9
:101DA0000BD00298B0F5827F04D1A06810B9BBF1C6
:101DB000040F02D00220BDE8FE8F1FB1B8F1000F62
:101DC00000D00DB90120F6E700BF94F850000128BB
:101DD00001D10220EFE7012084F8500000BF94F801
:101DE0005100042802D0052084F8510000206065CD
:101DF000C4F83880E587A5872763E586A586206433
:101E000060642068006800F04000402805D0206829
:101E1000006840F0400021680860E068B0F5006F9D
:101E200052D1606810B1BAF1010F09D1206B00885E
:101E30002168C860206B801C2063E08E401EE08615
:101E40003BE02068806800F00200022810D1E08E9C
:101E500070B1019801280BD1206B00882168C860FF
:101E6000206B801C2063E08E401EE08600200190E5
:101E70002068806800F0010068B1E08F58B12068E8
:101E8000C068A16B0880A06B801CA063E08F401E1F
:101E9000E08701200190FFF7F1F8A0EB0900B042C4
:101EA0000BD3701C48B1012084F8510000BF002002
:101EB00084F8500000BF03207DE7E08E0028C0D1E9
:101EC000E08F0028BDD152E0606810B1BAF1010F77
:101ED00009D1206B007821680873206B401C2063B7
:101EE000E08E401EE0863CE02068806800F0020042
:101EF000022810D1E08E70B1019801280BD1206B1F
:101F0000007821680873206B401C2063E08E401E1F
:101F1000E086002001902068806800F0010068B130
:101F2000E08F58B12068C068A16B0870A06B401C9E
:101F3000A063E08F401EE08701200190FFF79EF82C
:101F4000A0EB0900B04201D3701C00B94EB90120CA
:101F500084F8510000BF002084F8500000BF032027
:101F600029E7E08E0028BFD1E08F0028BCD14A4687
:101F70003146204601F04EFC40B12020606500BF94
:101F8000002084F8500000BF012014E7A06850B979
:101F900000BF002000902068C06800902068806822
:101FA000009000BF00BF012084F8510000BF002056
:101FB00084F8500000BF606D08B10120FBE60020EE
:101FC000F9E67047704710B504460CB9012010BD02
:101FD00094F83D0028B9002084F83C00204600F029
:101FE00025F8022084F83D00211D206802F088F8C1
:101FF000012084F8460000BF84F83E0001213F2004
:102000000155402001554120015500BF00BF01206E
:1020100084F84200432001554420015545200155D4
:1020200000BF012084F83D000020D0E77047000089
:10203000014691F83D00012801D00120704702209F
:1020400081F83D000868C06840F001000B68D86066
:102050001A4B086898421BD00868B0F1804F17D01F
:10206000174B0868984213D0164B086898420FD057
:10207000154B086898420BD0144B0868984207D05B
:10208000134B0868984203D0124B086898420CD151
:102090000868806800F00702062A0CD0086800680B
:1020A00040F001000B68186005E00868006840F027
:1020B00001000B6818600020C0E70000000001402C
:1020C0000004004000080040000C004000040140F3
:1020D0000040014000180040704770B50446206879
:1020E000C5682068066906F00200022819D105F0CB
:1020F0000200022815D1401F2168086101202077C5
:102100002068806900F0030018B12046FFF7E4FF63
:1021100005E0204600F097F8204600F095F80020F2
:10212000207706F00400042819D105F004000428E3
:1021300015D1C0432168086102202077206880699A
:1021400000F4407018B12046FFF7C6FF05E02046B6
:1021500000F079F8204600F077F80020207706F0AC
:102160000800082819D105F00800082815D1C04337
:1021700021680861042020772068C06900F003000E
:1021800018B12046FFF7A8FF05E0204600F05BF8F5
:10219000204600F059F80020207706F010001028A3
:1021A00019D105F01000102815D1C043216808612D
:1021B000082020772068C06900F4407018B12046DC
:1021C000FFF78AFF05E0204600F03DF8204600F0CA
:1021D0003BF80020207706F0010048B105F001002F
:1021E00030B16FF0010021680861204600F02EF840
:1021F00006F08000802809D105F08000802805D1F4
:10220000C043216808612046FFF7DBFE06F040006E
:10221000402809D105F04000402805D1C04321687D
:102220000861204600F01EF806F02000202809D1A1
:1022300005F02000202805D1C04321680861204610
:10224000FFF7C0FE70BD70477047000010B5044630
:1022500003492068884201D1FEF74EFF10BD0000FF
:102260000000014070477047704700002DE9F84FAB
:102270000446206805682068C668206847694FF0F2
:102280000009CA4605F00F09B9F1000F0AD105F09F
:10229000200038B106F0200020B1204602F02DF8D1
:1022A000BDE8F88FB9F1000F7CD007F0010018B934
:1022B00006F49070002875D005F0010030B106F4E6
:1022C000807018B1606C40F00100606405F004009B
:1022D00030B107F0010018B1606C40F0020060649A
:1022E00005F0020030B107F0010018B1606C40F059
:1022F0000400606405F0080048B106F0200010B941
:1023000007F0010018B1606C40F008006064606C78
:10231000002846D005F0200028B106F0200010B1BA
:10232000204601F0EAFF20684069C0F3801A606C23
:1023300000F0080010B9BAF1000F2DD0204601F0CE
:1023400096FF2068406900F04000402820D100BF7F
:1023500000BF2168143151E8001F21F040002168BE
:10236000143141E80002002AF3D100BFE06B50B104
:102370007F48E16B0865E06BFEF74EFD88B1E06BCE
:10238000016D88470DE02046FFF76EFF09E009E088
:102390002046FFF769FF04E02046FFF765FF0020B5
:1023A00060647DE7206B012878D105F010000028DB
:1023B00074D006F010000028FAD000BF0020009072
:1023C00020680068009020684068009000BF00BF4F
:1023D0002068406900F04000402870D1E06B006840
:1023E00040681FFA80F8B8F1000F58D0A08D404522
:1023F00055DDA4F82E80E06BC069B0F5807F43D036
:1024000000BF00BF21680C3151E8001F21F480702B
:1024100021680C3141E80002002AF3D100BF00BF5F
:1024200000BF2168143151E8001F21F0010021682C
:10243000143141E80002002AF3D100BF00BF00BF01
:102440002168143151E8001F21F040002168143147
:1024500041E80002002AF3D100BF202084F84200A6
:102460000020206300BF00BF21680C3151E8001F2D
:1024700021F0100021680C3141E80002002AF3D15C
:1024800000BFE06BFEF772FC02206063A08DE28D5E
:10249000801A81B22046FFF7E6FE0EE052E0A08DE2
:1024A00040450AD1E06BC069B0F5807F05D10220BC
:1024B0006063A18D2046FFF7D6FEF1E6FFE7A08D11
:1024C000E18D401A1FFA80F8E08DD0B3B8F1000F0B
:1024D00037D000BF00BF21680C3151E8001F21F444
:1024E000907021680C3141E80002002AF3D100BF4E
:1024F00000BF00BF2168143151E8001F21F0010026
:102500002168143141E80002002AF3D100BF2020E5
:1025100084F842000020206300BF00BF21680C3116
:1025200051E8001F21F0100021680C3141E8000241
:10253000002AF3D100BF0220606341462046FFF726
:1025400092FEADE605F0800030B106F0800018B1D3
:10255000204602F067F8A3E605F0400030B106F02F
:10256000400018B1204601F0B8FE99E600BF97E69A
:102570005D42000810B504460CB9012010BDA069E9
:1025800000B100E000BF94F8410028B9002084F8B1
:102590004000204600F02AF8242084F841002068FA
:1025A000C06820F400502168C860204601F024FF74
:1025B0002068006920F49040216808612068406923
:1025C00020F02A00216848612068C06840F400506B
:1025D0002168C86000206064202084F8410084F8ED
:1025E00042000020606300BFC8E7000010B586B05D
:1025F0000446142101A8FDF78FFE3E492068884259
:1026000039D100BF002000903B48006840F4002012
:10261000394908600846006800F40020009000BFB7
:1026200000BF00BF0020009033481038006840F021
:1026300004003149103908600846006800F00400C1
:10264000009000BF00BF4FF4406001900220029054
:1026500000200390032004900820059001A927483A
:10266000FEF702FC002205213420FEF7FDFD342098
:10267000FEF7E6FD3CE022492068884238D100BFE1
:10268000002000901C48006840F480201A4908602F
:102690000846006800F48020009000BF00BF00BF23
:1026A0000020009014481038006840F002001249E1
:1026B000103908600846006800F00200009000BF72
:1026C00000BF4FF440600190022002900020039070
:1026D000032004900720059001A90A48FEF7C4FBD7
:1026E000002205212720FEF7BFFD2720FEF7A8FDC9
:1026F00006B010BD004C00404038024000080240C7
:10270000004800400004024070472DE9F84F04469D
:102710000E46174699464FF0000A94F841002028CB
:1027200050D106B117B90120BDE8F88F00206064D0
:10273000212084F84100FEF7A1FC8246A784E784AB
:10274000A068B0F5805F04D1206910B90025B046BB
:1027500002E035464FF000081EE05346002280217B
:102760002046CDF8009001F08DFF20B1202084F8A4
:1027700041000320D8E745B9B8F80000C0F30800CD
:102780002168486008F1020803E028782168486061
:102790006D1CE08C401EE084E08C0028DDD15346A7
:1027A000002240212046CDF8009001F06BFF20B1BF
:1027B000202084F841000320B6E7202084F841005F
:1027C0000020B1E70220AFE7704700BFFEE70146F7
:1027D000002000BF05E0002301F1280242F830305C
:1027E000401C0528F7DB70472DE9F05F04460E46D4
:1027F00017469846DDE90BABDDF8289066650025A5
:1028000005E0002104F1280040F835106D1C052D6D
:10281000F7DB6760C4F81080C4F80890C4F814A00F
:10282000C4F80CB00020206260622077206501208F
:10283000206004F1580001F0E6FC04F1600001F0B2
:10284000E2FCBDE8F09F10B504460020207720622E
:10285000606A10B12046FFF7BAFF10BD38B50446D4
:102860000D466A462946204600F002F838BD0000B1
:102870002DE9F04198B004460E4615464FF0FF375B
:10288000582227496846FDF72EFD4FF00008206AC0
:1028900000B13CE016A801F0B6FC16A8616801F092
:1028A000AAFC06B96E46308BA061B07E606204F16E
:1028B0006000A16901F094FC3246A168206900F033
:1028C00081FAB0F1000800DC21E016AA414620465A
:1028D00005F008F8071E00D019E016AA02212046CC
:1028E00006F0E8F802280FD1002028706870294609
:1028F000681CE368626900F04BF8012801D12F7869
:1029000004E04FF0FF3701E04FF0FF3700BF1FB981
:102910000120206200202077384618B0BDE8F08101
:10292000E49500082DE9FE4F04460D4616461F4665
:10293000DDF830A00020029001978046814601A872
:1029400004F0B0FB8DF808000298C0F3C0002870B6
:102950000298C0F3031020706946019800F01CF93A
:102960008146019908440190DDE9001000EB01085F
:102970000198A8EB0000022800DA06E001A804F0A4
:1029800098FB30804FF0010900BF4846BDE8FE8F3C
:102990002DE9FF4704460D46164699460020039050
:1029A000029600278046009002A804F07BFB8DF879
:1029B0000C000398C0F30310022800D01FE001A907
:1029C000029800F0E9F88046029908440290DDE997
:1029D000011047180298381A022800DA0FE002A8FE
:1029E00004F060FB8DF80000009800F001002070FA
:1029F00002A804F057FB28704FF0010800BF4046C2
:102A000004B0BDE8F0872DE9FF5F06460C46174687
:102A10009846DDE90FABDDF838900020039011985F
:102A20000290002500200190009002A804F03AFBDB
:102A30008DF80C000398C0F30310032800D032E097
:102A40000398C0F3C00030700398C0F341002060C9
:102A5000039800F0010038706946029800F09CF875
:102A600001900299084402900099029845182A465C
:102A700002A9484604F02AFB10B10298281A00D592
:102A800011E02068002804DD02A804F012FBA8F879
:102A900000000298281ACBF800000298CAF800003B
:102AA0000120019000BF019804B0BDE8F09F2DE91E
:102AB000FE4F05460E4614461F46DDE90C9B0020DE
:102AC0000290CDF804908046824601A804F0EAFA0C
:102AD0008DF808000298C0F30310092800D02CE0FC
:102AE0006946019800F058F882460199084401901F
:102AF000DDE9001000EB01080198A8EB00000228B6
:102B000000DA1AE001A804F0D4FA2880002020603E
:102B10000DE02068B04202DD4FF0FF3A0DE001A861
:102B200004F0C0FA2268511C216047F82200019885
:102B30004045EED34FF0010A00BF5046BDE8FE8F7E
:102B40002DE9F84305460C460126002700202060A9
:102B500000BF4FF0FF38781C0746042801DD00BF96
:102B600017E001216846A8478046B8F1010F00D060
:102B70000FE09DF8001001F07F01206801FB0600C6
:102B80002060F6019DF8000000F080000028E0D1F0
:102B900000BF3846BDE8F88370B504460D460348CB
:102BA000046029460248FFF7CBFF70BDF00000200B
:102BB0008152000830B50246002300BF0846CD17F9
:102BC00001EB5565ED11A1EBC515ECB2CD1701EB8D
:102BD0005565E911002901DD44F0800418465B1CAD
:102BE00014540029EADC184630BD2DE9F0410446B2
:102BF0000E460027B846206828B125682068FDF7F2
:102C0000ACFB074601E0A56867683046FDF7A5FB09
:102C10008046474508D13A4631462846FDF7BBFB7A
:102C200010B90120BDE8F0810020FBE7401C80289E
:102C300001DA401C0AE0B0F5804F01DA801C05E0A3
:102C40000349884201DAC01C00E0001D7047000003
:102C5000FFFF1F002DE9F0418CB005460E461446DB
:102C60004FF0FF37002007900890099007968046A4
:102C7000286A00B963E00AA801F0C5FA0AA86968E1
:102C800001F0B9FA2078012802D02078022803D177
:102C9000284602F0B2FEA080D4E90201CDE9050188
:102CA00007A807C802AB07C3A0886178CDE9001068
:102CB00023780022A968286900F07CF98046B8F1E1
:102CC000000F00DC3BE00AAA4146284604F00AFE59
:102CD000071E00D033E02078012816D10AAA04216B
:102CE000284605F0E7FE04280CD1E868009006AA03
:102CF00005A904A86B69FFF715FE012801D04FF064
:102D0000FF371BE04FF0FF3718E02078022815D17D
:102D10000AAA0721284605F0CDFE07280CD1E8684D
:102D2000009006AA05A904A86B69FFF7FBFD01281E
:102D300001D04FF0FF3701E04FF0FF3700BF781CA4
:102D400010B92846FFF77FFD38460CB0BDE8F0818A
:102D50002DE9FC4704460E4615461F46DDF828803F
:102D60000020019081460094042E02DA6FF00109E0
:102D700024E0019865F307100190019867F3C30000
:102D80000190062D01D1012100E00021019861F39D
:102D9000420001909DF80410684606F027F90221D0
:102DA0000098FFF707FF00990844009041466846E5
:102DB00006F022F90098A0EB040900BF4846BDE8E0
:102DC000FC8700002DE9FE4305460E461446029599
:102DD00000200190009000274FF0FF38204600F0BF
:102DE000A5F807468146FFF721FFB04202DD6FF0EC
:102DF00001088FE000208DF80400019820F0F00019
:102E0000103001909DF8041002A806F0EFF8394642
:102E10000298FFF7CFFE029908440290207A042816
:102E200008D13EA102A806F0CDF8042102A806F0C0
:102E3000DDF807E03BA102A806F0C4F8032102A8D0
:102E400006F0D4F800208DF80000A17E009861F310
:102E500041000090E07E08B1012100E000210098CF
:102E600061F3820000900098C0F3800058B194F89C
:102E70003D10009861F3C400009094F83C10009855
:102E800061F345100090206C08B9A06C20B1009847
:102E900020F0800080300090E06C08B9606D20B1B7
:102EA000009820F04000403000909DF8001002A8EB
:102EB00006F09CF8218B02A806F09EF802A8D4E93F
:102EC0000423E16806F0B0F8E07E58B102A8D4E926
:102ED0000A23616A06F0A8F802A8D4E90D23216B41
:102EE00006F0A2F80098C0F3C01028B102A8D4E9F7
:102EF0001123216C06F098F80098C0F3801028B1D7
:102F000002A8D4E91423E16C06F08EF80298A0EB35
:102F1000050800BF4046BDE8FE8300004D515454F3
:102F2000000000004D5149736470000070B5044604
:102F30000025207A032801D10C2503E0207A0428FB
:102F400000D10A25D4E90412E06800F009FA801CD7
:102F50000544E07E68B1D4E90A12606A00F000FA24
:102F6000861CD4E90D12206B00F0FAF93044801C65
:102F70000544206C08B9A06C30B1D4E91112206C62
:102F800000F0EEF9801C0544E06C08B9606D30B1CA
:102F9000D4E91412E06C00F0E3F9801C05442846E3
:102FA00070BD70B504460D460C222946204600F03F
:102FB000D9F870BD2DE9F04F87B005460F46904611
:102FC0001C46DDE915B6DDE9109A0695002005904E
:102FD000049003900096204612A90EC900F042F812
:102FE00004900290FFF722FEB84203DD6FF001006B
:102FF000039033E0059820F0F000303005900598FC
:1030000068F3C3000590059864F3420005900598A5
:1030100069F3000005909DF8141006A805F0E6FF7E
:1030200004990698FFF7C6FD06990844069006A87D
:1030300012A90EC905F0F8FF002C03DD514606A8C1
:1030400005F0DAFF324659460698FDF74CF9069826
:10305000304406900698401B039000BF039807B0C9
:10306000BDE8F08F7FB50546089E002401A807C87B
:1030700000F076F9801C30440444002D00DDA41CCF
:10308000204604B070BD2DE9FF5F05460E46174689
:103090009846DDE90E9A0395002002900190009079
:1030A00000245146484600F046F883460190FFF759
:1030B000BDFDB04202DDA01E009038E000208DF87A
:1030C0000800029820F0F00080300290029867F328
:1030D000C3000290029820F00600801C02909DF828
:1030E000081003A805F082FF01990398FFF762FD1D
:1030F000039908440390414603A805F07DFF00248E
:103100000FE004EB44000AEB800C03A89CE80E00DF
:1031100005F08AFF109810F8241003A805F066FF48
:10312000641C4C45EDDB0398401B009000BF0098E9
:1031300004B0BDE8F09F2DE9F04105460E46022798
:1031400000240AE004EB440006EB800393E8070048
:1031500000F006F9C01C0744641CAC42F2DB3846A0
:10316000BDE8F0812DE9FC4104460D4616460020DD
:103170000190471E0094022D01DA871E15E0002001
:103180008DF80400019866F3071001909DF8041073
:10319000684605F02BFF00210098FFF70BFD009912
:1031A000084400900098071B00BF3846BDE8FC812A
:1031B0002DE9F04105460F4616464FF0FF384446CC
:1031C000002419E005F1280050F8340098B105F109
:1031D000280151F834003946FDF7C6F858B93EB910
:1031E000002105F1280040F8341000EBC4004160D4
:1031F0004FF0000802E0641C052CE3DB00BFCEB1F9
:1032000008F1010068B9002408E005F1280050F831
:10321000340010B94FF0000802E0641C052CF4DB08
:1032200000BF052C06DA05F1280040F8347000EBE9
:10323000C40046604046BDE8F0812DE9FC410446EB
:103240000D4616461F4601A83B46324629460090C9
:10325000204600F002F8BDE8FC812DE9FF478AB066
:1032600004460E461F46169D4FF0FF384FF00009EA
:1032700000200590069007900596206A00B948E066
:1032800008A800F0C0FF08A8616800F0B4FF20465D
:1032900002F0B3FB1FFA80FA0CA805A90122CDE9C0
:1032A0000021029053460022A1682069FFF7EBFE3F
:1032B0008146B9F1000F00DC2BE008AA4946204600
:1032C00004F010FBB0F1000800D022E008AA0921A8
:1032D000204605F0EFFB092818D100200490287043
:1032E000E16860692B4604AACDE90001012103A829
:1032F000FFF7DDFB012808D12878802805D03A4661
:1033000031462046FFF754FF804601E04FF0FF387A
:1033100000BF08F1010010B92046FFF794FA4046BB
:103320000EB0BDE8F0877CB504460D460026684621
:1033300000F069FF2946684600F05DFF00BF69465E
:10334000204602F01EF9002802DA4FF0FF3604E0B2
:10335000684600F060FF0028F1D000BF30467CBD19
:1033600037B50024009820B10098FCF7F6FF04461A
:1033700000E0019C20463EBD1FB50020009001905A
:10338000029003901548164908604FF48030486059
:103390000021134881600161017680F82010C1622C
:1033A000104981620021C1600121C161002180F8C2
:1033B000301001214161FDF765FC08B1FDF799FB73
:1033C0000D200090012001900020029069460448E1
:1033D000FDF792FB08B1FDF78CFB1FBD00200140FB
:1033E000540300200100000F00B58FB01C220C49CF
:1033F00008A8FCF778FF002108A803F04DF8094958
:1034000008601C2206491C3101A8FCF76CFF002152
:1034100001A803F041F8044908600FB000BD0000A6
:103420003C950008000000200400002000B587B093
:10343000142102A8FCF770FF00BF002001902E4865
:10344000006840F004002C4908600846006800F05D
:103450000400019000BF00BF00BF0020019008469B
:10346000006840F0800008600846006800F08000B6
:10347000019000BF00BF00BF002001900846006817
:1034800040F0010008600846006800F0010001906B
:1034900000BF00BF00BF002001900846006840F058
:1034A000020008600846006800F00200019000BFBA
:1034B00000BF002210211148FDF7DAFD01221102A0
:1034C0000F48FDF7D5FD1020029001200390002049
:1034D0000490059002A90948FDF7C6FC4FF48070DE
:1034E00002900120039000200490059002A9044856
:1034F000FDF7BAFC07B000BD3038024000000240C2
:103500000008024010B50E480E4908604FF4827062
:10351000486000210B488160C160016141614FF446
:10352000007181610821C1610021016241628162F3
:103530000A21C162FEF79AFA08B1FDF7DAFA10BD66
:10354000003001409C03002010B50B480B49086077
:103550004FF4E1304860002108488160C16001619A
:103560000C21416100218161C161FFF703F808B1BD
:10357000FDF7BFFA10BD0000004C0040F40300202E
:1035800010B50B480B4908604FF4E130486000214A
:1035900008488160C16001610C21416100218161A5
:1035A000C161FEF7E7FF08B1FDF7A3FA10BD000007
:1035B000004800403C04002000BFFEE700BFFEE7DB
:1035C00010B5CEB05E49002001F0B3FF48A901203C
:1035D00001F0AFFF00BF5BA05BA35CA24FF4807162
:1035E000009008A801F09CF90446002C0ADDFF2C8D
:1035F00008DC00BF002C04DD08AA214659A004F015
:10360000F5FF00BF00BF00BF9DF825019DF8241104
:103610009DF823219DF82231CDE90332CDE9051033
:103620009DF821019DF8201146A247A3CDE9002174
:1036300002904EA24FF4807108A801F071F904467F
:10364000002C0ADDFF2C08DC00BF002C04DD08AADA
:10365000214644A004F0CAFF00BF00BF00BF48A835
:10366000407A48A9097A48AAD2799DF82631CDE94D
:103670000132CDE9031033A033A347A24FF4807188
:10368000009008A801F04CF90446002C0ADDFF2C3C
:1036900008DC00BF002C04DD08AA214631A004F09C
:1036A000A5FF00BF00BF00BF48A8417B007B48AA20
:1036B000D27A9DF82A31CDE90132CDE9030121A06A
:1036C00021A33CA24FF48071009008A801F028F9D2
:1036D0000446002C0ADDFF2C08DC00BF002C04DDB2
:1036E00008AA21461FA004F081FF00BF00BF00BF51
:1036F00048A8417C007C48AAD27B9DF82E31CDE9B8
:103700000132CDE903010FA00FA331A24FF4807164
:10371000009008A801F004F90446002C0ADDFF2CF3
:1037200008DC00BF002C04DD08AA21460DA004F02F
:103730005DFF00BF00BF01202C4908704EB010BDD6
:1037400080000020493A0000000000002573257326
:10375000204E6574776F726B20436F6E6669673AAF
:103760000D0A0000252E2A73000000002573257322
:103770002020204D41433A20253032583A2530321E
:10378000583A253032583A253032583A2530325896
:103790003A253032580D0A00257325732020204920
:1037A000503A202025642E25642E25642E25640D94
:1037B0000A00000025732573202020534E3A202054
:1037C00025642E25642E25642E25640D0A00000034
:1037D0002573257320202047573A202025642E2565
:1037E000642E25642E25640D0A000000960000203A
:1037F000034901600349416003498160704700004B
:10380000C36300081D640008B963000841600260DA
:10381000704700007CB504460E461546334601222B
:1038200002212046009500F039F828B1606D40F083
:103830002000606503207CBD164800681821B0FB9D
:10384000F1F01549B0FBF1F04FF47A714843019063
:103850006068B0F5827F0DD133460022802120467A
:10386000009500F01BF898B1606D40F02000606595
:103870000320E0E700BF019800B908E00198401E6E
:10388000019020688068C0F3C0100028F3D100BF09
:103890000020D0E71400002040420F002DE9F84F2F
:1038A00004460D4690461E46DDF82890FDF7E6FBDF
:1038B000A0EB0900371AFDF7E1FB82462C480068AF
:1038C000C0F3CB307843009046E0701C002843D012
:1038D000FDF7D4FBA0EB0A00B84200D2A7BB2068DA
:1038E000406820F0E000216848606068B0F5827FA1
:1038F0000DD1A068B0F5004F03D0A068B0F5806F7F
:1039000005D12068006820F0400021680860A06AA6
:10391000B0F5005F0DD100BF2068006820F40050B2
:10392000216808602068006840F400502168086041
:1039300000BF012084F8510000BF002084F850002F
:1039400000BF0320BDE8F88FFFE7009808B9002703
:1039500002E00098401E0090206880682840A8423D
:1039600001D1012000E000204045AED10020E9E770
:103970001400002000BF4FF480710448FDF76EFB77
:103980004FF4FA7002F077FDF5E7000000080240FE
:10399000C4B0002600BFD2A0D2A3D3A24FF480713E
:1039A000009002A800F0BCFF0546002D0ADDFF2DA7
:1039B00008DC00BF002D04DD02AA2946D5A004F0D2
:1039C00015FE00BF00BFD548FDF78FFB00BFC4A0A8
:1039D000C4A3D3A24FF48071009002A800F0A0FF0E
:1039E0000546002D0ADDFF2D08DC00BF002D04DD9B
:1039F00002AA2946C7A004F0F9FD00BF00BF05F0E8
:103A00005FFA00BFB6A0B7A3D2A24FF480710090B6
:103A100002A800F085FF0546002D0ADDFF2D08DC19
:103A200000BF002D04DD02AA2946BAA004F0DEFD85
:103A300000BF00BFD4A103C94391429042A942A84C
:103A400005F0A3F900BFA6A0A6A3D1A24FF48071F0
:103A5000009002A800F064FF0546002D0ADDFF2D4E
:103A600008DC00BF002D04DD02AA2946A9A004F04D
:103A7000BDFD00BF00BF6420FDF7E2F900BF98A0C4
:103A800098A3CEA24FF48071009002A800F048FFE6
:103A90000546002D0ADDFF2D08DC00BF002D04DDEA
:103AA00002AA29469BA004F0A1FD00BF00BF4FF46D
:103AB000645000F037FE044600BF89A089A3CBA262
:103AC0004FF48071CDE9000402A800F029FF0546FB
:103AD000002D0ADDFF2D08DC00BF002D04DD02AA49
:103AE00029468CA004F082FD00BF00BF042C17D132
:103AF00000BF7BA07BA3C9A2A101009002A800F097
:103B00000FFF0546002D0ADDFF2D08DC00BF002D4C
:103B100004DD02AA29467FA004F068FD00BF19E079
:103B200000BFC6A06FA3C6A24FF48071CDE9000408
:103B300002A800F0F5FE0546002D0ADDFF2D08DC89
:103B400000BF002D04DD02AA294672A004F04EFD3C
:103B500000BF00BF00BF62A062A3C8A24FF4807183
:103B6000009002A800F0DCFE0546002D0ADDFF2DC6
:103B700008DC00BF002D04DD02AA294665A004F080
:103B800035FD00BF00BFFFF71BFD00BF54A055A3CC
:103B9000C7A24FF48071009002A800F0C1FE054654
:103BA000002D0ADDFF2D08DC00BF002D04DD02AA78
:103BB000294658A004F01AFD00BF00BF02F0EEF93C
:103BC00000BF47A047A3C8A24FF48071009002A88D
:103BD00000F0A6FE0546002D0ADDFF2D08DC00BF23
:103BE000002D04DD02AA29464AA004F0FFFC00BF14
:103BF00000BF02F0DFF8F0B100BF90A039A3C8A267
:103C00004FF48071009002A800F08AFE0546002D56
:103C10000ADDFF2D08DC00BF002D04DD02AA2946C5
:103C20003CA004F0E3FC00BF00BF03E04FF47A7057
:103C300002F021FCFAE700BFC4A029A129A3C6A273
:103C4000CDE900104FF4807102A800F069FE05462E
:103C5000002D0ADDFF2D08DC00BF002D04DD02AAC7
:103C600029462CA004F0C2FC00BF00BFC84A0021B6
:103C7000B6A002F06DFA00BF19A01AA3C5A24FF4B6
:103C80008071009002A800F04BFE0546002D0ADD71
:103C9000FF2D08DC00BF002D04DD02AA29461DA06F
:103CA00004F0A4FC00BF00BF00BF1C48FDF71DFAD4
:103CB000642002F08FF9FDF7E1F9801B41F28831B1
:103CC000884208D3FDF7DAF9064600231022C0A186
:103CD000C4A002F089F90A2002F0CDFBE5E700005C
:103CE000493A00000000000025732573204E6574DA
:103CF000776F726B5461736B3A2073746570203107
:103D0000202D207461736B20737461727465640D6F
:103D10000A000000252E2A7300000000F400002095
:103D200025732573204E6574776F726B5461736BC6
:103D30003A20737465702032202D20726567697394
:103D4000746572696E672053504920636266756EB0
:103D5000630D0A0025732573204E6574776F726BAF
:103D60005461736B3A20737465702033202D206387
:103D7000616C6C696E672077697A636869705F69E6
:103D80006E69740D0A000000101010101010101051
:103D900025732573204E6574776F726B5461736B56
:103DA0003A20737465702034202D2064656C61792D
:103DB000203130306D730D0A00000000257325732B
:103DC000204E6574776F726B5461736B3A20737415
:103DD00065702035202D2072656164696E672056FC
:103DE000455253494F4E520D0A000000257325736A
:103DF000204E6574776F726B5461736B3A207374E5
:103E000065702036202D2056455253494F4E522082
:103E10003D203078253032580D0A00002573257377
:103E2000204E6574776F726B5461736B3A2057350F
:103E3000353030204F4B210D0A000000453A00007C
:103E400025732573204E6574776F726B5461736BA5
:103E50003A205735353030204552524F52212045B7
:103E60007870656374656420307830342C20676F17
:103E700074203078253032580D0A000025732573E0
:103E8000204E6574776F726B5461736B3A20737454
:103E900065702037202D2063616C6C696E67204E41
:103EA0006574436F6E6669675F496E69740D0A00D9
:103EB00025732573204E6574776F726B5461736B35
:103EC0003A20737465702038202D20696E697469FA
:103ED000616C697A696E67204D51545420636C6936
:103EE000656E740D0A00000025732573204E6574FD
:103EF000776F726B5461736B3A20737465702039FD
:103F0000202D20636F6E6E656374696E6720746F19
:103F1000204D5154542062726F6B65720D0A00007F
:103F200025732573204E6574776F726B5461736BC4
:103F30003A204D51545420636F6E6E656374206651
:103F400061696C6564210D0A0000000073746D33B3
:103F5000322F74657374000025732573204E6574C9
:103F6000776F726B5461736B3A2073746570203194
:103F700030202D207375627363726962696E6720E9
:103F8000746F20746F7069633A2025730D0A000006
:103F9000F562000825732573204E6574776F726B88
:103FA0005461736B3A204D5154542073657475708D
:103FB00020636F6D706C6574652C20656E7465721E
:103FC000696E67206D61696E206C6F6F700D0A00FD
:103FD00048656C6C6F2053544D3332204D5154540E
:103FE0000000000073746D33322F757074696D6555
:103FF0000000000010B500BF502080F31188BFF30F
:104000004F8FBFF36F8F00BF05F072F918B14FF0FB
:1040100080500449086000BF002080F3118800BF71
:1040200010BD000004ED00E000B593B0302107A8FA
:10403000FCF772F9142102A8FCF76EF900BF00200A
:1040400001902448006840F08050224908600846EA
:10405000006800F08050019000BF00BF00BF00204A
:1040600001901D48006840F480401B4908600846E4
:10407000006800F48040019000BF00BF012007905D
:104080000004089002200D9041050E9104210F912B
:10409000A8211091022111910421129107A8FDF786
:1040A00097FA08B1FCF725FD0F200290022003903B
:1040B000002004904FF4A05005904FF480500690DB
:1040C000052102A8FDF722F908B1FCF712FD13B093
:1040D00000BD000040380240007000400348006806
:1040E00040F47000014908607047000088ED00E06E
:1040F00010B50248FDF7F1FF10BD00008404002058
:1041000010B502682B4B98420ED0B0F1804F0BD007
:10411000294B984208D0294B984205D0284B984209
:1041200002D0284B984203D122F070024B681A4308
:10413000204B984220D0B0F1804F1DD01E4B9842AA
:104140001AD01E4B984217D01D4B984214D01D4BCD
:10415000984211D01C4B98420ED01C4B98420BD069
:104160001B4B984208D01B4B984205D01A4B9842E3
:1041700002D01A4B984203D122F44072CB681A4302
:1041800022F080034C6943EA04028B68C3620B6827
:104190008362084B984202D00A4B984201D10B69C6
:1041A0000363036843F00403036001234361026077
:1041B00010BD000000000140000400400008004065
:1041C000000C004000040140004001400044014058
:1041D0000048014000180040001C00400020004042
:1041E00070B505460C464FF47A7004FB00F1284682
:1041F00000F001F870BD70B504460D46FCF73EFFB7
:104200002060656070BD10B50446FCF737FF206084
:104210000020606010BD10B50446FCF72FFF216838
:10422000401A6168884201D3012010BD0020FCE7DC
:1042300070B50446FCF722FF2168451A6068A84261
:1042400001D8002070BD6068401BFBE710B5024834
:10425000FEF70CF810BD0000F403002070B5044612
:10426000A56B0020E8852846FDF7FEFF70BD00BF66
:1042700000BF02680C3252E8002F22F490710268ED
:104280000C3242E80013002BF3D100BF00BF00BF87
:104290000268143252E8002F22F001010268143241
:1042A00042E80013002BF3D100BF016B01290ED1AE
:1042B00000BF00BF02680C3252E8002F22F010014C
:1042C00002680C3242E80013002BF3D100BF20211A
:1042D00080F8421000210163704710B50446206841
:1042E000C06820F040002168C860202084F84100A8
:1042F0002046FEF769FA002010BDF8B504460025F7
:10430000002694F84200222873D1A068B0F5805F9F
:104310000BD1206948B9A66A20684068C0F308003C
:104320003080A06A801CA06214E0A56AA068B0F585
:10433000805F03D0A06828B9206918B92068406858
:10434000287004E02068406800F07F002870A06AB0
:10435000401CA062E08D401E80B2E085002846D15E
:104360002068C06820F020002168C8602068C0680C
:1043700020F480702168C8602068406920F0010046
:1043800021684861202084F8420000206063206B8F
:10439000012826D10020206300BF00BF21680C3116
:1043A00051E8001F21F0100021680C3141E80002A3
:1043B000002AF3D100BF2068006800F01000102828
:1043C0000AD100BF0020009020680068009020689B
:1043D0004068009000BF00BFA18D2046FDF743FF5D
:1043E00002E02046FEF790F90020F8BD01E0002031
:1043F000FBE70220F9E700002DE9F84F04462068AA
:10440000006920F44050E16808432168086121698F
:10441000A068084361690843E16908430090206887
:10442000C06849F20C618843009908432168C8605C
:104430002068406920F44070A16908432168486100
:1044400076492068884203D075492068884203D1A4
:10445000FDF756F8814602E0FDF742F88146E06933
:10446000B0F5004F6CD102206168A0FB01500346FB
:104470001920A9FB007001462A463846FBF702FFC7
:104480006421B0FBF1F04FEA001A02206168A0FB42
:1044900001510B461920A9FB00712A463846FBF74B
:1044A000F1FE834602206168A0FB015003461920FB
:1044B000A9FB00712A463846FBF7E4FE6421B0FBF5
:1044C000F1F000EBC00101EB0010ABEB80003221FA
:1044D00001EBC0006421B0FBF1F000F0F8000AEB42
:1044E000400A02206168A0FB015003461920A9FB85
:1044F000007001462A463846FBF7C4FE8346022078
:104500006168A0FB015003461920A9FB00712A46EF
:104510003846FBF7B7FE6421B0FBF1F000EBC001B9
:1045200001EB0010ABEB8000322101EBC0006421F5
:10453000B0FBF1F000F007005044216888606AE0A9
:1045400004206168A0FB015003461920A9FB0070FC
:1045500001462A463846FBF795FE824604206168EC
:10456000A0FB015003461920A9FB007001462A4612
:104570003846FBF787FE6421B0FBF1F000EBC00189
:1045800001EB0010AAEB8000322101EB0010642146
:10459000B0FBF1F000F0F00A04206168A0FB0170AC
:1045A00003461920A9FB00513A462846FBF76AFE4C
:1045B0006421B0FBF1F00AEB001A04206168A0FB53
:1045C00001510B461920A9FB00712A463846FBF71A
:1045D00059FE834604206168A0FB01500346192060
:1045E000A9FB007001462A463846FBF74BFE6421C2
:1045F000B0FBF1F000EBC00101EB0010ABEB800071
:10460000322101EB00106421B0FBF1F000F00F004B
:10461000504421688860BDE8F88F00000010014018
:1046200000140140014691F84100212828D18868F2
:10463000B0F5805F0BD1086948B90A6A1088C0F3E9
:1046400008000B685860086A801C086205E00B6A65
:10465000581C086218780B685860C88C401E80B2DD
:10466000C88458B90868C06820F080000B68D8601A
:104670000868C06840F040000B68D86000207047B0
:104680000220FCE72DE9F84304460D4617469846FC
:10469000089E31E0701C70B3FCF7F0FCA0EB080042
:1046A000B04200D816B90320BDE8F8832068C0687E
:1046B00000F00400F8B1802D1ED0402D1CD02068E1
:1046C0000068C0F3C000B0B100BF002000902068B7
:1046D0000068009020684068009000BF00BF20463E
:1046E000FFF7C5FD0820606400BF002084F840008B
:1046F00000BF0120D8E7FFE7206800682840A842F3
:1047000001D1012000E00020B842C3D00020CBE757
:1047100010B50248FDF7AAFD10BD00003C040020C2
:1047200000BFFEE738B504461A49C86880471949F2
:104730004869804700BF1748406A10B11548806A31
:1047400070B91448016AC4F3074088471148016AE8
:10475000C4F307208847E0B20E4A116A88470DE08B
:10476000200C8DF80000200A8DF80100E0B28DF8D1
:10477000020008480321826A684690470549C869D3
:104780008047054603498869804702490869804790
:10479000284638BDA8000020F8B504460E46174646
:1047A0001F49C86880471E494869804700BF1C48A8
:1047B000406A10B11A48806AC0B91948016AC4F346
:1047C000074088471648016AC4F307208847E0B2CB
:1047D000134A116A8847002505E01149C8698047D6
:1047E0007055681C85B2BD42F7DB12E0200C8DF8D5
:1047F0000000200A8DF80100E0B28DF802000848A0
:104800000321826A6846904705483946426A304625
:104810009047034988698047014908698047F8BD86
:10482000A800002038B504460D461A49C8688047DC
:1048300018494869804744F004041648806A90B9D2
:104840001448016AC4F3074088471248016AC4F358
:1048500007208847E0B20F4A116A88470D48016A6D
:10486000284688470FE0200C8DF80000200A8DF8BC
:104870000100E0B28DF802008DF8035005480421D4
:10488000826A6846904703498869804701490869F8
:10489000804738BDA8000020F8B504460E461746EC
:1048A0001E49C86880471D494869804744F0040490
:1048B0001A48806AC0B91948016AC4F3074088479A
:1048C0001648016AC4F307208847E0B2134A116A08
:1048D0008847002505E0705D104A116A8847681C0A
:1048E00085B2BD42F7DB12E0200C8DF80000200AF3
:1048F0008DF80100E0B28DF8020008480321826AB9
:104900006846904705483946826A304690470349D1
:1049100088698047014908698047F8BDA8000020E0
:104920000FB47CB50C0009AD01D0611E00E0002180
:10493000CDE90001064B6A462946089800F012F9B5
:10494000002C02D0009A002111707CBC5DF814FB91
:104950006B5200087CB50C001D461646014601D07E
:10496000601E00E00020CDE90010064B6A46294693
:10497000304600F0F7F8002C02D0009A00211170A8
:104980007CBD00006B52000802480068C0F30220A2
:10499000704700000CED00E010B5002804DB0A07AA
:1049A000130E054A135406E00A07140E034A00F0DA
:1049B0000F031B1FD45410BD00E400E018ED00E00D
:1049C00002E008C8121F08C1002AFAD170477047D8
:1049D000002001E001C1121F002AFBD17047000036
:1049E0002DE9FF5F82B00021DDE90430020DDDF822
:1049F00040B0034318D044F61050A2F2FF324243B5
:104A00001514119801281FD0A5EB0B00401C5FEA7C
:104A1000000A4FF000064E4FDFF83891B04650467E
:104A200015D5CAF1000413E0119801244AA3012806
:104A300001D16FEA0B010298119AC0E90031C0E977
:104A4000024206B0BDE8F09FCBF10000DFE704466C
:104A50000021404A491842EB0450CDE9001012E011
:104A6000E00707D032463B4640464946FBF77EFD0D
:104A70008046894632463B4610461946FBF776FD8E
:104A800006460F466410002CEAD1DDE90401DDE999
:104A90000023BAF1000F06DAFBF768FD42464B46E9
:104AA000FBF764FD05E0FBF7D3FD42464B46FBF701
:104AB000CFFD04460E460022284BFBF751FE03D8DB
:104AC0004FF0FF30014607E00022254B20463146DB
:104AD000FBF7A5FCFBF72BFE102409E0002C0ADBFA
:104AE0000A220023FBF7CEFB039B30321A55641ECB
:104AF00050EA0102F2D1641C039AC4F11103144478
:104B0000119A012A03D0012208430DD10AE008437B
:104B100004D000204FF0110B119072E7A3EB0B05AE
:104B20006D1E0DE05B4504DD4FF0000205F101054F
:104B300004E003DA4FF00002A5F10105002AECD0F1
:104B400002981199C0E90231C0E9004579E70000F7
:104B5000000014400000F03F300000000000F0436F
:104B60000000E03F2DE9FF4F95B09A468846064683
:104B70000025EEE1252877D100242746F94A0121B6
:104B8000039400E0044316F8013F203B01FA03F0D0
:104B90001042F7D130782A2811D06FF02F033078E7
:104BA000A0F13002092A16D8039A44F0020402EB5D
:104BB000820203EB42021044761C0390EFE758F8A0
:104BC000042B0392002A03DA504244F40054039069
:104BD00044F00204761C30782E2816D116F8010F06
:104BE00044F004042A280DD06FF02F023078A0F191
:104BF0003003092B09D807EB870302EB4303C718DF
:104C0000761CF3E758F8047B761C30786C280FD0BC
:104C100006DC4C2817D068280DD06A2814D104E08F
:104C2000742810D07A280FD10DE044F400140AE063
:104C300044F4801401E044F440147278824202D1BA
:104C400004F58014761C761C307866280BD013DCB3
:104C5000582877D009DC002875D04528F6D046289A
:104C6000F4D047281AD193E118E0632835D064289E
:104C700079D0652812D18BE1702873D008DC6728C1
:104C8000F1D069286FD06E280DD06F2806D1ACE026
:104C900073282CD0752874D0782853D05246179991
:104CA00090476D1C54E1C4F30250022809D0032838
:104CB0000DD0D8F8001004280DD00D6008F10408BC
:104CC00046E1D8F80010EA17C1E90052F6E7D8F833
:104CD00000100D80F2E70D70F0E718F8041B8DF856
:104CE000001000208DF80100EB46012003E058F889
:104CF00004BB4FF0FF3061074FF0000102D40DE01C
:104D000009F101018946B9420FDA8145F8DB1BF848
:104D100009100029F4D108E009F101018946814216
:104D2000FADB1BF809100029F6D103985346A0EBD3
:104D3000090721463846179A00F080FA284400EB0C
:104D4000090507E044E008E10DE01BF8010B5246BD
:104D500017999047B9F10109F7D2534621463846D1
:104D6000179AF2E039E00A21C4F302524FF0000B27
:104D70000091022A06D058F8040BC117032A09D063
:104D80000AE023E008F1070020F00702F2E8020140
:104D9000904605E000B2C117042A01D140B2C11704
:104DA000002906DA0A460021404261EB02012D2269
:104DB00002E0220504D52B228DF80420012203E015
:104DC000E20701D02022F7E7914657E00A2100E0F0
:104DD00010214FF0000B00910BE010214FF0000B61
:104DE00044F004040827009103E008204FF0000B72
:104DF0000090C4F30252022A05D058F8040B002197
:104E0000032A08D008E008F1070020F00702F2E8C2
:104E10000201904603E080B2042A00D1C0B24FF0F4
:104E2000000922072AD53278702A07D0DDF800C0A1
:104E30008CF0100C5CEA0B0C05D00EE040228DF8D3
:104E40000420012208E050EA010306D030238DF847
:104E500004308DF8052002229146009B83F0080360
:104E600053EA0B030AD150EA010201D1620705D5CA
:104E700030228DF804204FF001097F1E3278582A25
:104E800004D039A20C920CAA02920BE03BA2F9E7E3
:104E90005B46009AFBF7F6F90C9B9B5C029A521E4C
:104EA0000292137050EA0102F2D1029804A9081A82
:104EB00000F1200B600702D524F4803400E00127C4
:104EC0005F4502DDA7EB0B0000E0002000EB0B01CB
:104ED000009003984944401A0390E00306D45346D7
:104EE0002146179A039800F0A9F90544002706E027
:104EF00001A85246C05D179990476D1C7F1C4F4515
:104F0000F6DBE0030CD553462146179A039800F0D0
:104F100095F9054404E030205246179990476D1CDE
:104F20000099481E00900029F5DC08E002980299DB
:104F300052460078491C0291179990476D1CBBF1AD
:104F40000001ABF1010BF1DC5BE100F065F9054418
:104F5000761C307800287FF40DAE19B02846BDE8E5
:104F6000F08F0000092801003031323334353637F4
:104F700038396162636465660000000030313233A5
:104F80003435363738394142434445460000000045
:104F9000600700D4062708F1070020F00700F0E8BA
:104FA0000223804603F0004C5FEA0C0001D097A07A
:104FB00009E0200501D596A005E0E00701D095A005
:104FC00001E0AFF24C001390307823F000436528E5
:104FD0000CD006DC452809D046281DD047287FD1B3
:104FE0003BE0662818D067287AD136E00021112FDF
:104FF00001DB112000E0781CCDE9000104A90CA818
:10500000FFF7EEFCDDE90D010C9A4FF0000B07F104
:105010000109109200914EE04FF000400097CDE959
:10502000011004A90CA8FFF7DBFCDDE90D020C9BC5
:105030000F994FF0000B91461093009211B9791C13
:1050400000EB0109B7EB090003D4C0F1FF3B07F106
:105050000109A9EB0700019042E0012F00DA0127C6
:105060000021112F01DD112000E03846CDE90001BB
:1050700004A90CA8FFF7B4FCDDE90D010C9A00911E
:105080004FF0000BB946109221070FD4009A4A4501
:1050900003DA914601E0A9F10109B9F1010F05DD3B
:1050A000109AA9F10101515C3029F4D0B84202DA1A
:1050B00010F1040F03DA0121CDE9011010E00028FE
:1050C00003DC8344A9EB000102E0411C494500DDFB
:1050D0008946A0EB0B00401C01904FF0004002906D
:1050E000200705D40198484502DB4FF0FF300190BE
:1050F00000208DF84B0002980DF14B07B0F1004FE6
:1051000025D002200C902B200D90029800280CDA5C
:10511000404202902D200D9007E00A210298FBF7F3
:1051200049F93031029007F8011D0C99481E0C9086
:105130000029F2DC02980028EFD1791E0D98087042
:10514000307800F0200040F0450007F8020D11A86B
:10515000C01BC01D02901398007800B1012000EB25
:105160000901019801EBE071029801440398401A8B
:10517000401E0390E00306D453462146179A039835
:1051800000F05CF805441398007818B1524617995E
:1051900090476D1CE00323D553462146179A039888
:1051A00000F04CF805441BE0BBF1000F07DB009852
:1051B000584504DD1098179910F80B0001E0179975
:1051C00030205246904701980BF1010B401E05F12B
:1051D0000105019004D12E205246179990476D1C6D
:1051E000B9F10001A9F10109DEDC05E017F8010BB6
:1051F0005246179990476D1C0299481E029000294B
:10520000F4DC53462146179A03989EE62D000000D1
:105210002B000000200000002DE9F041044600258D
:105220001E461746880404D405E039462020B047BE
:105230006D1C641EF9D52846BDE8F0812DE9F041CA
:10524000044600251E469046C80301D5302700E0DD
:105250002027880404D505E041463846B0476D1C38
:10526000641EF9D52846BDE8F0814A68002A06D0B8
:105270000A68531C0B6010704868401E48607047F5
:1052800010B50246002309E0064800680078107057
:1052900004480068401C034C20605B1C8B42F3DB1D
:1052A000084610BDF00000200C480068032812D307
:1052B00000200A4908600A480078022804DB002020
:1052C00007490870401E704705480078401C044993
:1052D00008700020F7E70120F5E70000E800002053
:1052E000EC00002010B5044600BF082C02DB4FF094
:1052F000FF3010BD00BFA100491C4FF4807202EBCB
:10530000C1001021FFF78EFA00BFA100491C4FF425
:10531000807202EBC100FFF705FA0028F5D1A10069
:10532000491C4FF4007202EBC1001F21FFF77AFA0B
:105330000120A0400F49098881430E4801800120C7
:10534000A0400D49098881430B48018000200B498A
:1053500021F814000A49085500BFA100491C4FF468
:10536000407202EBC100FFF7DDF90028F5D1012002
:10537000BFE700009A0000209C000020BC7D0020B8
:105380009E0000202DE9F04104460D461646984641
:1053900000BF082C03DB4FF0FF30BDE8F08100BFF9
:1053A00000BFA100491C002202EBC100FFF7BAF9BF
:1053B00000F00300012802D06FF00400EDE700BF09
:1053C00000BFA100491C4FF4407202EBC100FFF77F
:1053D000A9F9132802D06FF00200DEE700BF297898
:1053E000687861F31F200146A87861F31F20014609
:1053F000E87861F31F200146481C00B111B96FF035
:105400000B00CAE716B96FF00A00C6E73112A20016
:10541000521C4FF4805303EBC200FFF703FAF1B2C2
:10542000A200521C4FF4805303EBC20202F58070BD
:10543000FFF7F8F9B8F1100F02D16FF00400ACE7F4
:10544000A100491C002202EBC100FFF76BF90928FB
:1054500002D16FF00400A0E7A100491C4FF44062A4
:1054600002EBC10004222946FFF716FAA100491CED
:105470004FF4807202EBC1000421FFF7D3F900BFA3
:10548000A100491C4FF4807202EBC100FFF74AF9FA
:105490000028F5D10120A0401E490988084008B124
:1054A00000207AE7002729E0A100491C4FF4007290
:1054B00002EBC100FFF736F900F0080058B1A10077
:1054C000491C4FF4007202EBC1000821FFF7AAF952
:1054D0006FF00C0061E7A100491C4FF4407202EB31
:1054E000C100FFF71FF910B96FF0030055E77F1CEB
:1054F0000948874202D36FF00C004EE7A100491C17
:105500004FF4407202EBC100FFF70CF91728CBD122
:10551000012042E79A000020A086010070B50446F1
:105520000D4616460423324629462046FFF72AFF39
:1055300070BD70B505460C46062D1CD2DFE805F09F
:1055400003070B0F1317204603F068FC16E02046F4
:1055500003F0D4FB12E0207803F08CFC70BD03F064
:10556000FBFB20700AE0204603F097FC06E0204693
:1055700003F0F7FB02E04FF0FF30EFE700BF002041
:10558000ECE72DE9F0418EB004460F464FF00008DD
:1055900000263946204601F0B6FD05460E2D08D2FC
:1055A000DFE805F009070A0E0B5C5D8B070C070DA1
:1055B000078C2E468DE084E000BF00BF00BF80E076
:1055C00000200A900AAA09AB6169E068CDE90132BE
:1055D000CDE903100BA808AB0B3A06A900900E38D2
:1055E000FDF711FA012800D073E00698C0B28DF8DB
:1055F0001C0007AA0BA9204600F0ACF89DF81C007F
:1056000058B39DF81C0001280AD1BDF82000009075
:1056100000230422A1682069FDF79AFB80460DE073
:105620009DF81C00022809D1BDF82000009000233D
:105630000522A1682069FDF78BFB8046B8F1000FB9
:1056400002DC4FF0FF3605E03A464146204602F0C4
:1056500049F90646701C00B93BE032E000BFE06843
:1056600000900DAA0CA90BA86369FDF75BF901284E
:1056700002D04FF0FF361CE0BDF834000090052D3D
:1056800001D1062300E007231A460023A168206900
:10569000FDF75EFBB0F1000802DC4FF0FF3608E0DA
:1056A0003A464146204602F01DF9061E01D04FF051
:1056B000FF36701C00B90CE003E002E00020207708
:1056C00000BF00BF204600F04BFA08B14FF0FF3694
:1056D00000BF0EB92E4604E0206A10B12046FDF747
:1056E000B2F830460EB0BDE8F0812DE9F84F05461E
:1056F0000C46164601274FF000084FF0040A002020
:10570000206000BF4FF0FF3908F1010080460428F7
:1057100001DD00BF1BE0686D334601226946D0F809
:1057200000C0E0478146B9F1010F00D00FE09DF8BD
:10573000001001F07F01206801FB07002060FF01DD
:105740009DF8000000F080000028DBD100BF40463B
:10575000BDE8F88F2DE9FC4104460E4690464FF017
:10576000FF37002529E004F1280050F8350018B370
:1057700004F1280050F835103046FDF736FA38B9F4
:1057800004F1280151F83500314600F0AEF998B126
:1057900004F1280000EBC500406868B1424631467C
:1057A0006846FEF733F804F1280000EBC5004168B5
:1057B00068468847002700BF6D1C052DD3DB781C89
:1057C00058B9206D48B1424631466846FEF71EF88A
:1057D0006846216D8847002700BF3846BDE8FC8138
:1057E0002DE9F041B0B080460C461646C0236A460B
:1057F0002146404600F0FEFE0546681C18B9002010
:1058000030B0BDE8F0812C44204600F0EEF80746A9
:10581000A41CA41C241DA41C112F5DD2DFE807F0DA
:105820005C091A5C5C163D1718195C5C1B285C2F20
:105830005B0014F8010B307014F8010B707014F851
:10584000010BB07014F8010BF07046E000BF00BF10
:1058500000BF00BF00BFC0236A462146404600F09B
:10586000C9FE0546681C08B90020C9E72C4434E08D
:1058700014F8015B2C4414F8015B2C442DE0A41CAB
:10588000C0236A462146404600F0B4FE0546681C27
:1058900008B90020B4E72C441FE0C0236A46214623
:1058A000404600F0A7FE0546681C08B90020A7E79F
:1058B0002C44C0236A462146404600F09BFE054624
:1058C000681C08B900209BE72C44241D241D241DBE
:1058D000241D241D01E000E000BF00BF20468FE72B
:1058E0002DE9F04FB1B081468B4690461C464546A7
:1058F00032480088401C3149088008460188284603
:1059000001F00EFB05464FF4807040EAC92080B2DA
:1059100000902846009901F003FB05460121284626
:1059200001F0FEFA05460021284601F0F9FA054685
:105930000021284601F0F4FA05460021284601F02E
:10594000EFFA0546594601A8FAF71CFD01AF3846A3
:10595000FAF703FD1FFA80FA00BF2E213846FAF746
:10596000F2FC064616B1F01B84B200E0544605F87E
:10597000014B04B911E0224639462846FAF7D7FC14
:1059800025441EB9002005F8010B06E0601C074401
:10599000AAEB00001FFA80FADFE700BF01212846CA
:1059A00001F0BEFA05460121284601F0B9FA054684
:1059B000A5EB080000B231B0BDE8F08FE600002092
:1059C00070B5B0B006460C46C0236A462146304644
:1059D00000F010FE0546681C10B9002030B070BD04
:1059E0002C44A41CA41C2046F8E7014611F8013BF6
:1059F00018020A78024490B2704701464FF6FF72CF
:105A00000868904201D1012001E00868401C08604C
:105A1000704770B504460025002600BFA100491C50
:105A20004FF4185202EBC100FEF77CFE0646A100BF
:105A3000491C4FF4185202EBC10101F58070FEF7CA
:105A400071FE00EB062086B2AEB1A100491C4FF4F6
:105A5000185202EBC100FEF765FE0546A100491C85
:105A60004FF4185202EBC10101F58070FEF75AFEA7
:105A700000EB052085B2B542D0D1284670BD70B587
:105A800004460025002600BFA100491C4FF4005227
:105A900002EBC100FEF746FE0646A100491C4FF48A
:105AA000005202EBC10101F58070FEF73BFE00EBF6
:105AB000062086B2AEB1A100491C4FF4005202EBA1
:105AC000C100FEF72FFE0546A100491C4FF400520D
:105AD00002EBC10101F58070FEF724FE00EB05200A
