:020000040800F2
:1000000060040020A1010008DF1300083513000878
:10001000DD1300084B07000853160008000000001D
:10002000000000000000000000000000E3130008D2
:100030004D07000800000000E1130008E513000868
:10004000BB010008BB010008BB010008BB010008A0
:10005000BB010008BB010008BB010008BB01000890
:10006000BB010008BB010008BB010008BB01000880
:10007000BB010008BB010008BB010008BB01000870
:10008000BB010008BB010008BB010008BB01000860
:10009000BB010008BB010008BB010008BB01000850
:1000A000BB010008BB010008BB010008BB01000840
:1000B000BB010008BB010008BB010008BB01000830
:1000C000BB010008BB010008BB010008BB01000820
:1000D000BB010008BB010008BB010008BB01000810
:1000E000BB010008BB010008BB010008BB01000800
:1000F000BB010008BB010008BB010008BB010008F0
:10010000BB010008BB010008BB010008BB010008DF
:10011000BB010008BB010008BB010008BB010008CF
:10012000BB010008BB010008BB010008BB010008BF
:10013000BB0100080000000000000000BB01000837
:10014000BB010008BB010008BB010008BB0100089F
:10015000BB010008BB010008BB010008BB0100088F
:10016000BB010008BB010008BB010008BB0100087F
:10017000BB010008BB0100080000000000000000F7
:10018000BB010008BB010008DFF810D000F05CFAEA
:100190000048004711270008AFF3008060040020EA
:1001A0000648804706480047FEE7FEE7FEE7FEE711
:1001B000FEE7FEE7FEE7FEE7FEE7FEE77514000850
:1001C000890100082DE9F05F0546002092469B4614
:1001D00088460646814640241BE02846414647465D
:1001E000224600F069F853465A46C01A914110D38E
:1001F00011461846224600F050F82D1A67EB010808
:100200004F4622460120002100F047F817EB000975
:100210004E41201EA4F10104DFDC484631462A4647
:100220004346BDE8F09F40EA01039B0703D009E085
:1002300008C9121F08C0042AFAD203E011F8013BD2
:1002400000F8013B521EF9D27047D2B201E000F82B
:10025000012B491EFBD270470022F6E710B513466A
:100260000A4604461946FFF7F0FF204610BD30B598
:100270000B46014600202022012409E021FA02F564
:100280009D4205D303FA02F5491B04FA02F52844FE
:10029000151EA2F10102F1DC30BD202A04DB203A58
:1002A00000FA02F1002070479140C2F1200320FAC9
:1002B00003F3194390407047202A04DB203A21FAC7
:1002C00002F00021704721FA02F3D040C2F120026F
:1002D00091400843194670472DE9FE4F804681EA58
:1002E0000300C00F0C46009021F0004123F00045B0
:1002F000B8EB0200A94105D24046214690461C4673
:100300000B46024623F00040104347D0270DC7F3A9
:100310000A00C3F30A510290401A019040286BDA98
:10032000C3F3130040F4801B0098924620B10023D1
:10033000D2EB030A63EB0B0B01985946C0F1400264
:100340005046FFF7AAFF06460D4650465946019A09
:1003500000F08CF910EB08006141002487EA11528B
:1003600084EAE7731A4340D0009A62B3019A012AE3
:100370004FEA075215DC001B61EB02014FF000420F
:1003800002EA0752CDE90042001C41F580113246D5
:100390002B4600F08CF903B0BDE8F08F40462146B3
:1003A000F9E7001B61EB0201001C41F58013001806
:1003B0005B412018A2F5001747EB030140EAD57016
:1003C000B6196D4111E06D084FEA360645EAC07571
:1003D0004FEA0752001B61EB0201001C41F580113E
:1003E00049084FEA30000019514132462B4603B00C
:1003F000BDE8F04F00F04CB9009801224000002306
:10040000D0EB020263EBE073009821464FEAE07400
:10041000B8EB000061EB0401E9E783F000435BE720
:1004200081F0004158E72DE9FE4F81EA030404F012
:10043000004421F0004100944FF0000B23F00043F2
:1004400050EA01045ED052EA03045BD0C3F30A54BD
:10045000C1F30A552C44A4F2F3340194A0FB0254D6
:10046000C1F3130141F48011C3F3130343F4801368
:1004700001FB024400FB034E840A970A44EA8154BC
:1004800047EA8357A4FB076802958D0A05FB078599
:100490004FEA932C04FB0C542705029D4FEA0658A3
:1004A00047EA1637B5EB08056EEB070C870E920E80
:1004B00047EA811742EA8312A7FB0201B6EB0B0160
:1004C00064EB00042B0D43EA0C335E1844EB1C5024
:1004D000DA465146E7FB0201C5F313044FEA0B333A
:1004E00043EA14534FEA0432019C43EA0603A4F1A1
:1004F0000C040294009CCDE900B400F0D8F803B0DD
:10050000BDE8F08F00200146F9E72DE9F04D81EAC2
:10051000030404F0004B21F0004514464FF0000A9C
:1005200023F0004150EA050220D054EA01021DD018
:10053000C5F30A570246C5F31303C1F31300C1F311
:100540000A5640F4801543F48013A7EB0608101BED
:10055000D64608F2FD3873EB050002D308F1010816
:1005600001E092185B41B8F1000F03DA0020014668
:10057000BDE8F08D00204FF48011064684460EE061
:10058000171B73EB050705D3121B63EB050306432B
:100590004CEA010C49084FEA300092185B4150EADE
:1005A0000107EDD152EA030012D082EA040083EA87
:1005B0000501084305D0101BAB4106D201220023E0
:1005C00006E000224FF0004302E06FF001025310FA
:1005D0001AEB06004CEB085110EB0A0041EB0B0143
:1005E000BDE8F04D00F054B8C1F30A52C1F3130155
:1005F00040F2FF3341F480119A4202DA00200146B2
:10060000704740F233439A42A2F2334202DC524234
:10061000FFF752BEFFF741BE30B5041E71F1000472
:1006200004DB4FF00044404264EB0101141E73F1FF
:10063000000405DB1C464FF00043524263EB040309
:10064000994208BF904230BD064C074D06E0E06875
:1006500040F0010394E8070098471034AC42F6D309
:10066000FFF796FD3428000854280008202A06DBEE
:10067000CB17203A41FA02F043EAE07306E041FA70
:1006800002F3D040C2F1200291400843194670475E
:1006900010B5141E73F1000408DA401C41F100018A
:1006A00092185B411A4301D120F0010010BD2DE9E1
:1006B000F04D92469B4611B1B1FA81F202E0B0FAD8
:1006C00080F220329046FFF7E8FD04460F4640EAEC
:1006D0000A0041EA0B0153465A46084313D011461B
:1006E00053EA010019D0C8F140025046FFF7E4FD7B
:1006F00005460E46504659464246FFF7CEFD084392
:1007000005D0012004E020463946BDE8F08D0020E8
:10071000054346EAE0762C4337430A986305E40A2A
:10072000A0EB08000022FD0A44EA47540A3002D533
:1007300000200146E9E7010510196941DDE9084596
:1007400000196941BDE8F04DA2E7FEE770470000DF
:1007500009A002F047F872B64FF4FA74032001F0D2
:10076000BDFF204600F03CF8002001F0B7FF204616
:1007700000F036F8F2E700005B4552524F525D2020
:10078000466174616C206572726F722C2068616CB6
:1007900074696E67210D0A000E4910B50C48086097
:1007A00000200860091D0C4A0A60086009490B4ACC
:1007B00010390A600860C122091D0A600860012220
:1007C000091D0A60086000F063F9002010BD0000F8
:1007D000FFC9FEF62038024033797704FF1160200C
:1007E00070B5044600F00CF90546601C02D00448C0
:1007F0000078044400F004F9401BA042FAD370BD15
:10080000040000202DE9F84FDFF8BCA100220125EB
:1008100003264FF00F090AF1040BAAF1040E00BFE2
:100820000B6805FA02F42340A34270D10F7907F058
:100830000307012F01D0022F16D187684FEA420823
:1008400006FA08FC27EA0C07D1F80CC00CFA08FCE1
:100850004CEA070CC0F808C04768A7430C79C4F3FA
:10086000001494403C4344600C79E443A4070AD04C
:10087000C4684FEA420C06FA0CF7BC438F6807FACB
:100880000CF72743C7600C7904F00304022C12D143
:10089000D40800EB840CDCF820405707FF0E09FA5F
:1008A00007F824EA0804D1F8108008FA07F848EAA3
:1008B0000408CCF8208004684FEA420C06FA0CF7D2
:1008C000BC430F7907F0030707FA0CF727430760CB
:1008D0004C6814F4403F70D03C4C276847F4804784
:1008E0002760246822F0030704F480440094384C05
:1008F00007EB040CDCF8084897074FEA177809FA69
:1009000008F7BC43334FB84202D1002724E054E03B
:10091000314FB84201D101271EE0304FB84201D11A
:10092000022719E02E4FB84201D1032714E02D4FC2
:10093000B84201D104270FE02B4FB84201D105275F
:100940000AE02A4FB84201D1062705E0284FB842F5
:1009500001D1072700E0082707FA08F72743CCF85A
:100960000878DAF800405746D1F804C09C435FEAA3
:10097000CC2C00D51C433C60DBF800405F46D1F82E
:1009800004C09C435FEA8C2C00D51C433C60DEF81D
:1009900000407746D1F804C09C435FEA8C3C00D508
:1009A0001C433C60084F083F3C68D1F804C09C439E
:1009B0005FEACC3C00D51C433C60521C102AFFF47B
:1009C0002FAFBDE8F88F0000083C014044380240DA
:1009D00000300140000002400004024000080240D4
:1009E000000C0240001002400014024000180240B7
:1009F000001C02400AB1816170470904FBE7000056
:100A000001488068704700000400002002488168A7
:100A10000278114481607047040000200B4810B533
:100A2000016841F400710160016841F48061016076
:100A3000016841F480710160032000F063F80F2029
:100A400000F006F800F026F8002010BD003C02403F
:100A500070B50D4D04464FF47A712878B1FBF0F073
:100A60000A490968B1FBF0F000F098FB48B9102C76
:100A700007D200222146501E00F024F800206C60AE
:100A800070BD012070BD0000040000201000002097
:100A9000704700000A4808B5016841F480410160D0
:100AA000006800F4804000900548001F016841F094
:100AB00080510160006800F08050009008BD000087
:100AC00044380240F0B40E4B1B680C46C3F30223BB
:100AD000C3F10705042D00D90425191D072901D2EA
:100AE000002300E0DB1E012606FA05F1491E214025
:100AF00099409E40761E16403143F0BC00F0C4BDC4
:100B00000CED00E0064900F0070208684FF6FF030D
:100B1000184040EA0220034A104308607047000072
:100B20000CED00E00000FA052DE9F0470E46050047
:100B300065D0DFF81481D8F80000F7B200F00700A4
:100B4000B04207D288F80070D8F8000000F0070023
:100B5000B04254D128683D4C810712D5400703D5D7
:100B6000206840F4E05020602878000703D5206812
:100B700040F4604020602068A96820F0F00008433D
:100B800020602878C0072DD03049686808390128CE
:100B900012D0022813D0032811D009688907002930
:100BA0002DDA216821F0030101432160FFF728FFBE
:100BB000814641F2883A0EE009688903EFE7096847
:100BC0008901ECE7FFF71CFFA0EB0901514502D9B1
:100BD0000320BDE8F0872068696800F00C00B0EBE6
:100BE000810FEFD1D8F80010404601F00701B14263
:100BF00007D90770006800F00700B04201D001205B
:100C0000E7E72878400705D52068E96820F4E05038
:100C1000084320602878000706D52068296920F459
:100C2000604040EAC100206000F0D2F82168084A24
:100C3000C1F30311515CC8400649086006480068CA
:100C4000FFF706FF0020C4E7003C024008380240DE
:100C50001C28000810000020080000202DE9F041A9
:100C6000FFF7CEFE444C0546206840F001002060AE
:100C700005E000BFFFF7C4FE401B022847D82068EC
:100C80008007F7D5206840F080002060FFF7B8FEAD
:100C90000546394E00200836306041F2883704E0BE
:100CA000FFF7AEFE401BB84231D8306810F00C0F91
:100CB000F6D1FFF7A5FE0546206820F450202060FD
:100CC00005E000BFFFF79CFE401B64281FD820688A
:100CD0008003F7D4FFF794FE0546206820F080706B
:100CE000206004E0FFF78CFE401B02280FD820682C
:100CF0008001F7D4FFF784FE0546206820F080606D
:100D0000206007E0FFF77CFE401B022802D9032089
:100D1000BDE8F08120680001F4D417491748091D87
:100D20000860154916488431086013480C30016882
:100D300021F4F8510160016821F40051016001685B
:100D400041F41F010160016841F4001101600A488B
:100D50007430016821F001010160016841F0807187
:100D6000016009490748086008480068FFF770FEFD
:100D70000028CDD00120CBE700380240103000041D
:100D8000003000200024F4001000002008000020A3
:100D90000448054900680968044AC1F38221515C8E
:100DA000C840704710000020083802402C28000876
:100DB0000448054900680968044AC1F34231515C9E
:100DC000C840704710000020083802402C28000856
:100DD000154810B5006810F00C02144813D04110EB
:100DE000042A0FD0082A0ED10F4C241F2268236832
:100DF00002F03F025B0207D52068C0F38810A0FB19
:100E0000010106E0084610BD2168C1F38811A1FB6D
:100E100000010023FFF7D6F92168C1F30141491C05
:100E20004900B0FBF1F010BD083802400024F40086
:100E30002DE9F84F04006ED02078DFF84C93C007FE
:100E4000A9F104054AD009F104000168C1F3810148
:100E5000012908D00068C0F3810002280AD1D9F81E
:100E60000000400206D52868800337D56068002856
:100E7000E1D033E06068B0F5803F10D0B0F5A02F2E
:100E8000286810D020F480302860286820F4802062
:100E900028606068A8B1FFF7B3FD06460DE028683A
:100EA00040F48030F4E740F480202860F7E700BF8A
:100EB000FFF7A6FD801B642873D828688003F7D548
:100EC0000CE0FFF79DFD064605E000BFFFF798FD2B
:100ED000801B6428F0D828688003F7D42078DFF8D6
:100EE000AC8280074FF0000A3ED5A748001D01687C
:100EF00011F00C0F08D00068C0F3810002280BD15C
:100F0000D9F80000400207D42868800716D5E068A9
:100F1000012800D112E033E1E068B8B10120C8F83F
:100F20000000FFF76DFD064605E000BFFFF768FD16
:100F3000801B0228C0D828688007F7D52868216957
:100F400020F0F80040EAC10028600DE0C8F800A0D9
:100F5000FFF756FD064604E0FFF752FD801B02280E
:100F60001FD828688007F7D42078000722D5864F3D
:100F700087486169703771B101210160FFF740FD59
:100F8000064604E0FFF73CFD801B022809D83868BC
:100F90008007F7D50EE0C0F800A0FFF731FD064648
:100FA00005E082E0FFF72CFD801B02287DD8386821
:100FB0008007F7D42078400768D5DFF8CCB1002748
:100FC0000BF13C0BDBF80000C0000BD4DBF8001089
:100FD00041F08051CBF80010DBF80000012700F051
:100FE000805000906B4E3068C00510D4306840F4DB
:100FF00080703060FFF704FD009005E0FFF700FD12
:101000000099401A022850D83068C005F6D55E4EC7
:10101000A0686C3601280FD00528306810D020F069
:1010200001003060306820F004003060A068B8B182
:10103000FFF7E6FC00900FE0306840F00100F4E7B5
:1010400040F004003060F7E7FFF7DAFC0099411A3E
:1010500041F28830814266D830688007F4D50EE0CE
:10106000FFF7CEFC009007E0FFF7CAFC0099411A99
:1010700041F28830814256D830688007F4D42FB1CD
:10108000DBF8001021F08051CBF80010A069C8B344
:101090003D49091D0968C1F3810102294AD002288E
:1010A000504607D0C8F8600000E03CE0FFF7A8FC1D
:1010B00004463BE04746C8F86000FFF7A1FC06463F
:1010C00005E000BFFFF79CFC801B02282BD8286896
:1010D0008001F7D4D4E907010843A16A2E4A4908E0
:1010E00002EB0141626A41EA8211084394F82C1034
:1010F00040EA0161C9F8001001203866FFF780FC62
:10110000044606E03EE000BFFFF77AFC001B022821
:1011100009D828688001F7D534E000BFFFF770FCDC
:10112000001B022802D90320BDE8F88F286880013F
:10113000F4D427E00128F7D0D9F80000E26900F4E0
:10114000800191421CD1226A00F03F01914217D1E7
:1011500047F6C071626A0140B1EB821F10D1A26AEA
:101160004FF0FF3300F4403103EB5202B1EB024F7A
:1011700006D194F82C1000F07060B0EB016F01D034
:101180000120D1E70020CFE70438024000004742A9
:10119000800E4742007000400000FFFF10B5401E67
:1011A000B0F1807F01D3012010BD4FF0E0246061D9
:1011B0000F21601700F068FA0020A061072020616D
:1011C000002010BD70B5040004D094F84100002543
:1011D00010B106E0012070BD84F84050204600F0B8
:1011E00023F8242084F841002068C16821F40051CC
:1011F000C160204600F06EF92068016921F4904139
:1012000001612068416921F02A0141612068C168BB
:1012100041F40051C1606564202084F8410084F8E5
:1012200042006563002070BD10B586B004461421ED
:101230006846FFF711F814492068884221D1134805
:101240000021026842F400220260006800F40020DD
:1012500005900E481038026842F0040202600068EF
:1012600000F0040005904FF4406000900220CDE9AA
:101270000101032003900820049069460448FFF709
:10128000C1FA06B010BD0000004C004040380240DA
:10129000000802402DE9F843044690F841009846C2
:1012A00016460D46202802D00220BDE8F88385B1FD
:1012B0007EB100206064212084F84100FFF7A0FB8C
:1012C000A6848146E684A0682027B0F5805F02D01E
:1012D00003E00120E9E7206910B12E4600250EE069
:1012E00000260CE08021204600F07AF9A8B9C6B1AA
:1012F00016F8010B21684860E08C401EE084E08C09
:101300004B464FF00002CDF800800028EAD14FF0A4
:101310004001204600F064F940B184F84170032098
:10132000C3E735F8020BC0F30800E3E784F8417027
:101330000020BAE7FEE7000070B586B014216846C9
:10134000FEF78AFF15480024016841F0040101609E
:10135000016801F004010591016841F0800101601C
:10136000016801F080010591016841F0010101600F
:101370000068012200F00100094E1502059029467F
:101380003046FFF737FB01200095CDE9010469469F
:1013900030460394FFF736FA06B070BD303802408D
:1013A000000802400C4810B50A4901604FF4E131D1
:1013B0004160002181600C22C160C0E9041281619A
:1013C000C161FFF7FFFE002803D0BDE81040FFF722
:1013D000BFB910BD004C004014000020FEE7FEE73E
:1013E00070477047FFF712BB30B593B030216846A5
:1013F000FEF732FF14210CA8FEF72EFF1B48002534
:10140000016841F080510160006800F08050119047
:101410001748016841F4804101600068022400F42B
:101420008040119001200090000401908001CDE9DE
:10143000064008AA0420A82182E813000B90684601
:10144000FFF7F6FC70B90CA90F2081E831004FF4CA
:10145000A0500F90E002109005210CA8FFF764FB4C
:10146000002801D0FFF774F913B030BD40380240B6
:10147000007000400248016841F47001016070474B
:1014800088ED00E001680C3151E8002F22F49072E1
:1014900041E80023002BF5D10168143151E8002FF9
:1014A00022F0010241E80023002BF5D1016B012954
:1014B00009D101680C3151E8002F22F0100241E8F7
:1014C0000023002BF5D1202180F842100021016378
:1014D0007047000070B5044600680169E26821F4B5
:1014E0004051114301612169A068E26908436169C3
:1014F000114308432168CA6849F20C639A430243C6
:10150000CA6020684169A26921F4407111434161B8
:1015100031492068884202D03049884202D1FFF721
:1015200047FC01E0FFF734FCE26900231921642540
:101530003226B2F5004F626828D0A0FB0101930F5C
:101540009200FEF73FFE0146B0FBF5F06FF0180287
:10155000504301EB800006EB0010B0FBF5F000F00B
:10156000F002B1FBF5F002EB0012B1FBF5F06FF009
:101570001803584301EB800006EB0010B0FBF5F0B8
:1015800000F00F0021681044886070BDA0FB0101CD
:1015900092185B41FEF716FE0146B0FBF5F0020122
:1015A000B1FBF5F06FF01803584301EB800006EB38
:1015B000C000B0FBF5F000F0F80002EB4002B1FB18
:1015C000F5F0584301EB800006EBC000B0FBF5F0EE
:1015D00000F00700D6E700000010014000140140B1
:1015E0002DE9F843984617460D460446089E24E028
:1015F000701C22D0FFF704FAA0EB0800B0421AD802
:10160000CEB12068C168490717D5802D15D0402D6F
:1016100013D00168C94309070FD401680025406849
:1016200000902046FFF72EFF0820606484F84050A9
:101630000120BDE8F8830320FBE72068006835EA55
:10164000000004D00020B842D2D00020F1E70120F1
:10165000F9E7FEE77CB50C001D461646014601D0B1
:10166000601E00E00020CDE90010064B6A462946C6
:10167000304600F0EBF8002C02D0009A00211170E7
:101680007CBD0000531F00080907090E002804DB79
:1016900000F1E02080F80014704700F00F0000F126
:1016A000E02080F8141D704702E008C8121F08C12E
:1016B000002AFAD170477047002001E001C1121FD3
:1016C000002AFBD1704700002DE9FF5F82B00021A6
:1016D000DDE90430020DDDF840B0034318D044F6D4
:1016E0001050A2F2FF3242431514119801281FD066
:1016F000A5EB0B00401C5FEA000A4FF000064E4FBE
:10170000DFF83891B046504615D5CAF1000413E011
:10171000119801244AA3012801D16FEA0B01029814
:10172000119AC0E90031C0E9024206B0BDE8F09F5D
:10173000CBF10000DFE704460021404A491842EBA4
:101740000450CDE9001012E0E00707D032463B46D6
:1017500040464946FEF767FE8046894632463B468C
:1017600010461946FEF75FFE06460F466410002C31
:10177000EAD1DDE90401DDE90023BAF1000F06DA60
:10178000FEF751FE42464B46FEF74DFE05E0FEF7E2
:10179000BCFE42464B46FEF7B8FE04460E4600220B
:1017A000284BFEF739FF03D84FF0FF30014607E022
:1017B0000022254B20463146FEF78EFDFEF714FF32
:1017C000102409E0002C0ADB0A220023FEF7FAFCB1
:1017D000039B30321A55641E50EA0102F2D1641C98
:1017E000039AC4F111031444119A012A03D001226F
:1017F00008430DD10AE0084304D000204FF0110B3C
:10180000119072E7A3EB0B056D1E0DE05B4504DD47
:101810004FF0000205F1010504E003DA4FF0000289
:10182000A5F10105002AECD002981199C0E9023116
:10183000C0E9004579E70000000014400000F03FD7
:10184000300000000000F0430000E03F2DE9FF4FB2
:1018500095B09A46884606460025EEE1252877D1C0
:1018600000242746F94A0121039400E0044316F8B6
:10187000013F203B01FA03F01042F7D130782A28CB
:1018800011D06FF02F033078A0F13002092A16D85A
:10189000039A44F0020402EB820203EB420210447A
:1018A000761C0390EFE758F8042B0392002A03DA22
:1018B000504244F40054039044F00204761C307803
:1018C0002E2816D116F8010F44F004042A280DD052
:1018D0006FF02F023078A0F13003092B09D807EB05
:1018E000870302EB4303C718761CF3E758F8047B21
:1018F000761C30786C280FD006DC4C2817D068286E
:101900000DD06A2814D104E0742810D07A280FD1A1
:101910000DE044F400140AE044F4801401E044F4BF
:1019200040147278824202D104F58014761C761C31
:10193000307866280BD013DC582877D009DC0028D3
:1019400075D04528F6D04628F4D047281AD193E11F
:1019500018E0632835D0642879D0652812D18BE14E
:10196000702873D008DC6728F1D069286FD06E2802
:101970000DD06F2806D1ACE073282CD0752874D018
:10198000782853D05246179990476D1C54E1C4F300
:101990000250022809D003280DD0D8F800100428DE
:1019A0000DD00D6008F1040846E1D8F80010EA17E0
:1019B000C1E90052F6E7D8F800100D80F2E70D708B
:1019C000F0E718F8041B8DF8001000208DF80100D6
:1019D000EB46012003E058F804BB4FF0FF306107ED
:1019E0004FF0000102D40DE009F101018946B9422E
:1019F0000FDA8145F8DB1BF809100029F4D108E063
:101A000009F1010189468142FADB1BF8091000291E
:101A1000F6D103985346A0EB090721463846179A9A
:101A200000F080FA284400EB090507E044E008E1F3
:101A30000DE01BF8010B524617999047B9F10109C7
:101A4000F7D2534621463846179AF2E039E00A2188
:101A5000C4F302524FF0000B0091022A06D058F84E
:101A6000040BC117032A09D00AE023E008F107009C
:101A700020F00702F2E80201904605E000B2C1172B
:101A8000042A01D140B2C117002906DA0A46002112
:101A9000404261EB02012D2202E0220504D52B22F7
:101AA0008DF80420012203E0E20701D02022F7E7AD
:101AB000914657E00A2100E010214FF0000B009101
:101AC0000BE010214FF0000B44F0040408270091B4
:101AD00003E008204FF0000B0090C4F30252022AEA
:101AE00005D058F8040B0021032A08D008E008F1BB
:101AF000070020F00702F2E80201904603E080B2FE
:101B0000042A00D1C0B24FF0000922072AD532784A
:101B1000702A07D0DDF800C08CF0100C5CEA0B0CCA
:101B200005D00EE040228DF80420012208E050EAA2
:101B3000010306D030238DF804308DF805200222F1
:101B40009146009B83F0080353EA0B030AD150EA45
:101B5000010201D1620705D530228DF804204FF033
:101B600001097F1E3278582A04D039A20C920CAA9F
:101B700002920BE03BA2F9E75B46009AFEF722FBDC
:101B80000C9B9B5C029A521E0292137050EA010257
:101B9000F2D1029804A9081A00F1200B600702D5BF
:101BA00024F4803400E001275F4502DDA7EB0B0041
:101BB00000E0002000EB0B01009003984944401A1C
:101BC0000390E00306D453462146179A039800F089
:101BD000A9F90544002706E001A85246C05D1799FF
:101BE00090476D1C7F1C4F45F6DBE0030CD5534638
:101BF0002146179A039800F095F9054404E0302037
:101C00005246179990476D1C0099481E0090002974
:101C1000F5DC08E00298029952460078491C0291CE
:101C2000179990476D1CBBF10001ABF1010BF1DC82
:101C30005BE100F065F90544761C307800287FF4FC
:101C40000DAE19B02846BDE8F08F0000092801004C
:101C50003031323334353637383961626364656622
:101C600000000000303132333435363738394142E4
:101C70004344454600000000600700D4062708F1F1
:101C8000070020F00700F0E80223804603F0004C34
:101C90005FEA0C0001D097A009E0200501D596A0CD
:101CA00005E0E00701D095A001E0AFF24C001390F1
:101CB000307823F0004365280CD006DC452809D095
:101CC00046281DD047287FD13BE0662818D06728DA
:101CD0007AD136E00021112F01DB112000E0781CC1
:101CE000CDE9000104A90CA8FFF7EEFCDDE90D0128
:101CF0000C9A4FF0000B07F10109109200914EE091
:101D00004FF000400097CDE9011004A90CA8FFF79F
:101D1000DBFCDDE90D020C9B0F994FF0000B9146A7
:101D20001093009211B9791C00EB0109B7EB09007F
:101D300003D4C0F1FF3B07F10109A9EB07000190B3
:101D400042E0012F00DA01270021112F01DD1120CF
:101D500000E03846CDE9000104A90CA8FFF7B4FC67
:101D6000DDE90D010C9A00914FF0000BB94610927D
:101D700021070FD4009A4A4503DA914601E0A9F100
:101D80000109B9F1010F05DD109AA9F10101515CBA
:101D90003029F4D0B84202DA10F1040F03DA01213D
:101DA000CDE9011010E0002803DC8344A9EB000119
:101DB00002E0411C494500DD8946A0EB0B00401CB8
:101DC00001904FF000400290200705D4019848454B
:101DD00002DB4FF0FF30019000208DF84B0002989D
:101DE0000DF14B07B0F1004F25D002200C902B20B5
:101DF0000D90029800280CDA404202902D200D90A0
:101E000007E00A210298FEF732FA3031029007F813
:101E1000011D0C99481E0C900029F2DC0298002844
:101E2000EFD1791E0D980870307800F0200040F056
:101E3000450007F8020D11A8C01BC01D02901398A1
:101E4000007800B1012000EB0901019801EBE0717D
:101E5000029801440398401A401E0390E00306D400
:101E600053462146179A039800F05CF805441398EE
:101E7000007818B15246179990476D1CE00323D59E
:101E800053462146179A039800F04CF805441BE08E
:101E9000BBF1000F07DB0098584504DD1098179937
:101EA00010F80B0001E01799302052469047019836
:101EB0000BF1010B401E05F10105019004D12E200C
:101EC0005246179990476D1CB9F10001A9F101091B
:101ED000DEDC05E017F8010B5246179990476D1CA0
:101EE0000299481E02900029F4DC53462146179AB5
:101EF00003989EE62D0000002B000000200000004B
:101F00002DE9F041044600251E461746880404D4F6
:101F100005E039462020B0476D1C641EF9D52846DF
:101F2000BDE8F0812DE9F041044600251E469046AB
:101F3000C80301D5302700E02027880404D505E038
:101F400041463846B0476D1C641EF9D52846BDE8A9
:101F5000F0814A68002A06D00A68531C0B60107092
:101F60004868401E48607047044601460AA000F0D9
:101F700039FC15A000F036FC00224FF480711D489A
:101F8000FEF738FD204600F0E7F91BA000F02AFC20
:101F9000032000F0A3FBFBE75B424F4F545D204A58
:101FA000756D70696E6720746F206170706C696305
:101FB0006174696F6E2061742030782530386C58F8
:101FC0002E2E2E0D0A0000003D3D3D3D3D3D3D3D88
:101FD0003D3D3D3D3D3D3D3D3D3D3D3D3D3D3D3D31
:101FE0003D3D3D3D3D3D3D3D3D3D3D3D0D0A0D0AE7
:101FF00000000000000802405B4552524F525D2035
:102000004661696C656420746F206A756D70207418
:102010006F206170706C69636174696F6E210D0A65
:10202000000000001FB505468068364E364F012877
:1020300006D195F82D0018B13146344633A002E0A0
:1020400039463C463AA000F0CDFB42A000F0CAFB66
:102050006946204600F0BAFA01001DD045A000F004
:10206000C1FB50A000F0BEFB57A000F0BBFBBC4280
:102070000BD195F82D0040B15CA000F0B3FB3046C9
:102080003446694600F0A2FA30B162A000F0AAFB23
:10209000032000F023FBFEE7029878B166A000F071
:1020A000A1FB6DA0019900F09DFB71A0029900F0C9
:1020B00099FB76A0039900F095FB02E079A000F06F
:1020C00091FB029800281AD0686801280AD181A0E3
:1020D00000F088FB022000F001FB8BA000F082FBE7
:1020E000029860B1A868012809D16868022806D161
:1020F000E8682969884202D38CA000F073FB20466F
:10210000FFF732FF0040080800C000085B494E4658
:102110004F5D2053656C6563746564204170702D5C
:1021200042202830782530386C58290D0A000000EC
:102130005B494E464F5D2053656C65637465642052
:102140004170702D41202830782530386C58290D89
:102150000A0000005B424F4F545D2056616C696479
:102160006174696E67206669726D776172652E2E83
:102170002E0D0A005B4552524F525D204669726D2A
:10218000776172652076616C69646174696F6E2035
:102190006661696C65642028636F64653A20256414
:1021A000290D0A005B4552524F525D202D313A20D5
:1021B000496E76616C696420737461636B20706F23
:1021C000696E7465720D0A005B4552524F525D2074
:1021D0002D323A20496E76616C69642072657365B0
:1021E0007420766563746F720D0A00005B494E4679
:1021F0004F5D20547279696E67204170702D4220C6
:1022000061732066616C6C6261636B2E2E2E0D0A09
:10221000000000005B4552524F525D204E6F207609
:10222000616C6964206669726D7761726520666FA2
:10223000756E64210D0A00005B494E464F5D2046D5
:1022400069726D776172652076616C69646174652D
:10225000643A0D0A00000000202020202020205693
:10226000657273696F6E3A20256C750D0A00000067
:102270002020202020202053697A653A20256C7583
:102280002062797465730D0A000000002020202070
:1022900020202043524333323A2030782530386CA6
:1022A000580D0A005B494E464F5D2041524D20615A
:1022B00070706C69636174696F6E2076616C6964BB
:1022C0006174656420286E6F206865616465722999
:1022D0000D0A00005B4F54415D20557067726164C8
:1022E000652070656E64696E672C2076657269661C
:1022F00079696E67206E6577206669726D776172A5
:10230000652E2E2E0D0A00005B4F54415D2046695C
:1023100072737420626F6F74206F66206E65772011
:102320006669726D776172650D0A00005B4F5441FA
:102330005D204E6577206669726D776172652076E3
:102340006572696669656420737563636573736636
:10235000756C6C79210D0A0070B5046845682146DA
:102360001BA000F03FFA294621A000F03BFA28A06C
:1023700000F038FA72B600204FF0E02108614861A1
:102380008861FEF76BFCFEF707FA0020411E820011
:1023900002F1E022C2F88011401C0828F7DB00207F
:1023A000820002F1E022C2F88012401C0828F7DB0C
:1023B00084F30888002080F31488BFF36F8FBFF385
:1023C0006F8FBFF34F8FAC46BDE870406047000091
:1023D0005B424F4F545D20537461636B20506F69B3
:1023E0006E7465723A2030782530386C580D0A00CA
:1023F0005B424F4F545D2052657365742048616E97
:10240000646C65723A2030782530386C580D0A00BB
:102410005B424F4F545D20507265706172696E6708
:1024200020746F206A756D702E2E2E0D0A0000002C
:102430009CB018A000F0D6F9684600F0A7F860B18B
:102440001EA000F0CFF9002001900121039002901E
:102450008DF820108DF82D0019E024A000F0C2F9AD
:1024600029A0019900F0BEF92DA0029900F0BAF957
:10247000DDE9031230A000F0B5F99DF8201035A079
:1024800000F0B0F99DF82D1039A000F0ABF96846C6
:10249000FFF7C8FD0D0A5B424F4F545D2052656146
:1024A00064696E67204F544120706172616D65747C
:1024B0006572732E2E2E0D0A000000005B574152EC
:1024C0004E5D204F544120706172616D73206E6FBC
:1024D0007420666F756E642C207573696E67206456
:1024E000656661756C74730D0A0000005B494E46A9
:1024F0004F5D204F544120706172616D73206C6F8D
:10250000616465643A0D0A00202020202020204FBD
:10251000544120466C61673A2025640D0A00000092
:10252000202020202020204163746976652041709E
:10253000703A2025640D0A0020202020202020420F
:102540006F6F7420436F756E743A2025642F256475
:102550000D0A0000202020202020204170702D41F5
:102560002056616C69643A2025640D0A0000000061
:10257000202020202020204170702D422056616CA8
:1025800069643A2025640D0A0000000070B504005B
:102590004FF0FF3611D06E220949FDF744FE206846
:1025A000084DA84207D06E2207492046FDF73BFEA2
:1025B0002068A84201D1002070BD304670BD0000E7
:1025C00000C00F085341544F00800F0810B5026837
:1025D0004068A2F10053B3F5003F06D3114611A0A5
:1025E00000F000F94FF0FF3010BD184A83184FF487
:1025F000F02293420AD3164B0344934206D301467A
:1026000014A000F0EFF86FF0010010BD21B1002020
:10261000086048608860C86018A000F0E3F80020F7
:1026200010BD00005B424F4F545D20496E76616CD7
:10263000696420737461636B20706F696E74657276
:102640003A2030782530386C580D0A000040FFF7EA
:1026500000C0F7F75B424F4F545D20496E76616CC6
:10266000696420726573657420766563746F723A6D
:102670002030782530386C580D0A00005B424F4FEF
:10268000545D2056616C69642041524D2061707028
:102690006C69636174696F6E20666F756E640D0A94
:1026A0000000000010B50446FEF7AAF909490968C0
:1026B000401AB0FBF4F104FB110207484FF480719B
:1026C000B2EB540F01D2012200E00022BDE810401D
:1026D000FEF790B9000000200008024060B10B4BEB
:1026E0004FF48071012809D0022809D003280BD1AA
:1026F00001221846FEF77EB9642003E00022F8E7C5
:102700004FF4FA70FFF7CEBF704700000008024098
:10271000FEF784F9FEF768FEFEF70EFEFEF742FEB6
:102720000AA000F05FF814A116A000F05BF81AA050
:1027300000F058F820A000F055F8FEF761F928499C
:1027400008600020FFF7CAFFFFF772FE0D0A3D3D4B
:102750003D3D3D3D3D3D3D3D3D3D3D3D3D3D3D3DA9
:102760003D3D3D3D3D3D3D3D3D3D3D3D3D3D3D3D99
:102770003D3D0D0A00000000562D30312D30312D29
:1027800030300000426F6F746C6F61646572203A84
:1027900025730D0A0000000053544D333246343087
:1027A000355247202D204F544120426F6F746C6F7B
:1027B000616465720D0A00003D3D3D3D3D3D3D3D7E
:1027C0003D3D3D3D3D3D3D3D3D3D3D3D3D3D3D3D39
:1027D0003D3D3D3D3D3D3D3D3D3D3D3D0D0A000006
:1027E000000000200FB44FF4807110B5C0B043ABAF
:1027F0006846429AFEF72EFF0446401EFF2806D286
:10280000A2B24FF0FF3369460348FEF743FD40B0E4
:10281000204610BC5DF814FB1400002000000000EE
:102820000000000001020304060708090000000080
:1028300001020304542800080000002014000000D6
:10284000A816000868280008140000204C040000A6
:10285000B816000800000000010000001000000091
:08286000000000000024F40058
:040000050800018965
:00000001FF
